:020000040800F2
:10000000E804002045010008AD030008F9020008DB
:10001000FD0200088D0100081F1600080000000006
:100020000000000000000000000000008312000833
:10003000DD010008000000003504000895130008E9
:100040005F0100085F0100085F0100085F01000810
:100050005F0100085F0100085F0100085F01000800
:100060005F0100085F0100085F0100085F010008F0
:100070005F0100085F0100085F0100085F010008E0
:100080005F0100085F0100085F0100085F010008D0
:100090005F0100085F0100085F0100085F010008C0
:1000A0005F0100085F0100085F0100085F010008B0
:1000B0005F0100085F0100085F0100085F010008A0
:1000C0005F0100085F0100085F0100085F01000890
:1000D0005F010008351400085F0100085F01000897
:1000E0005F0100085F0100085F0100085F01000870
:1000F0005F0100085F0100085F0100085F01000860
:100100005F0100085F0100085F0100085F0100084F
:100110005F0100085F0100085F0100085F0100083F
:100120005F0100085F0100085F0100085F0100082F
:10013000DFF80CD000F018F8004800474D16000812
:10014000E80400200648804706480047FEE7FEE72F
:10015000FEE7FEE7FEE7FEE7FEE7FEE7FEE7FEE777
:10016000D513000831010008064C074D06E0E06891
:1001700040F0010394E8070098471034AC42F6D3EE
:10018000FFF7DAFF088507082885070800BFFEE7A4
:100190000146114A12884A434FF0E0235A61002277
:1001A0009A611A46126942F001021A6100BF4FF0CB
:1001B000E022106900F001021AB100F48032002A36
:1001C000F5D04FF0E022126922F001024FF0E02357
:1001D0001A6100229A6170471600002070472DE9CD
:1001E000F0410246002500260020002300240027BD
:1001F00091F803C00CF00F0591F803C00CF0100C3F
:10020000BCF1000F03D091F802C04CEA050591F84B
:1002100000C0BCF1000F31D0146800202BE04FF07B
:10022000010C0CFA00F3B1F800C00CEA03069E4280
:1002300020D183004FF00F0C0CFA03F7BC4305FAF2
:1002400003FC4CEA040491F803C0BCF1280F06D16A
:100250004FF0010C0CFA00FCC2F814C00AE091F84F
:1002600003C0BCF1480F05D14FF0010C0CFA00FCA3
:10027000C2F810C0401C0828D1D31460B1F800C0E7
:10028000BCF1FF0F34DD546800202EE000F1080CB3
:100290004FF0010808FA0CF3B1F800C00CEA0306AD
:1002A0009E4221D183004FF00F0C0CFA03F7BC43A0
:1002B00005FA03FC4CEA040491F803C0BCF1280FD2
:1002C00005D100F1080C08FA0CF8C2F8148091F876
:1002D00003C0BCF1480F07D100F1080C4FF0010832
:1002E00008FA0CF8C2F81080401C0828CED35460DD
:1002F000BDE8F0810161704700BFFEE700BFFEE787
:1003000010B586B004460121042000F095F80121C3
:10031000880300F091F84FF40070ADF8140003204A
:100320008DF8160018208DF8170005A91D48FFF755
:1003300056FF4FF48060ADF8140004208DF81700CC
:1003400005A91848FFF74BFF01940020ADF80800FD
:10035000ADF80A00ADF80C00ADF810000C20ADF8B7
:100360000E0001A9104801F0E9F801210E4801F042
:10037000AEF840210C4801F0A1F820210A4801F014
:100380009DF825208DF8000002208DF80100032043
:100390008DF8020001208DF80300684600F008F88F
:1003A00006B010BD00080140003801407047000051
:1003B00070B5002100230F22C47804B3154C2468C3
:1003C00004F4E064C4F5E064210AC1F10403CA4006
:1003D000447804FA03F184781440214309010E4C57
:1003E0000678A155047804F01F050124AC40057877
:1003F0006D11AD0005F1E025C5F8004109E0047874
:1004000004F01F050124AC40044D0678761145F830
:10041000264070BD0CED00E000E400E080E100E06B
:1004200002490143024A1160704700000000FA05CA
:100430000CED00E07047000029B1064A92690243C2
:10044000044B9A6104E0034A92698243014B9A612A
:10045000704700000010024030B500210022002447
:1004600000232D4D6D6805F00C0121B1042905D044
:10047000082923D105E0294D056022E0274D0560BC
:100480001FE0254D6D6805F47012234D6D6805F46D
:100490008034022505EB92421CB9214D554305607D
:1004A0000BE01D4D6D6805F400351DB11C4D554325
:1004B000056002E0194D5543056002E0174D0560E7
:1004C00000BF00BF144D6D6805F0F0010909154D1E
:1004D0006B5C0568DD4045600F4D6D6805F4E061BB
:1004E000090A104D6B5C4568DD4085600A4D6D68FA
:1004F00005F46051C90A0B4D6B5C4568DD40C56071
:10050000054D6D6805F44041890B074D6B5CC5686E
:10051000B5FBF3F5056130BD0010024000127A0012
:1005200000093D000000002010000020002107E02D
:1005300042F6E06100BF0A1EA1F1010399B2FAD1AF
:10054000021EA0F1010398B2F2D1704721B10288D6
:1005500042F04002028004E002884FF6BF731A4066
:10056000028070470246002013890B400BB1012026
:1005700000E0002070478181704710B5002202889A
:1005800002F441520B884C8823438C882343CC8847
:1005900023430C8923434C8923438C892343CC89EF
:1005A00023431A430280838B4FF2FF7423408383DB
:1005B0000B8A038210BD10B50446552000F0ACFD37
:1005C000A1780901627841EAC21122781143C8B2C8
:1005D00000F0BDFD10BD2DE9F84F06460F4614464C
:1005E0001D46DDE90A9AA01BE91B00FB01FB681E02
:1005F00083B2601E82B239463046CDF800A000F0CA
:10060000C6FD4FF0000804E0484600F097FD08F1F1
:100610000108D845F8D3BDE8F88F000008B50121DE
:100620000420FFF709FF0220ADF8000010208DF82C
:10063000030003208DF8020069461548FFF7CFFD3F
:1006400002211348FFF756FE0420ADF800001020E9
:100650008DF8030003208DF8020069460C48FFF76F
:10066000BEFD04210A48FFF745FE0820ADF8000052
:1006700010208DF8030003208DF80200694604481D
:10068000FFF7ADFD08210248FFF734FE08BD00006A
:1006900000080140F8B504460D4616461F462B4695
:1006A000224629462046009700F071FD304600F0B2
:1006B00045FDF8BD10B5FFF7B1FF00F0C3FC00F039
:1006C000ADFC112000F028FD7820FFF761FD00202F
:1006D00000F043FD3A2000F01FFD552000F037FDEB
:1006E000B22000F019FD0C2000F031FD0C2000F0CC
:1006F0002EFD002000F02BFD332000F028FD3320DC
:1007000000F025FDB72000F007FD752000F01FFD6B
:10071000C22000F001FD012000F019FDC32000F00F
:10072000FBFC162000F013FDC42000F0F5FC202097
:1007300000F00DFDC62000F0EFFC0F2000F007FDDB
:10074000D02000F0E9FCA42000F001FDA12000F081
:10075000FEFCD62000F0E0FCA12000F0F8FCBB205D
:1007600000F0DAFC3B2000F0F2FCE02000F0D4FCCA
:10077000F02000F0ECFC0B2000F0E9FC112000F070
:10078000E6FC0E2000F0E3FC0D2000F0E0FC192058
:1007900000F0DDFC362000F0DAFC332000F0D7FC5E
:1007A0004B2000F0D4FC072000F0D1FC142000F016
:1007B000CEFC142000F0CBFC2C2000F0C8FC2E2036
:1007C00000F0C5FCE12000F0A7FCF02000F0BFFC29
:1007D0000D2000F0BCFC122000F0B9FC0B2000F052
:1007E000B6FC092000F0B3FC032000F0B0FC32207E
:1007F00000F0ADFC442000F0AAFC482000F0A7FC6B
:10080000392000F0A4FC162000F0A1FC162000F016
:100810009EFC2D2000F09BFC302000F098FCE42092
:1008200000F07AFC252000F092FC002000F08FFC04
:10083000002000F08CFC212000F06EFC292000F04C
:100840006BFC2C2000F068FC10BD00002DE9F04F7F
:1008500085B080468A4617469B460F9D0020039030
:10086000CDF80480284605EBD071C1F3470420463B
:10087000E21704EB5272D2102146E31704EB5373D4
:10088000DB10A4EBC3030BB1012300E000231A44E7
:100890006A4392B20292A7F12000C7B21198009069
:1008A0000AEB0500401E83B208EB0400401E82B232
:1008B0005146404600F06BFC00266BE00C2D07D142
:1008C00007EB4700364901EB8000805D04901CE097
:1008D000102D05D1334800EB0710805D049014E023
:1008E000182D07D107EB47002F4901EB0010805D61
:1008F00004900AE0202D05D12C4800EB8710805D84
:10090000049002E005B0BDE8F08F4FF000093BE035
:100910001098C8B9012000FA09F00499084018B1EC
:10092000584600F00BFC02E00E9800F007FC03981C
:10093000401CC0B20390039890FBF4F104FB11003B
:10094000F0B90020039022E0012000FA09F0049998
:10095000084028B15A4651464046119BFFF79AFE7F
:1009600008F101001FFA80F80198A8EB0000A042EE
:1009700006D1DDF804800AF101001FFA80FA06E0D2
:1009800009F1010000F0FF09B9F1080FC0DB00BF59
:10099000701C86B20298864290DB00BFB2E700006E
:1009A000E4490708584E070848540708186607081E
:1009B0002DE9FF5F81468A4690469B460FACD0CC1E
:1009C0000E9D3BE00C2C0AD15B4642465146484600
:1009D000CDE90267CDE9005400F036F828E0102C8C
:1009E0000AD15B46424651464846CDE90267CDE909
:1009F000005400F0D3F81BE0182C0AD15B464246A5
:100A000051464846CDE90267CDE9005400F066F949
:100A10000EE0202C0AD15B46424651464846CDE9BD
:100A20000267CDE9005400F003FA01E0BDE8FF9F42
:100A300008F1020809EB04001FFA80F998F8000099
:100A40000028BFD100BFF1E72DE9F04F85B0064681
:100A5000894692469B460F9C0020049001962046B2
:100A6000E21704EB5272D2102146E31704EB5373E2
:100A7000DB10A4EBC3030BB1012300E000231A44F5
:100A8000624392B202920520039000257CE005EBC0
:100A9000850000EBC500404911F810009AF80010DD
:100AA00088426ED105EB850000EBC5003A4901EBA9
:100AB000400040789AF80110884262D11198009065
:100AC00009EB0400401E83B23019401E82B2494631
:100AD000304600F05CFB002750E04FF0000847E094
:100AE000109808BB05EB850000EBC5002A4901EB17
:100AF0004000801CC05D012101FA08F1084018B1D6
:100B0000584600F01BFB02E00E9800F017FB04981B
:100B1000401CC0B20490049890FBF4F104FB110057
:100B200010BB0020049026E005EB850000EBC5001B
:100B3000194901EB4000801CC05D012101FA08F158
:100B4000084028B15A4649463046119BFFF7A2FD9E
:100B5000701C86B20198301AA04205D1019E09F19D
:100B600001001FFA80F906E008F1010000F0FF081B
:100B7000B8F1080FB4DB00BF781CC7B202988742F7
:100B8000ABDB00BF681C85B203988542FFF67FAFE0
:100B900005B0BDE8F08F0000D87D07082DE9F04FC3
:100BA00085B00646894692469B460F9C00200490DD
:100BB00001962046E21704EB5272D2102146E31749
:100BC00004EB5373DB10A4EBC3030BB1012300E070
:100BD00000231A44624392B202920520039000253A
:100BE00074E005EB05103C4911F810009AF800106C
:100BF000884268D105EB0510374901EB4000407889
:100C00009AF8011088425ED11198009009EB040017
:100C1000401E83B23019401E82B24946304600F071
:100C2000B6FA00274CE04FF0000843E01098F8B9FE
:100C300005EB0510284901EB4000801CC05D012137
:100C400001FA08F1084018B1584600F077FA02E0BE
:100C50000E9800F073FA0498401CC0B204900498F7
:100C600090FBF4F104FB110000BB0020049024E091
:100C700005EB0510184901EB4000801CC05D012107
:100C800001FA08F1084028B15A4649463046119BFE
:100C9000FFF700FD701C86B20198301AA04205D102
:100CA000019E09F101001FFA80F906E008F1010038
:100CB00000F0FF08B8F1080FB8DB00BF781CC7B21E
:100CC00002988742AFDB00BF681C85B2039885425B
:100CD00087DB05B0BDE8F08F5A7E07082DE9F04F9D
:100CE00085B00646894692469B460F9C002004909C
:100CF00001962046E21704EB5272D2102146E31708
:100D000004EB5373DB10A4EBC3030BB1012300E02E
:100D100000231A44624392B20292052003900025F8
:100D20007CE005EB850000EB4510404911F8100010
:100D30009AF8001088426ED105EB850000EB451053
:100D40003A4901EB400040789AF80110884262D19C
:100D50001198009009EB0400401E83B23019401E28
:100D600082B24946304600F012FA002750E04FF0B8
:100D7000000847E0109808BB05EB850000EB451024
:100D80002A4901EB4000801CC05D012101FA08F1F5
:100D9000084018B1584600F0D1F902E00E9800F072
:100DA000CDF90498401CC0B20490049890FBF4F173
:100DB00004FB110010BB0020049026E005EB850029
:100DC00000EB4510194901EB4000801CC05D01217A
:100DD00001FA08F1084028B15A4649463046119BAD
:100DE000FFF758FC701C86B20198301AA04205D15A
:100DF000019E09F101001FFA80F906E008F10100E7
:100E000000F0FF08B8F1080FB4DB00BF781CC7B2D0
:100E100002988742ABDB00BF681C85B2039885420D
:100E2000FFF67FAF05B0BDE8F08F0000047F070834
:100E30002DE9F04F85B00646894692469B460F9CA9
:100E40000020049001962046E21704EB5272D21063
:100E50002146E31704EB5373DB10A4EBC3030BB180
:100E6000012300E000231A44624392B20292092057
:100E70000390002574E005EB85103C4911F8100043
:100E80009AF80010884268D105EB8510374901EBCC
:100E9000400040789AF8011088425ED11198009085
:100EA00009EB0400401E83B23019401E82B249464D
:100EB000304600F06CF900274CE04FF0000843E0AA
:100EC0001098F8B905EB8510284901EB4000801C0B
:100ED000C05D012101FA08F1084018B1584600F040
:100EE0002DF902E00E9800F029F90498401CC0B2D8
:100EF0000490049890FBF4F104FB110000BB002067
:100F0000049024E005EB8510184901EB4000801C9B
:100F1000C05D012101FA08F1084028B15A4649464E
:100F20003046119BFFF7B6FB701C86B20198301A51
:100F3000A04205D1019E09F101001FFA80F906E0E7
:100F400008F1010000F0FF08B8F1080FB8DB00BF9E
:100F5000781CC7B202988742AFDB00BF681C85B21D
:100F60000398854287DB05B0BDE8F08F76800708DF
:100F70002DE9F84F0746884615461E46DDF82890AD
:100F80000B98009008EB0600401E83B27819401EB3
:100F900082B24146384600F0FAF80024A24618E032
:100FA0004FF0000B0FE019F8140000F0D0F8012109
:100FB00001EB440119F8010000F0C9F8641C0BF1C1
:100FC00001001FFA80FBAB45EDDB0AF101001FFABF
:100FD00080FAB245E4DBBDE8F88F2DE9FF5F0646F5
:100FE0000F4614469846DDE910ABDDE90E9510E09A
:100FF000CDE902ABCDE9009522784346394630462B
:10100000FFF724FC284605EBD07106EB61018EB298
:10101000641C20780028EBD1BDE8FF9F10B50020AC
:10102000064908606420FFF7B3F801200449C1F8BD
:1010300084016420FFF7ACF810BD00008401214258
:101040000000214200B587B0012141F20400FFF702
:10105000F3F92020ADF8180003208DF81A001820AD
:101060008DF81B0006A91C48FFF7B9F820211A4883
:10107000FFF740F98020ADF8180006A91648FFF7E1
:10108000AEF880211448FFF735F94FF44040ADF831
:1010900004004FF48270ADF806000020ADF808009F
:1010A0000220ADF80A000120ADF80C004002ADF8B6
:1010B0000E000820ADF810000020ADF81200072047
:1010C000ADF8140001A90548FFF757FA01210348BC
:1010D000FFF73CFA07B000BD0008014000300140B6
:1010E00010B5044600200A49086000BF02210948E3
:1010F000FFF738FA0028F9D021460648FFF73BFAF7
:10110000012000F09DFA01200149086010BD000097
:101110008C0121420030014010B5044600200549F1
:1011200008602046FFF7DCFF01200349C1F8880171
:1011300010BD0000880121420000214210B5044684
:101140002012FFF7CDFFE0B2FFF7CAFF10BD10B5C8
:1011500004462046FFF7C4FF10BD10B504463620F4
:10116000FFF7DAFF1CB90020FFF7F1FF0EE0012CBA
:1011700003D1C020FFF7EBFF08E0022C03D1702061
:10118000FFF7E5FF02E0A020FFF7E1FF10BD2DE92A
:10119000F04104460D4616461F46DDF81880B8F1AA
:1011A000000F19D12A20FFF7B7FFA0B2FFF7C6FF43
:1011B000B0B2FFF7C3FF2B20FFF7AEFF05F114011C
:1011C00088B2FFF7BBFF07F1140188B2FFF7B6FF43
:1011D0002C20FFF7A1FF52E0B8F1010F19D12A200E
:1011E000FFF79AFFA0B2FFF7A9FFB0B2FFF7A6FF83
:1011F0002B20FFF791FF05F1140188B2FFF79EFF46
:1012000007F1140188B2FFF799FF2C20FFF784FF44
:1012100035E0B8F1020F19D12A20FFF77DFF04F164
:10122000140188B2FFF78AFF06F1140188B2FFF7B4
:1012300085FF2B20FFF770FFA8B2FFF77FFFB8B242
:10124000FFF77CFF2C20FFF767FF18E02A20FFF74D
:1012500063FF04F1140188B2FFF770FF06F1140177
:1012600088B2FFF76BFF2B20FFF756FFA8B2FFF7FE
:1012700065FFB8B2FFF762FF2C20FFF74DFFBDE816
:10128000F081704710B500F001F810BD0CB50020DA
:10129000019000903348006840F480303149086084
:1012A00000BF3048006800F4003000900198401CF6
:1012B0000190009818B90198B0F5A06FF1D12948B4
:1012C000006800F4003010B10120009001E000201F
:1012D00000900098012843D12348006840F0100096
:1012E000214908600846006820F0030008600846AD
:1012F000006840F0020008601A48406819494860D8
:101300000846406848600846406840F4806048608D
:101310000846406820F47C1048600846406840F465
:10132000E81048600846006840F08070086000BF20
:101330000C48006800F000700028F9D009484068A7
:1013400020F00300074948600846406840F002006A
:10135000486000BF0348406800F00C000828F9D13D
:101360000CBD00000010024000200240042808D1FB
:101370004FF0E021096941F004014FF0E0221161D2
:1013800007E04FF0E021096921F004014FF0E0226D
:10139000116170477047000010B504466FF00400FB
:1013A000FFF7E4FFE11704EB5171C1F3C701074AEE
:1013B00011701046007800EB4001C1EBC0104FF6F1
:1013C000FF7101EAC0000249088010BD140000202E
:1013D0001600002010B51348006840F001001149C4
:1013E000086008464068104908400E4948600846B1
:1013F00000680E4908400B4908600846006820F460
:10140000802008600846406820F4FE0048604FF4E1
:101410001F008860FFF736FF4FF000600449086046
:1014200010BD0000001002400000FFF8FFFFF6FEB4
:1014300008ED00E010B540F225511D4800F053F8CA
:1014400010B31B4800F0E6F8C4B21A48008800F454
:101450000040C8B91748008800F4804060B10A2CE9
:1014600003D000201349088020E01248008840F48F
:1014700000401049088019E00D2C06D10D48008865
:1014800040F480400B49088010E00A480088C0F30F
:101490000D0009490C5407480088401C0549088084
:1014A00008460088C72801DD0020088010BD000024
:1014B00000380140180000201C00002001F40072D8
:1014C000B2F5007F00D100BFCA430280704721B14E
:1014D000828942F40052828104E082894DF6FF73D2
:1014E0001A408281704770B502460024002300250F
:1014F000002040F66A16B14200D100BFC1F3421588
:1015000001F01F03012606FA03F3012D02D196898B
:10151000334006E0022D02D1168A334001E0968A5C
:1015200033400C12012606FA04F41688344013B135
:101530000CB1012000E0002070BD00002DE9F04753
:1015400086B005460E460024A24600BFA1460027ED
:10155000B08900B100BF2F462C8A4CF6FF700440C2
:10156000F08804432C82AC894EF6F3100440B08816
:1015700031890843718908430443AC81AC8A4FF632
:10158000FF400440B0890443AC8201A8FEF764FF29
:101590001F48874202D1DDF810A001E0DDF80CA061
:1015A000A88900F4004040B10AEBCA0000EB0A1021
:1015B00031684900B0FBF1F807E00AEBCA0000EB24
:1015C0000A1031688900B0FBF1F86420B8FBF0F034
:1015D00004012009642101FB1089A88900F400405E
:1015E00040B1322000EBC900B0FBF1F000F0070081
:1015F000044308E0322000EB09106421B0FBF1F055
:1016000000F00F0004432C8106B0BDE8F087000015
:101610000038014001468888C0F30800704700BFC9
:10162000FEE702E008C8121F08C1002AFAD170477D
:101630007047002001E001C1121F002AFBD1704752
:1016400000BF011EA0F10100FBD1704786B001214F
:101650004FF48470FEF7F0FE10208DF81400012086
:101660008DF815000B208DF816004820FFF794FE2A
:101670004FF4A060FEF7D4FE4FF4E130FEF740FED9
:10168000FFF718F805A8FEF796FF52E000204FF686
:10169000FF714FF48C73F022CDE900100146FEF784
:1016A0009AFF00202349F023B422CDE9001028211D
:1016B0001E20FFF75DFC41F28830FEF737FF002067
:1016C0004FF6E0714FF48C73F022CDE90010014623
:1016D000FEF781FF002020224FF6FF73CDE90120A5
:1016E000009303904FF4784313A20146FFF760F98B
:1016F000002010224FF6FF73CDE9012000930390E4
:101700004FF478430EA201464020FFF766FC00200C
:1017100020224FF6FF73CDE90120009303904FF490
:1017200078430AA22021FFF758FC41F28830FEF7E7
:10173000FDFEABE744AE0108DFD9D5BE00000000D6
:1017400055503A53616E676B2D4875005151717554
:101750006E3A36393033363730393500101000D90B
:1017600000F0011B632B83EE4A48A4F28C0F6B2C14
:101770004A68738DA5137BEE4A484207738C8C50E0
:10178000AD53B5B573AD6B6C7BCD9CF2844F842F9C
:10179000A5339CF29CD29CF284509CF273AD3185AF
:1017A000842F39E6A5129D12AD53844F8C907BCDCA
:1017B00052A952A9A53373CD73ADA553B5D57BEE10
:1017C000B5949CF19CB083ED8C6F9CF2842F9CF2BD
:1017D00094D194B1840EB5B4B5B44246A532844ECA
:1017E0008C8F73ACC6169CF1634A6B6ABDF594B0DE
:1017F000A553844F94915AEAAD746B4B8C704A6830
:10180000A533632B4A885AEA9CF2A533AD748C91B8
:101810008C70A53394B1842F9491A55373AD94919A
:101820005B0A8C6F9490AD93AD73840E632B9D1205
:10183000A53373AD632B8C70738D73AC632B7C0EEF
:101840009CF27BEE636BA4F28C0F8C6F736C7BADA0
:10185000947094916B4C8C50AD33A512A4F1BDD50E
:101860006B4A52686B2B6B4B6B2B630B630B83EEDA
:101870007BCE7BCE4A278C2F94709CD1A4F14A4614
:101880005AA86B4B4A47738C840ECE57630ACE36E8
:101890007BAC94908C2EBDB4C616D6986B4B7BCE89
:1018A00083EE9CB1A4F2420694708C2F8C507BCEB8
:1018B000840EAD32632A9CB09CD06B4A7BCDB5942C
:1018C0005288A51273AC5AC973AC840E9CD1BDD595
:1018D0005AE9842EAD935AE9CE56AD53948FAD5349
:1018E000630A6B6BAD739CB0A4F17BCDC5F5946FAF
:1018F000CE36E6F9AD32946F4226AD32AD53738CDD
:101900009490738CAD32B5B4A4F1842EA5119CF1E2
:10191000C5F5CE77840E94D194B1A4F2AD337BADEE
:101920009470B5747BADB595630A840E842F9CD2F8
:10193000BDF6B594A533BDF69D12CE787BEE73ADA2
:10194000630A5AEA844FB5949491840EC65773ADD6
:1019500094D194919CF2842F7BCEB594AD736B4B54
:101960008C50A533840F842F7BCE73CDB5B57C0E00
:101970007BCDBE1694B0AD538C2F630A738C7C0E56
:101980007BEE7C0EA553632B94B0AD94842EAD7387
:10199000630A94D0CE57630A8C4F9D12AD949D126A
:1019A000632BBDD5BE16AD94AD54634B94908C7033
:1019B00094D1842F8C709CD1738D840EB5953A068A
:1019C000A532BE165AEA9CF1842FB59552897BEE5A
:1019D0008C908C908C709CF2A5329D1273AD738CA0
:1019E000634B8C90BDF6422794D1840E94D1A512FE
:1019F000B554A573B4D0C2EAB38C7BCD7BADA4F251
:101A00008C506B2B6B2BA51383EE6B4BAD73B573A7
:101A10009CB0CE57C616A512AD3383EE94707BAD45
:101A20006B4C8C50BDD68C2FC5F67BAD94709CB0A2
:101A30008C2E5288946F5AA87BCD630A738C8C4F7E
:101A4000946FAD53738CA4F19CD1B5939CB0B594B5
:101A5000AD33738CAD536B4BAD33420662EA83EE0C
:101A60004A27840E9CB07BCDB594C5F5D677AD538F
:101A70009CB0A4F194904226630A946F9CB09CD1D0
:101A8000C616A4D17BAC9CD0AD328C2EC616AD53FD
:101A90008C2E8C4F946F8C2E6B4B4A47630A83EDD0
:101AA00062E9840E526783EDAD537BCDC615CE3609
:101AB0009CB1C5F6A5128C6FB5B4B5B49CD17BAC06
:101AC000946FC61694B0B57373AC94B0B5948C0E85
:101AD000944FCE37B59594707BCDB5B4B5B46B4B00
:101AE00083EECE58A513C63794B1C6167BEEAD5320
:101AF0007BEE73AD6B6CAD749CF24A67C616B5B5E0
:101B0000A533AD744A68DEFA840F5AA9AD336B4B26
:101B1000630A840E9CB1630B8C70842F632B634B20
:101B20008C70844F94D1B5B59CF294B1A553632BBE
:101B3000A533632B8C70AD94C616BDD594D0B5D4A7
:101B400073ACA532B59494D19CF2632B73AD738CB6
:101B500094906B8C4A6794B0C6168C917C0E8C70F6
:101B6000840EAD7494B15AEAC637AD748C709491FA
:101B7000632A9CF0630AA5529CF152A952A9840FD2
:101B80009491842F5AEA6B8DB5947C0EC657AD7430
:101B9000840EAD745AEA6B8C5AEAAD54BDD694D01B
:101BA000C5D5B55461C5E34BE9A4EA476922BD73C5
:101BB000840F4A277BCE947062EABDD69CD162E93D
:101BC000840D7BACB593840E7BAD7BAD5268840FE6
:101BD000738CB5954207B574736CA4F24A276B2BCE
:101BE000A5124A275288A512CE36A4F1A5128C6FF1
:101BF000BDB49CD16B2AC5F5A512EF5A94B0CE5650
:101C000052884206C5F68C4FCE36BDD54A47736C16
:101C1000738D6B2BC5F5C616D677AD32949031A473
:101C2000CE36A4F16B4B9CD162E962E9738CAD5363
:101C30005AA85247CDF65A6894908C2E9CD1B57311
:101C40009CB0738CA4F131A49CF1AD52738C83EDE4
:101C50005288B573946F8C2EB57352888C2ECE57E4
:101C6000CE776B2B7BCDA4F2BDB4842E6309CE3628
:101C70009C90BD9483EDB57339C5842EA532C5F50E
:101C8000A4F1C616AD32C616B574A512BDB59CD169
:101C9000AD33BDD683EEA4F2C617A5338C4F630BCC
:101CA000AD54BDF68C70AD739CD19D11BDF57BCD4F
:101CB0006B4CA5135ACA738D7BEE42279CB1AD5372
:101CC000BDB49CD18C4F7BADAD335ACA6B4C5AC955
:101CD000B5947BCD9CF2BDF6AD749CD19CD194B1F2
:101CE000BDF6949094D1634BA512C6376B8CA512A8
:101CF000842F9D12BE167BEEAD73840EAD94B59409
:101D0000BDF5AD94AD5394D173CD842EAD946B6C71
:101D10008C70AD53BDD68C7073AC844FC6365B09E6
:101D20008C707C0E632A4A68A53273CD73AC8C909C
:101D30008C907BEE8C908C90AD74BDF6AD74842F3E
:101D400073CD844F94B15AEAB594840FA5339CD2D5
:101D5000732C73CDB42EC9C6F985F9A4F1C4EA87F2
:101D6000CCD0948F8C709D12AD7494B1A4F28C4F32
:101D7000A5139CD1738CAD53738C9CB0AD53CE57CF
:101D800094707BCD9CD2C5F6A4F283EE9470736CF4
:101D90007BCD83EE736C9470CE57A512B594736CA3
:101DA0008C4F9CD19CD1A4F2738C6B2B62EA946F04
:101DB000A4F1738CAD33840F7BAD840ECE57949019
:101DC000BDB5A4F2BDD4B5949CD1B5747BCD526899
:101DD000738C946FAD53C5F573AC73AC9CB0632A30
:101DE000AD737BACB553BD94B5537BAC840D52A998
:101DF000840E7BEDBDF58C2F736CB57494905AC92D
:101E000052886B4BAD539CB17BCDBDD5B57483EE81
:101E1000840E6B2BAD53BDB59CD2842FB595B57494
:101E2000AD329CB0946F5247B5749CB19D11630A5A
:101E3000A4F1736BA4F1AD32D678B5748C2F738C8A
:101E4000AD536B2B52689CD19CD27BEDB5D5AD5375
:101E5000A5127BCEB5B5840E9D12D6B86B4B632B05
:101E600094906B4C9CF28C505ACA9CD2BDD6B595BE
:101E70008C2FBDB5738C7BCD8C2FBDD56B4CAD330A
:101E8000738C9CD27BEE6B6C73CD422794B19CD14A
:101E9000632B632B7BEE4A479D12A5535AEABDD5AF
:101EA000CE77AD947BEE8C4FBE164A472984BDD5C4
:101EB0007BCD8C4F73AD738C52CA52888C6F94B0AB
:101EC000AD749490AD7394D1BDF68C6F7BED94B0EE
:101ED0005AE973AC42265AE994B08C6F7C0EB5D5A2
:101EE0006B4B7BEE73AC52A9844FA553840E842FA9
:101EF000634B7BEDB5B59CF2AD748C909D1241E6C1
:101F00008C2F6BAC8AC7E965F123F983F1A2F1C389
:101F1000F9C4E266C48E7BED7BCE5AEA5AC96B4B9C
:101F2000B5749470840F52679CD194906B4BCE37EC
:101F30008C4FCE37BDD69470840FB594A4F29CD14B
:101F4000B594AD53AD3352886B2B736C9CB19470C8
:101F50009CB1B5749CB1A4F28C2F736C736CB59466
:101F6000AD53C6164A47A51239C54A47736C9490BB
:101F70005288B5744A4794B05AC9BDD5630A6B2BD1
:101F8000AD538C2F6B2A5AA8948F840E94706B4B90
:101F9000632A5AE962C9630A738CAD32B5945268F8
:101FA0007BEE632A9CD18C907BAD949183EE41E6CD
:101FB00041E69470738C83EE4206BDD5A4F2CE3711
:101FC00083EE947052889CB1DED9AD5494B19CB12B
:101FD0006B0A9470A4F2BD945A88BD946B0A6B6B23
:101FE0004A265288D657C6169CB083EE7BCD62EA4D
:101FF000A4F2BDB57BADA4F1BDD5946FA5327BED48
:102000009CD1BDD6A512632B840E8C6F73ACAD53DF
:1020100094B0A5126B4C840FA5335AEA840F39C6CD
:10202000B574738CC5F59CB18C4F9470630A7BCEEC
:10203000A4F29490B5B5DF1AD6B95AEA8C704A6802
:102040007BEE842F840E8C4F7BEE94D18C706B6C66
:102050006B6CBDF5B5B5AD7352A973AC7BEE214386
:102060005B0A4A88630A94D1AD7439E74A67AD7355
:102070004227298494D17BED8C6F5B096B8B73CDE8
:10208000B5B4AD73A5535AEA840E8C4F842F8C706F
:102090005AEA94907BEE8C906B6B42267BCD5AC9AA
:1020A000634B5AC95AEABDF6AD5373CDB5D55289C3
:1020B0008C2F9C70FD72F164F923E921F983F96397
:1020C000F1C3F9C4F225DA66BB6B5B0842475AC913
:1020D000946F7BCDAD33736C948F6B2A41E5AD5318
:1020E0007BCD9491947083EE736C630A94704A274D
:1020F0006B2B94907BCD736C4A27738C8C2F8C4FF9
:10210000738CA4F29CB17BCD62EABDB5840E840EC3
:10211000CE57840E8C2EAD537BAD738C738CAD3348
:10212000C6165268BDB54A47B5738C2F83EEA4F22C
:10213000A4F252886B2B39C5630A5AA883EE736CDC
:102140005268842E6B4B8C2E9CD0A512BDB441E6F8
:102150006B2BB595C637AD74949052687BCDEF3B31
:1021600062EAA4F29CD16B4BC61662EABDD6B59565
:10217000CE57A512D6788C2FB594A4F2AD33632B2D
:102180006B2B5A8983CE7B8CA4F29C909CB183EEFE
:102190007BACB573C5F5C5F5A5129CD1AD129CD12C
:1021A000BDF5C616AD339CB1B574AD539490C6164B
:1021B000AD3394908C2F6B2B62EA736C6B4B840E57
:1021C0006B4B52A9738C8C70840F9CF294B18C7001
:1021D0006B6C632B9CF29CD2736C840E9CD18C2F05
:1021E000C6167BCE6B4B9CD1738C738D9491A533AB
:1021F000CE578C4F8C7052A94A68842F6B6C840E1A
:102200006B4BBDD5A5127BCDBDF6A512842F39E64B
:10221000844F52A8AD73738C9CF2842F9CF2A5530B
:1022200094D1AD73840F9CD1AD73B5B47C0EA5125F
:102230008C2F7BCD738CA5329CD1840E94B0844FAF
:10224000AD74842F6B8C4A687C0D844F842EB594BA
:10225000842F94B0632B634B73CD8C90842F630ACF
:1022600073CC632ACBCDD984F903E922F984F984AC
:10227000F9A4F1A3F9E4F1E4FA25E2C8CC2D948F96
:102280008C6F6B6C73AD632B73ACAD32AD52AD53D1
:10229000AD5362EA9CB17BAD8C2F8C2F9470AD5402
:1022A000A5127BCD5AA9630A9CD1736C62EA83EEB6
:1022B000AD53B594B5749490840E738CAD537BCDAF
:1022C0005ACA738C9490736CAD33949062EA7BAD70
:1022D0004A279470A5126B2B9470C5F68C2FB59479
:1022E0009470736C738CB5745AC95AC952886B2B2D
:1022F0006B4B29446B4A946F52A85288C5F65AA971
:10230000AD339CB162EAB5B47BEEA533AD538C2FEF
:1023100083EE8C2F42069470AD537BADA4F3A513CE
:102320008C2F8C2FB574CE36CE57A4F1B573A51172
:102330009CD1736C83EE8C0F94507B8DBDB5944F04
:10234000CE16AD53632A8C6F8C2F8C2F8C6FAD7390
:10235000BDD542489CD19CD2A513AD535268C5F659
:10236000B5945AA97BAD8C4F5AEA7C0FC61794B12D
:1023700042279CF2BDD5A533AD73BDD57BEE8C70E5
:10238000842F8C50AD75AD546B6C5AA9A4F2C5F670
:1023900083EEA512C5F6BDD58C4F422794909CF2D2
:1023A000738DB5B5632BBDF67BCE7BCD738C8C70F6
:1023B000A533632B5AEABDD57BCDAD74BDF65288EB
:1023C000632B94D1AD74BDD5632BAD94B5B59CD1C1
:1023D000AD73632B52C96B6C842FA5537BEE844F76
:1023E00094B0630AA5329490738CAD74AD53738C22
:1023F0006B4B7C0E632B4A687C0E7BCD8C70A533B7
:102400004A88BDD59CD18C909D128C4F840E9D53D3
:1024100094B13163AA26F945F944F0E2E102F1638F
:10242000F984F984F9C4F9C4FA25FA04FA66EAA72A
:102430007A6652EB3A27840E73AD94B19CD1949096
:10244000B5746B2B83EE5AC95AA89CB07BED7BAD5B
:10245000738C736C8C2FAD5362EAA5126B4B6B4B74
:10246000840E840EAD539CB18C2F6B4BA5127BADAB
:102470005ACA6B4C8C2F7BAD9CB19490DED9C5F6BB
:10248000A4F2736C52898C2FB5745288736CA512A8
:10249000840EA511630AA4F29490CE57A4F2C61636
:1024A0005AE9840F83EE5AC98C2EBDB441E69CB123
:1024B00029439470C5F683EE52C96B4B52A98C50D8
:1024C0009CB19CD17BAD5AC98C2F7BCE736D94711E
:1024D0007BCDCE37AD3362EAC5F6AD739CD1738C3C
:1024E0009CD1632AA512BDB5A4F2BD746B2BCE3767
:1024F000BDB56B4B632AB594A552736C6B2BAD5372
:10250000A5329D128430BDD69CD294B17BADA5126C
:10251000AD53C5F6B574C5F6C5F68430A5557BCE6A
:102520009CD273AD8C7073ADB5B59CD14A675AEA35
:10253000AD744A896B8CA5349CD2B595B5959491B0
:102540006B4B83EE9CD17BCDA533AD746B4B738C01
:10255000A533AD53842F840FAD748C705ACA7BCDD4
:102560009CD1AD537BCD6B6C8C4F94B19CF26B4B7B
:10257000A533A533C6165AC97BCD7BEE6B8C738C05
:10258000B5D5844FBE1694B1634C42277BEE94D1EF
:102590005B0A9CD17BCCBDB4632A94B17BCD949073
:1025A00073AD632B840E632C9CF28450A533AD94E1
:1025B000842F73AD844F6B6C94B07BED738C9CF265
:1025C0005AC9830CBA27F144F123F963F143F92383
:1025D000F163F984F984F9A4F9E4FA04F9E4FA045A
:1025E000FA86CA6692A7734B5AEA7BEE94B19CD2E4
:1025F000B57483EE7BAD94909CF15AC98C4FD698FC
:102600008C4FA53283EE83EEC5F6528883EE8C2F75
:10261000AD337BCD738C8C4FA512BDD59490A51294
:102620009CD1B5748C4F947094909CB1630A630BE9
:10263000AD535AA962EA738C94909490B594738BBD
:1026400063097BAC4A466B2B8C4F9CD1A4F2B594AA
:10265000840EA4F1947039A594908C4FC6166B4BE0
:10266000C6167BAD9490AD33BDB5632A8C70B5B4FE
:102670008C507BCE94906B2BB5943164734C630B70
:10268000736D5AC9736CB573AD33630A62E9A512F1
:10269000C5F5AD32842E8C2F6B2BCE1694509CB189
:1026A000947039C5B553CE77840DAD53738C8C4F70
:1026B00094905AA994708C70B5B54A689CD2840FD6
:1026C0008C50BDF6840FAD33BDB539C694914A69BF
:1026D000738DB5958C50840FB5B573AD9CB15AC947
:1026E000AD538C704227840F5AEA94B1AD548C30AC
:1026F0009CF2BDF6A4F2AD338C509470A4F26B4CF6
:10270000736C6B2B4A277BAD7BCD5AA96B2B83EE69
:1027100094915289736C6B4C7BCEB574AD54AD33D0
:1027200094707BCD94B1738C5AC9632BAD74C6374A
:102730005AEA632B4A68A532B5B4632B630B73AEB8
:10274000840E842E844F8C7094B0AD73738C6B4B5D
:102750006B4B94B1840E842F5AC994B1B5B5BDF6B4
:10276000840E73AD8C4F420652A97C0D4A8952C922
:10277000736C7AEAD1E7F984F123F122F963F94322
:10278000F943F963F983F983F9C4F9C3F9E4F9E486
:10279000FA24FA45FA65E24671E56AC9BD9452A980
:1027A0007BCDA5327BAD738CB5948C2FA512947024
:1027B000A5326B4B736C9490630AB574738C9490D0
:1027C00062EA840E8C2FAD334206AD539CB139C5FD
:1027D0007BADB59452686B4B630AA4F2BDB5A4F20D
:1027E0005AC994709CD18C2F83EE5AA95AC8C5F54A
:1027F000B5947BCDBDD58C6F7BCD946F8C4F947091
:102800006B4BB574C5F6738C840EAD535268A4F24D
:10281000CE56BDD5524839A5A512BDB5AD33294315
:102820003A06840E7BCD42279470C5F6C5F6949186
:102830009CD2AD5462EA736CAD54AD54AD538C2F41
:102840009CD1B5747BADC5F69CB183EE62CA7B8C1E
:10285000A512AD53B5959490D677CE57A4F1AD336C
:10286000BDD5BDD5AD54842F9D13BDF6BDF66B6CA3
:10287000632BB5B5738DC5F6736C9CB18C2FA51306
:10288000B5B68C71BDD66B4C7BEDBDF5842E5AC9A7
:10289000840FC617B574840F7BCE630B842F4A89CF
:1028A0007BEE39E6BDF69CD1C5F69CB1840EB574BD
:1028B000B57483EE949094919CD2840F5AC9736C32
:1028C000738DA5139CD28C4FBDD6840ECE58B57493
:1028D000A5128C2F8C4FC6168C7094B1A533A533DE
:1028E000BDD59CD17BCD4A888C70632B94D173CDA0
:1028F0009D1252889CD1AD94AD747C0E9CF24A67B7
:102900008C70840E840EA533632A42277BCD840EFF
:10291000844FAD5394B1AD947BEDAD535AC99CD265
:10292000944FAB4CE165F123F943F964F143F14273
:10293000F963F963F963F983F983F9C3F9C3FA0415
:10294000F9E5FA05F205FA65FA45EAA6C44F62EB25
:102950006B2A94906B2B94708C2F6B2B736C840E62
:102960008C2F738C6B4BAD336B4B5AC95AC9736C3C
:10297000A4F25AC98C2F8C2F736C9470C6168C4F8E
:102980009CD1738C8C4F630BB574CE5739C5B594FD
:10299000BDD56B4B5ACAB574A512840E9490AD5335
:1029A0005AE9AD329CF19490B594C616D698C615E6
:1029B0009CB162EA4A27A5126B8C844FBDD57BCDB2
:1029C0008C2F83ED6B4B4A27738C8C4F42277BCD2A
:1029D0004227A5336B4B9CD1420694908C4FA4F2B6
:1029E0009CB2949142076B4C94916B2BC5F6B594B5
:1029F0007BCD840E8C4F630AC5F65AC9BDB5AD3385
:102A0000B553840EBDD54A27B5745247B573A4D1CA
:102A10009490BDD5840EAD33CE574A89A53394B179
:102A2000AD5494B19CD19CF2BDD69470AD54AD34EC
:102A300052AA422894B2AD548C50D698CE5773CD3A
:102A4000840EA4F262EB7BADC5D6A4F2AD74842FE4
:102A500094918C30738C7BCD8C2F8C4F738C840E27
:102A60004A47BDB5BDB59470BDD5630B94706B4C32
:102A7000B595AD547BCE8C4F9CB1AD538C506B4C07
:102A80008C4F94708C2FB5946B6C9CD1630A94B16D
:102A9000B5B57BCDB5B5A5124A6773CD840F8C70E3
:102AA0009D1242464A47844F632B840E9CD173CDBE
:102AB0005AEA6B6B9CF2AD749CF2738C6348842D64
:102AC00094907C0E94D1D6B97BCDA5119D11AD7497
:102AD00072C9A2A7D0E3F102F904F923F123F96343
:102AE000F943F142F943F963F983F983F9A3F9A3AF
:102AF000F9C3F9E4F204F204F245F225FA25DA45C5
:102B0000E4D052275AA98C2F8C2FAD5394705AA918
:102B1000738C9CD19CD1A4F28C4F9470AD53736C88
:102B2000A4F2630A9490630AA5129CD183EE6B4BC6
:102B30006B2B8C2F94709470840F8C4FCE37630A5C
:102B4000B594949083EEBDB5A512AD32C616AD52C4
:102B5000C5F5B5739490B594B573DED96B4B630A24
:102B6000B573BDD5AD539CD18C2FA51252E952C976
:102B7000842E736C9CB18C2F7BAD840E4A689D12A1
:102B8000736C632B738C840E738C630A94909CB16A
:102B900052898C2F62EA630B947062EA41E68C2FB3
:102BA0005AA983EE738C8C2FC616B594AD53B574A9
:102BB000A4D17BCCBDD4D678A4F2C6174226632A12
:102BC0005AEABDB5840EB59483EEBDD594918C5070
:102BD0009CB14A48738C5AC95AC9840F5289630BF5
:102BE0005288C5D67BCE8C51738D840F840ED6B996
:102BF000A5339CB194709471840F31857BCD39C617
:102C00005268BDB67BEE6B4CBDF6C6169CB1B59452
:102C1000947083EEAD535AC9949083EEAD54947082
:102C2000B5948C4FAD339CB1BDB5B5745ACAAD7473
:102C30006B4CA5139470840EAD54840E4A887C0EA0
:102C4000632B842FB5D542278C70738D94D1738CF0
:102C5000AD74B5B58C706B8C6B4BAD94842FAD534C
:102C600073AD630A73AD632A6B4B9CD0AD729D0E3E
:102C70009D2E7C0E7BCD9CF2A5329D1173AC840DF4
:102C80007BCDDC0EF165E8E2F102F943F964F14332
:102C9000F922F984F142F142F963F983F963F9A366
:102CA000F9A3F9E4F9C4F9E4FA25FA04FA45F2249F
:102CB000F204EA67ED118BCCA5339CF28C2FAD3377
:102CC0009CD1B5948C2F62EA83EE83EE83EE8C4F19
:102CD000BDB5B594C616949052887BAD5AA9CE372F
:102CE0009CB1738C6B4BA5128C2F840EC5F69490FF
:102CF0006B4B7BCE4A27B574BDD583EE946FB594EC
:102D0000BDD5A512A512B5749CB1AD339490AD5349
:102D10008C2F630A62EA8C4F94906B6C73CD7BCDE1
:102D200073AD8C709490B594842E52C8632B9CF232
:102D3000738C5AC9A512BDF6AD538C707BCD630A56
:102D4000949083EEC637BDF6A513B5748C50736CA2
:102D50008C504A27BDB5A51362EA738C9CB17BAD3C
:102D6000AD1383EDAD32B5948C509CD1AD3331842D
:102D700073AD94909CB1BDB5BDB5D67894917BCE22
:102D8000C617630BA5129470630A73ACAD53BDB53F
:102D90007BCD94709CB2738DC6175289738DC637E4
:102DA0005AEA8C705288A4F28C0F840F630A420690
:102DB0006B2BBDB69CD25ACA738D9CF294909CB179
:102DC00062EAA4F2C5F6BDD6CE37CE379CD16B4BA6
:102DD0007BAD9CB1A5138C2FAD544A6852A9AD743C
:102DE000632B7BCE6B4CB595B594BDF6A553A5135F
:102DF0007BEE844FA5139D32BE168C4F5B0A73ADDC
:102E0000840F94D16B6C5AEA7BEE844F94D18C8FF3
:102E100073AC5B0973AD6B8C5B0AB594738C83EDFB
:102E2000844B8CAC94CF6B6C738C7BEDAD93630A4D
:102E30008C0EDB6CF945F943F964F944F123F14355
:102E4000F983F122F943F963F983F962F983F962AD
:102E5000F163F9A3F9E4F9E4FA04FA04FA24F1E4D9
:102E6000F204F224FA26EAA7DC0E7B2D736C52687A
:102E70004A479CD1AD33736CA4F29CB1AD536B2B1C
:102E80009CB19490736C738C736C630A83EEA4F2A0
:102E9000AD536B2B7BCD7BCD7BCD9490840EA4F278
:102EA0009470B5748C2F7BAD630AB594A4F2630B58
:102EB00052687BAD8C4F8C4F9490A512840ED678BF
:102EC0007BAD52689CB16B2B738C7BCD4A67B5B4DC
:102ED0007BCD94908C4F7B8CB573946FA552B5B518
:102EE00094B1BDD59CD1B594738C8C4F9CD1738C0F
:102EF0009CB1842F52A873ADC6169490AD536B4B02
:102F000083EE736CA4F28C4F62EAC5F6B595736CD0
:102F10007BADB5539CD1736B7BCD842F8C4FA53388
:102F20006B6BA512AD537BCD738CAD33A4F242060F
:102F30008C2F5288840FBDB57BCEB5949CF1B5948F
:102F4000AD3373AC9CD2A4F3C617BDD694B2630B59
:102F5000B5B6736D738DB594736C41E76B4C8C4F44
:102F6000B5949CB15AA99CD294B19CF27BCE8C5062
:102F700039C57BAD62EA6B4BB5945268C5F65AC948
:102F8000736C83EEC5F69491840E9CF2C616632B87
:102F900094B1840FAD549CB18C2FAD5439A5842FBE
:102FA00094D1738D949194B1A5739CF15AC9214326
:102FB000630B8C909CD29CD28C90840E94D1B5B52E
:102FC0007BED8C8FAD73B5947BCD8C705AA97BCD86
:102FD0006B4A4A666B6B4A687C0E52A97BED630AAA
:102FE0007B6BC9E8E102F144F924F103F943F96488
:102FF000F143F163F983F963F943F983F983F962E2
:10300000F963F9A3F9A3F9C4F9E4FA04F1E4FA04C1
:10301000FA45F204FA44FA04F224EA66E4B062C91A
:10302000630A6B4B9490A51262EAAD336B2BAD53E0
:10303000C61694905AC99CD19CD1736C7BCD83EEFB
:103040007BCDB5947BCD7BADBDD58C4F9490A4F258
:10305000BDB5840E83EE840E7BAD5ACAB5749470F0
:103060008C3083EF528941E6947083EEBDB583EED8
:10307000AD33D6788C4F7BCD7BCDBDD5C6169CF2BB
:103080006B8C6B6C6B4B946F946FB5537BAC5AC964
:10309000A5339CD1C637842F840E5288BDD54A47AC
:1030A000738C7BAD8C7052E9AD74BDD66B4CC6177A
:1030B000C5F65AA96B4CA5137BADD6786B2BA51220
:1030C000944FC5D5AD1283CDB57394905AC95ACAE1
:1030D0006B6C4A88842F9CD1B5B55AC96B6C7BCD7B
:1030E0009490B5945AA98C2F9CD183EF62EA5268D0
:1030F000630A9470A512A513A513840F7BAE9C924E
:103100005AAAAD13BDB562CA9CB19470B5955AC99F
:10311000AD539CD2840E6B2B8C4FB57483EE9CB157
:10312000BDD6BDD594705AA9CE379CB19CD1AD53B4
:103130008C4FA5126B4BA4F2738D9CB18C50A55390
:10314000842F7BEE5AC99491A4F2738D9CB1A53360
:1031500073AD9491840E5AEA9CF2632B634C73AD69
:10316000632B8C508C7073CD73ADA553840F842F5B
:1031700073CDAD736309A532AD538C6F632BBDF571
:103180007BEE9490C5F68C2F83EE947039E5316414
:103190009B6BC165F124F123F943F943F122F963F3
:1031A000F942F142F983F983F983F983F983F9A4A8
:1031B000F983F983F9A3F9C4E982F1C3F9E4F1E4ED
:1031C000F1C3F9E4F9E4FA04F1E3F203FA04DA866C
:1031D000ED52BCF294B19CD1842FBDB5738C736C4D
:1031E00083EE949062EAA4F2A4F29490AD33BDD53C
:1031F000738C9490B5749CB1B574CE37CE379490DF
:10320000840E5AA9630A9CD18C4FA5127BAD5AC972
:10321000BDD5738C736C736C7BCD6B2BAD539CB134
:103220008C2F5268E6FA5288BDB583EEA4F2AD53F6
:10323000738C7BCD5AA931A49CB08C2EA4F1946FD1
:10324000946F7BCD73AC8C4F5AEA73AD840EA5128C
:10325000842F62EAAD53632B39C5A512AD548C4F50
:103260007BCDAD539491630B7BCE9CB183EE840FE9
:10327000C61683EE9CB1A4B1B5745A686B2B6B4B28
:10328000A513B5959490A532BDF5A51294B19CF205
:103290008C4F738C7BCD62EA9470BDB5BDB6738DD7
:1032A0008C4F62EAA512738CBDD5B5748C50949185
:1032B000AD337BCEC5D6DEBAB574CE37B574BDB5E9
:1032C000BDD6AD536B2B736C6B4B52885AA98C4F88
:1032D0008C4F630B738D9CD2BDB57BCEAD53A4F2E6
:1032E000A5129CB16B4C83EEAD548C5094707BEE68
:1032F00094B15ACAB595A533528883EE840FB5743C
:103300007BCD840E7BEE73AD73AD73CD840F9CF2D9
:103310006B6CC65794D1BDD5949194916B6C6B4CEA
:103320007BEEAD53634B842E5AE9BDD5BE16844F58
:10333000844FAD739490A4F2738C8C2F73CD94B0A2
:10334000B30AC943E923F923F923F923F943F963BC
:10335000F943F942F962F963F962F162F9A3F96399
:10336000F983F9A4F9A4F162F9C4F1C3F1C3F9E452
:10337000F9E4F9E4F1A3F9C4FA04FA04FA24FA042A
:10338000FA04F245D34AB5126308AD325AA8840E46
:1033900083EEAD538C4F9CD19CB1840ECE579CB123
:1033A00083EE7BAD9470C5F6738CBDD59CD19CD15A
:1033B000D698AD339CB194909CD19470AD537BADB5
:1033C000840EA4F2C5F66B2B5AA9A51383EEC6167C
:1033D000BDB5AD339490736C9CB1736C738C4A47DC
:1033E0009CB1BDD5BDD5840EB5B4A4F1944FAD321A
:1033F000AD12B573944FA4F29CB183EE9CD294911C
:10340000AD33CE37BDD58C4F9CF14A677BCEAD74C2
:10341000AD74AD54B5959CB1C5F6C5F6AD548C4FA1
:103420006B4CA4F26B0A734BD657AD13AD3383EEDE
:103430005288BDB59C908C709490840EBDD5AD74AF
:10344000A5125AC9AD536B6C6B2B7BAD5AA94A07B9
:10345000BDD66B4C9470A4F283EE8C4F840F738DA9
:1034600062EAAD337BAD5ACAAD546B2BAD54A4F2B6
:10347000BDB594709491840F6B4C5AA97BAD7BAD14
:1034800039C57BCEB595A4F2B574840F840F9CB179
:10349000AD338C2F5289A4F2840F52689CB1AD5485
:1034A000BDD6AD336B2B6B4CA5129491BDB58C5032
:1034B000949094709CD28C50842F842FA55394D2D6
:1034C0007C0E8C508C4F634B8C706B8C6B8C94B1DE
:1034D000AD549D129CF27BEE6B6C8C90BDD552C9A5
:1034E000840EA512738CA5129CD1738C6B2B940E39
:1034F000BAECE123F123F923F163F943F123F92332
:10350000F942F963F943F962F942F962F963F9633F
:10351000F9A3F983F163F983F9C4F1A3F9C4F9C4F8
:10352000F9E4F9E4F9E4F9E4F9E3F9E4F9C3F9E3D6
:10353000FA03F204FA04F245FCAFB4B1AD32734BB6
:103540007BAD9CB1B5948C4F62EA62EA947083EED5
:10355000C5F6AD33738C5AC94A47C616AD33A512AA
:10356000AD539CB19470AD338C4FC5F67BAD947068
:10357000A51362EAAD339CD25AA9AD33947094700E
:10358000C615A4F2BDB5D678AD537BCD9CD1A4F2BF
:10359000738C6B2BAD33AD337BADA53262E9AD12CD
:1035A000BDB483EDB5949C907BAD9C90630A947000
:1035B000AD1383EE734CB574738CBDD5C636BDF6B2
:1035C0009CD27BEE4A487BCE9CD17BCE9CB1736C67
:1035D0006B4BB594CE37AD328C4FC5B462EAB53380
:1035E000732BA4D083CDB553AD73A5128C6F7BED37
:1035F00073AC6B6B29645AC9840EAD337BCE5ACA47
:10360000AD54840F7BAD9470840F9470AD536B4CAC
:10361000A4F29491AD33A4F29471A4F39CD26B2BD9
:10362000C5F69CB1630BB575C6179491B59594908A
:103630008C507BEE6B8C73ADB594B594630B9CD2C0
:103640007BADAD54AD537BCD39C53184A4F2BDB54E
:103650005AC9A533BDF6630AAD336B4B9470A4F21F
:10366000C5F68C50B595A533840FAD54C6167BEEC8
:1036700073CD9CF29D126B6C5AEA5AEAC617B5D507
:10368000CE57BE16BDD5A512844F8C4F9CF1842E0B
:103690009CD16B8CAD7394909CF28C4F6B4B8ACA0F
:1036A000CACAF9A5F904F923F923F923F923F9235F
:1036B000F923F963F922F963F142F942F983F983B5
:1036C000F122F963F983F163F9C4F9A3F9E4F18311
:1036D000F9E4F1A3F9E4F9E4F9E4F9E4F9C3F9C38D
:1036E000FA04FA04F9E4F9E4FA05F267DB4A936BA9
:1036F000840EA4F2C616840E632B7BCD5AC983EECA
:103700008C4FD6784A477BADA4F2738C6B2B840E1A
:103710008C4FA4F27BAD94908C2F6B4B5AA9AD5378
:103720008C2F9CD2CE37AD33736CC61683EE94903B
:10373000B574C5F69CB08C2FA5129490840EC61655
:10374000AD339CB18C2F7BAD736CAD338C4F7BADA7
:10375000CE379CB1AD335AC95AC9CE3739C5AD53EE
:103760009C91AD34B5759CB1C5D662EAAD744A671B
:103770009CF26B4BBDD59CD18C2F4A27840F83EED6
:1037800029444A4741E6B594B5939CB08C2F83CD2C
:10379000CE16DE97A4F0AD329C905AEA634B6B6C68
:1037A000630AA532AD53842F73AD6B6CA4F2A4F2FF
:1037B0006B2B738D62EAB594CE58BDD6B5749470F8
:1037C000AD339490A4F26B4B840EAD537BCE62EA82
:1037D000C5F6A512738CCE587BCD94709CB1949095
:1037E00029237BCE52A99D334A474A4894B18C5035
:1037F000949094706B2B6B4B9CB17BAD9470840E4A
:103800008C4F52888C709CD1B5B562EA949094919B
:103810007BAD7BAD83EE738D840FA51273AD9CD110
:1038200073ADA5536B8C842FB5B552A994917BCD04
:103830008C90AD548C707BEE9CF29D1294D1630AF7
:103840004A897BCE7BEE52A973AD842F632A6AA886
:10385000D207F123F122E943F923F923F903F943CC
:10386000F923F923F101F942F122F983F142F963D5
:10387000F963F963F983F963F9A3F183F9A3F9C350
:10388000F9C4F1C3F9E4F9E4F9E4F9E4F9C3F9E4BA
:10389000F9E4F9E4F9E4F1A3FA04F1E3F1E4F2253F
:1038A000DB4B7B0B738B83CD83ED736C9CB194707E
:1038B000840EBDB5736C840E7BAD9CB17BCDB574AD
:1038C0009CD19CB14A476B2B6B4B8C4FC5F683EE5A
:1038D0007BCD6B4BAD536B2BAD33840E9CB1632A08
:1038E00083EE8C4FC6168C2FA512C5F5DEB8946FEB
:1038F000736BAD53A512C616A4F29CD19CD162EA9B
:1039000083EE62C9736C52888C4FD678AD535AC916
:10391000C5F66B2B736D8C2F7BAD5A897BAD8C4FAD
:10392000738C840EB5B5BDF6AD544A485289BDD6E8
:10393000B5749CB1738D840E946FA532AD74AD33A4
:1039400083ED8C2E946FAD127BCDAD33738C8C4F89
:10395000B5D57BED844FAD739CF273AD73AD4A4822
:10396000B57462EA9CB15268AD5442079CB17BCEFB
:1039700073ACAD538C4FB594736B9CD194705AC992
:103980006B2BAD338C2FBDB5C617B57352889CD148
:103990006B2B9CD19490A53352EAAD54738D422782
:1039A0005268630B52899491B5746B4B5AA9BDB59B
:1039B000949094D1840EA51273ADB5945AC9AD54A8
:1039C0007BCE52685AA962EAA5128C709490630B60
:1039D000632B632BA5335AEA3A0652A9632B7BEE7D
:1039E0007BEE632B5AEA632B842F6B6C6B6C7C0E23
:1039F000842F6B6D949152AA39C552884A686A87A0
:103A0000EA08F902F102F123F922F923F923F1027C
:103A1000F102F902F902F101F122F922F942F96207
:103A2000F983F963F983F963F983F983F9E4F1A37D
:103A3000F162F9C3F9E4F9C4F1A3F9E4F9E4F9C3D3
:103A4000F9C3F9E4F9C3F9E4F1C3F9C4FA03F223C1
:103A5000FA24E1E4D38B6AA9B553B553630A7BAD6D
:103A6000A4F25AC97BCD9CD1C5F66B2B9CD17BCDE2
:103A700062EA9CB131646B2B6B4BC61683EE94905B
:103A8000630AC5F67BAD7BAD5AA96B2B6B4B8C4F94
:103A90004A679CB1738C8C4F738C83ED6B498C6F30
:103AA000738B6B6BA51294905AA9C6169CD1B574F2
:103AB0007BCD83EEAD12AD337BCD7BEE840E8C2FB0
:103AC000A4F29CB1C5D641C64A27A4D2B554630A14
:103AD000BDF6842FA51294B1AD745ACA7BCE7BADCE
:103AE000736C4A487BAD83EE5288C616B5948C70D1
:103AF000BDF6B573C6157BACE6F9944FB574842F4B
:103B000073AD9CF27BEE842F7BCD738CAD53AD53A4
:103B10005ACACE58C61752689CB1736C5ACAA4F2DE
:103B2000AD53C5F652889CB1AD33B5946B2BBDB582
:103B3000C6165AA9738D5AA97BAD9CB14A47949079
:103B4000AD338C4F62EA6B2B73CD842FB5D594D1F6
:103B5000632BBDF6632B7BCE6B4C94918C50738D95
:103B60008C507BEE632B738DA513842F630B9471A4
:103B7000738D630B8C509CB162EB947062EA840E7F
:103B80009CB19491842FA533A512A5335AEA840FD2
:103B9000A5339CF28C70842F842F7BEE6B8CCE58D7
:103BA0006B4C52CA9CD252A9632BAD13AD74BC901E
:103BB000C985E883F8E3F0E2F0E2F903F902F923BA
:103BC000F102F0E2F0E2F923F942F122F122F943A5
:103BD000F942F963F983F9A4F963F9A4F9A4F9A402
:103BE000F1A3F9C4F183F9C4F9E4F1A3F9E4F9E428
:103BF000F9E4F9C3F9E4F9C3F1C3F9E4FA04FA0406
:103C0000F204F204FA24EAA7DBCC7B6AA5129470D2
:103C100083EE83EE736C9CD18C4FB5B473CD842F3F
:103C20009CB1AD33A5129490A4F2A4F2630A83EE82
:103C30007BCD62EA62EA5AA983EEB574AD53630A9A
:103C4000A51173AC8C4F738CBDB56B2B9490BDF5E7
:103C5000B594CE36946F8C2F840EBDB58C4FAD339A
:103C60005AA9738D7BCDBDD5AD33BDB5BDD59CD126
:103C7000C5F58C6F7BACAD5362EA94709CB17B8CC4
:103C80009CD1BDD59CD194D1C636A553A512C5F6FD
:103C9000BDB6A4F28C4F4A277BCD7BADA51373AD87
:103CA0006B6C4A68840E5268947062EA94704A277A
:103CB00031859CD2A513BDF694908C705AEA8C4F36
:103CC000BDD5736CA4F28C2FA4F2D6784A485AA9B9
:103CD00094709491BDD5AD54630BBDB5A512AD33B1
:103CE000CE37C5F6AD336B4B9CB1AD33AD33528996
:103CF00094709470A4F2BDB594909CF2632B5B0A0F
:103D00007C0EA5539CF29CD24A4762EAA4F2A5130A
:103D1000CE578C4FA5137BEE738DC6179CF27BCECE
:103D20006B2C5289B5956B0B6B4C9CB194507BCE30
:103D3000BDB65ACA528973AD840F630B8C5052A919
:103D40008C509CF2CE984A6873CD840F844F8C902F
:103D50008C7042277BCEAD75B5958C90A4B18A67E7
:103D6000D8E4F8E3F103F0C3F8E3F923F0E2F0E27A
:103D7000F0E2F923F923F902F943F943F122F92298
:103D8000F963F963F122F963F983F963F963F9A43B
:103D9000F9A3F1A4F9C4F9C4E962F9E4F9C4F1A3FF
:103DA000F1A3F9C3F9E4FA04F9E4F9E4F1C3F1E3A6
:103DB000FA04FA04FA25FA24F244F2E6E510BD13F7
:103DC000AD3231844206BDD55AC9840E7BCD52A88E
:103DD0005AC96B2B62EA5AA98C2F7BADA4F2840ED0
:103DE00062EA39C58C4F94907BCD9CB19CD1B57360
:103DF0009CB041E5BDB4B5747BAD738C9CD1736B45
:103E0000AD32BDD5DEB8C5F54206BDD55AA9738C15
:103E1000BDB57BAD62EAAD537BCD73CDAD745AC9F0
:103E20008C4F9CD19CB0736C62EA62EB4A274A27A4
:103E3000736CC5F6738C5AA9BE168C6F8C4FBDB5CA
:103E4000AD53AD53C5F6C5F662EA8C50CE58B57485
:103E5000842ED6988C90736C736C736C422673AC02
:103E600094906B6D52896B6D842F9CD15AEA9CF2B1
:103E7000A533738C62EABDB54A48BDD662EA947038
:103E80009CB16B4C9CD1AD54B574738CAD33B5748F
:103E90009CD1A4F2B574A4F29CB17BAD9490A51210
:103EA000630A83EE736C83EE5268736CAD945AEAC6
:103EB00094B18C50AD745AEA630B842F7BADA5137B
:103EC0008C2F949062EAAD5494918C7073AD73AD65
:103ED000842F9CD2840FAD33840F94708C0F947117
:103EE000630B8C50842FAD758C71630B4A28738DD6
:103EF0007BCE9CD27BADAD74A553632B5AEAA53320
:103F00009CF273AD52896B4C8CB18C0FB4D2F3CF51
:103F1000F905E924F123F8E3F8E2F8E3F903F0C244
:103F2000F0E2F902F903F0E2F0E2F923E8C1F1026C
:103F3000F943F943F142E901F983F963F943F142A5
:103F4000F983F9A3F183F183F9C4F9C4F182F9E4A7
:103F5000F9E4F1C3F9E4F9E4F9C3F9E3F1C3FA04CC
:103F6000FA24F1E3FA25FA04FA24F245FA46F2E7D4
:103F7000C3AB8C4E736CA5126B2B7BADDEB98C2F53
:103F80005AC96B2B5AC96B4B9CB05AC962EAD67896
:103F90009CD1B5949CD16B2B7BAD9CD17BAD736CCC
:103FA000AD12BDB4AD53BDB4BDB5AD33BDD5C616B0
:103FB000C5F6946FAD32C5F5B5736B2B9CB183EE2E
:103FC0008C4F630A5AA96B4C6B4B52A86B4B7BCD41
:103FD000A532B594630AAD3241E6A513630B9CD1BB
:103FE000D678B5748C4FA512C616BDF694B09490D1
:103FF0009470A4F1C5F5AD5383ED842E840FBDD527
:10400000DEDA94B0B5B473AC62EA4A477BCDB5B49E
:10401000632A73CD9CF25ACA6B6C7BCEA5339CD2BB
:10402000A5338C708C4FA5128C2F62EA8C50947043
:104030007BADB574949183EE9CD16B4C9CB1949103
:10404000840E39C5BDB58C4FA4F2A5129490BDB4B1
:104050009470CE575AC99470C5F68C4F5AA94A2706
:104060005AA96B6C73ADA5128C4FBDF66B4CB57431
:10407000AD33840F9490840EA5338C50842F94918B
:10408000B5B56B6C630BAD33738D840F9490A4F254
:104090005ACA632B5ACA8C504A48630BAD345ACA69
:1040A0009C9183EE840F9CD294B1842FBE16AD53A5
:1040B000A5328C4FAD53A532B5D58BEE838CD2286B
:1040C000F123F8E3F903F903F903F0E2F903F90244
:1040D000F0C2F0E2F0E2F903F102F102F102F902BA
:1040E000F943E8C1F122F163F984F963E183D9C3AB
:1040F000E942F142F963F983F983F163F9A3F183AA
:10410000F142F1A3F9E4F1A3F9C4F9E4F9E4F9E423
:10411000F9E4FA04F9E4FA24F224FA24FA45FA65F7
:10412000FAA6F2E8CC0DA430736C9CB1AD339CD1EF
:104130005AA994707BAD83EEA4F2C615946F62C940
:10414000947094907BCD9490738C840E5AA96B2BB1
:10415000A4F27BAD6B4B83CDBDB5D698AD538C0E21
:1041600083EED6789CB18C0E630AB594D677AD53A6
:104170005AC9738CB594B5749470736C738D6B6CF1
:104180009CB183EE9CD1AD339470944FB594B554EB
:104190008C0F6B2BC5D68C2F9CD1632BD678D67801
:1041A0009CB183EDBDF5D6988C4EAD539CB1B594C2
:1041B0008C4F8C4F7BCDCE36BDD5B594BDB5630A43
:1041C0009CF1B594B594B595630B31857BEE6B6C22
:1041D0007BCD5AC9A533842FC5F66B2BD678AD5449
:1041E00083EEA513A513A4F2736CA4F26B4B5AA92A
:1041F0008C2FB5948C50AD53840E4A47AD53D6984E
:10420000948F7BAD7BAD7BADCE3783EE83EE738D2C
:10421000738CAD74D698AD74AD74842F840EC6378C
:10422000BDB583EEA513BDB57BAD4A274A68842F83
:104230007BCEA5135AEA7BCE7BADAD336B4C630BC3
:10424000AD54BDB69CF2A5338C70736DBDB5AD3465
:10425000B59594709CB294509CB26B4C6B6CA5530A
:104260007BEE6B8C5AE9B594A533940F938BE98759
:10427000F0E3F903F903F103F903F923F903F8E291
:10428000F0E2F903F102F0E2F903F943F903F0E295
:10429000F923F0E2F943F143F163F143F225D162EE
:1042A000F143FAA7E0E1F0E1F963F963F983E10191
:1042B000F183F1A3E921F9E4F9E4F183F1A3F1A396
:1042C000F9C4F9E4FA04FA04F9E4FA24FA24FA4500
:1042D000F244F2A5FAA6E327BBAC73AD844EA51257
:1042E000840E9CD1840E8C2F83CD840E9CB0AD5255
:1042F0008C2E8C2EC6168C4FA4F29CB152889470D2
:1043000062EA9470BDD56B2B7BADA4F2D6578C4F6F
:1043100083EE8C4F630AD678C5D55AC9630AA4F1D7
:104320009CD1B59431847BCC8C6F83EE9470AD536B
:1043300052A8C5F583CD840EA5129CD1AD12947000
:10434000B55452686B2BB595840E6B6C6B4B840E19
:10435000C617D6789CD1AD53CE37736BB594AD5399
:104360008C506B4B736B9CD1A512842E94909470DF
:1043700073AC42275B0A6B8C842F4227842FA512D3
:1043800073CD52C99CD1B5945AEA7BADAD53A512F9
:10439000738D7BAD62EA9CD2947094707BCEA4F254
:1043A0009491A512AD53A512632B7BAD31647BAD07
:1043B000D6987BACA4F2736CA4F29CD17BADAD53C8
:1043C0008C4FC5F6840EAD74B5945AA97BCD9490EC
:1043D00094919491736CCE37A4F2738D5268BDD6CC
:1043E0008C708C706B4CA533CE588C4F94904A27B0
:1043F0006B2B9CB19491842F632B7BCE8C50BDB5DD
:1044000094918C2FAD54B5748C5083EE8C4F7BEE11
:104410005288842F39E5948F94906B2B6983E166E1
:10442000E902F0C1F8E3F123F103F903F8E2F9231B
:10443000F903F903F903F923F0E2F102F0C2F923D9
:10444000F923F943F102E8E2E922E902E902FA87F5
:10445000D962F2E7E142FAA6E9C4E942F162F16306
:10446000F163F162F1A3F162E921F1A3F9E4F183CF
:10447000F9C4F9C3F9E4F9E3F9E4FA04F204FA241B
:10448000FA44F224F284FA85FB06EB07AB0A5207E2
:10449000B594526852885AA9630A52478C2F5A8899
:1044A0008C4E5AC98C0E6B4B8C2F3164A5128C4FDD
:1044B000AD53736C630A9470736C52889CD162C95B
:1044C00062EACE16B553C5F69C90A512CE16C5D598
:1044D000946FA512AD53AD32AD32AD31B573738C5F
:1044E000AD338C704A27944F8C2F944F5AA9A51244
:1044F000AD33947052689CB19CD27C0E73CD6B6BC3
:104500008C50A4F283EE736C7BCD6B4B7BCEB5737A
:10451000AD525AA97BCD840ED697AD329CB0C5F66C
:104520008C2F9CB18C4F9490844F318531A58C7029
:104530008C5094B1842F52A942064A687BAD5AA987
:10454000BDD56B4BA4F283EE9470C5F66B4B9CB15A
:1045500052898C2F6B4C630BA4F28C7073CD738CCF
:1045600073AD630B736D8C506B4CA5128C2FB574AF
:10457000A513AD33840FB574630BC5F66B2B52686E
:10458000A51362EA83EE5AA994708C50736C62EAA8
:104590008C509CB1A513BDB55AC9AD338C2FA51253
:1045A00083EE9470BDB5630B736D4A489491734C60
:1045B0006B2C52685268630B7BCE9CF26B8D9D1204
:1045C000BDF6A533636BAD338BEEA594BBADE9E7C8
:1045D000E8A1F102F0E2F902F903F903F923F8E2A4
:1045E000F0E2F0E2F902F903F102F0E2F943E8C186
:1045F000F902F143D121EA05E9A4F102D962F2A757
:10460000E204FAE7FAE7F963F163D922D942D0C0AC
:10461000F163F162D8E0E0E1F183F983F983F9C451
:10462000F1A3F1C3F1A3F9C3F9E4F9C3F1C3FA2487
:10463000F224F224FA25FA45FA65FAC6FAE5E348C7
:10464000BB8B51E594907BED52886B0A9CB0944FE4
:10465000734B8C2E738CB594AD5394707BCDA4F2B8
:104660009CB1BDB55AA9AD338C4F83EE83EE9CB19E
:104670006B4B9CB162EA736C83CD524752889CD1DC
:104680009C90BD9483CD840E944F7BACB594AD5378
:10469000630A9CF1AD536B2AC5F594B0B5B47BEEBB
:1046A000A533632B8C70A4D2842F7C0E738D8C70F9
:1046B000AD94AD74842F949083EEA5123A0639E63A
:1046C00094908C0E62EAB5539CD1840ED6989CD1FE
:1046D000840E528883EE8C2F949083EE5AEA949144
:1046E00073AD2964842F5ACA420652A94A47C61696
:1046F0006B4BC6176B4CA5135ACABDD5840F3185B9
:10470000CE377BAD39A59470738D5ACA4A68A553CC
:10471000634B634B5AEB5AAA4A28947131A583EE36
:104720009CD26B4C840FB57441E6B5955288AD337D
:10473000738D83EE4A2752896B2B41E65ACABDD648
:10474000B5957BADC617AD535288AD53C5F6C616A9
:104750006B4B5AA9B5949CD2A4F34A076B4C83EED9
:104760005AA97BCE7BADA4F283EE7BCE632B5B0A92
:1047700073CD844F8C6FC5F6528962E9CB8DF124DD
:10478000F122F0E2E8A1E8C1F0C2F8E2F8E2F903B0
:10479000F0E2F8E2F903F923F8E2F903F0E2F102BA
:1047A000F143F0C1E9C4E122E902F0E2D0E1E942DB
:1047B000F923D982FAC7D962E922E9A3D942F225BD
:1047C000D121F225D921E983E942F983F183E92254
:1047D000E921F9A3F9E4F1A2F1A3F9A3F9C3F9E4FA
:1047E000FA24FA24FA24FA45FA65FA45FA85FAA574
:1047F000FAE6F348DC8F942ECE5683EDA4F162E9FD
:1048000062E99CB0840E5A885267D6988C2FAD33DB
:10481000947083EE9CB1738C8C2F7BCD8C2F6B4B63
:10482000736CAD53840E9470B5745AA96B2B944F6E
:1048300052888C2FA4F28C4FBDB5840E8C0EB573AC
:10484000B594AD734A47A5128C4EA512BDD4BDF5E3
:1048500052888C4F4A47630A8C509CF2BDF6A513D0
:1048600073AD842F9CD2A513B595B5749CF26B4C97
:1048700073AD840E3184840E62C98C2FA4F2AD53C3
:10488000840EA512A4F2736C6B4B62EA83EEB595AD
:1048900052A99CD26B4CB5959CD294B1CE78AD53B5
:1048A0009CB1C5F6C5F6526862EA840F62EA630BF2
:1048B0005ACA5ACAB5954A277BCEAD337BCD8C7088
:1048C0005B0A5AEA8C9052A952CA630B5AEB632CCA
:1048D0007BAD6B4C6B4C62EA7BCE52689CD1949062
:1048E0009491736C7BAD738DAD33738D94709470B4
:1048F00094916B2B5AA98C2F9CB19490A4F2BDB5C6
:10490000AD53AD33840FA4F2A5139CD2A4D27BCEB9
:104910009CB17BAEAD548C2F6B4C630BAD54A53367
:1049200052CA9D12A5529CF1AD12838CCA48F16403
:10493000E8E0F102F0E2F923F0C2F8E2F0A1F8C2F7
:10494000F8E2F8E2F8E2F0E2F0C1F903F943F92302
:10495000F943E0E1F266D141F123E922EA05D162AF
:10496000C921D922E942F163E0C1FA46E162E94393
:10497000D901E183E183E1A3E121F0E2F142E90120
:10498000F1A3F983F162F1A3F1C3F182F162F18243
:10499000F9E4F1E4FA25FA04FA24F224F245FA657E
:1049A000FAA6FAE6F2C5EB88ABCB944FBDB4946F90
:1049B0009CB07B8C738C8C4F8C2E9CD19CD17BAD0E
:1049C0009470A4F25AC97BCD9CB18C2F736C4A476A
:1049D000BDD5738C738C6B4BA4F2734BA4F2630A3A
:1049E0008C2FAD33B5945AA939A59470AD32944F3C
:1049F0008C4FA512C615BDD59490B594840E63094D
:104A0000B5B47BCD840F94B1A5536B6CC63762EA05
:104A10006B4C8C50C5F68C709CB1840E9490B59400
:104A2000738C630B6B2B8C2FAD338C4FC616B57408
:104A3000A4F2CE37947094908C2F83EEBDD562EAA9
:104A4000B5D4B594CE57D6B94227B5B5630AAD549F
:104A5000A533B574CE376B2B6B4C9491736CA51347
:104A60004A27630BBDD68C509470AD546B2B8C2FA2
:104A7000738D842F632B9D137C0F844F6B6C4A685E
:104A80005289A5336B4C39C6528939C6A513CE3726
:104A90009CD283EEAD336B4C947094705AA98C2FDA
:104AA000840F9CD28C2F840F630BAD33949183EED3
:104AB000B595B595DEB96B4C5288D6996B4C8C4F39
:104AC0009470738C7BCE734CCE389CB19C91A513A3
:104AD000632B738D632B8CB09CD0F5D5D9A6E9647C
:104AE000F923F902F903F923F0A2F903F0C2F0C1A6
:104AF000F0E2F8E2F8E2F0E2F902F0C1F102F0E2ED
:104B0000E8C1F943F266E142F943F943FA06D942B2
:104B1000C901E265DA45FA26E943D8E1F122F0C19C
:104B2000F122E142E9A3E902E8E2F122F0E2F143F5
:104B3000E901F122E921F183F162F9E4F1A3F983BA
:104B4000F9A3F1A3F9E4F1E3F224FA45F244FA659A
:104B5000FA85FA85FAA5FAE6FAC6EB69C44EA44FBF
:104B6000942F9470738CC5F64A2741E6CE375AA924
:104B70007BADA512A512736CD6786B4B94704A2747
:104B80005AA9CE37BDB5B574B5945268D6786B2B9B
:104B9000A512B5748C2FA4F2734B41E662EAB5738B
:104BA000630AC5F64206CE579CB13184630AAD3321
:104BB000D6788C2F9CD16B4CC616AD539CD194707B
:104BC000BDB59490BDF6DED96B6CAD5483CEAD33DC
:104BD0009CB15ACA7BCD8C4F1881738DB594D698F1
:104BE0009CB183EE736CC5F6C5F66B4B4206738CB5
:104BF0005AC9A532B594B594632BAD546B6C6B4B0D
:104C00006B6C9490AD32A5127BAC7BCE4207B57431
:104C1000AD33AD33A4F2B57462EAA4F2A4F2949178
:104C2000AD5462EA5AC9844F6B8D8C906B8D210311
:104C3000A513738D5ACA7BEE39E683EF7BAE840FE2
:104C40006B2B6B4C8C2F528994918C504A477BADC7
:104C5000B574CE3752689CD2C5F6840F9CB14A48D1
:104C60005AA9A513BDD5A4F2B574630B83EE947055
:104C7000CE3783EEAD53630B736C6B2B630BA4F2D7
:104C80008C70A5339D13738D62AACC2FC943F8A2F3
:104C9000F123F903F902F923F8E3F8E2F0C2F9028B
:104CA000F0C1F8E2F0C2F0E2F0C2F902F0E2F9433A
:104CB000F923F102E142FA87F0C1F903E9A4D142F4
:104CC000C982B900D162E943D121E983FA66E8A13A
:104CD000F8E2E8E1F1A4E163E902F0E2E0E2E944AC
:104CE000D8C1F122F102F122F963F983E921F1A39C
:104CF000F1E4E982FA04F1A3F1E4F204F204FA2403
:104D0000FA24FA45FA65FA85F2A5EA84F305EBA8D8
:104D1000AB698BED8C0F9CB1736C83EE840EA4D1C8
:104D20007BCD9470BDD5A4F2B594AD33B594840E0B
:104D3000AD33840E9490AD3262EA9CD1AD538C4F6A
:104D400062EAA4F27BAD7BCD5AC983EE62EA6B2B9B
:104D5000BDB5BDB57BAE6B0B5AC99470C5F64A475D
:104D60007BCD9CB1A512B574B574B594CE57738C38
:104D7000AD53630AB594BDF69490842F632B844F92
:104D8000A511AD745AEA4A6939E69CD19CD1738C5D
:104D90007BCD7BAD9CB139A5AD53630AAD5362EABF
:104DA000B5745268842E9490A51294B1BDD5949098
:104DB000738CA533A512CE37C5F5A5128C4F8C4F39
:104DC0005289526883EEBDD54A2741E65ACA8C2FD4
:104DD000AD5483EE8C2F8C70BDF68C509491A5133E
:104DE0008C9152A9632B4227632B94B194916B2C25
:104DF0006B4C6B2B94918C5083EEAD54C5F68C2F7D
:104E00009470A5138C2F736C83EE9CD2B574BDB5D2
:104E1000840F7BCD736C9CD28C509CD294704A27AB
:104E20008C50BDD594B0840E738C6B4C94916B2CCC
:104E3000630B3A075B0A9D12BDD5BBEFD042F86207
:104E4000E8A1F081F8E2F0E2F923F903F903F903AC
:104E5000F0C2F0E2F0A1F0E2F923F0C1F902F902A8
:104E6000F923F0E2E122EAC7D121F0C2F963F92384
:104E7000F163E183F2C7C9A2F286D142C9C3D1422C
:104E8000F183E942D101E9C4E9A4E8E2E8E1FA6783
:104E9000EA06D101F9E5F123F0C2E902F163E94242
:104EA000E942F1A3FA25F9E4F1C3F1C3FA04F1E30D
:104EB000FA45F204FA24FA24FA45FA85FAC6F2C54C
:104EC000FAE5F349E4B0ACF1AD1252478C2E8C4FA9
:104ED000C5D5A512B5746B2BBDB57BAD7BADAD3320
:104EE000736C8C2F9470AD329CD07BAD6B2B526861
:104EF0005288840EB5749CD1736C62EA7BADB59414
:104F00006B2B8C2F7BAD7BAE8C504A07A4D28C4F81
:104F1000AD33949083EE9CD1A4F2C5F5840EA51216
:104F2000840EA4F1738C6B6CA512630A7BCE9CD2A9
:104F3000A55394B08C4F8C70632D842FB5B48C2FF7
:104F4000B5947BCCB57483EEAD128C2F8C4FB59499
:104F50009470420662EA94D1D6984A68C616AD7437
:104F60009CF2842FB594840EA4F2DEB9B5539470EC
:104F70004A48BDD5A5129490736C7BCD5AA9BDD576
:104F8000736C8C50738D630B8C2F52899CF2840E42
:104F90006B6C632B8C50632B7BCE6B4C7BCE7BAED0
:104FA00094918C305AAA5269736C7BADB595AD3330
:104FB0006B4C83EEB574BDB5630B5AA952689CD295
:104FC0008C704207634B7BCE949183EE9C918C5006
:104FD0009CF294705AA9A513B5749470736C8C30BC
:104FE000840F9CD2734C949162EAAC90C863E02029
:104FF000F041F061F881F0A1F8C2F0C2F0E2F0C136
:10500000F8E2F0C2F8E2F903E8A1F903F0A2F0C275
:10501000F903F122D1A3C1C2D1C3E983E8C1E8E118
:10502000E902E983E204E183D901C100D982FB49A5
:10503000D9E4E245D9C3D983D983DA24C962D942F4
:10504000F226FA87E163FAA8F123F8E2F102F142CD
:10505000F983F1A3D8C0F1C4FA04FA04F1A3F9E486
:10506000FA04FA04FA45FA44FA24FA44FA44FA84AF
:10507000FA85F2A5F2E6EB48E4EF947052895A887B
:105080007B8C944F9CD183EE736C83CDB594B574B7
:10509000840E7BAD5AC9738C630A9CD16B0B5A8802
:1050A00062EA7BAD62EA526883EE840EBDB5630AA4
:1050B000AD5394909CD1C616BDB5630A9CB1B5940E
:1050C0005AA9A4F29CD28C70738C20E27BAD5AC991
:1050D0008C2FBDB58C2EAD527BEDAD537BAD7BCD12
:1050E000B5B5844F6B8CA4F28C30842F6B4C7BEE67
:1050F000BDB5630AB5949490AD337BCE736C62EA10
:10510000B59494705AC96B4B9CD139C5B5B5AD7483
:10511000A512840E9CF1632B9CF2A4F2C5D55A888B
:10512000B574C5F69CB194909CB1947094706B2B3F
:10513000AD33A4F239A583EE8C50BDD6736C8C7060
:105140008C907BEDA5535AC9844F73AD738DA533F5
:10515000736C94508C0F7BAE5289B554CE37A51327
:105160009CD28C50AD54738D4A27BDD65ACA8C2F11
:10517000736C9491842F632B73CD842FAD74AD53D6
:105180005ACA6B6C7BEE634B632B840FA4F26B2BC0
:10519000C61794707BCD6B8C9512A3CDC082E02195
:1051A000E841F040F061F061F081F8A2F0A1F0C2B6
:1051B000F0C1F0C2F0C2F0C2F903F903E881F0C215
:1051C000F0C1E922E9C4D182E9A3E922E983FA66C0
:1051D000C921D962FB08FB69FAA7E902FAE8C0E035
:1051E000E983FB8AE142E122D0A0E1E4D1E3C9C333
:1051F000C921E9E5D923E8E2E143D8C1F102F1226E
:10520000E8E1F983F9E4F9E4E982F9E4F1C4F9C3E6
:10521000F1C3F9E3F1C3FA25FA24FA24FA44F2239C
:10522000FA64F284FAA6FAE5FAE6EB26CC8FA450EB
:10523000C5D5944F41E5736C83EE6B2BA512A4F298
:10524000A4F25AA9B574CE37B5749CB15AC98C2F43
:10525000B574AD13738C6B4B62EA6B2B83EE8C2FA2
:1052600094709CB1A4F2738C736C9CD1630B94709A
:10527000840F7BAD840ECE58634B4A47BDF59CB17D
:10528000AD5383EEAD338C6F7BCDA512B594949066
:10529000840F73ADB594BDB55A88AD1283EE8C4FB3
:1052A0005268A4D29470A4F14A276B2BAD336B4B98
:1052B0003164B5947BCD948FC6167C0E8C90A5126C
:1052C000A5339CF27BCDA532AD538C4F8C4F944FC0
:1052D000630A9CB19CB18C4FBDB59CB1C5F68C2FB7
:1052E000AD54AD33AD339491A5129CB19CB19CD11A
:1052F000842F948F632A6B6B842E4A6873CD9490AD
:10530000AD53B5749CB1A4D283EF9471BDD68C50CB
:1053100041E6CE57949094916B4B94708C50736C83
:10532000736C738D630AAD74840F632B73CD94D14A
:10533000842F5AEA7C0E9CD2BDF69CF27BCE52683A
:105340009CD2B5B55AA98C2F42268B4BB0A2E04215
:10535000E000E821F041F041F061F881F8A1F0812E
:10536000F0C2E881F0E2F8E2F0C2F0A1E881F0C218
:10537000E881F903E963D182D962E942D983D22471
:10538000D203E285C9A2F369E286FB08E266D14254
:10539000FB08F143FBAAD162EAC6E922FA46F143CF
:1053A000E0C1D0C0C860D8E2F0C2F164D8C1F9430E
:1053B000F102F922E0A0F183F1E4F9E4F1A3F9C4E8
:1053C000F9E4F9C3F1A3F1A3E9A3FA45FA24FA2415
:1053D000FA24FA64FA85FA85FAC5FAC6FB89EB67FE
:1053E00081C47B6C8C0E9CB0734B52689CB1738CE7
:1053F00083EEAD336B4B9470A512738C6B4B630AC9
:105400004A2783EEAD13630A94908C2F736CB59486
:1054100052886B2B7BAD7BAD420639C583EEA5135D
:105420005AC99CB18C4F8C2F9470842F73CD842FCC
:105430007BAD7BAD9470E6FA83ED5AE9B574A512A5
:10544000C6169CB1A53329844227944F9C4F840DE6
:105450009CD1738DAD549CD2B595528862EA62EAB4
:1054600062EA6B4B8C2FC5F55AC8946F4A689490CA
:10547000632BBDD5AD7494B1840E8C6FA4F294905F
:105480007B8CBD94B574947062EA949152686B2AD7
:105490005267949052899CB18C4F9CD19CD1946F4F
:1054A000B5947BEDAD73BDD4738C9490A532738CA1
:1054B0007BEEAD74738DA533B5958C506B2C8C2F12
:1054C000BDD66B0B94709CB1736C9CD273AD8C5039
:1054D0007BCE7BAD9CD28C2F94B17BEEBDF66B6CFA
:1054E000840E842FA55373AD73AD632B634B9490DF
:1054F000A513840E83CE5B2B7BEE5A47B083D84036
:10550000E020E020E820F041F041F041F882F04155
:10551000F061F082F0A2F0A2F0C2F8C2F0C2F8E3AB
:10552000F0C2F0C2E101D942E963E922E183EAA7CE
:10553000D983F225D1C3E225E224F286FAA7D1412C
:10554000D983D922E983D224E2C6F3AAD922FA6602
:10555000D8C1D8E1F0C2F227E1E6C8A1FB2AD8C140
:10556000E8A1F0C2E8A1F984F143E922F9C4F1838A
:10557000F9E4FA04E9A3F1A3F1A3F1A3F1E4FA2415
:10558000F224FA44F223FA64FAA5FAC5FAE6FAE636
:10559000F305EB48BCAEB5746B0B83EE6B0A8C0F56
:1055A00041E6947052684227CE575AEAAD326B4BAF
:1055B000840FA4D294709C916B2B7B8D9CB1630B58
:1055C000738C9CB183EE6B4B94916B4C4A475AA9F8
:1055D00062CA736C41C59CB19CD1736C842F39E64F
:1055E000630A9CB152684A278C2F52685AC98C2F83
:1055F0008C2FB574B5959491B5947BAD83EEC5B4FD
:105600005267946F8C2EAD3362EA736C41E662EAA6
:105610009CB162C962E9C5D5AD327BAC6B0A5B0A4D
:10562000CE57B5B4BDD5AD53842FBDB59CB1A4F252
:10563000B5739CB0B5947BADA512B59483EEB594CB
:10564000B5B4A51283EE5AA9BDB5B594842E6B6B83
:105650005AC99CD0AD5294B09CF1C636A5539CF16A
:10566000BDF67BEE8C70B5B5AD53AD745ACA94508F
:105670007BAD41E7AD13840F52AA7BEEAD7452A906
:105680009491A5139C9183CEAD5373ADAD737BCE36
:10569000A533632BBE167BEE73CD842F6B6C94D138
:1056A00039E6840F52887BAD9CD28A49C063C840DA
:1056B000E000E020E020E820F041F041F061F061FE
:1056C000F882F8A2F881F8A2F081F0C2F0A2F8E323
:1056D000F903F0C2F0A2E1A3D0C0F102E8E2D1C325
:1056E000E9C4F245D121D962D162E962E943E922F4
:1056F000E163D1C3E1A3D902D983D101F1A4E923A4
:10570000D1E3EA45E204C9A2B941FA27D0E2F2673F
:10571000C880F0E2E881E0C1F123E8E2F122F9A3D8
:10572000FA04F1A3F9E3F9E4F9E4F1C3F9E4F9E4E3
:10573000FA25FA45FA44FA44FA64FA84FA85F2A59D
:10574000F285F306FB06FB67D44E7B8C5AC962C90F
:105750007B8D83CD62EA83CD9CD1738C5AC9316431
:10576000B59552894A27944FB594AD3341C6738C91
:1057700042066B2B736C83EE6B2BA5129490949165
:10578000630A8C2F5AA97B8C9CD1C5F6840EA53355
:105790005AC97BCE7BAE8C30A5139CD16B4C9470D8
:1057A000840EAD53736C9CD2B595840E840F5A68E9
:1057B0008C0F9CD1AD53C5F5A4F2B574B594734B61
:1057C00083CDB55339A56B0A9CB062E9AD339CB16A
:1057D000BDF5630AAD74B594C61652A9C5D6D67880
:1057E0009CB1946F7B8C736C7BAD7BAD83EE7BCD7A
:1057F0009CF18C4EA532BDB494B09CD1C636A51296
:10580000422641E5BDD573AC4A67632AB5B49CF125
:105810005AEAC616B5B5738C7BEE8C505268630B92
:105820005AAA736D62EB7BAE630B8C70842F422798
:10583000A5335AEAB59552895269AD539CF2B5B475
:105840008C70AD749491738C8C70424794B18C4F72
:105850007BEE632B5289A53373AD82EBC0A3D021BD
:10586000D800D820E020E020E820F041F041F061AD
:10587000F882F882F882F861F061F061F8C3F0A272
:10588000F8C2F0A2F8E3F903F2A7F9E5F0E2F14378
:10589000D9E3D983DA65F246F1A4E983F143F163F0
:1058A000E142F2A7FAA7FB08E984E922D1E3EB4839
:1058B000D1A3D962E902F0E2E922FB29C8E1E92398
:1058C000D0E1E923E040E8A1E0C1E0E1E8C1F9630B
:1058D000F142F1A3FA05E982E962FA04F1A3F1A326
:1058E000F1E3FA25F204F224F223FA44F264FA8591
:1058F000FAA5FA64F2C5F2A5FB68EB26ECF06AC9DA
:10590000AD32BD94630A8C0E736C29235268840EE9
:105910006B2B5AA9AD334A27B5547BAD8C2F736CD2
:10592000B574738C5268CE5794906B2BAD3383EE65
:10593000CE375AC952889CD19490AD33CE37736C10
:10594000738C9471CE38A4F3A513A51383EE7BCD8D
:10595000A4F2B5749490B574A4D1840EBD9583EF70
:10596000A4D28BEE8C4F736BCE36C5D5B553A4F154
:10597000AD53A4D1AD336B4B94906B2A4A26A4F25D
:105980009C9194D16B6C5AEA7BCD738C5AEAB59496
:10599000BDB59491B5748C2F736C94509CB1AD339C
:1059A0005AEACE379470AD53946F4A4794B07BACAB
:1059B00083ED7BADC5F6A512A5325267BDD5B5B452
:1059C000AD74949094915289A533630A5AC9949006
:1059D0006B6C738D7BEE6B4C8C70BDD6632B5ACA8F
:1059E0006B6CB594840EB5947BCEAD547C0F630B79
:1059F00052889CD26B4C630B5289840FAD743A066B
:105A00007BEEAD5362CA6AEC4A497B8DB8E4D04163
:105A1000D800D800D800D820E020E020E820F041CD
:105A2000F061F061F882F061F882F041F061F8A273
:105A3000F082F8C3F0A2F082F0C2FAA8E923F903D9
:105A4000F123E0E1F266EAA6E983E902F184F1A438
:105A5000D9C3EA86F308D182DA24E902D162D96295
:105A6000F2E7D0C0FAC8D983D880F8E2F143E9C49C
:105A7000D901E923FA87D0C1D983E1C4C0A0D8C134
:105A8000F943F943E902F183FA04F1C3F1C3FA04DB
:105A9000FA04F1E3F204F1E4FA24FA44FA24F223DA
:105AA000F264FA64FAC5F264FAE5FB06FB26EB271A
:105AB000DC4D72C96B4B83EE94706B4B630B736D53
:105AC000A4F283CE9CB1A4F262EA8C2F6B0BA4F2F9
:105AD0005268A4F2D658736C83CE8C2F7BAD6B0BBF
