:020000040800F2
:100000006806002079020008DF0C0008830300085E
:10001000DD0C00087F030008B90D00080000000097
:10002000000000000000000000000000E30C0008D9
:100030008103000800000000E10C0008E50C000846
:10004000930200089302000893020008930200083C
:10005000930200089302000893020008930200082C
:10006000930200089302000893020008930200081C
:10007000930200089302000893020008930200080C
:1000800093020008930200089302000893020008FC
:1000900093020008930200089302000893020008EC
:1000A00093020008930200089302000893020008DC
:1000B00093020008930200089302000893020008CC
:1000C00093020008930200089302000893020008BC
:1000D00093020008930200089302000893020008AC
:1000E000930200089302000893020008930200089C
:1000F000930200089302000893020008930200088C
:10010000930200089302000893020008930200087B
:10011000930200089302000893020008930200086B
:10012000930200089302000893020008930200085B
:10013000930200089302000893020008930200084B
:1001400093020008930200089302000800000000D8
:10015000000000000000000000000000000000009F
:1001600000000000000000000000000093020008F2
:10017000930200089302000893020008930200080B
:1001800093020008930200089302000893020008FB
:100190009302000800000000930200089302000888
:1001A00093020008930200089302000893020008DB
:1001B00093020008930200089302000893020008CB
:1001C00093020008930200089302000893020008BB
:1001D000930200089302000800F002F800F03CF8D7
:1001E0000AA090E8000C82448344AAF10107DA4592
:1001F00001D100F031F8AFF2090EBAE80F0013F0A8
:10020000010F18BFFB1A43F001031847580C0000F8
:10021000780C0000103A24BF78C878C1FAD8520789
:1002200024BF30C830C144BF04680C607047000070
:100230000023002400250026103A28BF78C1FBD8EF
:10024000520728BF30C148BF0B6070471FB500F090
:1002500003FE1FBD10B510BD00F058F81146FFF7A2
:10026000F5FF00F0ABFD00F076F803B4FFF7F2FF06
:1002700003BC00F07DF800000948804709480047AA
:10028000FEE7FEE7FEE7FEE7FEE7FEE7FEE7FEE746
:10029000FEE7FEE704480549054A064B70470000A3
:1002A000A90D0008D9010008680000206806002098
:1002B00068020020680200204FF0000200B51346DB
:1002C00094469646203922BFA0E80C50A0E80C5076
:1002D000B1F12001BFF4F7AF090728BFA0E80C5027
:1002E00048BF0CC05DF804EB890028BF40F8042B20
:1002F00008BF704748BF20F8022B11F0804F18BF8D
:1003000000F8012B7047704770477047754600F042
:100310002BF8AE4605006946534620F00700854697
:1003200018B020B5FFF7B6FFBDE820404FF000063B
:100330004FF000074FF000084FF0000B21F00701CD
:10034000AC46ACE8C009ACE8C009ACE8C009ACE810
:10035000C0098D46704710B50446AFF300802046B3
:10036000BDE81040FFF781BF00487047040000203F
:1003700001491820ABBEFEE7260002007047FEE7E9
:100380007047FEE730B5174A00234C68904206D10B
:100390004FF0A0429268144D02F0010209E0134AA6
:1003A0009268134D02F00102AD6805F001052A4381
:1003B000104DAD6805F001052A4302D0012318460F
:1003C00030BD0D4D44B10A682243D1E902410C43CE
:1003D00081682243294002E0826809682A400A4372
:1003E0008260ECE700030050000100500004005060
:1003F0000005005000060050E030C0FF8168034A4D
:10040000114041F08051816070470000C0FFFF7FC4
:1004100030B58368002213F0010F02D0012210468C
:1004200030BDD1E9003423438968C4684CF2180513
:10043000AC4321430B43C360F1E7000070B54C6847
:100440008368002213F0010F02D00122104670BD14
:10045000002C0E4B0C6807D08D682C43D1E9035655
:1004600035432C434D6904E0CD682C43D1E9045653
:1004700035432C43C5681D402C43C4604968036B59
:1004800023F00F030B430363E0E700001CC0F0FF01
:100490000C2303EA911310B51844036B01F01F01FC
:1004A0001F248C40C2F38462A3438A401343036336
:1004B00010BD042303EAD15310B518444369C1F3B6
:1004C000045107248C40A3438A401343436110BD69
:1004D00010B550F8B03FC1F31204A34302F0180462
:1004E000024AE2400A401343036010BDFFFF0700C9
:1004F000D0F8C0206FF30D020A43C0F8C020026993
:1005000022F4803201B1012142EA014101617047C8
:10051000026940F203439A430A43026170470000B4
:10052000044908B5CA6C0243CA64C96C0140009111
:1005300008BD000000100240044908B5CA6C02431F
:10054000CA64C96C0140009108BD0000001002405F
:10055000F0B50A680F2692FAA2F2B2FA82F30324E7
:100560008AE001259D402A407ED04D68012D01D0B2
:10057000022D20D18D68876892FAA2FCBCFA8CFC0F
:100580004FEA4C0E04FA0EFC27EA0C0792FAA2FC82
:10059000BCFA8CFC4FEA4C0C05FA0CF52F43876033
:1005A000CF680D68D0F804C02CEA050C7D434CEAF6
:1005B000050CC0F804C00F69D0F80CC092FAA2F57F
:1005C000B5FA85F54FEA450E04FA0EF52CEA050C4E
:1005D00092FAA2F5B5FA85F56D00AF404CEA070C2A
:1005E000C0F80CC04D68022D2FD1FF2A15D8D1F8C4
:1005F00014C0056A92FAA2F7B7FA87F7BF0006FAA5
:1006000007F7BD4392FAA2F7B7FA87F7BF000CFAD3
:1006100007FC45EA0C05056217E0D1F814E0476ACB
:10062000150A95FAA5FCBCFA8CFC4FEA8C0C06FA6C
:100630000CFC95FAA5F5B5FA85F5AD0027EA0C078F
:100640000EFA05FE47EA0E0747624D68076892FA00
:10065000A2FCBCFA8CFC4FEA4C0C04FA0CFE27EA14
:100660000E0792FAA2F200E005E0B2FA82F252001E
:1006700095402F4307605B1C0A6832FA03F57FF44C
:1006800070AF0020F0BD4FF47A71B0FBF1F14FF084
:10069000E020491E4161002181610521016170470F
:1006A000064A10B552F8881FC0F3044303249C4047
:1006B000C0B2A14398400143116010BD0010024038
:1006C00003498A6822F0F00202438A607047000002
:1006D000001002400149086070470000000000203F
:1006E00030B593B0002410941194182168461294E8
:1006F000FFF7E2FD0C940D940E94182106A80F94B8
:10070000FFF7DAFD2F48FFF7CBFF4FF40050FFF75C
:1007100013FF0220FFF710FF4FF4804006900320E4
:10072000079006A90A942848FFF712FF4FF0A0454A
:100730001094119410A928461294FFF769FE0094B2
:100740000194029403940494694628460594FFF7A3
:1007500075FE00212846FFF7CBFE00212846FFF753
:10076000D7FE4FF44030CDE90C040CA91748FFF731
:1007700009FEA86816490840A8602846FFF73EFE13
:10078000144815490068B0FBF1F000EB80008000D0
:100790000A21B0FBF1F100E0491E0029FCD10F4C09
:1007A000062122462846FFF773FE002221462846EE
:1007B000FFF77FFE7F2221462846FFF789FE13B010
:1007C00030BD000002001C0000040048000300507F
:1007D000C0FFFF5F00000020400D03002000F01468
:1007E00030B58FB000240C940D94182168460E94F7
:1007F000FFF762FD182106A8FFF75EFD2A48FFF704
:100800004FFF4FF40050FFF797FE0220FFF794FED2
:100810004FF4004006900320079006A90A9423484D
:10082000FFF796FE224D0C940D940CA928460E94C9
:10083000FFF7EEFD0094019402940394049469463A
:1008400028460594FFF7FAFD00212846FFF750FEE1
:1008500000212846FFF75CFEA86816490840A860FA
:100860002846FFF7CBFD144814490068B0FBF1F0AF
:1008700000EB800080000A21B0FBF1F100E0491E8E
:100880000029FCD10E4C062122462846FFF700FE27
:10089000002221462846FFF70CFE7F2221462846EB
:1008A000FFF716FE0FB030BD02001C000004004828
:1008B00000010050C0FFFF5F00000020400D03005A
:1008C0000080F03E30B593B00024109411941821AC
:1008D00068461294FFF7F0FC0C940D940E941821C6
:1008E00006A80F94FFF7E8FC2E48FFF7D9FE4FF457
:1008F0008040FFF721FE0220FFF71EFE4FF400505C
:1009000006900320079006A90A942748FFF720FEC7
:10091000264D1094119410A928461294FFF778FDE3
:100920000094019402940394049469462846059423
:10093000FFF784FD00212846FFF7DAFD0021284655
:10094000FFF7E6FD4FF44030CDE90C040CA9184840
:10095000FFF718FDA86817490840A8602846FFF768
:100960004DFD154815490068B0FBF1F000EB800023
:1009700080000A21B0FBF1F100E0491E0029FCD102
:100980000F4C062122462846FFF782FD0022214611
:100990002846FFF78EFD7F2221462846FFF798FD67
:1009A00013B030BD02001E000004004800040050D7
:1009B00000070050C0FFFF5F00000020400D030053
:1009C0002000F01430B58FB000240C940D94182141
:1009D00068460E94FFF770FC182106A8FFF76CFC20
:1009E0002A48FFF75DFE4FF48040FFF7A5FD022087
:1009F000FFF7A2FD4FF4805006900320079006A950
:100A00000A942348FFF7A4FD224D0C940D940CA9E1
:100A100028460E94FFF7FCFC009401940294039482
:100A20000494694628460594FFF708FD00212846EE
:100A3000FFF75EFD00212846FFF76AFDA86816490A
:100A40000840A8602846FFF7D9FC144814490068FC
:100A5000B0FBF1F000EB800080000A21B0FBF1F167
:100A600000E0491E0029FCD10E4C062122462846F2
:100A7000FFF70EFD002221462846FFF71AFD7F22D0
:100A800021462846FFF724FD0FB030BD02001E00AE
:100A90000004004800050050C0FFFF5F0000002078
:100AA000400D03000800900C2DE9F04F87B018218D
:100AB0006846FFF701FC0420FFF732FD2020FFF716
:100AC0002FFD0120FFF72CFD0220FFF729FD4FF03D
:100AD00090470120B8620820B8621020B862402018
:100AE000B862DFF8F0810120C8F828000420C8F8B7
:100AF00028004FF4006BC7F828B08002B8621020BD
:100B0000C8F828002020C8F8280000240002CDE9F9
:100B10000004694670480494FFF71AFD012500950A
:100B2000CDE901540394694638460494FFF710FD5B
:100B30000226CDE90064694638460494FFF708FDB3
:100B40004FF00409CDE90094694638460494FFF754
:100B5000FFFC08200090CDE9015403946946384613
:100B60000494FFF7F5FC10200090CDE901540394A4
:100B7000694638460494FFF7EBFC20200090CDE94D
:100B800001644FF0050ACDE9044A694638460394EA
:100B9000FFF7DEFC40200090CDE901540394694644
:100BA00038460494FFF7D4FC80200090CDE901641E
:100BB000CDE9044A694638460394FFF7C9FC00951D
:100BC000CDE901540394694640460494FFF7C0FC04
:100BD000CDF80090CDE90154039469464046049451
:100BE000FFF7B6FCA8020090CDE901644FF0070AB8
:100BF000CDE9044A694640460394FFF7A9FCCDF8C5
:100C000000B0CDE90164CDE9044A69464046039449
:100C1000FFF79EFC2802CDE900046946384604949B
:100C2000FFF796FC68020090CDE90164CDE9044A23
:100C3000694638460394FFF78BFCA8020090CDE983
:100C40000164CDE9044A694638460394FFF780FC05
:100C5000CDF800B0CDE901540394694638460494B8
:100C6000FFF776FC28030090CDE901540394694610
:100C700038460494FFF76CFCE803CDE90006CDE9A3
:100C80000449CDE9024569463846FFF761FC10206A
:100C90000090CDE901540394694640460494FFF75F
:100CA00057FC20200090CDE901540394694640464A
:100CB0000494FFF74DFC8020CDE90006CDE90449FE
:100CC000CDE9024569464046FFF742FC07B0BDE862
:100CD000F08F00000004004800080048FEE7FEE72F
:100CE000704770477047000038B52A48016821F006
:100CF0000F0141F004010160016801F00F010429B6
:100D0000FAD1254850F8801F21F480710160234CEE
:100D1000206840F4803020602068C0F34040002804
:100D2000FAD0E16845F213501D4A11400843E060D3
:100D3000E06840F08070E060206840F080702060E3
:100D40002068C0F340600028FAD0A06840F003009B
:100D5000A0608020FFF7B4FCA06800F00C000C2815
:100D6000FAD155200090401E0090FCD1FFF7A8FC5E
:100D7000A06820F4E060A060A06820F46050A0604B
:100D8000084C2046FFF77FFC2046BDE83840FFF7BF
:100D9000A1BC000000200240007000400010024092
:100DA0000C80FFF980FE210A0248016841F47001BD
:100DB0000160704788ED00E0FEE70000214808B5BB
:100DC000016E41F001010166016E01F00101009127
:100DD000816D41F080518165806D1B4900F080502C
:100DE000009008684FF6FF021040184A40F4407027
:100DF000104308600868C0F30220C0F10702042A0B
:100E000000D90422011D072901D2002000E0C01EE4
:100E100001219140491E814008010D4981F8140DBE
:100E20000C48816841F480418160FFF75DFFFFF766
:100E30003BFEFFF747FDFFF753FCFFF7D1FCFFF741
:100E4000C1FDFEE7001002400CED00E00000FA05D5
:100E50000FE000E0007000404FF04070E1EE100A3B
:100E600070470000840E000800000020040000000D
:100E700014020008880E0008040000206406000028
:080E8000300200080024F40018
:04000005080001D915
:00000001FF
