:020000040800F2
:100000000851002025030008C73A0008F92100081C
:10001000C53A0008F71D0008D144000800000000A0
:10002000000000000000000000000000F53C000897
:100030009D21000800000000FB3A0008F73C000882
:100040003F0300083F0300083F0300083F03000888
:100050003F0300083F0300083F0300083F03000878
:100060003F0300083F0300083F0300083F03000868
:100070003F0300083F0300083F0300083F03000858
:100080003F0300083F0300083F0300083F03000848
:100090003F0300083F0300083F0300083F03000838
:1000A0003F0300083F0300083F0300083F03000828
:1000B000C93D00083F0300083F0300083F03000854
:1000C0003F0300083F0300083F0300083F03000808
:1000D0003F0300086D4100083F030008214200086B
:1000E0003F0300083F0300083F0300083F030008E8
:1000F0003F0300083F0300083F0300083F030008D8
:100100003F0300083F0300083F0300083F030008C7
:100110003F0300083F0300083F0300083F030008B7
:100120003F0300083F0300083F0300083F030008A7
:100130003F0300083F0300083F0300083F03000897
:100140003F0300083F0300083F03000800000000D1
:10015000000000000000000000000000000000009F
:100160000000000000000000000000003F03000845
:100170003F0300083F0300083F0300083F03000857
:100180003F0300083F0300083F0300083F03000847
:100190003F030008000000003F0300083F03000881
:1001A0003F0300083F0300083F0300083F03000827
:1001B0003F0300083F0300083F0300083F03000817
:1001C0003F0300083F0300083F0300083F03000807
:1001D0003F0300083F03000800F002F800F092F827
:1001E0000AA090E8000C82448344AAF10107DA4592
:1001F00001D100F087F8AFF2090EBAE80F0013F052
:10020000010F18BFFB1A43F0010318472C460000EA
:100210004C460000103A24BF78C878C1FAD852077B
:1002200024BF30C830C144BF04680C607047000070
:100230000023002400250026103A28BF78C1FBD8EF
:10024000520728BF30C148BF0B6070476E2900F0CD
:10025000F181702900F03B83662904F0478265290B
:1002600004F04482672904F04182612904F040824D
:1002700003681B0A28BF41F08001692900F09E81B4
:10028000642900F09B81752900F098816F2900F0A6
:10029000C882782900F00783E92900F06382E42905
:1002A00000F06082F52900F05D82EF2900F0C58240
:1002B000F82900F006830368DB0928BF41F08001BC
:1002C000632901F03B80732901F04080E32901F0AC
:1002D0004B80F32901F05080002070471FB504F0D7
:1002E00000FA01F09BF804000020002104F06CF9F2
:1002F000401C60600020002104F050F9E0601FBD48
:1003000010B510BD01F05CF81146FFF7E7FF04F0EF
:100310001DF901F039F903B4FFF7F2FF03BC01F056
:1003200081F900000948804709480047FEE7FEE7D9
:10033000FEE7FEE7FEE7FEE7FEE7FEE7FEE7FEE795
:1003400004480549054A064B70470000B93D0008BE
:10035000D9010008084B002008510020084D00205A
:10036000084D00207CB51D4616460C00009001D0BB
:100370002044401E074B7B442A4669460190304684
:1003800000F071F905461CB10020694600F07EF9C5
:1003900028467CBD1D03000010B5431C02E010F888
:1003A000011B71B18107FAD14FF0013202C88C1ADA
:1003B0008C4314EAC211F9D0C01A0A0603D0C01E39
:1003C00010BDC01A10BD0A0401D0801E10BD090264
:1003D000FCD0401E10BD032A40F2308010F0030C08
:1003E00000F0158011F8013BBCF1020F624498BF88
:1003F00011F801CB00F8013B38BF11F8013BA2F125
:10040000040298BF00F801CB38BF00F8013B11F09F
:10041000030300F02B83083AC0F0088051F8043B36
:10042000083A51F804CBA0E80810F5E7121D5CBFAC
:1004300051F8043B40F8043BAFF30080D20724BFDF
:1004400011F8013B11F801CB48BF11F8012B24BF73
:1004500000F8013B00F801CB48BF00F8012B7047C2
:100460004FF000020429C0F0128010F0030C00F0DD
:100470001B80CCF1040CBCF1020F18BF00F8012B5B
:10048000A8BF20F8022BA1EB0C0100F00DB85FEA29
:10049000C17C24BF00F8012B00F8012B48BF00F8F5
:1004A000012B70474FF0000200B513469446964664
:1004B000203922BFA0E80C50A0E80C50B1F1200177
:1004C000BFF4F7AF090728BFA0E80C5048BF0CC025
:1004D0005DF804EB890028BF40F8042B08BF704783
:1004E00048BF20F8022B11F0804F18BF00F8012BF5
:1004F000704770477047704770B50446856900685B
:10050000C10601D5302600E02026C00707D070BD07
:10051000D4E9012130469047206A401C20626D1EBC
:10052000F6D570BD70B5044685690078C00707D15F
:1005300070BDD4E9012120209047206A401C206230
:100540006D1EF6D570BD09684A0501D540B27047E9
:10055000C905FCD500B2704709684A0501D5C0B28B
:100560007047C905FCD580B2704770B50C4605468A
:10057000012A05D02878800600D5EA69002302E028
:10058000012305E05B1C934202D2E05C0028F9D114
:10059000A869E618C01AA861286A18442862284683
:1005A000FFF7AAFF04E0D5E9012114F8010B9047F9
:1005B000B442F8D32846FFF7B5FF70BD2DE9F041EE
:1005C0000646002410687529314616A510D0FFF79D
:1005D000BAFF002802DA404213A507E031688A0713
:1005E00001D512A502E0490704D511A5012401E0B7
:1005F000FFF7B2FF00210A2206F1240709E0B0FB51
:10060000F2FCB0FBF2F302FB1C00303078541846C9
:10061000491C0028F3D123462A463046BDE8F04164
:1006200000F09BBA000000002D0000002B0000002D
:100630002000000011680268006A530501D50870A7
:100640000AE0D30501D5088006E0130603D5C217DA
:10065000C1E9000200E008600120704701694A1CFE
:1006600002610878704700B58FB0CDE901310021F3
:10067000059105497944CDE903101146684600F01B
:1006800031F90FB000BD0000E5FFFFFF0A6802F876
:10069000010B0A607047D1E900239A4202D2531C31
:1006A0000B601070704700002DE9FF5F15468A4609
:1006B0000446DFF8AC80F8440027D8E900103E4635
:1006C000CDE9001010E03AF816106A4602A800F0D2
:1006D00057FE411C07D02178890603D5E2693918F5
:1006E00091420DD80744761C2078800602D5E06937
:1006F000B84205DDAE42E6DB3AF816000028E2D14A
:10070000A069C01BA0612046FFF7F6FED8E90010E3
:10071000CDE90010002017E03AF818106A4602A848
:1007200000F02EFEB0F1FF3F81460BD000250DF109
:10073000080B05E0D4E901211BF8050090476D1C6A
:100740004D45F7D308F10100B0428046E4DB206A52
:10075000384420622046FFF7E5FEBDE8FF9F000019
:10076000824000002DE9F0418046D21D22F00702B0
:100770000025D2E90002F52915A614D0011E72F158
:10078000000106DA0023D0EB030063EB020211A69E
:1007900008E0D8F800108B0701D50FA602E0490742
:1007A00001D50EA601251146002408F1240704E016
:1007B00000F08EF930323A55641C50EA0102F7D14C
:1007C0002B46324621464046BDE8F04100F0C5B90F
:1007D000000000002D0000002B00000020000000A1
:1007E00030B4002100F1240408E002F00705D2082B
:1007F000303542EA4372DB086554491C52EA03056E
:10080000F3D10468002310A2250707D5A40600D45D
:1008100021B1C46901230DA2641EC46130BC00F083
:100820009CB910B5044621461068FFF795FE0246B4
:100830002046BDE810400023D2E7D21D22F0070178
:10084000D1E90023CCE700000000000030000000E8
:10085000F0B40D460188090502D5214C7C4402E024
:100860001F4C7C440E34002100F1240608E002F005
:100870000F071209E75D42EA03721B097754491C0E
:1008800052EA0307F3D102780023120704D5702D32
:1008900006D009B1022311342246F0BC00F05DB944
:1008A00001231034F8E770B504460D462146106860
:1008B000FFF752FE024629462046BDE8704000235D
:1008C000C6E7D21D22F00703D3E90023C0E703687F
:1008D000126843F0200303600823C3610023B7E7D5
:1008E000E43E00002DE9F05F894604464FF0000A1F
:1008F000DFF874B1FB44C0F820A02046E1688847C7
:10090000002874D0252806D0D4E901219047206A18
:10091000401C2062F1E700265F462046E1688847D8
:100920002028054607DB312D05D2781910F8200C58
:1009300008B10643F1E7B00701D526F00406C4F874
:100940001CA00027C4F818A02A2D09D0284603F0BF
:10095000F5FD38B304EB8708303DC8F8185019E0AE
:1009600059F8041B204604EB87029161E16888472F
:10097000012F054618D1E069002820DA26F020066C
:100980001DE0D8F8180000EB800005EB400030387F
:10099000C8F818002046E1688847054603F0CEFDF8
:1009A0000028EED1012F0AD02E2D08D12046E16873
:1009B00088477F1C0546022F46F02006C4DBA0694D
:1009C000002803DA404246F00106A061F00701D09A
:1009D00026F010066C2D0BD0682D09D04C2D39D087
:1009E0006A2D35D0742D35D07A2D33D016E038E00D
:1009F000E1682F4620468847B842054609D16C2F4A
:100A000026D04FF48060E1680643204688470546BB
:100A100004E06C2F1AD04FF4807006430DB3A5F19B
:100A20004100192802D8203546F400664A46294676
:100A3000204626604E46FFF709FC80B101280BD006
:100A4000F61D26F0070000F1080956E74020E4E70C
:100A50008020D8E70020D6E706F104094DE72846B4
:100A600052E7206ABDE8F09F743E000010B5203ABE
:100A7000C0F00B80B1E81850203AA0E81850B1E857
:100A80001850A0E81850BFF4F5AF5FEA027C24BF0D
:100A9000B1E81850A0E8185044BF18C918C0BDE804
:100AA00010405FEA827C24BF51F8043B40F8043BCD
:100AB00008BF7047D20728BF31F8023B48BF11F882
:100AC000012B28BF20F8023B48BF00F8012B7047DC
:100AD00030B5B0F10A024FEA900E71F100034EEA10
:100AE000817EB0EB0E0061EB91014FEA101E4EEAE1
:100AF000017E10EB0E0041EB11114FEA102E4EEA71
:100B0000016E10EB0E0041EB11214FEA104E4EEA40
:100B1000014E10EB0E0041EB1141401841F1000174
:100B20004FEAD00040EA41704FEAD10110EB800556
:100B30004FEA810444EA907444EB01046D1944EBDC
:100B40000404521BA3414FF0000348BF0A3200D5F2
:100B500030BD401C41F1000130BD2DE9F0470D468C
:100B600099469246044600F124080168880604D597
:100B7000E06921F01001216000E00120A84201DDC0
:100B8000471B00E00027A1697A1902EB0900081A47
:100B9000A0612078C00602D42046FFF7ADFC0026F5
:100BA00008E0D4E901211AF806009047206A401CA9
:100BB000761C20624E45F4DB2078C0060AD520461C
:100BC000FFF79AFC06E0D4E9012130209047206A23
:100BD000401C2062381EA7F10107F4DC07E0D4E9CD
:100BE000012118F805009047206A401C2062281E49
:100BF000A5F10105F3DC2046FFF794FC2078000600
:100C000002D50220BDE8F0870120FBE770472DE9FF
:100C1000FF4F0C461E464FF0FF378BB0D2E9000164
:100C2000DDF860800A908A46C1F30A5505B93D4651
:100C3000002108464FF00000BAF1000F00F4400018
:100C400005DA00EB80004FF4400101EA50004FEA62
:100C50009059B9F1010F00DDB9460A9850EA4A00EF
:100C60000ED044F61050A5F2FF3545432F14B8F1CD
:100C7000000F1ED07542291E1EDDC9F100021CE0C6
:100C8000B8F1010F4FF0000001D0302103E0F24332
:100C900005E02154401CB042FBDB3046002200211D
:100CA00021540B99C1F80880C1E900200FB0BDE8BC
:100CB000F08FBD1B6D1CDEE74A4600DA694206A8CC
:100CC00000F0F0FB06AB93E8070003AB83E80700F6
:100CD00050460A9900F0ADFC8DE80700A0F50050E1
:100CE0001F3800900398002D0ADD42F21F014A468A
:100CF0000844002303A90390684600F016FF09E0AA
:100D0000A0F500504A461F38002303A90390684607
:100D100000F020FF8DE807000004000C03D04FF026
:100D2000FF30410800E01046B8F1000F03D0002268
:100D3000009215461EE0751E05D4FFF7C9FE30323D
:100D400062556D1EF9D5B3460122084302D0002238
:100D50007F1C04E02078302801D100227F1E002A69
:100D6000099784D01DE0112D07DAFFF7B1FE30326C
:100D700062556D1C50EA0102F5D1084302D000987B
:100D8000C8B10EE00021681E05E0235C625C63547C
:100D90002254401E491C8142F7DBAB46A81B401E73
:100DA0000990002004F80B000B98099AC0F80880FD
:100DB000C0E9002B7AE711264FF0000857E72DE92C
:100DC000F04F88460446D21D22F0070191B0D1E9C8
:100DD0000001CDE90A0103F07CFB02460B98C00F2D
:100DE00001D02D2007E02068810701D52B2002E0EB
:100DF000202101EAC000032A099001D0072A05DB5F
:100E000003464146204600F00DFB0BE120788006AA
:100E100001D5E06900E00620B8F1650F814606D0F3
:100E2000B8F1660F18D0B8F1670F70D131E000202B
:100E3000B9F1110F009001DB112301E009F1010369
:100E40000AAA01A90CA8FFF7E2FEDDE90C70002652
:100E500009F10105834647E001204B4600904FF021
:100E600000470AAA01A90CA8FFF7D1FEDDE90DB0E1
:100E70000C995D46002610B909F101000D18B9EB77
:100E8000050003D4C0F1FF3609F10105A5EB090007
:100E90002BE0B9F1010F01DA4FF001090020B9F19F
:100EA000110F0090484601DD112300E003460AAA15
:100EB00001A90CA8FFF7ABFEDDE90C704D4600263A
:100EC0008346207800070AD4AB4500DA5D4601A8C6
:100ED000012D04DD411911F8011C302907D04F45BF
:100EE00002DA17F1040F04DA012082460FE06D1ECA
:100EF000EEE7002F02DCED1B3E4403E0781CA84225
:100F000000DD7D1CB81B00F1010A4FF0004720787E
:100F1000000703D4AA4501DB4FF0FF3A0021B7F1E7
:100F2000004F0DF143088DF8431024D002202B23ED
:100F3000002F01DA7F422D230A21021EA0F10100B9
:100F400000DC5FB197FBF1FC97FBF1F201FB1C7C2D
:100F500017460CF1300C08F801CDEEE7A8F10100BE
:100F600003702188090501D5452100E06521A0F124
:100F7000010800F8011C09980FA9A1EB0807FF1D43
:100F800000B10120411901EBEA70A1693844081A47
:100F9000401EA0612078C00602D42046FFF7ACFABC
:100FA000099828B1D4E901219047206A401C2062A9
:100FB0002078C00622D52046FFF79EFA1EE0002EBC
:100FC00004DBB34502DD01A8805D00E03020D4E9F8
:100FD00001219047206A401C2062761CAAF1010082
:100FE0005FEA000A0AD100F019FAC0680168405CA3
:100FF000D4E901219047206A401C2062281EA5F1F7
:101000000105DCDC07E0D4E9012118F8010B904769
:10101000206A401C2062381EA7F10107F3DC20463D
:10102000FFF780FA032011B041E600002DE9F04FF0
:1010300004460D46D21D22F0070089B0D0E9009782
:101040004846394603F045FA0246F80F01D02D23F1
:1010500007E02068810701D52B2302E0202101EA67
:10106000C0038DF820300BB1012000E00020032ADE
:10107000824601D0072A04DB2946204600F0D2F937
:101080003FE12078800601D40D2500E0E569C7F333
:101090000A560D2D49DA00214FEA175B08464FF03A
:1010A0000000002F00F4400007DA00EB80004FF44E
:1010B000400100EBD07001EA60008115012901DDDB
:1010C0004FF0FF3100224FEA850CBCF1180F06D318
:1010D0001346ACF118004FF08052C24003E04FF4C9
:1010E000801323FA0CF30CF10C0CBCF1200F04D389
:1010F000ACF1200C09FA0CF001E007FA0CF0002921
:101100004FF0004801DD18B90FE00ED140450CD377
:1011100019EB02095F4121B9404502D19F4329EAF9
:101120000209BBEB175F00D0761C2088000502D5B2
:101130007B48784402E07A487844193808AA30237A
:1011400002F80A30037C0AF10101002E0AF1020ABA
:1011500053546A4602DC4FF0300101E04FF0310198
:101160004FF001088DF8001002D0A6F2FF3603E020
:1011700059EA470100D06B4E002D02DC21780907A7
:1011800004D54FF002082E218DF80110C44600212D
:101190000BE0C7F303433F01C35C491C6D1E02F81B
:1011A0000830052908F1010801DA002DF1DC0021E1
:1011B0000CE000EB1973491C1B786D1E082902F81E
:1011C00008304FEA091908F1010801DA002DF0DCB6
:1011D00021688B0602D516E0A8F10108E04505DD7F
:1011E00002EB080313F8013C302BF5D0B8F1000FE7
:1011F00009DD02EB080313F8013C2E2B03D109078C
:1012000001D4A8F10108002D05DD3E2102F80810E7
:101210006D1E08F10108407C002E02F8080008F15C
:10122000010804DA2D20764202F8080002E02B20A3
:1012300002F808000A214FF47A70864208F101088A
:101240000BDB96FBF0F3303302F8083096FBF0F33B
:1012500008F1010800FB136601E0642E0CDB64203A
:1012600096FBF0F3303302F8083096FBF0F308F108
:10127000010800FB136601E00A2E06DB96FBF1F085
:10128000303002F8080008F1010896FBF1F001FB8C
:101290001060303002F80800A16908F1010808EB7D
:1012A000050202EB0A00081AA0612078C00602D4E9
:1012B0002046FFF721F9216A08AE01EB0A002062FF
:1012C00004E0D4E9012116F8010B9047BAF1010AB4
:1012D000F7D22078C00602D52046FFF70DF96E46FA
:1012E00009E016F8010B3E280FD0D4E90121904700
:1012F000206A401C2062B8F10108F2D22046FFF7B4
:1013000011F909B00320BDE8F08F206A284420625B
:1013100003E0D4E90121302090476D1EEBD3F8E7BC
:101320005A36000002FCFFFF10B5436913B1AFF35A
:10133000008001E0FFF719F9012010BD127800F1DB
:1013400024010A7000224A700122EDE711684FF073
:10135000FF32E9E710B5436913B1AFF3008001E054
:10136000FFF7A2F9012010BD128800F12401828448
:101370000022C2840122EDE711684FF0FF32E9E755
:1013800070B516460C46054600F040F8036893F821
:101390000101012806D0FF2C0FD8185D68B101208B
:1013A0002C7070BDD3F807013246214603F20713B3
:1013B00003442846BDE8704018474FF0FF3070BD29
:1013C000754600F0EBF8AE4605006946534620F03E
:1013D0000700854618B020B5FEF7B2FFBDE82040F3
:1013E0004FF000064FF000074FF000084FF0000BE1
:1013F00021F00701AC46ACE8C009ACE8C009ACE894
:10140000C009ACE8C0098D467047000010B500F077
:1014100005F8001D10BD00BFB13100000048704745
:10142000C84A00202DE9F0411F4604460326016802
:10143000072A01F4006004DB08B116A505E016A533
:1014400003E008B115A500E015A521F0100020600B
:10145000A069C01EA0610FB1401EA0612046FFF729
:101460004BF84FB1D4E9012138469047206A401C1F
:101470002062C01C206206E0206AFAE7D4E901215C
:1014800015F8010B9047761EF8D22046FFF74AF870
:10149000BDE8F0814E414E006E616E00494E46003F
:1014A000696E66002DE9F047814616468AB03548D8
:1014B00078440DC88DE80D0032487844801C03AC98
:1014C0000DC884E80D0041F69B300844372190FB9D
:1014D000F1F290FBF1F5A5F1800501FB12041B3C34
:1014E00002D56442012000E00020DFF898A0804689
:1014F0000027FA44AAF1BE0A0EE0E0070AD03246FD
:10150000684607EB470101230AEB810100F022FB4B
:101510008DE8070064107F1C002CEED1194F7F442A
:10152000AE3F19E0E80715D007EB04100DF1180ADB
:1015300090E80E008AE80E00C068F04201D19819C8
:1015400008903246012306A903A800F003FB03AB71
:1015500083E807006D10641C002DE3D14FF00103F8
:1015600032466946B8F1000F03A802D000F0DDFA58
:1015700001E000F0EFFAC9E90001C9F808200AB05B
:10158000BDE8F0876C33000010B50446AFF300806F
:101590002046BDE81040FEF7BEBE00000048704780
:1015A000A84A00204FF0013C50F8042B51F8043BAE
:1015B0009A4221D1A2EB0C03934313EACC1317D127
:1015C00050F8042B51F8043B9A4215D1A2EB0C03BE
:1015D000934313EACC130BD150F8042B51F8043B7E
:1015E0009A4209D1A2EB0C03934313EACC13DBD04C
:1015F0004FF00000704700BFD01A01BAB1FA81F174
:1016000001F0180122FA01F0CB40C1F12001DBB258
:10161000C0B2C01A2CFA01F3D11A914311EAC311D6
:10162000E6D1704701491820ABBEFEE72600020054
:1016300070475FEA400C08BF91F0000F4FEA8C231F
:101640004FEAC12243EA51514FEA1C5018BF00F53E
:10165000F0404FEA300018BF41F000415FEA6C5C97
:1016600000F02980BCF1FF3F08BF40F08040704788
:10167000130C06BF12044FF0100C4FF0000C130EA9
:1016800004BF12020CF1080C130F04BF12010CF17D
:10169000040C930F04BF92000CF1020CD30F04BF93
:1016A00052000CF1010C11464FF00002A0F11F0096
:1016B000A0EB0C00704711F0004F08BF704731F0ED
:1016C00000413FF4D5AF0B0C06BF09044FF0100CDE
:1016D0004FF0000C0B0E04BF09020CF1080C0B0FAD
:1016E00004BF09010CF1040C8B0F04BF89000CF13D
:1016F000020CCB0F04BF49000CF1010CCCF120030C
:10170000A0EB0C0022FA03F302FA0CF241EA030107
:1017100000F10100704720F07F4C80EA030023F0C5
:101720007F47ACEB070303F57C5300F0004003F167
:10173000FF032DE980494FEA154B09B44FEA1443E2
:1017400025EA0B4E24EA03480FF2042606EB132782
:1017500049083E785FEA320203FB0667C7F50007D7
:1017600007FB06F64FEA54374FEAD64606F1020663
:1017700007FB066CCCF1005C4FEA1C472CEA074CD7
:1017800007FB06F40CFB06F504EB15464FEA96162C
:1017900034BF00204FF000404FEAD13706FB07FC72
:1017A0004FEA1C4C0CFB0BF7D21B03FB0CF761EB55
:1017B00007010CFB0EF7B0EB074072EB17420CFB76
:1017C00008F734BFA2EB0742B2EB074261EB1741C7
:1017D0004FEA0C444FEA910706FB07FC4FEA1C4C0A
:1017E0000CFB0BF7B0EBC74072EB573203FB0CF767
:1017F00034BFA2EBC742B2EBC74261EB57310CFBDF
:101800000EF7B0EBC70072EB57720CFB08F734BF52
:10181000A2EBC702B2EBC70261EB5771039F4FEA1D
:10182000816141EA921104EBCC044FEAD1374FEACF
:10183000826206FB07FC42EA90124FEA80604FEAA0
:101840001C4C0CFB0BF7D21B03FB0CF761EB0701E5
:101850000CFB0EF7B0EB074072EB17420CFB08F7DE
:1018600034BFA2EB0742B2EB074261EB17414FEAEC
:101870008C554FEA910704EB9C2406FB07FC4FEACA
:101880001C4C0CFB0BF7B0EBC74072EB573203FB61
:101890000CF734BFA2EBC742B2EBC74261EB573142
:1018A0000CFB0EF7B0EBC70072EB57720CFB08F79E
:1018B00034BFA2EBC702B2EBC70261EB577115EB65
:1018C0004C254FEA816141EA92114FEA82624FEA68
:1018D000D13742EA901206FB07FC44F100044FEABC
:1018E00080604FEA1C4C0CFB0BF7D21B03FB0CF780
:1018F00061EB07010CFB0EF7B0EB074072EB1742F0
:101900000CFB08F734BFA2EB0742B2EB074261EBD6
:10191000174115EB1C154FEA813141EA92414FEA1C
:10192000823242EA90424FEA80304FEA0C7644F12C
:10193000000448EA03434EEA0B484FF0000EB2EBB6
:10194000080C71EB030724BF624639464EEB0E0EBE
:101950004FF0000B0018524149414BEB0B0BB2EB1F
:10196000080C71EB03077BF1000B24BF624639467C
:101970004EEB0E0E4FF0000B0018524149414BEB5D
:101980000B0BB2EB080C71EB03077BF1000B24BFD0
:10199000624639464EEB0E0E51EA020718BF46F07A
:1019A000010616EB0E7655F1000254F1000103D545
:1019B000BDE88901BDE80088BDE88901BDE80048AF
:1019C000B619524141EB0101A3F101037047808038
:1019D0007F7E7D7C7B7A7978777676757473727189
:1019E00071706F6E6E6D6C6C6B6A6A696868676641
:1019F00066656464636362616160605F5F5E5E5DD3
:101A00005D5C5C5B5B5A5A59595858575756565546
:101A100055555454535352525251515050504F4FA8
:101A20004F4E4E4D4D4D4C4C4C4B4B4B4A4A4A49F8
:101A3000494948484847474747464646454545443B
:101A40004444444343434342424242414141002BC8
:101A50009C4630D477002BD01CB54FEA370703B42F
:101A60004FF010004FF01001BAF1000F06D0BCF19A
:101A7000000FDCBF40F0080040F008014FF000000C
:101A80000FBCBDE810400BF1010BBBF1010F08BF0B
:101A90005FEA170722BF12F1010211F101014FF0B5
:101AA000004143F1000300F0004043EA00007047AA
:101AB000F9D35708D0E746EA064613F1400F4FEA3C
:101AC00016461FDD13F1200FDFBF16430A46002123
:101AD00020335B42BED0C3F1200746EA064602FA35
:101AE00007F74FEA164646EA0706C3F1200722FA2F
:101AF00003F201FA07F721FA03F14FF0000342EA7B
:101B00000702A7E746EA020646EA06464FEA1646F5
:101B100046EA0106BCBF46EA0646360C4FF0000313
:101B20004FF000024FF0000194E72DE9804C9A46F7
:101B3000934670B491E8380007C831EA400C48BFBA
:101B400034EA430C03D5FFF7E6FDFFF780FFF0BC56
:101B5000BDE8008C2DE9804C9A46934670B491E81C
:101B6000380007C810F0804F08BF13F0804F03D132
:101B700000F005F8FFF76BFFF0BCBDE8008C20F02B
:101B80007F4780EA030023F07F4C07EB0C03A3F5AB
:101B90007C5300F00040A3F1FE0392F0000F00F030
:101BA000B38095F0000F00F077802DE901494FEAEE
:101BB00011404FEA144621EA004800FB06FC24EAE3
:101BC000064708FB06F607FB08F800FB07F718EBCB
:101BD00006484CEB164C4FEA124B18EB07484FEAFD
:101BE00015464CEB174022EA0B4E0BFB06FC25EA90
:101BF00006470EFB06F607FB0EFE0BFB07F71EEB78
:101C0000064E4CEB164C4FF000061EEB074E4CEB0D
:101C1000174B18EB0B0840F1000018EB0E0B58EBBC
:101C2000000840F100008F1A4FF000013CBFC9438B
:101C3000661B14BFB5EB040C00213CBFC943F61B67
:101C40004FEA17444EEA8E0E27EA04454FEA1C4736
:101C500004FB07622CEA074C05FB07F70CFB05F6B3
:101C600004FB0CFC16EB074642EB174216EB0C4646
:101C700042EB1C421BEB060658EB0202414146EACE
:101C80009E0601D5BDE80189B619524141EB01011B
:101C9000A3F10103BDE801894FEA14454FEA11475A
:101CA00024EA054621EA074C05FB07F406FB07F783
:101CB0000CFB06F105FB0CFC11EB074144EB174450
:101CC0004FEA124711EB0C4144EB1C4422EA074C4B
:101CD00005FB07F206FB07F70CFB06F605FB0CFC01
:101CE00016EB074642EB174216EB0C4642EB1C453F
:101CF0006A1854F1000148BF7047B619524141EBD0
:101D00000101A3F10103704795F0000F37D04FEAAE
:101D100011424FEA144721EA024624EA074C02FB2B
:101D200007F106FB07F70CFB06F402FB0CFC14EBB7
:101D3000074441EB17414FEA154714EB0C4441EBC4
:101D40001C4125EA074C02FB07F506FB07F70CFBD5
:101D500006F602FB0CFC16EB074645EB174516EBA7
:101D60000C4645EB1C42121951F1000148BF704767
:101D7000B619524141EB0101A3F1010370474FEA4B
:101D800014454FEA114724EA054621EA074C05FBB2
:101D900007F106FB07F70CFB06F24FF0000605FB08
:101DA0000CFC12EB074241EB174112EB0C4251EBDA
:101DB0001C4148BF7047921841EB0101A3F1010398
:101DC000704700008168074A1140091D8160016861
:101DD000C1F380010029FAD004210160006C80B2B7
:101DE00070470000C0FFFF7F016811F0010FFBD0BA
:101DF000012101607047FEE7024901EB800090ED90
:101E0000000A7047884A002010B501F0A3F801F0DD
:101E100093F901F083FA01F073FB4FF0A0442046E0
:101E200000F052FC2046FFF7DFFF0B4C204600F08D
:101E30004BFC2046FFF7D8FF084C204600F044FC3E
:101E40002046FFF7D1FF064C204600F03DFC20461F
:101E5000BDE81040FFF7C8BF00010050000400506B
:101E60000005005010B54FF0A040FFF7ABFF144C39
:101E700020801448FFF7A6FF60801348FFF7A2FFF9
:101E8000A0801248FFF79EFFE080DFED110A9FED72
:101E9000111A1149002000BF34F8102000EE102A5A
:101EA00001EB8002401CB8EE400AC0B2042820EECC
:101EB000200AC0EE011AC2ED001AEDD310BD0000D9
:101EC00022000020000100500004005000050050D6
:101ED0003333534000F07F45884A002030B57548C1
:101EE00085B0016E41F480510166016E01F48051AC
:101EF0000491C16C41F00101C164C06C4FF0904588
:101F000000F001000490022220212C46284600F017
:101F1000A3FD02228021204600F09EFD0522202103
:101F2000204600F086FD05228021204600F081FD3C
:101F300003222021204600F0BBFD03228021204601
:101F400000F0B6FD00222021204600F098FD00227E
:101F50008021204600F093FD00222021204600F041
:101F600094FD00228021204600F08FFD01220821EF
:101F7000204600F071FD01221021204600F06CFD8A
:101F800001224021204600F067FD0322082120465F
:101F900000F08EFD03221021204600F089FD03226F
:101FA0004021204600F084FD00220821204600F058
:101FB00066FD00221021204600F061FD0022402134
:101FC000204600F05CFD0820A0611020A0614020A8
:101FD000A0613949086820F040000860086820F4D2
:101FE000444040F440400860086840F48270086053
:101FF000486820F4706040F4E0604860086820F0B1
:1020000002000860086820F001000860086840F4D9
:1020100000700860486820F004004860086820F0FC
:10202000380040F010000860086820F08000086068
:10203000086840F0400008604020A06200244FF48F
:102040007A7004940499491C04918142FAD3402186
:10205000A96104940499491C04918142FAD317A000
:10206000032100680090684600F032F814A00321B4
:102070000068019001A800F02BF812A0032100686D
:10208000029002A800F024F80FA00321006803903A
:1020900003A800F01DF80DA00068049003208DF83F
:1020A00011408DF81200014604A800F011F805B0A7
:1020B00030BD00000010024000300140200003004D
:1020C0002800010030000300380001000200000079
:1020D00030B54FF090440822A26200220A4B08E07B
:1020E0009D68C5F34005002DFAD0855C1D73521C18
:1020F000D2B28A42F4D39868C0F3C0100028FAD153
:102100000820A06130BD000000300140B0EE041A8C
:1021100008B5C0EE010A9FED0D0A20EE800ABCEE64
:10212000C00A10EE101A89B270B101280BD1192023
:102130008DF80000080A8DF801008DF802100321C7
:102140006846FFF7C5FF08BD1820F1E700FF7F478D
:10215000074A10B5536807494FF47A740968B1FB10
:10216000F4F141435068C01A8842FBD310BD00000F
:10217000001000E0000000200648016841F0807176
:102180000160054800214160016841F001010160E2
:1021900070470000FCED00E0001000E07047000018
:1021A0000FB44FF4806110B5ADF5806D0DF20C43A6
:1021B0006846DDF80824FEF7D5F800246846FEF7E7
:1021C000EBF840F2FE31884209D20D220DF80020D2
:1021D000401C0A220DF80020401C0DF8004082B27D
:1021E0006946044801F0A0FF0DF5806D10BC5DF854
:1021F00014FB000000480040FEE70000F0B58FB07F
:102200001C2106A8FEF74EF918216846FEF74AF988
:1022100030480168002421F440510160012000F0A1
:1022200055FB022000F052FB02254FF40040CDE99F
:1022300000050126CDE90256042769464FF090407B
:10224000CDE9046700F05AFB8020CDE90005CDE917
:10225000025669462048CDE9046700F04FFB1D484F
:102260008838816D41F400118165806D099400F416
:1022700000100D9019480894CDE906400A940B947B
:102280000C94174C06A9204600F044FC606840F00E
:1022900000706060E06840F2FE718843E060E068D2
:1022A00020F40040E060206820F4002020602068D6
:1022B00020F400302060E06940F00800E061E0694F
:1022C00040F02000E061E06940F01000E0610FB0F4
:1022D000F0BD00008810024000040048C285B240F2
:1022E000005400402DE9FC4117463C4D04460022B5
:1022F0001E4628461A8001E0401E5ED3A369C3F340
:10230000C033002BF8D136480123CDE90020480026
:10231000804601460022204600F0DEFB284605E00C
:10232000A169C1F3001181BB401E46D3A169C1F36D
:1023300040010029F4D0A762284605E0A169C1F355
:10234000001111BB401E38D3A169C1F380110029CF
:10235000F4D024494FF00070CDE90001022300229F
:102360004146204600F0B8FB284605E0A169C1F3CC
:10237000001151B9401E20D3A169C1F38001002989
:10238000F4D0606AC1B228460DE003E0A269C2F34E
:10239000001232B1E06940F01000E0610120BDE8B8
:1023A000FC81401E09D3A269C2F38002002AEDD04D
:1023B000606AC0B203E06D1E01D20220EFE7A2699D
:1023C000C2F34012002AF6D0E26942F02002E26134
:1023D00040EA012030800020E1E70000A0860100F3
:1023E00000200080002400802DE9FC41304D04468F
:1023F00090461F0ADEB2284601E0401E4AD3A26979
:10240000C2F3C032002AF8D12068C00703D1206887
:1024100040F001002060274A49001003CDE9000286
:1024200003230022204600F057FB294605E0A0695F
:10243000C0F30010E0B9491E2CD3A069C0F34000DE
:102440000028F4D0C4F82880284605E0A169C1F32B
:10245000001169B9401E1DD3A169C1F340010029D3
:10246000F4D0A76228460CE0A169C1F3001131B194
:10247000E06940F01000E0610120BDE8FC81401EF1
:1024800008D3A169C1F340010029EDD0A66203E0A1
:102490006D1E01D20220F0E7A069C0F340100028B1
:1024A000F6D0E06940F02000E0610020E5E70000A0
:1024B000A0860100002000800B494CF6CC420A6047
:1024C00045F255520A6003224A60B0F5805F01D39D
:1024D00040F6FF70C0F30B008860C8684007FCD16D
:1024E0004AF6AA200860704700300040144800BF38
:1024F00050E8001F41F0200140E80012002AF7D107
:1025000010480068C0F30220C0F10701042900D977
:102510000421021D072A01D2002000E0C01E012272
:102520008A40521E02F0030181400801064981F8E9
:102530000004054980202339C1F8000170470000DC
:10254000004800400CED00E027E000E010B5FFF788
:1025500013FEFFF7C3FC044801F042FBBDE8104046
:1025600002A0FFF71DBE0000005400404170702023
:10257000496E6974205375636365737300000000CE
:1025800010B501F02FF801F0B1FD00F047FE00F0AA
:1025900061FC00F05FFD00F041FF01F035F901F052
:1025A000C7FCFFF72BFEFFF72FFCBDE8104001A092
:1025B000FFF7F6BD486172647761726520496E6904
:1025C0007420537563636573730000001B4808B57E
:1025D000016E41F001010166016E01F001010091FF
:1025E000816D41F080518165806D154900F080500A
:1025F000009008684FF6FF021040124A40F4407005
:10260000104308600868C0F30220C0F10702042AE2
:1026100000D90422011D072901D2002000E0C01EBC
:1026200001219140491E81400801074981F8140D9C
:102630000648816841F48041816008BD0010024075
:102640000CED00E00000FA050FE000E00070004033
:1026500030B5174A00234C68904206D14FF0A04293
:102660009268144D02F0010209E0134A9268134D7A
:1026700002F00102AD6805F001052A43104DAD6876
:1026800005F001052A4302D00123184630BD0D4D47
:1026900044B10A682243D1E902410C4381682243D4
:1026A000294002E0826809682A400A438260ECE718
:1026B00000030050000100500004005000050050CD
:1026C00000060050E030C0FF8168024A1140491CFA
:1026D00081607047C0FFFF7F8168034A114041F06D
:1026E0008051816070470000C0FFFF7F8168034A0E
:1026F000114041F08051816070470000C0FFFF7FB2
:1027000030B58368002213F0010F02D00122104679
:1027100030BDD1E9003423438968C4684CF2180500
:10272000AC4321430B43C360F1E7000070B54C6834
:102730008368002213F0010F02D00122104670BD01
:10274000002C0E4B0C6807D08D682C43D1E9035642
:1027500035432C434D6904E0CD682C43D1E9045640
:1027600035432C43C5681D402C43C4604968036B46
:1027700023F00F030B430363E0E700001CC0F0FFEE
:102780000C2303EA911310B51844036B01F01F01E9
:102790001F248C40C2F38462A3438A401343036323
:1027A00010BD0C2303EA911310B51844036B01F01C
:1027B0001F011F248C40C2F38462A3438A40134349
:1027C000036310BD042303EAD15310B518444369D1
:1027D000C1F3045107248C40A3438A40134343614F
:1027E00010BD042303EAD15310B518444369C1F363
:1027F000045107248C40A3438A401343436110BD16
:1028000010B550F8B03FC1F31204A34302F018040E
:10281000024AE2400A401343036010BDFFFF070075
:1028200010B550F8B03FC1F31204A34302F01804EE
:10283000024AE2400A401343036010BDFFFF070055
:10284000D0F8C0206FF30D020A43C0F8C02002691F
:1028500022F4803201B1012142EA01410161704755
:10286000D0F8C0206FF30D020A43C0F8C0200269FF
:1028700022F4803201B1012142EA01410161704735
:10288000026940F203439A430A43026170470269B6
:1028900040F203439A430A4302617047044908B572
:1028A000CA6C0243CA64C96C0140009108BD0000B3
:1028B00000100240044908B5CA6C0243CA64C96CDE
:1028C0000140009108BD000000100240044908B515
:1028D000CA6C0243CA64C96C0140009108BD000083
:1028E00000100240044908B5CA6C0243CA64C96CAE
:1028F0000140009108BD000000100240F0B50A68D8
:102900000F2692FAA2F2B2FA82F303248AE001259A
:102910009D402A407ED04D68012D01D0022D20D14E
:102920008D68876892FAA2FCBCFA8CFC4FEA4C0EC8
:1029300004FA0EFC27EA0C0792FAA2FCBCFA8CFC03
:102940004FEA4C0C05FA0CF52F438760CF680D68F1
:10295000D0F804C02CEA050C7D434CEA050CC0F805
:1029600004C00F69D0F80CC092FAA2F5B5FA85F54B
:102970004FEA450E04FA0EF52CEA050C92FAA2F580
:10298000B5FA85F56D00AF404CEA070CC0F80CC0F5
:102990004D68022D2FD1FF2A15D8D1F814C0056A31
:1029A00092FAA2F7B7FA87F7BF0006FA07F7BD4316
:1029B00092FAA2F7B7FA87F7BF000CFA07FC45EACC
:1029C0000C05056217E0D1F814E0476A150A95FA7C
:1029D000A5FCBCFA8CFC4FEA8C0C06FA0CFC95FAB0
:1029E000A5F5B5FA85F5AD0027EA0C070EFA05FE48
:1029F00047EA0E0747624D68076892FAA2FCBCFAE4
:102A00008CFC4FEA4C0C04FA0CFE27EA0E0792FAF3
:102A1000A2F200E005E0B2FA82F2520095402F43A4
:102A200007605B1C0A6832FA03F57FF470AF002080
:102A3000F0BD30B5036A91FAA1F4B4FA84F4A500AC
:102A40000F24AC4091FAA1F1B1FA81F18900A343BE
:102A50008A401343036230BD30B5036891FAA1F494
:102A6000B4FA84F465000324AC4091FAA1F1B1FA00
:102A700081F14900A3438A401343036030BD43689A
:102A80008B4351430B434360704730B5C36891FAA1
:102A9000A1F4B4FA84F465000324AC4091FAA1F1E6
:102AA000B1FA81F14900A3438A401343C36030BDAA
:102AB00030B5836891FAA1F4B4FA84F46500032474
:102AC000AC4091FAA1F1B1FA81F14900A3438A40E7
:102AD0001343836030BD000030B5C1F3090102F437
:102AE00000621143DDE90354DAB241EA02412943AD
:102AF0002143426821F000414FF4806303EA5453BC
:102B0000034C03F6FF3323439A430A43426030BD2C
:102B10000070FF0310B5026822F001020260D1E9E3
:102B20000232046843EA022224F4F8541443046095
:102B30004A680261026842F001020260826822F47F
:102B4000004282608B690A6984681A436FF30A0441
:102B5000144384600A691AB1826842F400428260B8
:102B60000A68036823F44013134303604969426809
:102B700022F400420A434260002010BD4FF47A71F3
:102B8000B0FBF1F14FF0E020491E4161002181616D
:102B9000052101617047000070B500241F49204DD8
:102BA0004FF40046C02803D0B0F5407F1CD019E098
:102BB000D1F8880000F0C00040F440004038B0F583
:102BC000400027D0402804D080281CD106E00446CD
:102BD00008E000F083F828B12C4603E000F086F806
:102BE00000B13446204670BDD1F888000D4900F48C
:102BF000407040F0407040180CD0B0F5807FE8D0B5
:102C0000B0F5007FEAD000F0A9FF00F077FF00F0F8
:102C100085FFDCE700F0A2FFD9E7000000100240CA
:102C20000024F40000FFFFFC70B5002429492A4D60
:102C30004FF40046032804D00C281AD030282FD097
:102C400040E0D1F888006FF4403100F0030040F418
:102C5000403040180AD0012836D002282ED000F08B
:102C60007DFF00F04BFF00F069FF17E000F076FFFA
:102C700014E0D1F8880000F00C0040F44020001F60
:102C8000B0F54020F2D004281ED0082816D000BF8E
:102C900000F064FF00F032FF00F040FF044611E056
:102CA000D1F8880000F0300040F440101038B0F542
:102CB0004010DBD0102807D02028E9D100F016F80A
:102CC00000B13446204670BD00F008F80028F9D065
:102CD0002C46F7E7001002400024F4000248006888
:102CE000C0F3802070470000001002400248D0F876
:102CF0009000C0F34000704700100240064A10B533
:102D000052F8881FC0F3044303249C40C0B2A1437F
:102D100098400143116010BD00100240064A10B5F2
:102D200052F8881FC0F3044303249C40C0B2A1435F
:102D300098400143116010BD0010024003498A68A9
:102D400022F0F00202438A60704700000010024047
:102D50000149086070470000000000202DE9F041A3
:102D6000044600680D46012610F0010F52D1296972
:102D7000A868EA69084369691143084321682E4A33
:102D8000114008432060E868616821F44051014324
:102D90006160A869A16821F440710143A1602748DE
:102DA000844201D1032008E02548844201D10C204F
:102DB00003E02448844203D13020FFF735FF0BE0C5
:102DC0002148844201D1C02004E0204884421AD125
:102DD0004FF44070FFF7E0FEA8B1696899B12A6826
:102DE0000026EB690B2A0ED8194FD2B2B3F5004F6B
:102DF00057F82220B0FBF2F00FD000EB5100B0FBEF
:102E0000F1F080B2E0602888E16A80B221F00F0121
:102E10000143E1623046BDE8F081400000EB510023
:102E2000B0FBF1F081B24FF6F07201EA0200C1F39B
:102E300042010843E6E70000F369FFEF0038014074
:102E40000044004000480040004C0040005000405A
:102E5000F446000830B593B0002410941194182162
:102E600068461294FDF71EFB0C940D940E941821E5
:102E700006A80F94FDF716FB2F48FFF73FFF4FF40E
:102E80000050FFF717FD0220FFF714FD4FF48040BC
:102E900006900320079006A90A942848FFF72EFD04
:102EA0004FF0A0451094119410A928461294FFF7F2
:102EB00027FC0094019402940394049469462846E4
:102EC0000594FFF733FC00212846FFF7B9FC0021E9
:102ED0002846FFF7D5FC4FF44030CDE90C040CA98F
:102EE0001748FFF7B5FBA86816490840A8602846B0
:102EF000FFF7F2FB144815490068B0FBF1F000EB56
:102F0000800080000A21B0FBF1F100E0491E002999
:102F1000FCD10F4C062122462846FFF731FC002247
:102F200021462846FFF74EFC7F2221462846FFF720
:102F300067FC13B030BD000002001C000004004814
:102F400000030050C0FFFF5F00000020400D0300A1
:102F50002000F01430B593B000241094119418217F
:102F600068461294FDF79EFA0C940D940E94182165
:102F700006A80F94FDF796FA2F48FFF7CFFE4FF4FF
:102F80000050FFF7AFFC0220FFF7ACFC4FF480507D
:102F900006900320079006A90A942848FFF7AEFC84
:102FA0004FF0A0451094119410A928461294FFF7F1
:102FB000A7FB009401940294039404946946284664
:102FC0000594FFF7B3FB00212846FFF749FC0021D9
:102FD0002846FFF75CFC4FF44030CDE90C040CA907
:102FE0001748FFF735FBA86816490840A86028462F
:102FF000FFF77CFB144815490068B0FBF1F000EBCB
:10300000800080000A21B0FBF1F100E0491E002998
:10301000FCD10F4C062122462846FFF7C2FB0222B4
:1030200021462846FFF7DDFB7F2221462846FFF791
:10303000F7FB13B030BD000002001C000004004884
:1030400000030050C0FFFF5F00000020400D0300A0
:103050000008302E30B58FB000240C940D94182148
:1030600068460E94FDF71EFA182106A8FDF71AFA15
:103070002A48FFF743FE4FF40050FFF71BFC0220E5
:10308000FFF718FC4FF4004006900320079006A9B4
:103090000A942348FFF732FC224D0C940D940CA99E
:1030A00028460E94FFF72CFB00940194029403949D
:1030B0000494694628460594FFF738FB002128460A
:1030C000FFF7BEFB00212846FFF7DAFBA868164988
:1030D0000840A8602846FFF7FFFA14481449006822
:1030E000B0FBF1F000EB800080000A21B0FBF1F1B1
:1030F00000E0491E0029FCD10E4C0621224628463C
:10310000FFF73EFB002221462846FFF75BFB7F22AC
:1031100021462846FFF774FB0FB030BD02001C00AB
:103120000004004800010050C0FFFF5F00000020C5
:10313000400D03000080F03E30B58FB000240C94A9
:103140000D94182168460E94FDF7ACF9182106A8D5
:10315000FDF7A8F92A48FFF7E1FD4FF40050FFF70B
:10316000C1FB0220FFF7BEFB4FF400400690032096
:10317000079006A90A942348FFF7C0FB224D0C9440
:103180000D940CA928460E94FFF7BAFA0094019406
:10319000029403940494694628460594FFF7C6FAFE
:1031A00000212846FFF75CFB00212846FFF76FFB54
:1031B000A86816490840A8602846FFF797FA1448FF
:1031C00014490068B0FBF1F000EB800080000A2198
:1031D000B0FBF1F100E0491E0029FCD10E4C0621A4
:1031E00022462846FFF7DDFA022221462846FFF74D
:1031F000F8FA7F2221462846FFF712FB0FB030BDB8
:1032000002001C000004004800010050C0FFFF5FE6
:1032100000000020400D03000080F03E30B593B068
:10322000002410941194182168461294FDF73AF97D
:103230000C940D940E94182106A80F94FDF732F902
:103240002E48FFF75BFD4FF48040FFF733FB022071
:10325000FFF730FB4FF4005006900320079006A9BB
:103260000A942748FFF74AFB264D1094119410A9A1
:1032700028461294FFF744FA0094019402940394B0
:103280000494694628460594FFF750FA0021284621
:10329000FFF7D6FA00212846FFF7F2FA4FF4403044
:1032A000CDE90C040CA91848FFF7D2F9A868174912
:1032B0000840A8602846FFF70FFA1548154900682E
:1032C000B0FBF1F000EB800080000A21B0FBF1F1CF
:1032D00000E0491E0029FCD10F4C06212246284659
:1032E000FFF74EFA002221462846FFF76BFA7F22AD
:1032F00021462846FFF784FA13B030BD02001E00B5
:10330000000400480004005000070050C0FFFF5FA9
:1033100000000020400D03002000F01430B593B0F1
:10332000002410941194182168461294FDF7BAF8FD
:103330000C940D940E94182106A80F94FDF7B2F882
:103340002E48FFF7EBFC4FF48040FFF7CBFA02204A
:10335000FFF7C8FA4FF4005006900320079006A923
:103360000A942748FFF7CAFA264D1094119410A921
:1033700028461294FFF7C4F9009401940294039430
:103380000494694628460594FFF7D0F900212846A1
:10339000FFF766FA00212846FFF779FA4FF440302C
:1033A000CDE90C040CA91848FFF752F9A868174991
:1033B0000840A8602846FFF799F9154815490068A4
:1033C000B0FBF1F000EB800080000A21B0FBF1F1CE
:1033D00000E0491E0029FCD10F4C06212246284658
:1033E000FFF7DFF9022221462846FFF7FAF97F228C
:1033F00021462846FFF714FA13B030BD02001E0024
:10340000000400480004005000070050C0FFFF5FA8
:1034100000000020400D03002000F01430B58FB0F4
:1034200000240C940D94182168460E94FDF73AF888
:10343000182106A8FDF736F82A48FFF75FFC4FF47D
:103440008040FFF737FA0220FFF734FA4FF480503C
:1034500006900320079006A90A942348FFF74EFA26
:10346000224D0C940D940CA928460E94FFF748F9B0
:1034700000940194029403940494694628460594A8
:10348000FFF754F900212846FFF7DAF90021284612
:10349000FFF7F6F9A86816490840A8602846FFF724
:1034A0001BF9144814490068B0FBF1F000EB8000F0
:1034B00080000A21B0FBF1F100E0491E0029FCD197
:1034C0000E4C062122462846FFF75AF900222146D3
:1034D0002846FFF777F97F2221462846FFF790F923
:1034E0000FB030BD02001E0000040048000500506F
:1034F000C0FFFF5F00000020400D03000800900C9B
:1035000030B58FB000240C940D94182168460E94A9
:10351000FCF7C8FF182106A8FCF7C4FF2A48FFF7EC
:10352000FDFB4FF480452846FFF7DCF90220FFF74A
:10353000D9F90320CDE9065006A90A942348FFF7DC
:10354000DDF9234D0C940D940CA928460E94FFF739
:10355000D7F8009401940294039404946946284691
:103560000594FFF7E3F800212846FFF779F90021D9
:103570002846FFF78CF9A86816490840A860284635
:10358000FFF7B4F8144815490068B0FBF1F000EB00
:10359000800080000A21B0FBF1F100E0491E002903
:1035A000FCD10F4C062122462846FFF7FAF80222EA
:1035B00021462846FFF715F97F2221462846FFF7C6
:1035C0002FF90FB030BD000002001E0000040048BB
:1035D00000050050C0FFFF5F00000020400D030009
:1035E0001000C0102DE9F04F87B018216846FCF795
:1035F00059FF0420FFF752F92020FFF74FF901206F
:10360000FFF74CF90220FFF749F94FF090460120EF
:10361000B0620820B0621020B0624020B062DFF8D3
:10362000E0810120C8F828000420C8F828004FF4E1
:10363000006AC6F818A08002B0621020C8F82800FE
:103640002020C8F828004FF4007BC8F818B00024E8
:103650000002CDE9000469466A480494FFF74EF978
:1036600001250095CDE90154039469463046049440
:10367000FFF744F90227CDE9007469463046049407
:10368000FFF73CF94FF00409CDE900946946304654
:103690000494FFF733F908200090CDE90154039416
:1036A000694630460494FFF729F910200090CDE9CF
:1036B00001540394694630460494FFF71FF9202013
:1036C0000090CDE901740520CDE9044069460394DA
:1036D0003046FFF713F940200090CDE901540394E0
:1036E000694630460494FFF709F980200090CDE93F
:1036F00001740520CDE90440694603943046FFF784
:10370000FDF80095CDE901540394694640460494C0
:10371000FFF7F4F8CDF80090CDE901540394694621
:1037200040460494FFF7EAF8A802CDE90007032019
:10373000CDE902044FF00709CDE904496946404646
:10374000FFF7DCF8CDE904490320CDE90204CDE917
:1037500000A769464046FFF7D1F82802CDE90004EA
:10376000694630460494FFF7C9F8CDF800B0CDE9BA
:103770000174CDE90449694630460394FFF7BEF869
:10378000A8020090CDE90174CDE9044969463046AC
:103790000394FFF7B3F8CDF800A0CDE901540394EA
:1037A000694630460494FFF7A9F828030090CDE954
:1037B00001540394694630460494FFF79FF81020A3
:1037C0000090CDE901540394694640460494FFF704
:1037D00095F820200090CDE90154039469464046B5
:1037E0000494FFF78BF8CDF800B0CDE901540394B1
:1037F000694640460494FFF781F807B0BDE8F08FB2
:103800000004004800080048224808B5816D41F0D6
:1038100001018165806D214900F0010000901E4882
:103820000068B0FBF1F14FF08040491E81620168F1
:1038300021F07001016040F2E731C162016821F0BE
:1038400080010160C16841F00101C160144909684B
:10385000C1F30221C1F10703042B00D904230A1D7F
:10386000072A01D2002100E0C91E01229A40521EFF
:1038700002F002028A4011010A4A82F800144FF055
:10388000E0224FF08051C2F80011016841F00101BF
:10389000016008BD001002400000002040420F00FF
:1038A0000CED00E01CE000E02DE9F04190B020219B
:1038B00006A8FCF7F7FD18216846FCF7F3FD45481C
:1038C00050F8881F002421F0030140F83C19416999
:1038D00041F480414161416901F480410E910168E8
:1038E00041F0010101600068022500F001000E9026
:1038F0004FF40070CDE9000502AA03200126072736
:1039000082E8D1004FF0904869464046FEF7F6FF46
:1039100068020090CDE9015403AA694682E8D0000C
:103920004046FEF7EBFF2C4800680022C0F302205F
:10393000114600F0C9F80146252000F0EFFD2520D2
:1039400000F0DFFD4FF4E130CDE906400C20CDE979
:103950000A40089409940C940D94204C06A9204622
:10396000FFF7FCF9002104F1080500BF55E8000F3E
:1039700061F35F7045E80002002AF7D1002104F1ED
:10398000080000BF50E8002F22F0606242EA416266
:1039900040E80023002BF5D1206820F00050206083
:1039A000606820F490406060A06820F02A00A06069
:1039B000206840F001002060E069C0F3405000281A
:1039C000FAD0E069C0F380500028F5D010B0BDE80F
:1039D000F0810000001002400CED00E000380140D2
:1039E0002DE9F04190B0202106A8FCF75BFD1821DD
:1039F0006846FCF757FD304850F8881F002421F036
:103A0000300140F83C19C16841F48021C160C168AF
:103A100001F480210E91016841F00201016000680B
:103A2000022500F002000E904FF48060CDE9000501
:103A300003260727CDE90264DFF88080CDE904473B
:103A400069464046FEF75AFFA802CDE90005CDE9D8
:103A50000264CDE9044769464046FEF74FFF4FF444
:103A6000E130CDE906400C20CDE90A4008940994E4
:103A70000C940D94124C06A92046FFF76FF92068AC
:103A800020F000502060606820F490406060A068E2
:103A900020F02A00A060206840F001002060E0696A
:103AA000C0F340500028FAD0E069C0F380500028ED
:103AB000F5D010B0BDE8F0810010024000040048CD
:103AC00000480040FEE7FEE730B500F00703C3F111
:103AD0000704042C00D90424181D072801D2002350
:103AE00000E0DB1E012505FA04F0401E0840984066
:103AF0009D406D1E1540284330BD704705498968BB
:103B0000054A01F0F0010909515C01F01F01C840AC
:103B100070470000001002402447000805498968EA
:103B2000054A01F4E06102EB1121097801F01F015F
:103B3000C8407047001002403447000805498968B2
:103B4000054A01F4605102EBD121097801F01F010F
:103B5000C840704700100240344700081549886883
:103B600000F00C031448042B0DD04210082B09D090
:103B70000C2B08D1CB6803F00303022B05D0032BD9
:103B800003D101E0104670471046CA68C2F306220E
:103B90004243C868C96800F0F003012000EB13132A
:103BA000B2FBF3F201F0C06100EB51604000B2FBE8
:103BB000F0F07047001002400024F40000EE100AFC
:103BC000DFED050AB8EEC00A20EE200ADFED030A99
:103BD00020EE200A704700006F128340000000387A
:103BE00001224CF283334821FEF7FEBBF8B5134D9A
:103BF00014460646042902D915800120F8BD0803A1
:103C000048F2E03100F58040084383B201224821A8
:103C10003046FEF7E9FB08B12580F8BD0A20FEF723
:103C200097FA6B46002248213046FEF75BFB0028DE
:103C3000F3D1BDF8000020800020F8BD0080FFFF18
:103C40003EB514460D4602AAFFF7D0FF20B19FED06
:103C5000130A84ED000A3EBDBDF90800FFF7AEFF70
:103C600010EE100A84ED000A20F00040C0F1FF4081
:103C7000002804D529460AA0FEF792FA0BE010EEC0
:103C8000100A00F0BDFCCDE90001BDF9082029466D
:103C90000EA0FEF785FA00203EBD00000000C07FA8
:103CA0004368616E6E656C2025643A20414443CAC6
:103CB000FDBEDDCEDED0A7A3A8D4ADCABCD6B5B3B9
:103CC000ACB3F6B7B6CEA7A3A90000004368616EF7
:103CD0006E656C2025643A205261773D307825303E
:103CE00034582C20566F6C746167653D252E346600
:103CF000560000007047704738B52A48016821F027
:103D00000F0141F004010160016801F00F01042975
:103D1000FAD1254850F8801F21F480710160234CAE
:103D2000206840F4803020602068C0F340400028C4
:103D3000FAD0E16845F213501D4A11400843E06093
:103D4000E06840F08070E060206840F080702060A3
:103D50002068C0F340600028FAD0A06840F003005B
:103D6000A0608020FEF7EAFFA06800F00C000C289D
:103D7000FAD155200090401E0090FCD1FEF7DEFFE6
:103D8000A06820F4E060A060A06820F46050A0600B
:103D9000084C2046FEF7F2FE2046BDE83840FEF70C
:103DA000D7BF000000200240007000400010024019
:103DB0000C80FFF980FE210A0248016841F470017D
:103DC0000160704788ED00E04FF08040016911F01C
:103DD000010F1ED06FF0010101610E484168491CBE
:103DE000416083685B1C836000220121B3F57A7F08
:103DF00001D382600170C3685B1CC360142B01D3C4
:103E0000C260417003695B1C0361642B01D30261D2
:103E100081707047040000201FB500F0C9F80B4CFA
:103E20006A4600212046FFF70BFF0121204601AA28
:103E3000FFF706FF0221204602AAFFF701FF032138
:103E4000204603AAFFF7FCFE1FBD000000540040FF
:103E5000094910B58878CC7800EE100A0020B8EE39
:103E6000400AFEF753F900EE104ABDE81040B8EEE4
:103E7000400A0120FEF74AB91B00002010B52DEDC5
:103E8000028B82B0FDF7EEFF0020FDF7B5FF9FED3E
:103E90001D8A1D4C20EE080ABCEEC00A10EE100A66
:103EA000E0800120FDF7A8FF20EE080ABCEEC00A62
:103EB00010EE100A20810220FDF79EFF20EE080A76
:103EC000BCEEC00A10EE100A60810320FDF794FFDB
:103ED00020EE080ABCEEC00A10EE100A80B2A081E3
:103EE000009063892289E18808A0FEF759F92046ED
:103EF00000F0E4F80D494AF6AA20086002B0BDECD3
:103F0000028B10BD00007A44984A002041444320AF
:103F100056616C7565733A2025642C25642C2564E4
:103F20002C2564206D560D0A000000000030004072
:103F300010B5FFF7B9FC194850E8001F41F0200107
:103F400040E80013002BF7D150E8001F41F040017A
:103F500040E80012002AF7D1114800680221C0F39E
:103F60000220FFF7B1FD0146252000F0D7FA2520F9
:103F700000F0C7FA40F214610A48FCF771FA0E210A
:103F80000948FCF76DFA42F628010848FCF768FA80
:103F900005490020C91E0870487010BD0038014056
:103FA0000CED00E02C0000201B000020400600204B
:103FB00030B5294B2948997845E072B6B0F802220D
:103FC000B0F80242825C641CC4F30804A0F8024208
:103FD00062B621B1012906D0022934D11BE0AA2AF8
:103FE00031D1002113E0B0F80E46042C0BD21C4D49
:103FF0006255B0F80E46641CA4B2A0F80E46042C1C
:1040000002D1022100E00021AA2A1CD10121A0F83E
:104010000E16012117E0552A14D172B610490A393B
:10402000D1F80A200A610C4990F81026C91C0A70C0
:1040300090F811264A7090F812268A7090F813268C
:10404000CA7062B60021B0F80022B0F80242A24263
:10405000B3D1997030BD0000180000202C00002062
:104060003606002070B50D461149144688421ED10F
:10407000002D1CD0002C1AD00E4E00E000BF00F026
:1040800095F908B1761EF9D200F090F900280ED10A
:104090002146284600F05CF9002808D0064890F830
:1040A0000806002803D1BDE8704000F015B970BDC6
:1040B00000380140A08601002C0000201FB5002818
:1040C00010D0AA218DF8001001460E220DF101003A
:1040D000FCF781F955208DF80F001022694602483F
:1040E000FFF7C0FF1FBD00000038014010B5FFF70B
:1040F00077FCFEF7FBF940F60A010948FCF7B0F936
:1041000007480024A0F80044A0F8024441F21441FA
:1041100000F60A00FCF7A4F902480470447010BDD0
:10412000682E00201F00002070B515460E4642F292
:10413000107400E000BF00F0B9F908B1641EF9D2B4
:1041400000F0B4F900280ED12946304600F07EF97F
:10415000002808D0044890F80408002803D1BDE8DE
:10416000704000F035B970BD682E0020274830B48B
:10417000C169C1F3401226497AB1426AD3B2B1F89B
:104180000022B1F80242521CC2F30802944204D049
:10419000B1F800420B55A1F80022C269C2F38012A7
:1041A000002A12D00268C2F38012002A0DD04022E9
:1041B0000262B1F80426B1F806369A4207D2154BCE
:1041C000D35C521CA1F80426836230BC704750E8CF
:1041D000001F21F0400140E80012002AF7D10E48EC
:1041E000027841788A420ED00C4C01EB012304EB9B
:1041F0008303002283F802240A22491CB1FBF2F354
:1042000002FB1311417030BC00F066B80038014069
:104210002C00002030020020180000204006002062
:10422000294830B4C169C1F3401228497AB1426AC1
:10423000D3B2B1F80024B1F80244521CC2F309020F
:10424000944204D0B1F800440B55A1F80024C2698F
:10425000C2F38012002A15D00268C2F38012002A2D
:1042600010D040220262B1F80628B1F808389A420C
:104270000AD2B1F806288B18521CA1F8062893F828
:104280000414816230BC704750E8001F21F04001E7
:1042900040E80012002AF7D10D48027841788A429E
:1042A0000ED00C4C01EB012304EB8303002283F8B6
:1042B00002240522491CB1FBF2F302FB13114170E9
:1042C00030BC00F085B8000000480040682E002097
:1042D0001F000020723600202DE9F04119481A4CC9
:1042E000002501784078814228D000EB002104F2BB
:1042F000146000EB810191F80204F8B1B1F8006498
:1043000004F50170012732468046FCF764F8A4F8F2
:104310000456A4F8066684F808760C4815F80810C8
:10432000A4F80476C0F8281050E8001F41F04001BE
:1043300040E80012002AF7D1BDE8F08184F8085661
:10434000FAE70000180000202C000020003801408F
:104350002DE9F0410C46074600F028F810B1002086
:10436000BDE8F0810F4E4FF480618C42307800D967
:104370000C4600EB00210C48224600EB8105394633
:104380002846FCF728F8A5F80044012085F8020427
:1043900030780A21401CB0FBF1F201FB12003070B2
:1043A0000120DDE7180000204006002007480A220F
:1043B00001784078491CB1FBF2F302FB13118142F2
:1043C00001D1012070470020704700001800002034
:1043D0002DE9F0411A481B4C0026017840788142B3
:1043E0002AD000EB002104F60A0000EB810191F8CD
:1043F000020408B3B1F8005401272A4604F204402D
:10440000FBF7E9FFA4F80668A4F8085884F80478D4
:10441000B4F806082118401CA4F806080A4891F8C8
:104420000414816250E8001F41F0400140E800128E
:10443000002AF7D1BDE8F08184F80468FAE70000AB
:104440001F000020682E0020004800402DE9F041A8
:104450000C460746002572B600F028F8F0B9114E58
:104460004FF480618C42307800D30C4600EB002181
:104470000D48224600EB810539462846FBF7ABFF85
:10448000A5F80044012085F8020430780521401C7D
:10449000B0FBF1F201FB12003070012562B6284634
:1044A000BDE8F0811F000020723600200748052279
:1044B00001784078491CB1FBF2F302FB13118142F1
:1044C00001D1012070470020704700001F0000202C
:1044D000FEE703B401984100009850EAC12018BFDC
:1044E00004204A0D18BF40F0010040F2FF72B2EB09
:1044F000515F08BF40F00200012808BF052002B04C
:104500007047002809DB00F01F020121914040099B
:10451000800000F1E020C0F8001170470907090E83
:10452000002804DB00F1E02080F80014704700F060
:104530000F0000F1E02080F8141D704730380A2881
:1045400001D201207047002070470000FEF73EF8BE
:104550004FF47A70FDF7B0FFFFF7CEFBFEF710F8CF
:10456000FDF7F4FF0A4D0B4E0B4F0024287810B1D5
:104570002C70FFF751FC307810B13470FFF768FCF5
:1045800038780028F2D03C70FFF778FCEEE70000A6
:1045900004000020050000200600002010B50029BE
:1045A0000AD00878002807D005487844FCF7FAFFBD
:1045B000002801D0002010BD0248784410BD000042
:1045C000AE020000A602000010B500290AD008784B
:1045D000002807D005487844FCF7E4FF002801D004
:1045E000002010BD0248784410BD00009E0200006B
:1045F000960200000808A0F500114FEA310170474B
:1046000043004FEAD30C4FEA3C0C43401FBF400726
:104610000CF1605113F0FE4F70471CF0006F03D196
:1046200000200CF0004170470CF0004343EA50704A
:1046300010B540EACC0000F00EF800BF0000009278
:104640004FEA0001FFF7D6BF4FF000414FF00000E6
:10465000A1F5002170470EF1020E2EF0030E5EF858
:10466000044B244204D44FEA4102B2F17F4F11D8E7
:104670004FEA4003B3F17F4F0CD80ED14FEAD07C04
:10468000B2F17F4F0CEB4C0C0CF1020C08BF4CEB61
:10469000D17C04E04FF0080C01E04FEAD17C0CEB38
:1046A0004C0324FA03F404F00704B4F1040C06D21A
:1046B0000EEB840CBDE810404CF0010C6047DFE8C5
:1046C0000CF0070802024FF00040A0F5800010BD7A
:1046D0000846420018BFD2F1807288BF00F0004047
:1046E00010BD4FF04070E1EE100A7047FCF767BB59
:1046F000FCF79CBC01000000020000000400000068
:1047000006000000080000000A0000000C00000085
:1047100010000000200000004000000080000000A9
:10472000000100000000000000000000010203047E
:104730000607080900000000010203040000000051
:1047400000000000303132333435363738394142D9
:1047500043444546403058003031323334353637E3
:10476000383961626364656640307800040000088F
:104770000000000000000002000100001030313293
:104780003334353637383961626364656678700072
:104790003031323334353637383941424344454677
:1047A0005850000002400000000000A0000000007F
:1047B00005400000000000C8000000000C400000A0
:1047C0000000409C00000000194000000020BCBE1A
:1047D0000000000034400000BFC91B8E0000000430
:1047E000B5400000504BCFD06607E2CF010000007B
:1047F0006C4100003E8251AADFEEA73401000000A8
:10480000D9420000DCB5A0E23A301F97FFFFFFFF5E
:10481000B4450000FD25A0C8E9A3C14FFFFFFFFF7D
:10482000FF3F00000000008000000000FF3F00008C
:104830000000008000000000844900080000002003
:104840002C00000014020008B04900082C000020D1
:10485000DC500000300200081C0000004300000093
:10486000F8FFFFFF0C0000000E0000000F0000002A
:104870002E0000001001000043000000F8FFFFFFC1
:104880000040404040404040404041414141414063
:104890004040404040404040404040404040404018
:1048A00040050202020202020202020202020202A7
:1048B00002202020202020202020200202020202AC
:1048C0000202909090909090101010101010101004
:1048D0001010101010101010101010100202020210
:1048E0000202888888888888080808080808080854
:1048F0000808080808080808080808080202020250
:104900004000000000000000000000000000000067
:104910000000000000000000000000000000000097
:104920000000000000000000000000000000000087
:104930000000000000000000000000000000000077
:104940000000000000000000000000000000000067
:104950000000000000000000000000000000000057
:104960000000000000000000000000000000000047
:104970000000000000000000000000000000000037
:10498000000000000024F40000000000000000000F
:104990000000000000000000000000000000000017
:1049A0000000000000000000000000000000000007
:04000005080001D915
:00000001FF
