:020000040800F2
:10000000E03B012025040008395900086943000835
:1000100035590008B52C00084D7E0008000000008E
:100020000000000000000000000000006503000860
:100030002D2F000800000000C1030008C561000862
:100040003F0400083F0400083F0400083F04000884
:100050003F0400083F0400083F0400083F04000874
:100060003F0400083F0400083F0400083F04000864
:100070003F040008212E00083F0400083F04000848
:100080003F0400083F0400083F0400083F04000844
:100090003D7D00083F0400083F0400083F040008BD
:1000A0003F0400083F0400083F0400083F04000824
:1000B0003F0400083F0400083F0400083F04000814
:1000C0003F0400083F0400083F0400083F04000804
:1000D0003F040008BD6600083F0400086967000887
:1000E000A52F00083F0400083F0400083F04000853
:1000F0003F0400083F0400083F0400083F040008D4
:100100003F0400083F0400083F0400083F040008C3
:100110003F0400083F0400083F0400083F040008B3
:100120003F0400083F0400083F0400083F040008A3
:100130003F0400083F0400083F0400083F04000893
:100140003F0400083F0400083F04000800000000CE
:10015000000000000000000000000000000000009F
:100160000000000000000000000000003F04000844
:100170003F0400083F0400083F0400083F04000853
:100180003F0400083F0400083F0400083F04000843
:100190003F040008000000003F0400083F0400087E
:1001A0003F0400083F0400083F0400083F04000823
:1001B0003F0400083F0400083F0400083F04000813
:1001C0003F0400083F0400083F0400083F04000803
:1001D0003F0400083F04000800F002F800F0B2F805
:1001E0000AA090E8000C82448344AAF10107DA4592
:1001F00001D100F0A7F8AFF2090EBAE80F0013F032
:10020000010F18BFFB1A43F00103184708610400EF
:10021000286104000A444FF0000C10F8013B13F071
:10022000070408BF10F8014B1D1108BF10F8015B4F
:10023000641E05D010F8016B641E01F8016BF9D142
:1002400013F0080F1EBF10F8014BAD1C0C1B09D199
:100250006D1E58BF01F801CBFAD505E014F8016B0B
:1002600001F8016B6D1EF9D59142D6D3704700009D
:100270000023002400250026103A28BF78C1FBD8AF
:10028000520728BF30C148BF0B6070476E2900F08D
:10029000BF84702901F02F80662929F047846529E1
:1002A00029F04484672929F04184612929F0408498
:1002B00003681B0A28BF41F08001692900F06C84A3
:1002C000642900F06984752900F066846F2900F0C4
:1002D000BC87782900F0FB87E92900F05787E429DB
:1002E00000F05487F52900F05187EF2900F0B98715
:1002F000F82900F0FA870368DB0928BF41F0800184
:10030000632900F0D886732900F0DD86E32901F027
:100310007982F32901F07E82002070471FB529F011
:10032000F8FB01F001F804000020002128F0E6FFAE
:10033000401C60600020002128F0CAFFE0601FBD63
:1003400010B510BD01F052FB1146FFF7E7FF22F098
:1003500007FA01F0A2FB03B4FFF7F2FF03BC01F0C0
:1003600021FE00002C4B19680868B0E8F04F80F3BC
:100370000988BFF36F8F4FF0000080F3118870473A
:100380000000000008480068006880F308884FF00B
:10039000000080F3148862B661B6BFF34F8FBFF3DD
:1003A0006F8F00DF00BF00BF08ED00E0DFF80C003A
:1003B000016841F470010160704700BF88ED00E002
:1003C000EFF30980BFF36F8F134B1A681EF0100F05
:1003D00008BF20ED108A20E9F04F106009B44FF0FB
:1003E000500080F31188BFF34F8FBFF36F8F28F059
:1003F00007F84FF0000080F3118809BC19680868FD
:10040000B0E8F04F1EF0100F08BFB0EC108A80F378
:100410000988BFF36F8F704778010020EFF30580E4
:10042000704700000948804709480047FEE7FEE79B
:10043000FEE7FEE7FEE7FEE7FEE7FEE7FEE7FEE794
:1004400004480549054A064B70470000CD62000884
:10045000D9010008E0350120E03B0120E037012010
:10046000E037012053EA020C00F069802DE9F04BDF
:100470004FF00006002B1FBFB3FA83F503FA05F413
:1004800024FA05F65E4012BF1643B2FA82F502FA6C
:1004900005F4C5F120051EBF22FA05FC44EA0C0450
:1004A000203556EA044C4FEA144418BF641C4FF040
:1004B00000084FF00009904271EB030C39D300297A
:1004C00019BFB1FA81F701FA07F6B0FA80F700FA1E
:1004D00007F6C7F120071EBF20FA07FC46EA0C0604
:1004E0002037B6FBF4FCA7EB0507103F07F01F0B06
:1004F000CBF120060CFA0BFB2CFA06F644BFB346F0
:100500000026202FA4BF5E464FF0000B5BEA060CCE
:1005100008BF4FF0010B19EB0B09ABFB027C48EB5A
:100520000608C01B06FB02CC0BFB03CC71EB0C01D5
:10053000C1E70B46024641464846BDE8F08B13B57D
:100540004FF000004FF00001AFF30080BDE81C4009
:10055000704700007CB51D4616460C00009001D087
:100560002044401E074B7B442A4669460190304692
:1005700000F077FD05461CB10020694600F084FDBF
:1005800028467CBD290B00000FB41CB5084B06AAF9
:100590007B4469460090059800F063FD0446002006
:1005A000694600F071FD20461CBC5DF814FB00009C
:1005B000F50A00000FB47CB50C0009AA009001D028
:1005C0002044401E084B7B4469460190089800F087
:1005D00048FD05461CB10020694600F055FD28463F
:1005E0007CBC5DF814FB0000C90A000070B50C4625
:1005F0000546012A05D02878800600D5EA6900233F
:1006000002E0012305E05B1C934202D2E05C00287B
:10061000F9D1A869E618C01AA861286A18442862A6
:10062000284600F07FFA04E0D5E9012114F8010B17
:100630009047B442F8D3284600F08AFA70BD000013
:100640002DE9F05F894604464FF0000ADFF874B1E7
:10065000FB44C0F820A02046E1688847002874D0F9
:10066000252806D0D4E901219047206A401C206249
:10067000F1E700265F462046E168884720280546C6
:1006800007DB312D05D2781910F8200C08B106438C
:10069000F1E7B00701D526F00406C4F81CA0002736
:1006A000C4F818A02A2D09D0284607F040FE38B318
:1006B00004EB8708303DC8F8185019E059F8041BBE
:1006C000204604EB87029161E1688847012F0546C7
:1006D00018D1E069002820DA26F020061DE0D8F8BD
:1006E000180000EB800005EB40003038C8F8180017
:1006F0002046E1688847054607F019FE0028EED13C
:10070000012F0AD02E2D08D12046E16888477F1C92
:100710000546022F46F02006C4DBA069002803DA54
:10072000404246F00106A061F00701D026F0100615
:100730006C2D0BD0682D09D04C2D39D06A2D35D0B9
:10074000742D35D07A2D33D016E038E0E1682F468D
:1007500020468847B842054609D16C2F26D04FF471
:100760008060E168064320468847054604E06C2F18
:100770001AD04FF4807006430DB3A5F1410019283B
:1007800002D8203546F400664A46294620462660AF
:100790004E46FFF77BFD80B101280BD0F61D26F0F9
:1007A000070000F1080956E74020E4E78020D8E779
:1007B0000020D6E706F104094DE7284652E7206AF3
:1007C000BDE8F09FB05A0400401ECAB210F8011FE5
:1007D0008A4202D00029F9D10020704740EA010383
:1007E000024630B59B0710D14FF0013400E008C23B
:1007F00008C91D1B9D4315EAC41FF8D013F0FF0163
:1008000002F8011B0DD01B0AF8E711F8013B002B81
:1008100002F8013B05D011F8013B002B02F8013B27
:10082000F3D130BD10B5431C02E010F8011B71B1CB
:100830008107FAD14FF0013202C88C1A8C4314EAB6
:10084000C211F9D0C01A0A0603D0C01E10BDC01ACA
:1008500010BD0A0401D0801E10BD0902FCD0401E4C
:1008600010BD40EA010370B59B072ED14FF0013651
:10087000042A2AD308C810C99D1B9D43121F15EADC
:10088000C61517D0D8B2E1B2401A50EA056110D1AE
:1008900098B2A1B2401A50EA05410AD123F07F4034
:1008A00024F07F41401A50EA052102D1180EA0EB36
:1008B000146070BDA342DBD018BA21BA884201D9B6
:1008C000012070BD4FF0FF3070BD0AB9002070BD2F
:1008D00010F8013B11F8014B63B1A3420AD1521E3B
:1008E00008D010F8013B11F8014B1BB1A34201D114
:1008F000521EEDD1181B70BD032A40F2308010F05B
:10090000030C00F0158011F8013BBCF1020F6244AA
:1009100098BF11F801CB00F8013B38BF11F8013B3B
:10092000A2F1040298BF00F801CB38BF00F8013BE8
:1009300011F0030300F02580083AC0F0088051F858
:10094000043B083A51F804CBA0E80810F5E7121D63
:100950005CBF51F8043B40F8043BAFF30080D20782
:1009600024BF11F8013B11F801CB48BF11F8012B4E
:1009700024BF00F8013B00F801CB48BF00F8012B71
:10098000704710B5203AC0F00B80B1E81850203AFB
:10099000A0E81850B1E81850A0E81850BFF4F5AF1F
:1009A0005FEA027C24BFB1E81850A0E8185044BFA9
:1009B00018C918C0BDE810405FEA827C24BF51F816
:1009C000043B40F8043B08BF7047D20728BF31F80A
:1009D000023B48BF11F8012B28BF20F8023B48BF5B
:1009E00000F8012B704702F0FF0343EA032242EABA
:1009F000024200F002B84FF000020429C0F0128059
:100A000010F0030C00F01B80CCF1040CBCF1020FC1
:100A100018BF00F8012BA8BF20F8022BA1EB0C0196
:100A200000F00DB85FEAC17C24BF00F8012B00F88C
:100A3000012B48BF00F8012B70474FF0000200B5B2
:100A4000134694469646203922BFA0E80C50A0E8F1
:100A50000C50B1F12001BFF4F7AF090728BFA0E89F
:100A60000C5048BF0CC05DF804EB890028BF40F86B
:100A7000042B08BF704748BF20F8022B11F0804FAD
:100A800018BF00F8012B70474FF0013C50F8042BC1
:100A900051F8043B9A4221D1A2EB0C03934313EA91
:100AA000CC1317D150F8042B51F8043B9A4215D1BE
:100AB000A2EB0C03934313EACC130BD150F8042B95
:100AC00051F8043B9A4209D1A2EB0C03934313EA79
:100AD000CC13DBD04FF00000704700BFD01A01BA32
:100AE000B1FA81F101F0180122FA01F0CB40C1F115
:100AF0002001DBB2C0B2C01A2CFA01F3D11A914323
:100B000011EAC311E6D1704770477047704710B5BE
:100B100000F00EFC006810BD10B5044600F008FCA3
:100B2000046010BD70B5044685690068C10601D532
:100B3000302600E02026C00707D070BDD4E901218F
:100B400030469047206A401C20626D1EF6D570BD6D
:100B500070B5044685690078C00707D170BDD4E937
:100B6000012120209047206A401C20626D1EF6D58E
:100B700070BD09684A0501D540B27047C905FCD56A
:100B800000B2704709684A0501D5C0B27047C9056F
:100B9000FCD580B2704700002DE9F04106460024E4
:100BA00010687529314616A510D0FFF7E2FF00281E
:100BB00002DA404213A507E031688A0701D512A581
:100BC00002E0490704D511A5012401E0FFF7DAFF8F
:100BD00000210A2206F1240709E0B0FBF2FCB0FB79
:100BE000F2F302FB1C00303078541846491C0028F0
:100BF000F3D123462A463046BDE8F04100F0E1BB80
:100C0000000000002D0000002B000000200000006C
:100C100011680268006A530501D508700AE0D3051F
:100C200001D5088006E0130603D5C217C1E900020A
:100C300000E008600120704770472DE9FF4F0C4627
:100C40001E464FF0FF378BB0D2E90001DDF860801F
:100C50000A908A46C1F30A5505B93D460021084667
:100C60004FF00000BAF1000F00F4400005DA00EB8D
:100C700080004FF4400101EA50004FEA9059B9F169
:100C8000010F00DDB9460A9850EA4A000ED044F63A
:100C90001050A5F2FF3545432F14B8F1000F1ED0B8
:100CA0007542291E1EDDC9F100021CE0B8F1010FDA
:100CB0004FF0000001D0302103E0F24305E0215461
:100CC000401CB042FBDB30460022002121540B992E
:100CD000C1F80880C1E900200FB0BDE8F08FBD1B4E
:100CE0006D1CDEE74A4600DA694206A800F0E8FD1E
:100CF00006AB93E8070003AB83E8070050460A9968
:100D000001F0A3FB8DE80700A0F500501F3800900C
:100D10000398002D0ADD42F21F014A4608440023D1
:100D200003A90390684601F04FFE09E0A0F50050CA
:100D30004A461F38002303A90390684601F06EFE5F
:100D40008DE807000004000C03D04FF0FF3041088D
:100D500000E01046B8F1000F03D0002200921546C3
:100D60001EE0751E05D400F0E7FA303262556D1EA4
:100D7000F9D5B3460122084302D000227F1C04E0CB
:100D80002078302801D100227F1E002A099784D0C4
:100D90001DE0112D07DA00F0CFFA303262556D1CDC
:100DA00050EA0102F5D1084302D00098C8B10EE024
:100DB0000021681E05E0235C625C63542254401EDF
:100DC000491C8142F7DBAB46A81B401E099000205E
:100DD00004F80B000B98099AC0F80880C0E9002BB2
:100DE0007AE711264FF0000857E72DE9F04F8846C3
:100DF0000446D21D22F0070191B0D1E90001CDE9EE
:100E00000A0107F059F802460B98C00F01D02D20B7
:100E100007E02068810701D52B2002E0202101EAAC
:100E2000C000032A099001D0072A05DB034641468A
:100E3000204600F09DFC0BE12078800601D5E0699A
:100E400000E00620B8F1650F814606D0B8F1660FC4
:100E500018D0B8F1670F70D131E00020B9F1110F4F
:100E6000009001DB112301E009F101030AAA01A9A5
:100E70000CA8FFF7E2FEDDE90C70002609F1010580
:100E8000834647E001204B4600904FF000470AAAF6
:100E900001A90CA8FFF7D1FEDDE90DB00C995D4664
:100EA000002610B909F101000D18B9EB050003D4B3
:100EB000C0F1FF3609F10105A5EB09002BE0B9F1FE
:100EC000010F01DA4FF001090020B9F1110F009074
:100ED000484601DD112300E003460AAA01A90CA837
:100EE000FFF7ABFEDDE90C704D4600268346207807
:100EF00000070AD4AB4500DA5D4601A8012D04DDE8
:100F0000411911F8011C302907D04F4502DA17F1B9
:100F1000040F04DA012082460FE06D1EEEE7002F79
:100F200002DCED1B3E4403E0781CA84200DD7D1C82
:100F3000B81B00F1010A4FF000472078000703D4E6
:100F4000AA4501DB4FF0FF3A0021B7F1004F0DF148
:100F500043088DF8431024D002202B23002F01DA00
:100F60007F422D230A21021EA0F1010000DC5FB1A7
:100F700097FBF1FC97FBF1F201FB1C7C17460CF18F
:100F8000300C08F801CDEEE7A8F1010003702188CC
:100F9000090501D5452100E06521A0F1010800F80F
:100FA000011C09980FA9A1EB0807FF1D00B1012042
:100FB000411901EBEA70A1693844081A401EA0618A
:100FC0002078C00602D42046FFF7ACFD099828B16E
:100FD000D4E901219047206A401C20622078C00695
:100FE00022D52046FFF79EFD1EE0002E04DBB34510
:100FF00002DD01A8805D00E03020D4E901219047A6
:10100000206A401C2062761CAAF101005FEA000AF7
:101010000AD100F089F9C0680168405CD4E9012177
:101020009047206A401C2062281EA5F10105DCDCE7
:1010300007E0D4E9012118F8010B9047206A401C11
:101040002062381EA7F10107F3DC2046FFF780FD80
:10105000032011B041E6000001694A1C02610878D2
:10106000704700B58FB0CDE90131002105910549E8
:101070007944CDE9031011466846FFF7E1FA0FB055
:1010800000BD0000E5FFFFFF0A6802F8010B0A60DF
:101090007047D1E900239A4202D2531C0B601070B2
:1010A000704710B5436913B1AFF3008001E0FFF75B
:1010B0009DFA012010BD127800F124010A7000226F
:1010C0004A700122EDE711684FF0FF32E9E70000B6
:1010D0002DE9FF5F15468A460446DFF8AC80F844E8
:1010E0000027D8E900103E46CDE9001010E03AF89C
:1010F00016106A4602A800F055FC411C07D0217862
:10110000890603D5E269391891420DD80744761C47
:101110002078800602D5E069B84205DDAE42E6DB04
:101120003AF816000028E2D1A069C01BA061204651
:10113000FFF7F8FCD8E90010CDE90010002017E017
:101140003AF818106A4602A800F02CFCB0F1FF3FF4
:1011500081460BD000250DF1080B05E0D4E90121F3
:101160001BF8050090476D1C4D45F7D308F10100B1
:10117000B0428046E4DB206A384420622046FFF714
:10118000E7FCBDE8FF9F0000765004002DE9F04128
:101190008046D21D22F007020025D2E90002F5297F
:1011A00015A614D0011E72F1000106DA0023D0EB5F
:1011B000030063EB020211A608E0D8F800108B07C9
:1011C00001D50FA602E0490701D50EA6012511465B
:1011D000002408F1240704E000F0AEF830323A555C
:1011E000641C50EA0102F7D12B46324621464046A4
:1011F000BDE8F04100F0E5B8000000002D0000005F
:101200002B0000002000000030B4002100F1240475
:1012100008E002F00705D208303542EA4372DB08E5
:101220006554491C52EA0305F3D10468002310A257
:10123000250707D5A40600D421B1C46901230DA256
:10124000641EC46130BC00F0BCB810B50446214631
:101250001068FFF797FC02462046BDE810400023C7
:10126000D2E7D21D22F00701D1E90023CCE700002C
:101270000000000030000000F0B40D4601880905B0
:1012800002D5214C7C4402E01F4C7C440E340021EA
:1012900000F1240608E002F00F071209E75D42EAB8
:1012A00003721B097754491C52EA0307F3D10278F1
:1012B0000023120704D5702D06D009B10223113482
:1012C0002246F0BC00F07DB801231034F8E770B579
:1012D00004460D4621461068FFF754FC0246294695
:1012E0002046BDE870400023C6E7D21D22F0070368
:1012F000D3E90023C0E70368126843F020030360CA
:101300000823C3610023B7E7D84E04007CB5054627
:1013100000236846CDE9003300F09EFA694628466E
:1013200006F0D4FF7CBD000000487047A0350120C6
:10133000004870478035012030B5B0F10A024FEA0D
:10134000900E71F100034EEA817EB0EB0E0061EB6E
:1013500091014FEA101E4EEA017E10EB0E0041EBA8
:1013600011114FEA102E4EEA016E10EB0E0041EB08
:1013700011214FEA104E4EEA014E10EB0E0041EBE8
:101380001141401841F100014FEAD00040EA41709C
:101390004FEAD10110EB80054FEA810444EA9074D2
:1013A00044EB01046D1944EB0404521BA3414FF0BC
:1013B000000348BF0A3200D530BD401C41F1000196
:1013C00030BD2DE9F0470D4699469246044600F19E
:1013D00024080168880604D5E06921F01001216025
:1013E00000E00120A84201DD471B00E00027A169C1
:1013F0007A1902EB0900081AA0612078C00602D40D
:101400002046FFF78FFB002608E0D4E901211AF8F7
:1014100006009047206A401C761C20624E45F4DB93
:101420002078C0060AD52046FFF77CFB06E0D4E909
:10143000012130209047206A401C2062381EA7F10D
:101440000107F4DC07E0D4E9012118F80500904712
:10145000206A401C2062281EA5F10105F3DC20460D
:10146000FFF776FB2078000602D50220BDE8F08762
:101470000120FBE72DE9F04F04460D46D21D22F076
:10148000070089B0D0E900974846394606F014FDB8
:101490000246F80F01D02D2307E02068810701D50F
:1014A0002B2302E0202101EAC0038DF820300BB18C
:1014B000012000E00020032A824601D0072A04DB35
:1014C0002946204600F054F93FE12078800601D4F7
:1014D0000D2500E0E569C7F30A560D2D49DA002114
:1014E0004FEA175B08464FF00000002F00F4400061
:1014F00007DA00EB80004FF4400100EBD07001EA06
:1015000060008115012901DD4FF0FF3100224FEA13
:10151000850CBCF1180F06D31346ACF118004FF040
:101520008052C24003E04FF4801323FA0CF30CF115
:101530000C0CBCF1200F04D3ACF1200C09FA0CF018
:1015400001E007FA0CF000294FF0004801DD18B95E
:101550000FE00ED140450CD319EB02095F4121B9D0
:10156000404502D19F4329EA0209BBEB175F00D037
:10157000761C2088000502D57B48784402E07A4832
:101580007844193808AA302302F80A30037C0AF19B
:101590000101002E0AF1020A53546A4602DC4FF0A0
:1015A000300101E04FF031014FF001088DF80010DB
:1015B00002D0A6F2FF3603E059EA470100D06B4E95
:1015C000002D02DC2178090704D54FF002082E21F6
:1015D0008DF80110C44600210BE0C7F303433F011F
:1015E000C35C491C6D1E02F80830052908F101088A
:1015F00001DA002DF1DC00210CE000EB1973491C2D
:101600001B786D1E082902F808304FEA091908F105
:10161000010801DA002DF0DC21688B0602D516E006
:10162000A8F10108E04505DD02EB080313F8013CD1
:10163000302BF5D0B8F1000F09DD02EB080313F8E9
:10164000013C2E2B03D1090701D4A8F10108002D7C
:1016500005DD3E2102F808106D1E08F10108407CEE
:10166000002E02F8080008F1010804DA2D20764265
:1016700002F8080002E02B2002F808000A214FF4CB
:101680007A70864208F101080BDB96FBF0F33033E9
:1016900002F8083096FBF0F308F1010800FB13662E
:1016A00001E0642E0CDB642096FBF0F3303302F88B
:1016B000083096FBF0F308F1010800FB136601E027
:1016C0000A2E06DB96FBF1F0303002F8080008F134
:1016D000010896FBF1F001FB1060303002F80800C1
:1016E000A16908F1010808EB050202EB0A00081ADB
:1016F000A0612078C00602D42046FFF713FA216AC1
:1017000008AE01EB0A00206204E0D4E9012116F8DA
:10171000010B9047BAF1010AF7D22078C00602D532
:101720002046FFF7FFF96E4609E016F8010B3E2848
:101730000FD0D4E901219047206A401C2062B8F103
:101740000108F2D22046FFF703FA09B00320BDE8F2
:10175000F08F206A2844206203E0D4E90121302080
:1017600090476D1EEBD3F8E71D4C040002FCFFFF11
:101770002DE9F0411F46044603260168072A01F4BB
:10178000006004DB08B116A505E016A503E008B16A
:1017900015A500E015A521F010002060A069C01E6D
:1017A000A0610FB1401EA0612046FFF7BBF94FB109
:1017B000D4E9012138469047206A401C2062C01CB1
:1017C000206206E0206AFAE7D4E9012115F8010B4E
:1017D0009047761EF8D22046FFF7BAF9BDE8F081AF
:1017E0004E414E006E616E00494E4600696E6600C5
:1017F00010B5436913B1AFF3008001E0FFF768FC57
:10180000012010BD128800F1240182840022C284CC
:101810000122EDE711684FF0FF32E9E70FB4002332
:1018200000B589B00CA900910B99CB60214B7B448A
:101830000693214B7B44079304236FF00042CDE9CC
:1018400001321E4A7A446B4608920246002028F074
:10185000D1F909B05DF814FB70B506464FF0FF30C2
:1018600015460C46324686B00091CDE90101694625
:101870000020049004A8FFF7D1FF02460498211825
:1018800025B108B1084600E02046286004980028E9
:101890000DD0002A02DD0098884208D03246081B8D
:1018A00069460094CDE9010404A8FFF7B7FF06B02C
:1018B00070BD00002902000041020000010200008A
:1018C0002DE9F047814616468AB0354878440DC860
:1018D0008DE80D0032487844801C03AC0DC884E8C4
:1018E0000D0041F69B300844372190FBF1F290FB4C
:1018F000F1F5A5F1800501FB12041B3C02D5644201
:10190000012000E00020DFF898A080460027FA447C
:10191000AAF1BE0A0EE0E0070AD03246684607EB9D
:10192000470101230AEB810101F078F88DE80700F7
:1019300064107F1C002CEED1194F7F44AE3F19E09C
:10194000E80715D007EB04100DF1180A90E80E0017
:101950008AE80E00C068F04201D19819089032461A
:10196000012306A903A801F059F803AB83E8070097
:101970006D10641C002DE3D14FF00103324669461F
:10198000B8F1000F03A802D001F01EF801E001F049
:1019900045F8C9E90001C9F808200AB0BDE8F08798
:1019A0005C49040070B516460C46054600F044F844
:1019B000036893F80101012806D0FF2C0FD8185DA9
:1019C00068B101202C7070BDD3F807013246214662
:1019D00003F2071303442846BDE8704018474FF050
:1019E000FF3070BD00487047803501207546FFF715
:1019F000F9FFAE4605006946534620F007008546CC
:101A000018B020B5FEF71CFDBDE820404FF00006E1
:101A10004FF000074FF000084FF0000B21F00701D6
:101A2000AC46ACE8C009ACE8C009ACE8C009ACE819
:101A3000C0098D467047000010B5FFF775FC001D0A
:101A400010BD00BFB978020010B50446FFF7F4FFDF
:101A50000068005D00F0010010BD426842B10168FD
:101A600011F8013B23B1521EC0E90012184670471D
:101A70000121C160881E704742685AB1C36801687D
:101A800043B983688B4205D0491E521CC0E900123D
:101A9000002070474FF0FF30704710B50446AFF399
:101AA00000802046BDE81040FEF755BC2DE9FF4FF1
:101AB00006468BB00878FF2806D0491C2D2805D093
:101AC00000244FF0000908E000200CE00124F8E7B2
:101AD00009EB8903491C00EB43090878FF28F7D17B
:101AE00014B1C9F100008146107800252C46AA46A1
:101AF00029462D2801D02B2804D1521C2D2813D083
:101B0000002082468B461078FF280FD04FF0000C43
:101B10000A21521CA5FB017804FB018105FB0C1175
:101B2000C5194BEB0104EEE70120EAE70021084666
:101B30004FF00000BAF1000F02D000EB8000400827
:101B4000C0F38157012F01DD4FF0FF370E9955EAA1
:101B5000040009EB01080BD04FF0020918F5FA7FD9
:101B600016DA4FEACA70002F706008DD012007E026
:101B70004FEACA70C6E900B00FB0BDE8F08F002090
:101B80003060FFF7D5FBC0F800901821084616E03A
:101B9000B8F5FA7F18DD002F02DAF748784401E043
:101BA000F6487844D0E90010C6E9001040EACA704F
:101BB0007060FFF7BDFBC0F80090142108460FB01D
:101BC000BDE8F04F27F0AFBF002108464FF00000FE
:101BD000B8F10001099002DAC7F1000200E03A46CC
:101BE00001DAC8F1000106A8FFF76AFE06AB93E828
:101BF000070003AB83E8070044F23E005BEA040100
:101C00000090584604D144F21E012C465D460091D6
:101C1000210C0904014306D10099240444EA154427
:101C20002D041039009104F07F41014306D1009941
:101C3000240244EA15642D020839009104F0704131
:101C4000014306D10099240144EA15742D01091FAE
:101C5000009104F04041014306D10099A40044EAF8
:101C60009574AD00891E009104F00041084304D131
:101C700000986D196441401E00904FF001033A46F0
:101C80006846B8F1000FCDE9014503A902DD00F077
:101C9000DAFE01E000F0ADFEBAF1000F04460D4699
:101CA00001D084F00044002108464FF0000009995B
:101CB00040F2FF77484010F00C0F07D124F00040AD
:101CC000284303D0C4F30A50B84212D1FFF730FBC7
:101CD000C0F80090C4F30A50B8420AD1A84878442A
:101CE000D0E90010C6E9001004F00041084370601C
:101CF00042E7C6E900543FE72DE9FF4F1F464FF08A
:101D0000000A4FF0FF38454691B0D7E90146CDF8BB
:101D10003CA0FFF709FBC0680168405C1090B969FE
:101D200012986D1C8847396A814688470028F6D189
:101D3000B9F1FF3F0AD0002E24F4D06411DDB9F1CF
:101D40002B0F08D0B9F12D0F0BD102E0404615B092
:101D500013E744F48064B96912986D1C8847761EB5
:101D60008146600504A901D52D2000E02B20002E1E
:101D700001F1010B0DF130088DF810003FDDB9F1D4
:101D8000690F08D0B9F1490F05D0B9F16E0F02D033
:101D9000B9F14E0F1CD13B4601A8009580E85002D6
:101DA000DDE912126FF0020027F028FFC11CCED12E
:101DB0000EE0B96912986D1C884781461398761E0B
:101DC00044F4007405600F98401C002E0F9016DD3F
:101DD000B9F1300FEDD0B9F1780F02D0B9F1580F49
:101DE0000DD10F9801280AD13B46CDE90054DDE919
:101DF0001212001F029627F0FFFEC11CA7D11099F6
:101E000089453ED144F0800406E01399681CAAF18C
:101E1000010A44F400740860B9696D1C1298761EBA
:101E2000884730288146F0D02BE01099894505D1AC
:101E3000200603D4761E44F0800418E0484606F0DD
:101E400076FA08B3761E0DF123018B4544F4007435
:101E500008D2A9F130000BF8010B200607D5AAF132
:101E6000010003E0200602D40AF101008246A00529
:101E700002D51399681C0860B96912986D1C8847CF
:101E80008146002ED1DC53E0002E51DDB9F1650F03
:101E900002D0B9F1450F4BD1A00549D5B9696D1CE8
:101EA0001298761E24F440748847002E81460CDD7B
:101EB0002B2804D0B9F12D0F07D144F48074B969EF
:101EC00012986D1C8847761E8146E00501D52D21AC
:101ED00000E02B2108F8011BCDF8008021E0761EE0
:101EE0000DF13901884544F400740CD2A9F1300099
:101EF00010F0FF0088F8000002D10099884509D948
:101F000008F1010806E0E00501D51E4801E042F2B3
:101F10000F708246B96912986D1C884781461398E4
:101F20000560002E04DD484606F001FA0028D6D1EF
:101F3000F96912988847FF2053468BF8000088F80B
:101F4000000000200A900B9004AA0CA90AA8FFF731
:101F5000ADFDA00502D46FF00100F8E614F0240FE7
:101F600012D0E0071CD13868DDE90A12031D3B607E
:101F70000068C0E9001213E09C4704008E4704008B
:101F800052460400F1D8FFFF0AA9684606F09EF900
:101F9000E00705D13868009A011D396000680260C9
:101FA0002846D4E601491820ABBEFEE72600020011
:101FB000704700002DE9FF4F1F464FF03C0987B0E6
:101FC0004FF00042DDE9141001F10108DDF858A0DE
:101FD00002EA4050039000200590834605460446DF
:101FE0000490B969461E08988847AAF1010A029030
:101FF000BAF1000F3BDD02982E2815D0102100F019
:1020000016FA00282EDB4FF0010B0599014317D07B
:10201000B9F1000F0BDB4A46C11700F0F5F9054393
:102020000C43A9F1040905E0012004900BE008B17C
:1020300045F0010501200590049820B9361D02E005
:10204000049800B1361FB969089808F1010888475B
:10205000BBF1000FAAF1010A0290C9D00999C1F899
:102060000080C5E70298702808D0502806D0F9698A
:1020700008988847BBF1000F14D04FE00020029071
:102080000120BBF1000F049009D0B969089808F14C
:1020900001088847AAF10109B9F1000F07DCF969C5
:1020A000089888476FF001000BB0BDE8F08F2B282F
:1020B00004D02D280CD14FF0FF300490B969089856
:1020C00008F101088847A9F10109B9F1000FE6DD1F
:1020D000411CE4D00A2100F0AAF90028DFDB0299B4
:1020E00008F1010801EB810100EB41000290B969A0
:1020F000089888470A2100F09AF9099AA9F101097C
:10210000B9F1000FC2F8008001DD0028E7DAF969B3
:10211000089888470499029800FB016655EA040074
:1021200004D004F04041090002D006E0039898E092
:10213000A40044EA9574AD00B61E04F00041080006
:1021400002D16D196441761E159810F0240F03D04A
:102150004FF00B095C4803E04FF028096FF07D0059
:102160008246564507DAAAEB06018944B9F1410FC8
:1021700001DD4FF0410901200021A9F1010200F029
:1021800043F9024628400B462140084301D0012173
:1021900000E00021501E029143F1FF312840214010
:1021A000084301D0012000E000200299834651EA53
:1021B0000B014FD0002108464FF00000039900F4B6
:1021C000400039B100EB80004FF4400100EBD070CB
:1021D00001EA60008015012802DD4FF0FF3000E0C9
:1021E00013D0401C36D0029860B3BBF1000F0CD165
:1021F0004A460120002100F007F928402140084309
:1022000001D0012000E00020E0B101204A46002179
:1022100000F0FAF8034640190A4661412D1A8C4134
:1022200011D3B9F1400F09DD159810F0240F02D039
:10223000AAF1340603E0AAF1170600E0761C002597
:102240004FF0004406E05B1E42F1FF3220EA030536
:1022500021EA0204CAF10100B04206DA1B490398E0
:1022600008430190002000900EE0039AC4F3D321AC
:10227000E80A0A43164940EA44500A433146CDE988
:102280000002684606F02BF8159810F0240F0BD0CA
:102290001598C00715D13868DDE90012031D3B60B1
:1022A0000068C0E900120CE002A8694606F00EF8CA
:1022B0001598C00705D13868029A011D3960006879
:1022C00002604046F0E6000002FCFFFF0000F07FE5
:1022D0000000F03F2DE9FF4F92461D4685B04FF0BC
:1022E0000041DDE9124BDDE914727F1E01EA4B501B
:1022F000414940F0FF4940EA0108002122F0200056
:102300004928049102D04E2828D04CE03BA0012659
:1023100007C88DE80700A9690698641C88477F1ED6
:10232000014606D41DF8060018B121F020018142B3
:102330000BD0E96906988847032E34D0082E32D096
:102340006FF0010009B0BDE8F08F761C032E01D0BC
:10235000082EE0D1601CCAF80000DCE7A9690698E5
:10236000641C88477F1E2AD420F02000412826D1F3
:10237000A9690698641C88477F1E20D420F020009D
:102380004E281CD1A9690698641C88477F1E48F412
:10239000002849F48009CAF8004001D4282806D052
:1023A000E969069888475FEACB7012D022E0A969F4
:1023B0000698641C88477F1E01D4002803DAE96967
:1023C00006988847BCE72928F1D1641CCAF8004068
:1023D000E9E71BF0240F07D028680499031D2B6040
:1023E0000068C0E9001805E02868021D2A6000683E
:1023F000C0F800902046A5E70000F07F494E46490E
:102400004E49545900000000B2F120030AD5C2F130
:10241000200301FA02F120FA03F300FA02F041EA84
:102420000301704700FA03F14FF0000070473A28AB
:1024300000D2303820F02002412A01D3A2F1370027
:10244000884201D34FF0FF3070475FEA400C08BF6D
:1024500091F0000F4FEA8C234FEAC12243EA515119
:102460004FEA1C5018BF00F5F0404FEA300018BF8B
:1024700041F000415FEA6C5C00F02980BCF1FF3F55
:1024800008BF40F080407047130C06BF12044FF0A5
:10249000100C4FF0000C130E04BF12020CF1080CCC
:1024A000130F04BF12010CF1040C930F04BF920030
:1024B0000CF1020CD30F04BF52000CF1010C1146B9
:1024C0004FF00002A0F11F00A0EB0C00704711F0CC
:1024D000004F08BF704731F000413FF4D5AF0B0CFF
:1024E00006BF09044FF0100C4FF0000C0B0E04BF98
:1024F00009020CF1080C0B0F04BF09010CF1040CCC
:102500008B0F04BF89000CF1020CCB0F04BF4900F4
:102510000CF1010CCCF12003A0EB0C0022FA03F328
:1025200002FA0CF241EA030100F10100704720F0C9
:102530007F4C80EA030023F07F47ACEB070303F5F1
:102540007C5300F0004003F1FF032DE980494FEA7E
:10255000154B09B44FEA144325EA0B4E24EA03480D
:102560000FF2042606EB132749083E785FEA320291
:1025700003FB0667C7F5000707FB06F64FEA54376B
:102580004FEAD64606F1020607FB066CCCF1005C6A
:102590004FEA1C472CEA074C07FB06F40CFB06F538
:1025A00004EB15464FEA961634BF00204FF000406A
:1025B0004FEAD13706FB07FC4FEA1C4C0CFB0BF72C
:1025C000D21B03FB0CF761EB07010CFB0EF7B0EB22
:1025D000074072EB17420CFB08F734BFA2EB07422F
:1025E000B2EB074261EB17414FEA0C444FEA910707
:1025F00006FB07FC4FEA1C4C0CFB0BF7B0EBC7408B
:1026000072EB573203FB0CF734BFA2EBC742B2EBBD
:10261000C74261EB57310CFB0EF7B0EBC70072EB12
:1026200057720CFB08F734BFA2EBC702B2EBC7022C
:1026300061EB5771039F4FEA816141EA921104EB0C
:10264000CC044FEAD1374FEA826206FB07FC42EA2C
:1026500090124FEA80604FEA1C4C0CFB0BF7D21B28
:1026600003FB0CF761EB07010CFB0EF7B0EB074027
:1026700072EB17420CFB08F734BFA2EB0742B2EB38
:10268000074261EB17414FEA8C554FEA910704EB83
:102690009C2406FB07FC4FEA1C4C0CFB0BF7B0EB31
:1026A000C74072EB573203FB0CF734BFA2EBC742B3
:1026B000B2EBC74261EB57310CFB0EF7B0EBC70032
:1026C00072EB57720CFB08F734BFA2EBC702B2EBF8
:1026D000C70261EB577115EB4C254FEA816141EA66
:1026E00092114FEA82624FEAD13742EA901206FB1A
:1026F00007FC44F100044FEA80604FEA1C4C0CFBDD
:102700000BF7D21B03FB0CF761EB07010CFB0EF779
:10271000B0EB074072EB17420CFB08F734BFA2EB9B
:102720000742B2EB074261EB174115EB1C154FEA6C
:10273000813141EA92414FEA823242EA90424FEAC5
:1027400080304FEA0C7644F1000448EA03434EEA35
:102750000B484FF0000EB2EB080C71EB030724BFDF
:10276000624639464EEB0E0E4FF0000B00185241F8
:1027700049414BEB0B0BB2EB080C71EB03077BF100
:10278000000B24BF624639464EEB0E0E4FF0000B95
:102790000018524149414BEB0B0BB2EB080C71EBAB
:1027A00003077BF1000B24BF624639464EEB0E0E49
:1027B00051EA020718BF46F0010616EB0E7655F1F6
:1027C000000254F1000103D5BDE88901BDE800888D
:1027D000BDE88901BDE80048B619524141EB01014D
:1027E000A3F10103704780807F7E7D7C7B7A7978BE
:1027F000777676757473727171706F6E6E6D6C6CC6
:102800006B6A6A6968686766666564646363626167
:102810006160605F5F5E5E5D5D5C5C5B5B5A5A59E8
:102820005958585757565655555554545353525254
:102830005251515050504F4F4F4E4E4D4D4D4C4CAC
:102840004C4B4B4B4A4A4A494949484848474747F5
:102850004746464645454544444444434343434232
:10286000424242414141000046EA0646A3F5705308
:102870004FEA164646EA42564FEAD22242EA41520F
:1028800010B54FEAD121A3F1010300F02FF820F099
:10289000004000F1020C00F0004701EB005011462F
:1028A000BCF5006F40EA070000D210BDBAF1000F7E
:1028B0000AD01CB503B44FF004004FF004014FF0F0
:1028C00000000FBCBDE810404FF00001BBF1010F4C
:1028D000B9BF04484FF0FF310348002140EA070028
:1028E00010BD00BFFFFFEF7F0000F07F002B9C4674
:1028F00030D477002BD01CB54FEA370703B44FF024
:1029000010004FF01001BAF1000F06D0BCF1000F1B
:10291000DCBF40F0080040F008014FF000000FBCA1
:10292000BDE810400BF1010BBBF1010F08BF5FEADE
:10293000170722BF12F1010211F101014FF000410E
:1029400043F1000300F0004043EA00007047F9D370
:102950005708D0E746EA064613F1400F4FEA1646FD
:102960001FDD13F1200FDFBF16430A46002120337D
:102970005B42BED0C3F1200746EA064602FA07F7DB
:102980004FEA164646EA0706C3F1200722FA03F289
:1029900001FA07F721FA03F14FF0000342EA0702B8
:1029A000A7E746EA020646EA06464FEA164646EA20
:1029B0000106BCBF46EA0646360C4FF000034FF056
:1029C00000024FF0000194E72DE9804C9A469346AF
:1029D00070B491E8380007C831EA400C48BF34EAC7
:1029E000430C03D5FFF7A3FDFFF780FFF0BCBDE864
:1029F000008C2DE9804C9A46934670B491E83800DB
:102A000007C831EA400C48BF34EA430C03D5FFF74E
:102A10008EFDFFF729FFF0BCBDE8008C2DE9804C4E
:102A20009A46934670B491E8380007C810F0804F7A
:102A300008BF13F0804F03D100F01AF8FFF756FFDC
:102A4000F0BCBDE8008C2DE9804C9A46934670B4EA
:102A500091E8380007C810F0804F08BF13F0804F8E
:102A600003D100F005F8FFF7FFFEF0BCBDE8008CD5
:102A700020F07F4780EA030023F07F4C07EB0C0334
:102A8000A3F57C5300F00040A3F1FE0392F0000F89
:102A900000F0B38095F0000F00F077802DE9014938
:102AA0004FEA11404FEA144621EA004800FB06FCB9
:102AB00024EA064708FB06F607FB08F800FB07F7C1
:102AC00018EB06484CEB164C4FEA124B18EB074834
:102AD0004FEA15464CEB174022EA0B4E0BFB06FC67
:102AE00025EA06470EFB06F607FB0EFE0BFB07F773
:102AF0001EEB064E4CEB164C4FF000061EEB074E3D
:102B00004CEB174B18EB0B0840F1000018EB0E0BC9
:102B100058EB000840F100008F1A4FF000013CBF55
:102B2000C943661B14BFB5EB040C00213CBFC9436D
:102B3000F61B4FEA17444EEA8E0E27EA04454FEA89
:102B40001C4704FB07622CEA074C05FB07F70CFB4C
:102B500005F604FB0CFC16EB074642EB174216EB9E
:102B60000C4642EB1C421BEB060658EB02024141AD
:102B700046EA9E0601D5BDE80189B619524141EBEE
:102B80000101A3F10103BDE801894FEA14454FEAB1
:102B9000114724EA054621EA074C05FB07F406FB2A
:102BA00007F70CFB06F105FB0CFC11EB074144EBAE
:102BB00017444FEA124711EB0C4144EB1C4422EA44
:102BC000074C05FB07F206FB07F70CFB06F605FBB7
:102BD0000CFC16EB074642EB174216EB0C4642EB99
:102BE0001C456A1854F1000148BF7047B61952419C
:102BF00041EB0101A3F10103704795F0000F37D0BD
:102C00004FEA11424FEA144721EA024624EA074CF0
:102C100002FB07F106FB07F70CFB06F402FB0CFCBA
:102C200014EB074441EB17414FEA154714EB0C44F2
:102C300041EB1C4125EA074C02FB07F506FB07F7B1
:102C40000CFB06F602FB0CFC16EB074645EB1745A2
:102C500016EB0C4645EB1C42121951F1000148BF1E
:102C60007047B619524141EB0101A3F101037047CE
:102C70004FEA14454FEA114724EA054621EA074C7A
:102C800005FB07F106FB07F70CFB06F24FF0000609
:102C900005FB0CFC12EB074241EB174112EB0C4217
:102CA00051EB1C4148BF7047921841EB0101A3F161
:102CB00001037047FEE700207047002070470000C6
:102CC00010B5024803F08CFE002010BDCC06002099
:102CD0001CB500210320CDE900010B464FF48062B2
:102CE00007A1094826F068F808490128086006D0BD
:102CF00007A00FF0FFFABDE81C4000F0E1BA1CBDD0
:102D0000436F6D6D0000000089840208FC01002003
:102D1000436F6D6D207461736B20637265617465C0
:102D2000204661696C65640010B580210348FDF799
:102D300084FE03490020087010BD0000308D002083
:102D4000F00100201CB500210320CDE900010B4655
:102D50004FF4807207A1094826F02EF8084901288F
:102D6000086006D007A00FF0C5FABDE81C4000F0CF
:102D7000A7BA1CBD436F6E74726F6C00C57D0208EC
:102D8000FC010020436F6E74726F6C207461736B72
:102D900020637265617465204661696C656400003A
:102DA00010B5DFED190A9FED1A1A40F6E4412DED3A
:102DB000028B88429FED158A04D39FED160ABDEC65
:102DC000028B10BD00EE100AB8EE400A60EE201A29
:102DD00000EE100AB8EE400A31EE400A81EE801A89
:102DE00081EE200A05F074F9C0EE080A9FED0A0A88
:102DF00030EE800AF7EE000A80EE801A9FED070A97
:102E000031EE400ADBE7000000401C4600E076455A
:102E100000404E45339388C30FCF5B3B33938843C9
:102E2000104810B50168C1F34021002918D04115A0
:102E30004160022101F0E8FC0B488168C1F3C01138
:102E40000029FAD14FF0904110208861074C20688A
:102E5000002805D013F028FB0549002020600860F9
:102E600010BD000000000240003001406802002058
:102E70006C02002010B5042001F07EFC012001F05E
:102E80007BFC144A114C114B9178083410480851BE
:102E900011480068C0F30220011D072901D200205B
:102EA00000E0C01E0021814008010C4981F80004A7
:102EB0004FF0E0214FF40050C1F80001907818580D
:102EC000917840F00200585010BD00000000024010
:102ED0000C300140A09C02080CED00E00DE000E089
:102EE000074A10B5536807494FF47A740968B1FB73
:102EF000F4F141435068C01A8842FBD310BD000072
:102F0000001000E00C0000200648016841F08071CC
:102F10000160054800214160016841F00101016044
:102F200070470000FCED00E0001000E0704700007A
:102F30001CB500210220CDE900010B46420208A188
:102F40000A4825F039FF0A490128086006D009A07F
:102F50000FF0D0F9BDE81C4000F0B2B91CBD000074
:102F60005561727450726F6300000000A9840208FA
:102F7000FC0100204465627567207461736B2063F7
:102F80007265617465204661696C656400000000CB
:102F9000014601A00FF0AEB94572726F723A20255A
:102FA000730000002DE9F84F00204FF48049009095
:102FB000484601F0D5FCDFF89C80274E274D284C71
:102FC0004FF4004AD0B14F46C8F800906A4600213D
:102FD000286825F0B1FD3946304601F066FD2077BE
:102FE0005146304601F061FD10F0FF0F02D0A0699C
:102FF000401CA0616946286825F0B2FC574650463F
:1030000001F0AEFCC8B1C8F800706A46002128681B
:1030100025F092FD3946304601F047FD607749467C
:10302000304601F042FD10F0FF0F02D0A069401EB3
:10303000A0616946286825F093FC0098002807D015
:1030400008494FF080500860BFF34F8FBFF36F8F78
:10305000BDE8F88F1404014000040048B8010020C6
:103060006484002004ED00E070B58AB01821684641
:10307000FDF7E3FC00242248069407940894C16CF1
:1030800041F00201C164C16C01F002010991016EBD
:1030900041F001010166006E01254FF4404600F049
:1030A00001000495CDE9006409906946154801F0D6
:1030B00061FC1548416921F4E0614161416941F4D5
:1030C00080714161416921F4E0414161416941F40C
:1030D000805141618DF8214002208DF82200069632
:1030E0008DF8205006A801F099FB0849602081F86E
:1030F0000004064928022439C1F800010AB070BD55
:1031000000100240000400480000014028E000E0F8
:1031100070B50C460546032818D2BCB1104E4FF0CE
:10312000FF31306825F064FD012817D10D4905EB0A
:10313000450001EB8000002307C884E807003068E1
:10314000BDE870401A46194625F068BB502080F350
:103150001188BFF34F8FBFF36F8FFEE770BD000084
:10316000B80100206484002070B5012025F0BCFA6D
:1031700014490860F0B14FF08040016841F001014E
:103180000160406A104CA0601048016841F00101E4
:103190000160406A6061FFF767FF0D4D4FF48041A9
:1031A000284601F082FC20776901284601F07DFC69
:1031B000607770BD502080F31188BFF34F8FBFF34D
:1031C0006F8FFEE7B80100206484002000040040F7
:1031D0000004004870B50C46054603280FD274B1B0
:1031E0001D4E4FF0FF31306825F002FD012831D12E
:1031F0001A4965B1012D13D0022D23D119E05020B9
:1032000080F31188BFF34F8FBFF36F8FFEE74FF04E
:103210008042A068506220680860A068886011E061
:103220000F4AA06850622068C8600C49A0684861D5
:1032300008E0206888610949227901F118000A77BD
:10324000617941713068BDE8704000231A46194623
:1032500025F0E4BA70BD0000B801002064840020AD
:10326000000400401CB500210320CDE900010B46FD
:103270004FF4007207A1094825F09EFD0849012876
:10328000086006D007A00FF035F8BDE81C4000F03C
:1032900017B81CBD456E636F64657200E17F02085C
:1032A000FC010020456E636F646572207461736B6E
:1032B00020637265617465204661696C6564000015
:1032C00072B602A00FF016F8FBE700005379737492
:1032D000656D204572726F720D0A000030B52DEDDC
:1032E000028B8DB008A80FF001FFBDF820007E4CC6
:1032F00000EE100AB8EE400A84ED020ABDF8220082
:1033000000EE900AF8EE600AC4ED030A20EE200AEF
:1033100084ED040ABDF8240000EE100AB8EE400A5D
:1033200084ED000ABDF8260000EE100AB8EE400A4F
:1033300084ED010ABDF82800FFF732FD84ED080A8C
:10334000206926F075FB9FED691B53EC112B26F0CD
:1033500051F941EC180B606926F06AFB53EC182B0D
:1033600026F014F825F0E0FF6061A06826F060FB0D
:1033700041EC100B5FA153EC102B6846FDF704F9EC
:103380005E4D6946A86818F0B3F9E06826F050FB76
:1033900041EC100B57A153EC102B6846FDF7F4F8E5
:1033A0006946E86918F0A4F9206926F041FB41EC70
:1033B000100B53A153EC102B6846FDF7E5F8694656
:1033C000E86A18F095F9606926F032FB41EC100BC1
:1033D0004EA153EC102B6846FDF7D6F86946A86B52
:1033E00018F086F9206826F023FB41EC100B4AA167
:1033F00053EC102B6846FDF7C7F86946686E18F065
:1034000077F9606826F014FB41EC100B44A153ECF3
:10341000102B6846FDF7B8F86946A86E18F068F9F1
:10342000206A26F005FB41EC100B3FA153EC102B5A
:103430006846FDF7A9F86946A86C18F059F99DF897
:10344000300010B1012803D006E039A1E86C01E09A
:1034500039A1E86C18F04CF99DF8310001283DD0F5
:103460000228286D3DD036A118F042F905A80FF0CA
:1034700061FE9DED070AF3EE050ADFED331A20EE3B
:10348000200A84ED060A9DED061A10EE100A31EEB0
:10349000611A61EE200AC4ED070A26F0C9FA41EC70
:1034A000100B1DA153EC102B6846FDF76DF8694613
:1034B000E86818F01DF9E06926F0BAFA41EC100B43
:1034C00017A153EC102B6846FDF75EF86946286A91
:1034D00018F00EF90DB0BDEC028B30BD1BA1286DAC
:1034E000C2E71BA1C0E70000300200207B14AE47FA
:1034F000E17A743F25302E3366000000B08D002045
:103500000A25302E33662057000000000A25302E91
:103510003266206D4168000025302E33662056004B
:1035200025302E336620410025302E3166A1E6007D
:10353000CDA3D6B900000000C6F4B6AF000000006D
:1035400043432F43560000003333D33F432043000F
:103550004320560010B517F0E3F91CF0D9FC0748DA
:1035600021F022FA0548006813F026F804490120EA
:103570008862BDE8104000201CF08CBDB08D00209A
:103580000004004810B50024032000F073F80F2059
:1035900000F008F808B1012401E000F025F8204609
:1035A00010BD000070B50E4E05460024706898B13D
:1035B0004FF47A71B1FBF0F00A490968B1FBF0F001
:1035C00000F068FD40B9102D06D200222946501E99
:1035D00000F030F8356000E00124204670BD0000A6
:1035E000000000200C0000200A4882B0016E41F06B
:1035F00001010166016E01F001010091816D41F050
:1036000080518165806D00F08050009002B000F024
:1036100039BD000000100240002809DB00F01F0245
:10362000012191404009800000F1E020C0F8001124
:1036300070470000F0B40E4B1B680C46C3F3022326
:10364000C3F10705042D00D90425191D072901D24E
:10365000002300E0DB1E012606FA05F1491E214089
:1036600099409E40761E16403143F0BC04F03CBCAD
:103670000CED00E0064900F0070208684FF6FF0372
:10368000184040EA0220034A1043086070470000D7
:103690000CED00E00000FA0501220168C0F8D0221C
:1036A000002280F8C82231F8540F40F00100088051
:1036B000088840F0020008801046704770B50F4D32
:1036C000044669B101290AD1D4F8D80203F0D3FC29
:1036D000607A002803D0286840F00600286070BD9A
:1036E000607A28B102F084FD286820F00600286086
:1036F000D4F8D802BDE8704003F055BC10ED00E0EE
:1037000010B50C0607D501F0070101EB810100EBB4
:10371000C100103005E001EB810100EBC10000F5B4
:10372000A87099B232B1012202730181190C418152
:10373000002010BD00220273C180F9E701EB810275
:1037400000EBC202D0F8D802526A03F016BB01EBBC
:10375000810200EBC202D0F8D802D2F8642103F053
:1037600060BB70B504460B0601F0070000EB80015A
:1037700004EBC1014FF001024FF0000502D54A747D
:10378000103103E081F8515101F5A871087094F8E7
:103790009002012808D084F89022206804F01DF8D7
:1037A00084F89052002070BD022070BD70B50446B0
:1037B00001F00F002279904201D9012070BD0B0663
:1037C00001F0070000EB800104EBC1014FF00102A2
:1037D0004FF0000502D54A74103103E081F85151D1
:1037E00001F5A8718D70087094F89002012808D036
:1037F00084F89022206804F08FF884F8905200201A
:1038000070BD022070BD2DE9F04704685FEA4248B0
:103810000B788D69B4F850804FF0000C4BF68F7721
:1038200048F2800648F68F7948F2C00A444428D509
:1038300040F2024808EBC30834F80840C4F3090416
:10384000A54203D32D1B8D6102D00BE0C1F818C037
:10385000D0F800C03CF823503D4085F40055354376
:103860002CF82350520609D50B78056835F823202B
:1038700002EA090242EA0A0225F8232074B30A89FF
:1038800027E040F2064808EBC30834F80840C4F3C8
:103890000904A54203D32D1B8D6102D00BE0C1F8B2
:1038A00018C0D0F800C03CF823503D4085F40055C6
:1038B00035432CF82350520609D40D78036833F8A9
:1038C000252002EA090242EA0A0223F825202CB147
:1038D0004A8949690068234604F039FA2046BDE860
:1038E000F0872DE9F05F054600680C465FEA426804
:1038F0001646D1F818C02278B0F8508048F6BF7A42
:1039000048F2800B48F68F774CF280094FF6FF7330
:103910004FF4004E4FF0000140447DD540F2024884
:1039200008EBC20830F80800C0F30900844514D938
:10393000BCEB000CC4F818C010D0760408D5D5F83C
:1039400000C03CF822603E4046EA09062CF822609E
:1039500094F82420012A60D076E1A161607810B14A
:10396000012813D01AE02868B0F85030184400EB52
:10397000C200B0F80224C2F30902A0F80224B0F891
:10398000022442F40042A0F8022407E02868B0F8BC
:103990005030184400EBC200A0F802146278286886
:1039A00012B1012A11D018E0B0F850100844217863
:1039B00000EBC100B0F80614C1F30901A0F8061429
:1039C000B0F8061441F4004105E0B0F8502010446E
:1039D000227800EBC200A0F80614E07802280BD190
:1039E0002278296831F8220000EA0A0080F02000DD
:1039F00040EA0B0021F8220021782846FFF79EFEBE
:103A0000700408D521782A6832F82100384040EA4D
:103A1000090022F82100C3E04DE0626902446261BE
:103A2000E2690244E2612669226AB24202D3304668
:103A3000111A03E084F824100AB11046216261785B
:103A400011B101292BD033E02968B1F8502011447D
:103A5000227801EBC201B1F80224C2F30902A1F8F5
:103A6000022401F2024158B13E280ED84208C6078E
:103A700000D0521C0E8803EA822216430E8017E003
:103A80000A8842F400420A8012E04209C30600D1CB
:103A9000521E0B884EEA822213430B8008E02968ED
:103AA000B1F850201144227801EBC201A1F80204C0
:103AB00083B22289C4E040F2064808EBC20830F81D
:103AC0000800C0F30900844514D3BCEB000CC4F813
:103AD00018C010D0760408D4D5F800C03CF8226095
:103AE0003E4046EA09062CF8226094F82420012A78
:103AF00059D0A9E0A161607810B1012813D01AE073
:103B00002868B0F85030184400EBC200B0F8022426
:103B1000C2F30902A0F80224B0F8022442F40042E1
:103B2000A0F8022407E02868B0F85030184400EBF1
:103B3000C200A0F802146278286812B1012A11D0DC
:103B400018E0B0F850100844217800EBC100B0F83C
:103B50000614C1F30901A0F80614B0F8061441F4E4
:103B6000004105E0B0F850201044227800EBC2007C
:103B7000A0F80614E07802280BD121782A6832F8E0
:103B8000210000EA0A0080F0200040EA0B0022F841
:103B9000210021782846FFF7D1FD70047FF532AF70
:103BA0000020BDE8F09F626902446261E26902445C
:103BB000E2612669226AB24203D33046111A2162B9
:103BC00004E00AB11046216284F824106278296862
:103BD00012B1012A2AD031E0B1F8502011442278E4
:103BE00001EBC201B1F80624C2F30902A1F80624D0
:103BF00001F2064158B13E280ED84208C60700D04F
:103C0000521C0E8803EA822216430E8016E00A88B0
:103C100042F400420A8011E04209C30600D1521E5C
:103C20000B884EEA822213430B8007E0B1F8502044
:103C30001144227801EBC201A1F80604628983B223
:103C40006169286804F09EF82278296831F822001A
:103C500000EA0A0080F0300040EA0B0021F8220060
:103C60009EE72DE9F04104460F0601F0070000EB46
:103C7000800104EBC1014FF001064FF0000502D5B1
:103C80004E74103103E081F8515101F5A871022BF7
:103C90000870C2F30A000861CB7000D10D7194F86E
:103CA0009002012809D084F89062206803F0E0FBBC
:103CB000284684F89052BDE8F0810220FBE710B559
:103CC00001F0070404EB840100EBC101C1E95923B1
:103CD0000022C1F86C2181F8512181F8504100681F
:103CE00001F5A87103F06AFE002010BD70B504460E
:103CF00001F007002279904201D9012070BD0B0626
:103D00004FF000054FF0010206D500EB800104EBF7
:103D1000C1014A74103107E001EB810104EBC101DC
:103D200081F8515101F5A8718A70087094F89002D9
:103D3000012808D084F89022206803F025FE84F83A
:103D40009052002070BD022070BD10B501F0070434
:103D500004EB840100EBC101C1E90923012281F8D0
:103D600034200B630023CB624A7401F8104F0068C3
:103D700003F024FE002010BD10B50446006803F0D7
:103D8000E3FF010404D52046BDE8104001F0D5BD95
:103D900041050ED5206830F8441F21F48061018070
:103DA000204600F001F92046BDE81040002100F057
:103DB00027B9410405D5206830F8441F21F480411B
:103DC0007DE0810405D5206830F8441F21F40051BE
:103DD00075E0C1041FD5206830F8401F21F00401B0
:103DE0000180206830F8401F21F00801018094F81C
:103DF000C802012806D1002084F8C80201462046E6
:103E0000FFF75CFC204600F0E3F8206830F8441F20
:103E100021F4805153E0010512D5206830F8401F8D
:103E200041F008010180206830F8441F21F400614E
:103E30000180206830F8401F41F0040101800AE051
:103E4000010629D5206830F8441F21F08001018047
:103E500094F8C80218B1204600F002F910BD20689D
:103E600030F8401F41F004010180206830F8401F05
:103E700041F008010180012084F8C8022068B0F8F0
:103E800054003C2101EA9000C4F8CC022046BDE871
:103E900010400121FFF712BC810509D5206830F8D8
:103EA000441F21F400710180204600F0A5F810BDE8
:103EB000C005FCD5206830F8441F21F480710180D2
:103EC00010BD000070B5040004D094F891020025E4
:103ED00010B106E0012070BD84F89052204600F039
:103EE0003FF8032084F89102206803F00DFD0020C4
:103EF00001260BE000EB800104EBC1014E74087455
:103F0000CD740D624D62401CC0B28D622179814238
:103F1000F0D8002012E000BF00EB800104EBC101EB
:103F200081F8515181F8500181F85351C1F8605125
:103F3000C1F86451401CC0B2C1F868512179814276
:103F4000EAD894E8070003F0D6FC257384F8916260
:103F5000A07A012802D12046FFF79EFB002070BD09
:103F600008B500680E49884218D10E4850F8881FDD
:103F700021F0406140F83019016841F4000101600E
:103F80000068002200F40000009011461420FFF7A2
:103F900051FBBDE808401420FFF73EBB08BD000000
:103FA000005C00400010024070B5044640790125D5
:103FB000022801D0FFF784F92946D4F8D80203F08B
:103FC0000CF8D4F8D802BDE8704002F0BFBF000082
:103FD00010B50446407A30B10648016821F0060168
:103FE000016002F005F9D4F8D802BDE8104002F0F3
:103FF000DABF000010ED00E0D0F8D80202F0DDBF1B
:1040000010B5044690F8900201280AD0012084F8E7
:1040100090022173206803F0AEFE002084F8900225
:1040200010BD022010BDD0F8D82200F52671104630
:1040300002F0DFBF10B5044690F8900201280CD0C2
:10404000012084F89002206803F06FFE206803F0DE
:104050004BFC002084F8900210BD022010BD00002F
:1040600010B50446D0F8D80203F005F8607A0028AD
:1040700004D00348016841F00601016010BD000052
:1040800010ED00E00248816841F480418160704792
:104090000070004010B5401EB0F1807F01D30120B8
:1040A00010BD4FF0E02460610F21601703F01CFF8A
:1040B0000020A06107202061002010BD01A204495A
:1040C00000F066B85365744441435F41000000004E
:1040D000DC89002001A2044900F05AB853657444F9
:1040E00041435F4200000000E089002038B5040031
:1040F0000BD0694604F0A2F80098A04201D00078E5
:1041000040B10DA00EF0F6F838BD12A113A00EF0CC
:10411000F1F838BD02F038F9164880ED010A10EECA
:10412000100A25F085FC41EC100B13A053EC102B6A
:104130000EF0E0F838BD0000415F5365743A206925
:104140006E76616C696420706172616D6574657210
:1041500000000000415F53657400000025733A20A1
:104160006D697373696E6720706172616D657465E6
:1041700072000000D8890020415F5365742075707B
:10418000646174656420746F3A20252E36660000E1
:10419000F8B50D46164604000DD0694604F04EF8F9
:1041A0000098A04201D0007840B131460BA000BF7A
:1041B0000EF0A0F8F8BD11460EA0F9E785ED000A53
:1041C00010EE100A25F034FC41EC100B314653EC94
:1041D000102B0EA00EF08EF8F8BD000025733A20CB
:1041E000696E76616C696420706172616D65746579
:1041F0007200000025733A206D697373696E672041
:10420000706172616D6574657200000025732075C0
:1042100070646174656420746F3A20252E346600E2
:1042200010B504000ED00CA1FCF72EFC80B10DA13E
:104230002046FCF729FC00280CD10CA0BDE810405A
:104240000EF058B8BDE810400EA111A00EF052B803
:1042500015A0F3E710BD000053687574446F776EC6
:10426000000000004F70656E000000005365744749
:1042700061746865723A20446576696365204F70A1
:10428000656E0000536574476174686572000000D4
:1042900025733A206D697373696E6720706172616E
:1042A0006D657465720000005365744761746865DC
:1042B000723A2044657669636520536875742044BA
:1042C0006F776E0038B504000BD0694603F0B6FF77
:1042D0000098A04201D0007840B10DA00EF00AF87D
:1042E00038BD12A113A00EF005F838BD02F05AF83F
:1042F000164880ED020A10EE100A25F099FB41ECF9
:10430000100B13A053EC102B0DF0F4FF38BD000080
:10431000565F5365743A20696E76616C69642070EB
:104320006172616D6574657200000000565F5365CF
:104330007400000025733A206D697373696E6720FD
:10434000706172616D65746572000000D88900202B
:10435000565F536574207570646174656420746F72
:104360003A20252E36660000FEE700000B494CF689
:10437000CC420A6045F255520A6003224A60B0F509
:10438000805F01D340F6FF70C0F30B008860C868FF
:104390004007FCD14AF6AA20086070470030004070
:1043A000174900BF51E8000F40F0200041E800022B
:1043B000002AF7D113480068C0F30220C0F10701BA
:1043C000042900D90421021D072A01D2002000E09F
:1043D000C01E012202FA01F35B1E03F003018140BB
:1043E0008240521E02F0010001430801064981F893
:1043F0000004054980202339C1F8000170470000FE
:10440000004800400CED00E027E000E01D4800BF40
:1044100050E8001F41F0200140E80013002BF7D1C5
:1044200050E8001F41F0400140E80013002BF7D195
:1044300015490968C1F30221C1F10702042A00D914
:1044400004220B1D072B01D2002100E0C91E01230D
:1044500093405B1E03F002028A4011010B4A82F86E
:1044600000140A4A2021213AC2F8001110F1080074
:1044700050E8001F41F0010140E80012002AF7D186
:1044800070470000003801400CED00E025E000E03E
:1044900010B5FEF739FDFFF75DF800F06FF8FEF795
:1044A00043FC01F08DFCFEF75FFEBDE8104001A06B
:1044B0000DF020BF41707020496E69742053756300
:1044C000636573730000000010B5FFF75BF800F040
:1044D0003BFEFEF7CFFC02F059F801F073FF00F04D
:1044E00065FF01F0FFF801F0FBF900F0F3FE01F0C9
:1044F00007F801F07BF804A00DF0FCFEBDE81040C9
:104500000AA00DF0F7BE00000D0A5B7665727369B4
:104510006F6E5D485220434E4320504F5745522006
:10452000535550504C592056312E3000486172641A
:104530007761726520496E69742053756363657392
:1045400073000000F0B500230A24302537261F46EB
:1045500011E000BFB4EB107F02D905EB107C01E045
:1045600006EB107C01F813C001EB430C00015B1C4F
:104570008CF80170DBB29342ECD3F0BD70B5234DE3
:104580004FF40051284600F097FA214C4FF4804137
:104590002071284600F090FA60724FF400412846DE
:1045A00000F08AFAA0734FF090454021284600F0B1
:1045B00083FAE0744FF48071284600F07DFA20768B
:1045C0000221144800F078FA607700204FEA0002D8
:1045D00000EB80031919401C0D79E5540B794B70E1
:1045E0008A70CA700628F3DB002240210A2024F0DA
:1045F0008DF809490028086007D1502080F3118800
:10460000BFF34F8FBFF36F8FFEE770BD0008004808
:104610008884002000040048BC01002030B50D460D
:10462000174900EB80020C468B5C91B01444AB42FE
:104630001FD1E178491CC9B2E17003291CD321794B
:10464000A94219D025710121A1700E4951F82030DD
:104650006DB10DA240216846FBF7ACFF094800236D
:10466000001F1A466946006824F0D8F804E00AA240
:10467000F0E78D540020E070657011B030BD00008F
:1046800088840020C00100205B4B45595D202573C4
:1046900020CACDB7C50A00005B4B45595D20257384
:1046A00020B0B4CFC20A000010B51C4C4FF400512A
:1046B000204600F001FAC1B20020FFF7AFFF4FF42F
:1046C0008041204600F0F8F9C1B20120FFF7A6FFB3
:1046D0004FF40041204600F0EFF9C1B20220FFF78D
:1046E0009DFF4FF090444021204600F0E5F9C1B213
:1046F0000320FFF793FF4FF48071204600F0DCF9B0
:10470000C1B20420FFF78AFF0221054800F0D4F966
:10471000C1B2BDE810400520FFF780BF0008004887
:10472000000400481CB500210320CDE900010B4620
:104730004FF4807207A1084824F03EFB0749012886
:10474000086006D006A00DF0D5FDBDE81C40FEF7C0
:10475000B7BD1CBD4B65790039800208FC01002003
:104760004B6579207461736B206372656174652099
:104770004661696C65640000044908B58A6C0243AF
:104780008A64896C0140009108BD0000001002405D
:10479000044908B5CA6C0243CA64C96C014000915F
:1047A00008BD000000100240044908B5CA6C02436D
:1047B000CA64C96C0140009108BD000000100240AD
:1047C000044908B5CA6C0243CA64C96C014000912F
:1047D00008BD000000100240044908B5CA6C02433D
:1047E000CA64C96C0140009108BD0000001002407D
:1047F000044908B58A6D02438A65896D01400091BC
:1048000008BD000000100240034A515C425822F0EB
:104810000102425070470000A09C0208F0B54F4BC7
:104820004E4A077A20330026151F1C1F0168002FEF
:1048300074D099B1477A5FB3012F31D0022F32D0B3
:104840000126857A55B1454908310A1F012D32D01C
:10485000022D3AD0032D3CD046F0020641680029D3
:1048600079D0427A82B3012A44D0022A45D046F058
:104870000406837A002B6ED0384928310A1F012B99
:1048800043D0022B4BD0032B4DD046F0050662E0FF
:1048900017688F43176001682A680A432A60D0E7C7
:1048A0002F688F4301E02F680F432F600168156860
:1048B0000D431560C5E705680F68AF430F600168D9
:1048C00015680D431560C9E70CE005681768AF432C
:1048D00002E0056817682F43176002680D681543EA
:1048E0000D60BBE71A688A431A60416822680A4370
:1048F0002260BEE722688A4301E022680A43226000
:1049000041681A680A431A60B3E743680C689C431D
:104910000C6040681168014311601CE00CE04368C2
:1049200014689C4302E0436814681C4314604068A8
:104930000A6802430A600EE02F688F432F60016807
:1049400015688D431560416822688A43226040687B
:104950001968814319603046F0BD0000040401402D
:1049600003490968884301D000207047012070473F
:1049700014040140F0B50A680F2692FAA2F2B2FAC6
:1049800082F303248AE001259D402A407ED04D68B1
:10499000012D01D0022D20D18D68876892FAA2FCEA
:1049A000BCFA8CFC4FEA4C0E04FA0EFC27EA0C070A
:1049B00092FAA2FCBCFA8CFC4FEA4C0C05FA0CF5FE
:1049C0002F438760CF680D68D0F804C02CEA050C2F
:1049D0007D434CEA050CC0F804C00F69D0F80CC048
:1049E00092FAA2F5B5FA85F54FEA450E04FA0EF5EE
:1049F0002CEA050C92FAA2F5B5FA85F56D00AF40E8
:104A00004CEA070CC0F80CC04D68022D2FD1FF2ACC
:104A100015D8D1F814C0056A92FAA2F7B7FA87F749
:104A2000BF0006FA07F7BD4392FAA2F7B7FA87F775
:104A3000BF000CFA07FC45EA0C05056217E0D1F847
:104A400014E0476A150A95FAA5FCBCFA8CFC4FEAFB
:104A50008C0C06FA0CFC95FAA5F5B5FA85F5AD00B7
:104A600027EA0C070EFA05FE47EA0E0747624D6873
:104A7000076892FAA2FCBCFA8CFC4FEA4C0C04FAD0
:104A80000CFE27EA0E0792FAA2F200E005E0B2FA65
:104A900082F2520095402F4307605B1C0A6832FA8D
:104AA00003F57FF470AF0020F0BD0069814301D0B1
:104AB00000207047012070470069814301D0002029
:104AC00070470120704710B5026822F001020260B1
:104AD000D1E90232046843EA022224F4F854144370
:104AE00004604A680261026842F001020260826862
:104AF00022F4004282608B690A6984681A436FF36A
:104B00000A04144384600A691AB1826842F40042BC
:104B100082600A68036823F4401313430360496901
:104B2000426822F400420A434260002010BD0000A7
:104B300070B500241F49204D4FF40046C02803D013
:104B4000B0F5407F1CD019E0D1F8880000F0C0001B
:104B500040F440004038B0F5400027D0402804D051
:104B600080281CD106E0044608E000F083F828B154
:104B70002C4603E000F086F800B13446204670BDB4
:104B8000D1F888000D4900F4407040F040704018A2
:104B90000CD0B0F5807FE8D0B0F5007FEAD001F00E
:104BA000DFF801F0ADF801F0BBF8DCE701F0D8F870
:104BB000D9E70000001002400024F40000FFFFFCD1
:104BC00070B5002429492A4D4FF40046032804D02B
:104BD0000C281AD030282FD040E0D1F888006FF48C
:104BE000403100F0030040F4403040180AD0012862
:104BF00036D002282ED001F0B3F801F081F801F090
:104C00009FF817E001F0ACF814E0D1F8880000F04C
:104C10000C0040F44020001FB0F54020F2D00428E2
:104C20001ED0082816D000BF01F09AF801F068F8ED
:104C300001F076F8044611E0D1F8880000F0300069
:104C400040F440101038B0F54010DBD0102807D0E9
:104C50002028E9D100F016F800B13446204670BD96
:104C600000F008F80028F9D02C46F7E700100240C1
:104C70000024F40002480068C0F380207047000060
:104C8000001002400248D0F89000C0F34000704786
:104C90000010024003498A6822F0F00202438A6051
:104CA0007047000000100240044951F8882F22EAA2
:104CB000104280B202430A607047000000100240B8
:104CC00010B503680122C3F3801373BBD1E900233D
:104CD0001A43D1E9033423431A434B691A438B69BE
:104CE0001A43CB691A430B6A1A4303684FF6BF7421
:104CF000A3431A430260426840F604739A434B6927
:104D000042EA13428B681A4342608A68B2F5006F28
:104D100003D2426842F4805242600A6AB2F5005FF0
:104D200002D1898C89B201610022C16921F400613C
:104D3000C161104610BD00000149086070470000C5
:104D40000C00002010B5012925D0042925D01029F8
:104D500025D0402925D0B1F5807F24D0B1F5806FD2
:104D600023D0B1F5805F22D0B1F5804F21D0B1F5CD
:104D7000803F20D00921114B18305B5C1844036838
:104D80000E4C0A34615C03248C40120CA3438A400D
:104D90001343036010BD0021EDE70121EBE7022181
:104DA000E9E70321E7E70421E5E70521E3E7062139
:104DB000E1E70721DFE70821DDE70000389C020872
:104DC00010B5012925D0042925D0102925D0402946
:104DD00025D0B1F5807F24D0B1F5806F23D0B1F517
:104DE000805F22D0B1F5804F21D0B1F5803F20D037
:104DF0000921114B18305B5C184403680E4C0A34CF
:104E0000615CF0248C40120CA3438A40134303607E
:104E100010BD0021EDE70121EBE70221E9E70321C5
:104E2000E7E70421E5E70521E3E70621E1E70721BC
:104E3000DFE70821DDE70000389C020810B50129F2
:104E40001FD004291FD010291FD040291FD0B1F531
:104E5000807F1ED0B1F5806F1DD0B1F5805F1CD072
:104E6000B1F5804F1BD0B1F5803F1AD00921036AFC
:104E70000D4C615C0A248C40A3438A4013430362B7
:104E800010BD0021F3E70121F1E70221EFE7032143
:104E9000EDE70421EBE70521E9E70621E7E7072134
:104EA000E5E70821E3E700004C9C020810B5012962
:104EB00025D0042925D0102925D0402925D0B1F5A9
:104EC000807F24D0B1F5806F23D0B1F5805F22D0F0
:104ED000B1F5804F21D0B1F5803F20D00921114B91
:104EE00018305B5C184403680E4C0A34615C0C2477
:104EF0008C40120CA3438A401343036010BD002171
:104F0000EDE70121EBE70221E9E70321E7E70421CF
:104F1000E5E70521E3E70621E1E70721DFE70821CF
:104F2000DDE70000389C02082DE9F04F02682A4BAB
:104F30002A4E2B4FDFF8ACC02B4C2C4D4FF0804B42
:104F400098420BD0584509D0B04207D0B84205D09E
:104F5000604503D0A04201D0A84205D1D1F8048019
:104F600022F0700242EA0802DFF88480DFF88490C1
:104F7000DFF884A0984211D058450FD0B0420DD030
:104F8000B8420BD0604509D0A04207D0404505D0BB
:104F9000484503D0504501D0A84203D1CE6822F441
:104FA0004072324302608A68C2620A888262984212
:104FB00009D0A04207D0404505D0484503D0504510
:104FC00001D0A84201D109690163416941F00101A1
:104FD00041610020BDE8F08F002C0140000400403A
:104FE00000080040000C0040003401400050014027
:104FF0000040014000440140004801402DE9F041DB
:10500000044600680D46012610F0010F52D12969AF
:10501000A868EA69084369691143084321682E4A70
:10502000114008432060E868616821F44051014361
:105030006160A869A16821F440710143A16027481B
:10504000844201D1032008E02548844201D10C208C
:1050500003E02448844203D13020FFF7B1FD0BE088
:105060002148844201D1C02004E0204884421AD162
:105070004FF44070FFF75CFDA8B1696899B12A68E8
:105080000026EB690B2A0ED8194FD2B2B3F5004FA8
:1050900057F82220B0FBF2F00FD000EB5100B0FB2C
:1050A000F1F080B2E0602888E16A80B221F00F015F
:1050B0000143E1623046BDE8F081400000EB510061
:1050C000B0FBF1F081B24FF6F07201EA0200C1F3D9
:1050D00042010843E6E70000F369FFEF00380140B2
:1050E0000044004000480040004C00400050004098
:1050F000589C020810F1080050E8002F22F060626E
:1051000042EA416240E80023002BF5D170470000DD
:1051100010F1080050E8002F61F35F7240E80023AF
:10512000002BF7D17047B4EEE00AF1EE10FA02D28C
:10513000B0EE600A7047B4EEC10AF1EE10FAF9DD84
:10514000B0EE410A704700002DE9F04F87B01821FA
:105150006846FBF772FC0420FFF71AFB2020FFF7DC
:1051600017FB0120FFF714FB0220FFF711FB4FF0A4
:1051700090470420B8610820B861544E0420B06202
:105180008002B0624FF40059C6F828900820B06140
:105190001020B8610120B0610024CDE90094DFF84F
:1051A000308105460490694640460294FFF7E2FBD1
:1051B0004FF48040CDE900040495694640460294CE
:1051C000FFF7D8FB7001CDE900040495694640461D
:1051D0000294FFF7CFFB4FF0040A4FF00208CDE92D
:1051E0000284CDE900A5694638460494FFF7C2FB66
:1051F0000820CDE90005CDE90284694604943846CB
:10520000FFF7B8FB1020CDE90005CDE9028469461F
:1052100004943846FFF7AEFB4FF0400BCDE900B4E5
:105220000495694638460294FFF7A4FB0095CDE942
:1052300001540394694630460494FFF79BFBCDE983
:1052400000840495694630460294FFF793FBCDF83D
:1052500000A0CDE901540394694630460494FFF759
:1052600089FB4FF480500090CDE9015403946946C6
:1052700030460494FFF77EFBCDF80090CDE9015451
:105280000394694630460494FFF774FB4FF4807032
:10529000CDE900040495694638460294FFF76AFB9D
:1052A00008200090CDE901540394694630460494E7
:1052B000FFF760FBCDE900B40494694630460294E0
:1052C000FFF758FB07B0BDE8F08F0000000400486E
:1052D000000800482DE9F0418EB01C2106A8FBF71C
:1052E000ACFB18216846FBF7A8FB2C4801684FF07F
:1052F000030821F44051002401600120FFF754FA13
:105300000220FFF751FA4FF4004002260125CDE9B3
:1053100000060427CDE90285CDE9045769464FF020
:105320009040FFF727FB8020CDE90006CDE90285FC
:10533000CDE9045769461A48FFF71CFB174888381F
:10534000816D41F400118165806D099400F40010B5
:105350000D9014480894CDE906400A940B940C94DF
:10536000114C06A92046FFF7AEFB606840F00070C4
:105370006060E06840F2FE718843E060E06820F41D
:105380000040E060206820F400202060206820F4C5
:10539000003020600EB0BDE8F081000088100240AF
:1053A00000040048C285B240005400402DE9F0419D
:1053B00092B0282106A8FBF740FB18216846FBF7AE
:1053C0003CFB4B48016E41F480510166016E01F4D3
:1053D00080511091C16C41F00101C164C06C022583
:1053E00000F00100109020200024CDE900050326E4
:1053F0000527CDE90264CDE904474FF0904869469E
:105400004046FFF7B7FA8020CDE90005CDE90264F8
:10541000CDE9044769464046FFF7ACFA3549082212
:1054200008313448D1F8003823F0FF0343F00B0370
:10543000C1F8003830498B78C35844F21006B343A2
:105440008E7843F0100383518B78C3588E7823F401
:10545000405343F4805383518B78C3588E7823F0A4
:10546000200383518B78C3588E7823F040038351F7
:105470008B78C3588E7843F0800383518B78C35860
:105480008E7823F4407383518B78C358897823F442
:1054900040634350194E3068C0F3801018B1306833
:1054A00020F0400030604FF4404006904FF482708E
:1054B00007904FF4E060CDE9080501200A900BA9A0
:1054C000400281E8150007200F9006A93046FFF73B
:1054D000F7FB706820F010007060706820F0080022
:1054E0007060306840F04000306012B0BDE8F0817C
:1054F0000010024000000240309C020800300140D1
:10550000F0B58BB0142106A8FBF797FA182168466E
:10551000FBF793FA0120FFF76BF90120FFF750F931
:1055200001240226CDE9004600254FF09047029560
:105530000494694638460594FFF71CFA00960494D3
:105540000594CDE9016569463846FFF713FAADF8D1
:105550001840A01ECDE90750A40706A920460995CA
:10556000FFF7E2FC206820F080002060A0681D4961
:10557000084040F00300A060A5132A460121204600
:10558000FFF7E0FB4FF44026324601212046FFF7AB
:105590008DFCFF113A4601212046FFF711FC002245
:1055A00001212046FFF74AFC2A4610212046FFF73A
:1055B000C9FB324610212046FFF778FC3A461021FD
:1055C0002046FFF7FDFB022210212046FFF736FCA4
:1055D0006068054908406060A06820F08000A06015
:1055E0000BB0F0BDF8FFFEFF8FFFFFFDF0B58BB0F5
:1055F000142106A8FBF721FA18216846FBF71DFACB
:105600000220FFF7F5F80220FFF7DAF81020022455
:1056100000258DE8310001262E4FCDE9046469464E
:105620003846FFF7A7F920208DE83100CDE9046462
:1056300069463846FFF79EF9ADF818604FF6FF70DF
:10564000CDE90750244C06A920460995FFF76CFCCC
:10565000206820F080002060A0682049084040F0C9
:105660000300A060A5132A4601212046FFF76AFB2C
:105670004FF44026324601212046FFF717FC4FF435
:1056800010073A4601212046FFF79AFB002201212C
:105690002046FFF7D3FB2A4610212046FFF752FB96
:1056A000324610212046FFF701FC3A4610212046E1
:1056B000FFF786FB022210212046FFF7BFFB606840
:1056C000074908406060A06820F08000A0600BB02F
:1056D000F0BD00000004004800040040F8FFFEFF99
:1056E0008FFFFFFD2DE9F04190B0202106A8FBF7C8
:1056F000A4F918216846FBF7A0F94FF44030FFF7F2
:10570000D3FA3948016E41F480410166006E00F41D
:1057100080400E900120FFF75FF84FF400700226E2
:10572000CDE9000602AA032000240125072782E80C
:10573000B1004FF0904869464046FFF71BF9A802B8
:105740000090CDE9016403AA694682E8B0004046B2
:10575000FFF710F925480068C0F30220011D072952
:1057600001D2002000E0C01E04FA00F10801204927
:1057700081F800041E4920202139C1F800014FF4AE
:10578000E130CDE906400C20CDE90A4008940994A7
:105790000C940D94174C06A92046FFF72FFC00210E
:1057A0002046FFF7B5FC00212046FFF7A3FC206848
:1057B00020F000502060606820F490406060A06895
:1057C00020F02A00A060206840F001002060E0691D
:1057D000C0F340500028FAD0E069C0F380500028A0
:1057E000F5D010B0BDE8F081001002400CED00E0F3
:1057F00025E000E0003801402DE9F04190B0202183
:1058000006A8FBF71AF918216846FBF716F94FF4BA
:105810004010FFF749FA2F48816D41F480218165DE
:10582000806D00F480200E900220FEF7D5FF4FF42B
:10583000806002250024CDE9000503260727CDE975
:105840000264DFF89480CDE9044769464046FFF7DB
:1058500091F8A802CDE90005CDE90264CDE904473D
:1058600069464046FFF786F84FF4E130CDE906403F
:105870000C20CDE90A40089409940C940D94174C1F
:1058800006A92046FFF7BAFB00212046FFF740FC9F
:1058900000212046FFF72EFC206820F000502060F9
:1058A000606820F490406060A06820F02A00A0604A
:1058B000206840F001002060E069C0F340500028FB
:1058C000FAD0E069C0F380500028F5D010B0BDE8F0
:1058D000F081000000100240000400480048004031
:1058E00010B500220F49104801F022FA08B1FDF767
:1058F000E7FC0E490C4801F0E6FB08B1FDF7E0FCBF
:105900000B49094801F078F808B1FDF7D9FC0648C1
:1059100001F054FC002803D0BDE81040FDF7D0BCD6
:1059200010BD000010000020CC0600207C000020EC
:1059300068000020FEE77047FEE72DE9F84F0446B7
:1059400040F68F7A40F2064B48F60F784FF0000988
:105950008BE1B0F8441011F00F053AD030F8256013
:1059600031047DD530F8251001EA0A0141F08001AB
:1059700020F8251005EB850004EBC00797F85C01C3
:1059800007F5A87700286CD0F87802286AD0397813
:10599000226832F8210048F68F73184048F2C0039D
:1059A000184322F821003878D4F800C03CF82010C1
:1059B0004904BCF8501001EB0C027ED540F20241C4
:1059C00001EBC000105A8005800D009076D03A8916
:1059D000A7E0C9062AD4018801EA080141F4004180
:1059E0000180206804F11005B0F85010227C0144B9
:1059F00040F2024000EBC200085AC0F30900E06226
:105A0000616A0844606200212046FDF797FE207B12
:105A100000289DD0A86900289AD1207B40F0800101
:105A20002068A0F84C1084F80C901EE1018804F561
:105A3000A8750A051ED5B0F850100A1829780BEB86
:105A4000C100105A04F52671C0F30903EB61EA881E
:105A5000206802F07CF92168088800EA0A0002E068
:105A60007BE03FE04EE040F0800008802046FEF7FB
:105A7000DAFAFAE00904D8D5018801EA0A0141F00E
:105A8000800101802068B0F850102A7808440BEBA0
:105A9000C201405A83059B0DEB610DD0696959B174
:105AA000EA88206802F053F9E96968690844686186
:105AB00000212046FDF74BFE01E02AE028E02068A7
:105AC00001880A050DD4C1F30131032909D00188E9
:105AD0004BF68F72114081F4405148F2800211431D
