:020000040800F2
:10000000E8A2012025040008355D0008A14500088C
:10001000315D0008912B0008A98300080000000052
:100020000000000000000000000000006503000860
:10003000C92E000800000000C10300082566000862
:100040003F0400083F0400083F0400083F04000884
:100050003F0400083F0400083F0400083F04000874
:100060003F0400083F0400083F0400083D2D00083D
:10007000552D0008A12D00083F0400083F0400088A
:100080003F0400083F0400083F0400083F04000844
:10009000318200083F0400083F0400083F040008C4
:1000A0003F0400083F0400083F0400083F04000824
:1000B0003F0400083F0400083F0400083F04000814
:1000C0003F0400083F0400083F0400083F04000804
:1000D0003F040008056C00083F040008616C00083C
:1000E000412F00083F0400083F0400083F040008B7
:1000F0003F0400083F0400083F0400083F040008D4
:100100003F0400083F0400083F0400083F040008C3
:100110003F0400083F0400083F0400083F040008B3
:100120003F0400083F0400083F0400083F040008A3
:100130003F0400083F0400083F0400083F04000893
:100140003F0400083F0400083F04000800000000CE
:10015000000000000000000000000000000000009F
:100160000000000000000000000000003F04000844
:100170003F0400083F0400083F0400083F04000853
:100180003F0400083F0400083F0400083F04000843
:100190003F040008000000003F0400083F0400087E
:1001A0003F0400083F0400083F0400083F04000823
:1001B0003F0400083F0400083F0400083F04000813
:1001C0003F0400083F0400083F0400083F04000803
:1001D0003F0400083F04000800F002F800F0B2F805
:1001E0000AA090E8000C82448344AAF10107DA4592
:1001F00001D100F0A7F8AFF2090EBAE80F0013F032
:10020000010F18BFFB1A43F0010318472C9D04008F
:100210004C9D04000A444FF0000C10F8013B13F011
:10022000070408BF10F8014B1D1108BF10F8015B4F
:10023000641E05D010F8016B641E01F8016BF9D142
:1002400013F0080F1EBF10F8014BAD1C0C1B09D199
:100250006D1E58BF01F801CBFAD505E014F8016B0B
:1002600001F8016B6D1EF9D59142D6D3704700009D
:100270000023002400250026103A28BF78C1FBD8AF
:10028000520728BF30C148BF0B6070476E2900F08D
:100290008884702900F0F78766292AF03F85652950
:1002A0002AF03C8567292AF0398561292AF03885AA
:1002B00003681B0A28BF41F08001692900F05881BA
:1002C000642900F05581752900F052816F2900F0F2
:1002D0008487782900F0C387E92900F01F87E42983
:1002E00000F01C87F52900F01987EF2900F08187BD
:1002F000F82900F0C2870368DB0928BF41F08001BC
:10030000632900F0A086732900F0A586E32901F097
:10031000E981F32901F0EE81002070471FB52AF032
:10032000F0FC00F0C9FF0400002000212AF070FA60
:10033000401C6060002000212AF054FAE0601FBDDC
:1003400010B510BD01F0C2FA1146FFF7E7FF23F028
:10035000CBFA01F012FB03B4FFF7F2FF03BC01F08C
:1003600091FD00002C4B19680868B0E8F04F80F34D
:100370000988BFF36F8F4FF0000080F3118870473A
:100380000000000008480068006880F308884FF00B
:10039000000080F3148862B661B6BFF34F8FBFF3DD
:1003A0006F8F00DF00BF00BF08ED00E0DFF80C003A
:1003B000016841F470010160704700BF88ED00E002
:1003C000EFF30980BFF36F8F134B1A681EF0100F05
:1003D00008BF20ED108A20E9F04F106009B44FF0FB
:1003E000500080F31188BFF34F8FBFF36F8F29F058
:1003F000C5F94FF0000080F3118809BC196808683E
:10040000B0E8F04F1EF0100F08BFB0EC108A80F378
:100410000988BFF36F8F7047E0000020EFF305807D
:10042000704700000948804709480047FEE7FEE79B
:10043000FEE7FEE7FEE7FEE7FEE7FEE7FEE7FEE794
:1004400004480549054A064B704700002D6700081F
:10045000D9010008E89C0120E8A20120E89E0120C3
:10046000E89E01207CB51D4616460C00009001D088
:100470002044401E074B7B442A4669460190304683
:1004800000F0B7FD05461CB10020694600F0C4FD30
:1004900028467CBDA90B00000FB47CB50C0009AA4E
:1004A000009001D02044401E084B7B4469460190D7
:1004B000089800F09EFD05461CB10020694600F03A
:1004C000ABFD28467CBC5DF814FB0000750B0000FA
:1004D00070B5044685690068C10601D5302600E084
:1004E0002026C00707D070BDD4E9012130469047CF
:1004F000206A401C20626D1EF6D570BD70B50446A2
:1005000085690078C00707D170BDD4E9012120209A
:100510009047206A401C20626D1EF6D570BD70B5F4
:100520000C460546012A05D02878800600D5EA69E0
:10053000002302E0012305E05B1C934202D2E05C51
:100540000028F9D1A869E618C01AA861286A1844D9
:1005500028622846FFF7BCFF04E0D5E9012114F822
:10056000010B9047B442F8D32846FFF7C7FF70BD90
:100570002DE9F0410646002410687529314616A57C
:1005800010D000F0A3FA002802DA404213A507E0D9
:1005900031688A0701D512A502E0490704D511A5E3
:1005A000012401E000F09BFA00210A2206F1240751
:1005B00009E0B0FBF2FCB0FBF2F302FB1C003030B0
:1005C00078541846491C0028F3D123462A46304661
:1005D000BDE8F04100F08CBA000000002D000000E2
:1005E0002B000000200000002DE9F05F8946044642
:1005F0004FF0000ADFF874B1FB44C0F820A0204699
:10060000E1688847002874D0252806D0D4E9012164
:100610009047206A401C2062F1E700265F46204692
:10062000E16888472028054607DB312D05D2781977
:1006300010F8200C08B10643F1E7B00701D526F009
:100640000406C4F81CA00027C4F818A02A2D09D05D
:10065000284608F032F938B304EB8708303DC8F873
:10066000185019E059F8041B204604EB87029161E9
:10067000E1688847012F054618D1E069002820DA93
:1006800026F020061DE0D8F8180000EB800005EBEE
:1006900040003038C8F818002046E1688847054611
:1006A00008F00BF90028EED1012F0AD02E2D08D129
:1006B0002046E16888477F1C0546022F46F0200649
:1006C000C4DBA069002803DA404246F00106A061BD
:1006D000F00701D026F010066C2D0BD0682D09D044
:1006E0004C2D39D06A2D35D0742D35D07A2D33D09C
:1006F00016E038E0E1682F4620468847B8420546B4
:1007000009D16C2F26D04FF48060E1680643204663
:100710008847054604E06C2F1AD04FF480700643DA
:100720000DB3A5F14100192802D8203546F4006622
:100730004A462946204626604E46FFF7A7FD80B16F
:1007400001280BD0F61D26F0070000F1080956E736
:100750004020E4E78020D8E70020D6E706F104092E
:100760004DE7284652E7206ABDE8F09F2C97040029
:10077000401ECAB210F8011F8A4202D00029F9D1E6
:100780000020704740EA0103024630B59B0710D1B4
:100790004FF0013400E008C208C91D1B9D4315EA53
:1007A000C41FF8D013F0FF0102F8011B0DD01B0A83
:1007B000F8E711F8013B002B02F8013B05D011F8D6
:1007C000013B002B02F8013BF3D130BD10B5431CB7
:1007D00002E010F8011B71B18107FAD14FF001322C
:1007E00002C88C1A8C4314EAC211F9D0C01A0A0646
:1007F00003D0C01E10BDC01A10BD0A0401D0801E57
:1008000010BD0902FCD0401E10BD40EA010370B5C6
:100810009B072ED14FF00136042A2AD308C810C9ED
:100820009D1B9D43121F15EAC61517D0D8B2E1B221
:10083000401A50EA056110D198B2A1B2401A50EAAC
:1008400005410AD123F07F4024F07F41401A50EA4D
:10085000052102D1180EA0EB146070BDA342DBD0BD
:1008600018BA21BA884201D9012070BD4FF0FF307B
:1008700070BD0AB9002070BD10F8013B11F8014BA2
:1008800063B1A3420AD1521E08D010F8013B11F8FF
:10089000014B1BB1A34201D1521EEDD1181B70BDFB
:1008A000032A40F2308010F0030C00F0158011F89C
:1008B000013BBCF1020F624498BF11F801CB00F874
:1008C000013B38BF11F8013BA2F1040298BF00F8C8
:1008D00001CB38BF00F8013B11F0030300F0258085
:1008E000083AC0F0088051F8043B083A51F804CBAC
:1008F000A0E80810F5E7121D5CBF51F8043B40F872
:10090000043BAFF30080D20724BF11F8013B11F87C
:1009100001CB48BF11F8012B24BF00F8013B00F8C0
:1009200001CB48BF00F8012B704710B5203AC0F04A
:100930000B80B1E81850203AA0E81850B1E81850E0
:10094000A0E81850BFF4F5AF5FEA027C24BFB1E81D
:100950001850A0E8185044BF18C918C0BDE810408E
:100960005FEA827C24BF51F8043B40F8043B08BF97
:100970007047D20728BF31F8023B48BF11F8012B5E
:1009800028BF20F8023B48BF00F8012B704702F057
:10099000FF0343EA032242EA024200F002B84FF0AA
:1009A00000020429C0F0128010F0030C00F01B803C
:1009B000CCF1040CBCF1020F18BF00F8012BA8BF4A
:1009C00020F8022BA1EB0C0100F00DB85FEAC17C0E
:1009D00024BF00F8012B00F8012B48BF00F8012BC1
:1009E00070474FF0000200B51346944696462039F2
:1009F00022BFA0E80C50A0E80C50B1F12001BFF4D8
:100A0000F7AF090728BFA0E80C5048BF0CC05DF83D
:100A100004EB890028BF40F8042B08BF704748BF8B
:100A200020F8022B11F0804F18BF00F8012B7047FF
:100A30004FF0013C50F8042B51F8043B9A4221D16D
:100A4000A2EB0C03934313EACC1317D150F8042BF9
:100A500051F8043B9A4215D1A2EB0C03934313EADD
:100A6000CC130BD150F8042B51F8043B9A4209D116
:100A7000A2EB0C03934313EACC13DBD04FF000003E
:100A8000704700BFD01A01BAB1FA81F101F0180124
:100A900022FA01F0CB40C1F12001DBB2C0B2C01A92
:100AA0002CFA01F3D11A914311EAC311E6D1704730
:100AB00070477047704710B500F002FC006810BD29
:100AC00010B5044600F0FCFB046010BD09684A053F
:100AD00001D540B27047C905FCD500B2704709681E
:100AE0004A0501D5C0B27047C905FCD580B2704730
:100AF0002DE9F0470D4699469246044600F1240838
:100B00000168880604D5E06921F01001216000E049
:100B10000120A84201DD471B00E00027A1697A19E6
:100B200002EB0900081AA0612078C00602D4204612
:100B3000FFF7CEFC002608E0D4E901211AF80600F0
:100B40009047206A401C761C20624E45F4DB2078DA
:100B5000C0060AD52046FFF7BBFC06E0D4E9012118
:100B600030209047206A401C2062381EA7F1010700
:100B7000F4DC07E0D4E9012118F805009047206A69
:100B8000401C2062281EA5F10105F3DC2046FFF77A
:100B9000B5FC2078000602D50220BDE8F0870120D0
:100BA000FBE711680268006A530501D508700AE086
:100BB000D30501D5088006E0130603D5C217C1E9A5
:100BC000000200E008600120704770472DE9FF4FE8
:100BD0000C461E464FF0FF378BB0D2E90001DDF81E
:100BE00060800A908A46C1F30A5505B93D46002146
:100BF00008464FF00000BAF1000F00F4400005DA9B
:100C000000EB80004FF4400101EA50004FEA905998
:100C1000B9F1010F00DDB9460A9850EA4A000ED03A
:100C200044F61050A5F2FF3545432F14B8F1000FDC
:100C30001ED07542291E1EDDC9F100021CE0B8F16C
:100C4000010F4FF0000001D0302103E0F24305E036
:100C50002154401CB042FBDB3046002200212154CD
:100C60000B99C1F80880C1E900200FB0BDE8F08FF2
:100C7000BD1B6D1CDEE74A4600DA694206A800F09B
:100C80008FFD06AB93E8070003AB83E807005046EF
:100C90000A9901F049FB8DE80700A0F500501F38C4
:100CA00000900398002D0ADD42F21F014A460844D5
:100CB000002303A90390684601F0F4FD09E0A0F5C4
:100CC00000504A461F38002303A90390684601F0EC
:100CD00013FE8DE807000004000C03D04FF0FF3036
:100CE000410800E01046B8F1000F03D00022009246
:100CF00015461EE0751E05D400F0E6FA3032625546
:100D00006D1EF9D5B3460122084302D000227F1C94
:100D100004E02078302801D100227F1E002A0997A4
:100D200084D01DE0112D07DA00F0CEFA3032625582
:100D30006D1C50EA0102F5D1084302D00098C8B1F9
:100D40000EE00021681E05E0235C625C63542254BF
:100D5000401E491C8142F7DBAB46A81B401E099090
:100D6000002004F80B000B98099AC0F80880C0E92D
:100D7000002B7AE711264FF0000857E72DE9F04FD6
:100D800088460446D21D22F0070191B0D1E9000146
:100D9000CDE90A0107F03AFB02460B98C00F01D0DB
:100DA0002D2007E02068810701D52B2002E02021BB
:100DB00001EAC000032A099001D0072A05DB034697
:100DC0004146204600F044FC0BE12078800601D526
:100DD000E06900E00620B8F1650F814606D0B8F161
:100DE000660F18D0B8F1670F70D131E00020B9F16B
:100DF000110F009001DB112301E009F101030AAAA0
:100E000001A90CA8FFF7E2FEDDE90C70002609F14C
:100E10000105834647E001204B4600904FF0004714
:100E20000AAA01A90CA8FFF7D1FEDDE90DB00C99C3
:100E30005D46002610B909F101000D18B9EB050057
:100E400003D4C0F1FF3609F10105A5EB09002BE041
:100E5000B9F1010F01DA4FF001090020B9F1110FCA
:100E60000090484601DD112300E003460AAA01A9CB
:100E70000CA8FFF7ABFEDDE90C704D46002683465B
:100E8000207800070AD4AB4500DA5D4601A8012DA1
:100E900004DD411911F8011C302907D04F4502DA51
:100EA00017F1040F04DA012082460FE06D1EEEE711
:100EB000002F02DCED1B3E4403E0781CA84200DD5D
:100EC0007D1CB81B00F1010A4FF000472078000795
:100ED00003D4AA4501DB4FF0FF3A0021B7F1004FE0
:100EE0000DF143088DF8431024D002202B23002F4E
:100EF00001DA7F422D230A21021EA0F1010000DC4D
:100F00005FB197FBF1FC97FBF1F201FB1C7C1746EC
:100F10000CF1300C08F801CDEEE7A8F101000370E8
:100F20002188090501D5452100E06521A0F10108CE
:100F300000F8011C09980FA9A1EB0807FF1D00B1DB
:100F40000120411901EBEA70A1693844081A401EDA
:100F5000A0612078C00602D42046FFF7B9FA0998AC
:100F600028B1D4E901219047206A401C20622078F2
:100F7000C00622D52046FFF7ABFA1EE0002E04DBA8
:100F8000B34502DD01A8805D00E03020D4E90121F5
:100F90009047206A401C2062761CAAF101005FEA9B
:100FA000000A0AD100F088F9C0680168405CD4E901
:100FB00001219047206A401C2062281EA5F10105EE
:100FC000DCDC07E0D4E9012118F8010B9047206A26
:100FD000401C2062381EA7F10107F3DC2046FFF712
:100FE0008DFA032011B041E601694A1C02610878BC
:100FF000704700B58FB0CDE9013100210591054959
:101000007944CDE9031011466846FFF7EDFA0FB0B9
:1010100000BD0000E5FFFFFF0A6802F8010B0A604F
:101020007047D1E900239A4202D2531C0B60107022
:10103000704710B5436913B1AFF3008001E0FFF7CB
:101040006EFA012010BD127800F124010A7000220E
:101050004A700122EDE711684FF0FF32E9E7000026
:101060002DE9FF5F15468A460446DFF8AC80F84458
:101070000027D8E900103E46CDE9001010E03AF80C
:1010800016106A4602A800F0FDFB411C07D021782B
:10109000890603D5E269391891420DD80744761CB8
:1010A0002078800602D5E069B84205DDAE42E6DB75
:1010B0003AF816000028E2D1A069C01BA0612046C2
:1010C000FFF706FAD8E90010CDE90010002017E07C
:1010D0003AF818106A4602A800F0D4FBB0F1FF3FBE
:1010E00081460BD000250DF1080B05E0D4E9012164
:1010F0001BF8050090476D1C4D45F7D308F1010022
:10110000B0428046E4DB206A384420622046FFF784
:10111000F5F9BDE8FF9F00000A8D04002DE9F041BC
:101120008046D21D22F007020025D2E90002F529EF
:1011300015A614D0011E72F1000106DA0023D0EBCF
:10114000030063EB020211A608E0D8F800108B0739
:1011500001D50FA602E0490701D50EA601251146CB
:10116000002408F1240704E000F0AEF830323A55CC
:10117000641C50EA0102F7D12B4632462146404614
:10118000BDE8F041FFF7B4BC000000002D000000F6
:101190002B0000002000000030B4002100F12404E6
:1011A00008E002F00705D208303542EA4372DB0856
:1011B0006554491C52EA0305F3D10468002310A2C8
:1011C000250707D5A40600D421B1C46901230DA2C7
:1011D000641EC46130BCFFF78BBC10B504462146C9
:1011E0001068FFF77CFC02462046BDE81040002353
:1011F000D2E7D21D22F00701D1E90023CCE700009D
:101200000000000030000000F0B40D460188090520
:1012100002D5214C7C4402E01F4C7C440E3400215A
:1012200000F1240608E002F00F071209E75D42EA28
:1012300003721B097754491C52EA0307F3D1027861
:101240000023120704D5702D06D009B102231134F2
:101250002246F0BCFFF74CBC01231034F8E770B510
:1012600004460D4621461068FFF739FC0246294620
:101270002046BDE870400023C6E7D21D22F00703D8
:10128000D3E90023C0E70368126843F0200303603A
:101290000823C3610023B7E76C8B04007CB50546C7
:1012A00000236846CDE9003300F046FA6946284637
:1012B00007F0F0FA7CBD000000487047A49C0120B4
:1012C00000487047849C012030B5B0F10A024FEA13
:1012D000900E71F100034EEA817EB0EB0E0061EBDF
:1012E00091014FEA101E4EEA017E10EB0E0041EB19
:1012F00011114FEA102E4EEA016E10EB0E0041EB79
:1013000011214FEA104E4EEA014E10EB0E0041EB58
:101310001141401841F100014FEAD00040EA41700C
:101320004FEAD10110EB80054FEA810444EA907442
:1013300044EB01046D1944EB0404521BA3414FF02C
:10134000000348BF0A3200D530BD401C41F1000106
:1013500030BD00002DE9F04F04460D46D21D22F0AD
:10136000070089B0D0E900974846394607F04EF8A3
:101370000246F80F01D02D2307E02068810701D530
:101380002B2302E0202101EAC0038DF820300BB1AD
:10139000012000E00020032A824601D0072A04DB56
:1013A0002946204600F054F93FE12078800601D418
:1013B0000D2500E0E569C7F30A560D2D49DA002135
:1013C0004FEA175B08464FF00000002F00F4400082
:1013D00007DA00EB80004FF4400100EBD07001EA27
:1013E00060008115012901DD4FF0FF3100224FEA35
:1013F000850CBCF1180F06D31346ACF118004FF062
:101400008052C24003E04FF4801323FA0CF30CF136
:101410000C0CBCF1200F04D3ACF1200C09FA0CF039
:1014200001E007FA0CF000294FF0004801DD18B97F
:101430000FE00ED140450CD319EB02095F4121B9F1
:10144000404502D19F4329EA0209BBEB175F00D058
:10145000761C2088000502D57B48784402E07A4853
:101460007844193808AA302302F80A30037C0AF1BC
:101470000101002E0AF1020A53546A4602DC4FF0C1
:10148000300101E04FF031014FF001088DF80010FC
:1014900002D0A6F2FF3603E059EA470100D06B4EB6
:1014A000002D02DC2178090704D54FF002082E2117
:1014B0008DF80110C44600210BE0C7F303433F0140
:1014C000C35C491C6D1E02F80830052908F10108AB
:1014D00001DA002DF1DC00210CE000EB1973491C4E
:1014E0001B786D1E082902F808304FEA091908F127
:1014F000010801DA002DF0DC21688B0602D516E028
:10150000A8F10108E04505DD02EB080313F8013CF2
:10151000302BF5D0B8F1000F09DD02EB080313F80A
:10152000013C2E2B03D1090701D4A8F10108002D9D
:1015300005DD3E2102F808106D1E08F10108407C0F
:10154000002E02F8080008F1010804DA2D20764286
:1015500002F8080002E02B2002F808000A214FF4EC
:101560007A70864208F101080BDB96FBF0F330330A
:1015700002F8083096FBF0F308F1010800FB13664F
:1015800001E0642E0CDB642096FBF0F3303302F8AC
:10159000083096FBF0F308F1010800FB136601E048
:1015A0000A2E06DB96FBF1F0303002F8080008F155
:1015B000010896FBF1F001FB1060303002F80800E2
:1015C000A16908F1010808EB050202EB0A00081AFC
:1015D000A0612078C00602D42046FEF779FF216A78
:1015E00008AE01EB0A00206204E0D4E9012116F8FC
:1015F000010B9047BAF1010AF7D22078C00602D554
:101600002046FEF765FF6E4609E016F8010B3E28FE
:101610000FD0D4E901219047206A401C2062B8F124
:101620000108F2D22046FEF769FF09B00320BDE8A9
:10163000F08F206A2844206203E0D4E901213020A1
:1016400090476D1EEBD3F8E76189040002FCFFFFB1
:101650002DE9F0411F46044603260168072A01F4DC
:10166000006004DB08B116A505E016A503E008B18B
:1016700015A500E015A521F010002060A069C01E8E
:10168000A0610FB1401EA0612046FEF721FF4FB1BF
:10169000D4E9012138469047206A401C2062C01CD2
:1016A000206206E0206AFAE7D4E9012115F8010B6F
:1016B0009047761EF8D22046FEF720FFBDE8F08165
:1016C0004E414E006E616E00494E4600696E6600E6
:1016D00010B5436913B1AFF3008001E0FFF7C0FC20
:1016E000012010BD128800F1240182840022C284EE
:1016F0000122EDE711684FF0FF32E9E70FB4002354
:1017000000B589B00CA900910B99CB60214B7B44AB
:101710000693214B7B44079304236FF00042CDE9ED
:1017200001321E4A7A446B4608920246002029F094
:1017300059FB09B05DF814FB70B506464FF0FF3059
:1017400015460C46324686B00091CDE90101694646
:101750000020049004A8FFF7D1FF02460498211846
:1017600025B108B1084600E020462860049800280A
:101770000DD0002A02DD0098884208D03246081BAE
:1017800069460094CDE9010404A8FFF7B7FF06B04D
:1017900070BD0000290200004102000001020000AB
:1017A0002DE9F047814616468AB0354878440DC881
:1017B0008DE80D0032487844801C03AC0DC884E8E5
:1017C0000D0041F69B300844372190FBF1F290FB6D
:1017D000F1F5A5F1800501FB12041B3C02D5644222
:1017E000012000E00020DFF898A080460027FA449E
:1017F000AAF1BE0A0EE0E0070AD03246684607EBBF
:10180000470101230AEB810101F076F88DE807001A
:1018100064107F1C002CEED1194F7F44AE3F19E0BD
:10182000E80715D007EB04100DF1180A90E80E0038
:101830008AE80E00C068F04201D19819089032463B
:10184000012306A903A801F057F803AB83E80700BA
:101850006D10641C002DE3D14FF001033246694640
:10186000B8F1000F03A802D001F01CF801E001F06C
:1018700043F8C9E90001C9F808200AB0BDE8F087BB
:10188000A086040070B516460C46054600F044F8E4
:10189000036893F80101012806D0FF2C0FD8185DCA
:1018A00068B101202C7070BDD3F807013246214683
:1018B00003F2071303442846BDE8704018474FF071
:1018C000FF3070BD00487047849C01207546FFF7CB
:1018D000F9FFAE4605006946534620F007008546ED
:1018E00018B020B5FEF7ACFDBDE820404FF0000673
:1018F0004FF000074FF000084FF0000B21F00701F8
:10190000AC46ACE8C009ACE8C009ACE8C009ACE83A
:10191000C0098D467047000010B5FFF7CDFC001DD3
:1019200010BD00BFED8E020010B50446FFF7F4FFB6
:101930000068005D00F0010010BD426842B101681E
:1019400011F8013B23B1521EC0E90012184670473E
:101950000121C160881E704742685AB1C36801689E
:1019600043B983688B4205D0491E521CC0E900125E
:10197000002070474FF0FF30704710B50446AFF3BA
:1019800000802046BDE81040FEF7E5BC2DE9FF4F82
:1019900006468BB00878FF2806D0491C2D2805D0B4
:1019A00000244FF0000908E000200CE00124F8E7D3
:1019B00009EB8903491C00EB43090878FF28F7D19C
:1019C00014B1C9F100008146107800252C46AA46C2
:1019D00029462D2801D02B2804D1521C2D2813D0A4
:1019E000002082468B461078FF280FD04FF0000C65
:1019F0000A21521CA5FB017804FB018105FB0C1197
:101A0000C5194BEB0104EEE70120EAE70021084687
:101A10004FF00000BAF1000F02D000EB8000400848
:101A2000C0F38157012F01DD4FF0FF370E9955EAC2
:101A3000040009EB01080BD04FF0020918F5FA7FFA
:101A400016DA4FEACA70002F706008DD012007E047
:101A50004FEACA70C6E900B00FB0BDE8F08F0020B1
:101A60003060FFF72DFCC0F800901821084616E002
:101A7000B8F5FA7F18DD002F02DAF748784401E064
:101A8000F6487844D0E90010C6E9001040EACA7070
:101A90007060FFF715FCC0F80090142108460FB0E5
:101AA000BDE8F04F29F037B9002108464FF000009B
:101AB000B8F10001099002DAC7F1000200E03A46ED
:101AC00001DAC8F1000106A8FFF76AFE06AB93E849
:101AD000070003AB83E8070044F23E005BEA040121
:101AE0000090584604D144F21E012C465D460091F8
:101AF000210C0904014306D10099240444EA154449
:101B00002D041039009104F07F41014306D1009962
:101B1000240244EA15642D020839009104F0704152
:101B2000014306D10099240144EA15742D01091FCF
:101B3000009104F04041014306D10099A40044EA19
:101B40009574AD00891E009104F00041084304D152
:101B500000986D196441401E00904FF001033A4611
:101B60006846B8F1000FCDE9014503A902DD00F098
:101B7000D8FE01E000F0ABFEBAF1000F04460D46BE
:101B800001D084F00044002108464FF0000009997C
:101B900040F2FF77484010F00C0F07D124F00040CE
:101BA000284303D0C4F30A50B84212D1FFF788FB90
:101BB000C0F80090C4F30A50B8420AD1A84878444B
:101BC000D0E90010C6E9001004F00041084370603D
:101BD00042E7C6E900543FE72DE9FF4F1F464FF0AB
:101BE000000A4FF0FF38454691B0D7E90146CDF8DD
:101BF0003CA0FFF761FBC0680168405C1090B969C8
:101C000012986D1C8847396A814688470028F6D1AA
:101C1000B9F1FF3F0AD0002E24F4D06411DDB9F1F0
:101C20002B0F08D0B9F12D0F0BD102E0404615B0B3
:101C300013E744F48064B96912986D1C8847761ED6
:101C40008146600504A901D52D2000E02B20002E3F
:101C500001F1010B0DF130088DF810003FDDB9F1F5
:101C6000690F08D0B9F1490F05D0B9F16E0F02D054
:101C7000B9F14E0F1CD13B4601A8009580E85002F7
:101C8000DDE912126FF0020029F0B0F8C11CCED1CC
:101C90000EE0B96912986D1C884781461398761E2C
:101CA00044F4007405600F98401C002E0F9016DD60
:101CB000B9F1300FEDD0B9F1780F02D0B9F1580F6A
:101CC0000DD10F9801280AD13B46CDE90054DDE93A
:101CD0001212001F029629F087F8C11CA7D1109993
:101CE00089453ED144F0800406E01399681CAAF1AE
:101CF000010A44F400740860B9696D1C1298761EDC
:101D0000884730288146F0D02BE01099894505D1CD
:101D1000200603D4761E44F0800418E0484606F0FE
:101D2000CCFD08B3761E0DF123018B4544F40074FD
:101D300008D2A9F130000BF8010B200607D5AAF153
:101D4000010003E0200602D40AF101008246A0054A
:101D500002D51399681C0860B96912986D1C8847F0
:101D60008146002ED1DC53E0002E51DDB9F1650F24
:101D700002D0B9F1450F4BD1A00549D5B9696D1C09
:101D80001298761E24F440748847002E81460CDD9C
:101D90002B2804D0B9F12D0F07D144F48074B96910
:101DA00012986D1C8847761E8146E00501D52D21CD
:101DB00000E02B2108F8011BCDF8008021E0761E01
:101DC0000DF13901884544F400740CD2A9F13000BA
:101DD00010F0FF0088F8000002D10099884509D969
:101DE00008F1010806E0E00501D51E4801E042F2D5
:101DF0000F708246B96912986D1C88478146139806
:101E00000560002E04DD484606F057FD0028D6D1B7
:101E1000F96912988847FF2053468BF8000088F82C
:101E2000000000200A900B9004AA0CA90AA8FFF752
:101E3000ADFDA00502D46FF00100F8E614F0240F08
:101E400012D0E0071CD13868DDE90A12031D3B609F
:101E50000068C0E9001213E0E0840400D2840400AA
:101E600096830400F1D8FFFF0AA9684606F012FD28
:101E7000E00705D13868009A011D396000680260EA
:101E80002846D4E601491820ABBEFEE72600020032
:101E90002DE9FF4F1F464FF03C0987B04FF000423D
:101EA000DDE9141001F10108DDF858A002EA405004
:101EB0000390002005908346054604460490B969C6
:101EC000461E08988847AAF1010A0290BAF1000F4D
:101ED0003BDD02982E2815D0102100F017FA0028BB
:101EE0002EDB4FF0010B0599014317D0B9F1000F1C
:101EF0000BDB4A46C11700F0F6F905430C43A9F184
:101F0000040905E0012004900BE008B145F001054B
:101F100001200590049820B9361D02E0049800B114
:101F2000361FB969089808F101088847BBF1000F0E
:101F3000AAF1010A0290C9D00999C1F80080C5E749
:101F40000298702808D0502806D0F9690898884768
:101F5000BBF1000F14D04FE0002002900120BBF134
:101F6000000F049009D0B969089808F10108884762
:101F7000AAF10109B9F1000F07DCF969089888474F
:101F80006FF001000BB0BDE8F08F2B2804D02D2896
:101F90000CD14FF0FF300490B969089808F101089E
:101FA0008847A9F10109B9F1000FE6DD411CE4D031
:101FB0000A2100F0ABF90028DFDB029908F10108E3
:101FC00001EB810100EB41000290B9690898884754
:101FD0000A2100F09BF9099AA9F10109B9F1000F52
:101FE000C2F8008001DD0028E7DAF969089888471F
:101FF0000499029800FB016655EA040004D004F03D
:102000004041090002D006E0039898E0A40044EAA9
:102010009574AD00B61E04F00041080002D16D19A0
:102020006441761E159810F0240F03D04FF00B0971
:102030005C4803E04FF028096FF07D00824656456A
:1020400007DAAAEB06018944B9F1410F01DD4FF02F
:10205000410901200021A9F1010200F044F90246E2
:1020600028400B462140084301D0012100E0002117
:10207000501E029143F1FF3128402140084301D016
:10208000012000E000200299834651EA0B014FD065
:10209000002108464FF00000039900F4400039B1D8
:1020A00000EB80004FF4400100EBD07001EA6000CB
:1020B0008015012802DD4FF0FF3000E013D0401CF6
:1020C00036D0029860B3BBF1000F0CD14A46012014
:1020D000002100F008F928402140084301D00120E8
:1020E00000E00020E0B101204A46002100F0FBF8AA
:1020F000034640190A4661412D1A8C4111D3B9F1AA
:10210000400F09DD159810F0240F02D0AAF1340613
:1021100003E0AAF1170600E0761C00254FF000440A
:1021200006E05B1E42F1FF3220EA030521EA0204C9
:10213000CAF10100B04206DA1B4903980843019036
:10214000002000900EE0039AC4F3D321E80A0A436A
:10215000164940EA44500A433146CDE90002684638
:1021600006F0A1FB159810F0240F0BD01598C007AE
:1021700015D13868DDE90012031D3B600068C0E935
:1021800000120CE002A8694606F084FB1598C0070F
:1021900005D13868029A011D396000680260404626
:1021A000F0E6000002FCFFFF0000F07F0000F03FBF
:1021B0002DE9FF4F92461D4685B04FF00041DDE905
:1021C000124BDDE914727F1E01EA4B50414940F089
:1021D000FF4940EA0108002122F02000492804912B
:1021E00002D04E2828D04CE03BA0012607C88DE83D
:1021F0000700A9690698641C88477F1E014606D41B
:102200001DF8060018B121F0200181420BD0E969C8
:1022100006988847032E34D0082E32D06FF0010084
:1022200009B0BDE8F08F761C032E01D0082EE0D156
:10223000601CCAF80000DCE7A9690698641C88479E
:102240007F1E2AD420F02000412826D1A9690698B3
:10225000641C88477F1E20D420F020004E281CD10B
:10226000A9690698641C88477F1E48F4002849F431
:102270008009CAF8004001D4282806D0E9690698E8
:1022800088475FEACB7012D022E0A9690698641CE7
:1022900088477F1E01D4002803DAE9690698884739
:1022A000BCE72928F1D1641CCAF80040E9E71BF01B
:1022B000240F07D028680499031D2B600068C0E92B
:1022C000001805E02868021D2A600068C0F8009028
:1022D0002046A5E70000F07F494E46494E49545933
:1022E000000000007047B2F120030AD5C2F12003BC
:1022F00001FA02F120FA03F300FA02F041EA0301C5
:10230000704700FA03F14FF0000070473A2800D2FE
:10231000303820F02002412A01D3A2F13700884250
:1023200001D34FF0FF3070475FEA400C08BF91F0D7
:10233000000F4FEA8C234FEAC12243EA51514FEA82
:102340001C5018BF00F5F0404FEA300018BF41F0B4
:1023500000415FEA6C5C00F02980BCF1FF3F08BFE0
:1023600040F080407047130C06BF12044FF0100C71
:102370004FF0000C130E04BF12020CF1080C130FE7
:1023800004BF12010CF1040C930F04BF92000CF176
:10239000020CD30F04BF52000CF1010C11464FF098
:1023A0000002A0F11F00A0EB0C00704711F0004FDD
:1023B00008BF704731F000413FF4D5AF0B0C06BFAA
:1023C00009044FF0100C4FF0000C0B0E04BF090273
:1023D0000CF1080C0B0F04BF09010CF1040C8B0F5E
:1023E00004BF89000CF1020CCB0F04BF49000CF1B3
:1023F000010CCCF12003A0EB0C0022FA03F302FA4B
:102400000CF241EA030100F10100704720F07F4C1B
:1024100080EA030023F07F47ACEB070303F57C530E
:1024200000F0004003F1FF032DE980494FEA154B0E
:1024300009B44FEA144325EA0B4E24EA03480FF28D
:10244000042606EB132749083E785FEA320203FBB5
:102450000667C7F5000707FB06F64FEA54374FEA51
:10246000D64606F1020607FB066CCCF1005C4FEA8B
:102470001C472CEA074C07FB06F40CFB06F504EBA3
:1024800015464FEA961634BF00204FF000404FEA41
:10249000D13706FB07FC4FEA1C4C0CFB0BF7D21B99
:1024A00003FB0CF761EB07010CFB0EF7B0EB0740E9
:1024B00072EB17420CFB08F734BFA2EB0742B2EBFA
:1024C000074261EB17414FEA0C444FEA910706FBC4
:1024D00007FC4FEA1C4C0CFB0BF7B0EBC74072EB50
:1024E000573203FB0CF734BFA2EBC742B2EBC74233
:1024F00061EB57310CFB0EF7B0EBC70072EB577274
:102500000CFB08F734BFA2EBC702B2EBC70261EBCA
:102510005771039F4FEA816141EA921104EBCC04A9
:102520004FEAD1374FEA826206FB07FC42EA90127B
:102530004FEA80604FEA1C4C0CFB0BF7D21B03FBED
:102540000CF761EB07010CFB0EF7B0EB074072EBE9
:1025500017420CFB08F734BFA2EB0742B2EB07426D
:1025600061EB17414FEA8C554FEA910704EB9C242D
:1025700006FB07FC4FEA1C4C0CFB0BF7B0EBC7400B
:1025800072EB573203FB0CF734BFA2EBC742B2EB3E
:10259000C74261EB57310CFB0EF7B0EBC70072EB93
:1025A00057720CFB08F734BFA2EBC702B2EBC702AD
:1025B00061EB577115EB4C254FEA816141EA9211AD
:1025C0004FEA82624FEAD13742EA901206FB07FCDB
:1025D00044F100044FEA80604FEA1C4C0CFB0BF7FF
:1025E000D21B03FB0CF761EB07010CFB0EF7B0EB02
:1025F000074072EB17420CFB08F734BFA2EB07420F
:10260000B2EB074261EB174115EB1C154FEA813124
:1026100041EA92414FEA823242EA90424FEA8030E8
:102620004FEA0C7644F1000448EA03434EEA0B48B3
:102630004FF0000EB2EB080C71EB030724BF6246AB
:1026400039464EEB0E0E4FF0000B00185241494137
:102650004BEB0B0BB2EB080C71EB03077BF1000BA0
:1026600024BF624639464EEB0E0E4FF0000B0018A9
:10267000524149414BEB0B0BB2EB080C71EB0307DA
:102680007BF1000B24BF624639464EEB0E0E51EA39
:10269000020718BF46F0010616EB0E7655F1000250
:1026A00054F1000103D5BDE88901BDE80088BDE80B
:1026B0008901BDE80048B619524141EB0101A3F17F
:1026C0000103704780807F7E7D7C7B7A7978777686
:1026D00076757473727171706F6E6E6D6C6C6B6AFF
:1026E0006A6968686766666564646363626161609D
:1026F000605F5F5E5E5D5D5C5C5B5B5A5A5959581A
:102700005857575656555555545453535252525183
:10271000515050504F4F4F4E4E4D4D4D4C4C4C4BD9
:102720004B4B4A4A4A494949484848474747474620
:10273000464645454544444444434343434242425C
:102740004241414146EA0646A3F570534FEA164618
:1027500046EA42564FEAD22242EA415210B54FEAC7
:10276000D121A3F1010300F02FF820F0004000F187
:10277000020C00F0004701EB00501146BCF5006F61
:1027800040EA070000D210BDBAF1000F0AD01CB514
:1027900003B44FF004004FF004014FF000000FBCF1
:1027A000BDE810404FF00001BBF1010FB9BF044874
:1027B0004FF0FF310348002140EA070010BD00BF81
:1027C000FFFFEF7F0000F07F002B9C4630D47700A6
:1027D0002BD01CB54FEA370703B44FF010004FF071
:1027E0001001BAF1000F06D0BCF1000FDCBF40F0C1
:1027F000080040F008014FF000000FBCBDE8104099
:102800000BF1010BBBF1010F08BF5FEA170722BFF5
:1028100012F1010211F101014FF0004143F10003F7
:1028200000F0004043EA00007047F9D35708D0E7B2
:1028300046EA064613F1400F4FEA16461FDD13F134
:10284000200FDFBF16430A46002120335B42BED073
:10285000C3F1200746EA064602FA07F74FEA164692
:1028600046EA0706C3F1200722FA03F201FA07F746
:1028700021FA03F14FF0000342EA0702A7E746EA14
:10288000020646EA06464FEA164646EA0106BCBF7D
:1028900046EA0646360C4FF000034FF000024FF0B8
:1028A000000194E72DE9804C9A46934670B491E874
:1028B000380007C831EA400C48BF34EA430C03D55E
:1028C000FFF7A4FDFFF780FFF0BCBDE8008C2DE909
:1028D000804C9A46934670B491E8380007C831EAB4
:1028E000400C48BF34EA430C03D5FFF78FFDFFF7D8
:1028F00029FFF0BCBDE8008C2DE9804C9A46934638
:1029000070B491E8380007C810F0804F08BF13F08A
:10291000804F03D100F01AF8FFF756FFF0BCBDE876
:10292000008C2DE9804C9A46934670B491E83800AB
:1029300007C810F0804F08BF13F0804F03D100F09C
:1029400005F8FFF7FFFEF0BCBDE8008C20F07F47E4
:1029500080EA030023F07F4C07EB0C03A3F57C53C4
:1029600000F00040A3F1FE0392F0000F00F0B380EE
:1029700095F0000F00F077802DE901494FEA1140F2
:102980004FEA144621EA004800FB06FC24EA064709
:1029900008FB06F607FB08F800FB07F718EB0648EC
:1029A0004CEB164C4FEA124B18EB07484FEA154612
:1029B0004CEB174022EA0B4E0BFB06FC25EA0647C0
:1029C0000EFB06F607FB0EFE0BFB07F71EEB064E93
:1029D0004CEB164C4FF000061EEB074E4CEB174B22
:1029E00018EB0B0840F1000018EB0E0B58EB000839
:1029F00040F100008F1A4FF000013CBFC943661B35
:102A000014BFB5EB040C00213CBFC943F61B4FEAD1
:102A100017444EEA8E0E27EA04454FEA1C4704FB92
:102A200007622CEA074C05FB07F70CFB05F604FBD5
:102A30000CFC16EB074642EB174216EB0C4642EB3A
:102A40001C421BEB060658EB0202414146EA9E0679
:102A500001D5BDE80189B619524141EB0101A3F14D
:102A60000103BDE801894FEA14454FEA114724EA02
:102A7000054621EA074C05FB07F406FB07F70CFBAC
:102A800006F105FB0CFC11EB074144EB17444FEA40
:102A9000124711EB0C4144EB1C4422EA074C05FBA6
:102AA00007F206FB07F70CFB06F605FB0CFC16EB22
:102AB000074642EB174216EB0C4642EB1C456A18E0
:102AC00054F1000148BF7047B619524141EB010172
:102AD000A3F10103704795F0000F37D04FEA114280
:102AE0004FEA144721EA024624EA074C02FB07F1A9
:102AF00006FB07F70CFB06F402FB0CFC14EB074487
:102B000041EB17414FEA154714EB0C4441EB1C41D4
:102B100025EA074C02FB07F506FB07F70CFB06F658
:102B200002FB0CFC16EB074645EB174516EB0C4673
:102B300045EB1C42121951F1000148BF7047B6190C
:102B4000524141EB0101A3F1010370474FEA1445E3
:102B50004FEA114724EA054621EA074C05FB07F135
:102B600006FB07F70CFB06F24FF0000605FB0CFC1A
:102B700012EB074241EB174112EB0C4251EB1C41A7
:102B800048BF7047921841EB0101A3F10103704760
:102B9000FEE70020704700207047000010B5024893
:102BA00004F098F9002010BD14C500201CB50021C8
:102BB0000320CDE900010B464FF4806207A10948CC
:102BC00027F0F4FA08490128086006D007A010F0A1
:102BD00071F8BDE81C4000F02BBB1CBD436F6D6D50
:102BE0000000000005980208C0020020436F6D6DD0
:102BF000207461736B20637265617465204661693E
:102C00006C65640010B580210348FDF7EAFE0349B6
:102C10000020087010BD0000DCCC0020B4020020B1
:102C20001CB500210320CDE900010B464FF40072D2
:102C300007A1094827F0BAFA08490128086006D018
:102C400007A010F037F8BDE81C4000F0F1BA1CBD39
:102C5000436F6E74726F6C002D900208C0020020EA
:102C6000436F6E74726F6C207461736B2063726556
:102C7000617465204661696C6564000010B5DFED24
:102C8000190A9FED1A1A40F6E4412DED028B884295
:102C90009FED158A04D39FED160ABDEC028B10BD83
:102CA00000EE100AB8EE400A60EE201A00EE100A9C
:102CB000B8EE400A31EE400A81EE801A81EE200A19
:102CC00005F0EAFCC0EE080A9FED0A0A30EE800A21
:102CD000F7EE000A80EE801A9FED070A31EE400AF7
:102CE000DBE7000000401C4600E0764500404E4512
:102CF000339388C30FCF5B3B3393884330B50029B0
:102D00001BD0002A19D0002B17D0002803DA00208E
:102D10000870107010E04FF4616490FBF4F50D70D2
:102D200090FBF4F104FB11003C2190FBF1F41470D2
:102D300090FBF1F201FB1200187030BD04480168ED
:102D4000C1F34001002901D0022141607047000019
:102D5000000002400F4808B50168C1F34011002986
:102D600016D020214160012101F042FF0020009097
:102D700009486946806827F02CF80098002807D099
:102D800006494FF080500860BFF34F8FBFF36F8F3D
:102D900008BD0000000002405C01002004ED00E0DE
:102DA0000F4810B50168C1F34021002916D0411524
:102DB0004160022101F026FF0A488168C1F3C01179
:102DC0000029FAD14FF09041102088610648006830
:102DD000002803D0BDE8104014F0A8B810BD0000D2
:102DE0000000024000300140C802002010B504205D
:102DF00001F0B6FE012001F0B3FE184A154C154B48
:102E0000917808341448085115480068C0F302202E
:102E1000C0F10701042900D90421041D072C01D2A7
:102E2000002000E0C01E01248C40641E04F002015A
:102E3000814008010B4981F800044FF0E0214FF474
:102E40000050C1F8000190781858917840F00200C5
:102E5000585010BD000002400C300140A0AE0208E6
:102E60000CED00E00DE000E0074A10B5536807499B
:102E70004FF47A740968B1FBF4F141435068C01A09
:102E80008842FBD310BD0000001000E0A800002025
:102E9000024840680249B0FBF1F07047001000E0C2
:102EA000109802000648016841F0807101600548F1
:102EB00000214160016841F001010160704700009C
:102EC000FCED00E0001000E0704700001CB50021A0
:102ED0000220CDE900010B46420208A10A4827F072
:102EE00065F90A490128086006D009A00FF0E2FE42
:102EF000BDE81C4000F09CB91CBD00005561727417
:102F000050726F630000000025980208C002002084
:102F10004465627567207461736B206372656174C8
:102F200065204661696C656400000000014601A0EF
:102F30000FF0C0BE4572726F723A20257300000018
:102F40002DE9F0414FF48048404601F007FF194D4C
:102F5000174E194C6F0190B14146C6F800802846C3
:102F600001F0A1FF20703946284601F09CFF10F0C7
:102F7000FF0F606801D0401C00E0401E60603846D2
:102F800001F0ECFE002811D039463760284601F0E8
:102F90008AFF60704146284601F085FF10F0FF0F60
:102FA000606801D0401E00E0401C6060BDE8F08118
:102FB00014040140000400483401002070B58AB0B8
:102FC00018216846FDF70DFD002422480694079459
:102FD0000894C16C41F00201C164C16C01F00201AE
:102FE0000991016E41F001010166006E01254FF467
:102FF000404600F001000495CDE90064099069465F
:10300000154801F0B5FE1548416921F4E0614161C0
:10301000416941F480714161416921F4E0414161BC
:10302000416941F4805141618DF8214002208DF8C1
:10303000220006968DF8205006A801F0EDFD084903
:10304000602081F80004064928022439C1F80001F3
:103050000AB070BD001002400004004800000140AA
:1030600028E000E070B50C460546032813D294B161
:10307000144E4FF0FF31B06826F0A6FF012820D192
:10308000114905EB450001EB8002022D07CA84E8D7
:10309000070008D00DE0502080F31188BFF34F8F58
:1030A000BFF36F8FFEE77068206030782071707812
:1030B0006071B068BDE8704000231A46194626F0DA
:1030C0006BBD70BD3401002008A6002070B5012042
:1030D00026F0C8FC154CA06000B34FF0804001689A
:1030E00041F001010160406A11498860114802689D
:1030F00042F001020260406A4861FFF75FFF0E4D37
:103100004FF48041284601F0CEFE20706901284628
:1031100001F0C9FE60700020606070BD502080F337
:103120001188BFF34F8FBFF36F8FFEE7340100208C
:1031300008A60020000400400004004870B50C46BA
:10314000064603280FD274B11F4D4FF0FF31A86817
:1031500026F03AFF012836D11C4966B1012E13D062
:10316000022E28D119E0502080F31188BFF34F8F31
:10317000BFF36F8FFEE74FF08042A0685062206877
:103180000860A068886016E0114AA0685062206854
:10319000C8600E49A06848610DE020686860227927
:1031A0002A7062796A7088610849227901F11800F1
:1031B0000A7761794171A868BDE8704000231A461A
:1031C000194626F0E9BC70BD3401002008A6002095
:1031D000000400401CB500210320CDE900010B468E
:1031E0004FF4007207A1094826F0E0FF08490128C2
:1031F000086006D007A00FF05DFDBDE81C4000F0A0
:1032000017B81CBD456E636F64657200C5910208F6
:10321000C0020020456E636F646572207461736B39
:1032200020637265617465204661696C65640000A5
:1032300072B602A00FF03EFDFBE7000053797374F5
:10324000656D204572726F720D0A0000F0B52DEDAC
:10325000028B8FB007A810F02DFCBDF81C0000EE0B
:10326000100AB8EE400A9FEDFE8AFE4CC0EE080A36
:10327000C4ED050ABDF81E0000EE100AB8EE400AC3
:10328000C0EE080AC4ED060ABDF8200000EE100AE0
:10329000B8EE400AC0EE080AC4ED030ABDF82200E9
:1032A00000EE100AB8EE400AC0EE080AC4ED040AA7
:1032B000BDF82400FFF7E2FC84ED0B0A94ED050A4B
:1032C000D4ED060AE84EE94D20EE200A84ED070A07
:1032D00094ED050AD4ED0E0A30EE600AB0EEC00A95
:1032E00010EE100AB0421DDD94ED050A84ED0E0AC1
:1032F00094ED050A10EE100A27F092FCCDE90001CA
:10330000DBA2142102A8FDF7C7F802A9A86819F0EA
:10331000A9FA9DF82D00012800D018B902A9686DFE
:1033200019F0A0FA94ED060AD4ED0F0A30EE600A07
:10333000B0EEC00A10EE100AB0421CDD94ED060A91
:1033400084ED0F0A94ED060A10EE100A27F068FCCF
:10335000CDE90001C6A2142102A8FDF79DF802A93B
:10336000E86919F07FFA9DF82D00022803D102A91F
:10337000686D19F077FA94ED070AD4ED100ABE4F84
:1033800030EE600AB0EEC00A10EE100AB04234DD32
:1033900094ED070A84ED100A94ED070A10EE100A66
:1033A00094ED070AB84210EE100A03DC27F038FC4F
:1033B000B2A218E0B34994ED070A884210EE100A51
:1033C00003DC27F02DFCB0A20DE0B14994ED070A13
:1033D000884210EE100A03DC27F022FCADA202E0C6
:1033E00027F01EFCADA2CDE90001142102A8FDF7D3
:1033F00053F802A9E86A19F035FA94ED080AD4EDF9
:10340000110A30EE600AB0EEC00A10EE100AB042A7
:1034100024DD94ED080A84ED110A94ED080A10EEFB
:10342000100AB84207DC94ED080A10EE100A27F0E3
:10343000F7FB9CA208E0D4ED080A80EE880A10EEA3
:10344000100A27F0EDFB9AA2CDE90001142102A891
:10345000FDF722F802A9A86B19F004FA94ED030A0B
:10346000D4ED0C0A30EE600AB0EEC00A10EE100A7D
:10347000B04214DD94ED030A84ED0C0A94ED030AC6
:1034800010EE100A27F0CCFBCDE900018BA214212D
:1034900002A8FDF701F802A9686E19F0E3F994EDAE
:1034A000040AD4ED0D0A30EE600AB0EEC00A10EE48
:1034B000100AB04214DD94ED040A84ED0D0A94ED77
:1034C000040A10EE100A27F0ABFBCDE900017DA243
:1034D000142102A8FCF7E0FF02A9A86E19F0C2F9B6
:1034E00094ED0B0AD4ED140A30EE600AB0EEC00A77
:1034F00010EE100AB04214DD94ED0B0A84ED140AAC
:1035000094ED0B0A10EE100A27F08AFBCDE90001BA
:103510006EA2142102A8FCF7BFFF02A9A86C19F043
:10352000A1F90CA810F0EAFADDED0E0AB3EE050AD7
:1035300060EE800AC4ED090ADDED0D0A9FED651A03
:1035400070EEC10A20EE800A84ED0A0A94ED090AA1
:10355000D4ED120A30EE600AB0EEC00A10EE100A86
:10356000B04214DD94ED090A84ED120A94ED090AC3
:1035700010EE100A27F054FBCDE9000156A21421E9
:1035800002A8FCF789FF02A9E86819F06BF994ED2D
:103590000A0AD4ED130A30EE600AB0EEC00A10EE4B
:1035A000100AB04214DD94ED0A0A84ED130A94ED7A
:1035B0000A0A10EE100A27F033FBCDE9000148A2F9
:1035C000142102A8FCF768FF02A9286A19F04AF939
:1035D0009DF82C006178884240D06070002610B1C0
:1035E000012826D0B3E09FED400A002284ED080AAE
:1035F0004521E86C1DF008FB3CA1E86C19F032F99C
:103600006FF07F4013F0ACF901460022E86C1DF02A
:10361000E0FA37A1686C19F025F92078F0B1A068BC
:10362000E0B100231A460321009627F0ABF826707C
:103630007BE00022F021E86C1DF0E6FA2FA1E86C97
:1036400019F010F92E4813F08BF901460022E86CAE
:103650001DF0BFFA207808B9A06853E065E00000CB
:1036600000007A44280000206F12833A5C04002096
:10367000252E336600000000000020410A252E336D
:10368000662057000000C8420A252E3266205700E7
:1036900000007A440A252E31662057000A252E3074
:1036A000662057000A252E3266206D5768000000FC
:1036B0000A252E326620576800000000252E32664B
:1036C00056000000252E326641000000252E31668E
:1036D000C2B043003333D33F252E3366560000007B
:1036E000252E33664100000000000000202053001A
:1036F00030303A30303A30300000000020205200A4
:103700001F741D0088B126F08DFD0246009600232F
:103710000121A06827F036F8012020706660AFF222
:10372000300210211B48FCF7B7FE9DF82C00012841
:103730000DD194ED080AD4ED070A9FED171A15492B
:1037400000EE810A84ED080A686C19F08BF89DF888
:103750002D00A17888420FD0A070012810D0022837
:10376000286D10D00DA100BF19F07CF8AFF2B001A8
:10377000D5F8580019F076F80FB0BDEC028BF0BD0B
:1037800008A1286DF0E708A119F06CF8AFF2C801A4
:10379000A86DEFE74C0400201B0FB63A4343202FDF
:1037A00020435600432043004320560010B518F034
:1037B0006FF91DF09DFCBDE8104007F0A5BF10B5E6
:1037C0000024032000F072F80F2000F007F808B181
:1037D000012401E000F024F8204610BD70B50E4E23
:1037E00005460024706898B14FF47A71B1FBF0F08F
:1037F0000A490968B1FBF0F000F068FD40B9102DEE
:1038000006D200222946501E00F030F8356000E054
:103810000124204670BD0000AC000020A80000205C
:103820000A4882B0016E41F001010166016E01F0AB
:1038300001010091816D41F080518165806D00F042
:103840008050009002B000F039BD0000001002402E
:10385000002809DB00F01F0201219140400980008F
:1038600000F1E020C0F8001170470000F0B40E4BEA
:103870001B680C46C3F30223C3F10705042D00D9CE
:103880000425191D072901D2002300E0DB1E0126B3
:1038900006FA05F1491E214099409E40761E1640C9
:1038A0003143F0BC04F0E4BD0CED00E0064900F04B
:1038B000070208684FF6FF03184040EA0220034A57
:1038C00010430860704700000CED00E00000FA05AE
:1038D00001220168C0F8D022002280F8C82231F805
:1038E000540F40F001000880088840F00200088072
:1038F0001046704770B50F4D044669B101290AD1D1
:10390000D4F8D80203F031FE607A002803D028688A
:1039100040F00600286070BD607A28B102F098FE81
:10392000286820F006002860D4F8D802BDE870406E
:1039300003F0B3BD10ED00E010B50C0607D501F0A3
:10394000070101EB810100EBC100103005E001EB44
:10395000810100EBC10000F5A87099B232B10122DB
:1039600002730181190C4181002010BD00220273F5
:10397000C180F9E701EB810200EBC202D0F8D80266
:10398000526A03F074BC01EB810200EBC202D0F872
:10399000D802D2F8642103F0BEBC70B504460B0611
:1039A00001F0070000EB800104EBC1014FF00102C0
:1039B0004FF0000502D54A74103103E081F85151EF
:1039C00001F5A871087094F89002012808D084F8D5
:1039D0009022206804F07BF984F89052002070BD9A
:1039E000022070BD70B5044601F00F0022799042AC
:1039F00001D9012070BD0B0601F0070000EB80012A
:103A000004EBC1014FF001024FF0000502D54A74EA
:103A1000103103E081F8515101F5A8718D700870E3
:103A200094F89002012808D084F89022206804F0CD
:103A3000EDF984F89052002070BD022070BD2DE990
:103A4000F04704685FEA42480B788D69B4F850800B
:103A50004FF0000C4BF68F7748F2800648F68F79CE
:103A600048F2C00A444428D540F2024808EBC30893
:103A700034F80840C4F30904A54203D32D1B8D611B
:103A800002D00BE0C1F818C0D0F800C03CF82350B9
:103A90003D4085F4005535432CF82350520609D596
:103AA0000B78056835F8232002EA090242EA0A0287
:103AB00025F8232074B30A8927E040F2064808EB72
:103AC000C30834F80840C4F30904A54203D32D1BEE
:103AD0008D6102D00BE0C1F818C0D0F800C03CF8EE
:103AE00023503D4085F4005535432CF823505206B1
:103AF00009D40D78036833F8252002EA090242EA66
:103B00000A0223F825202CB14A8949690068234616
:103B100004F097FB2046BDE8F0872DE9F05F0546ED
:103B200000680C465FEA42681646D1F818C0227851
:103B3000B0F8508048F6BF7A48F2800B48F68F778D
:103B40004CF280094FF6FF734FF4004E4FF0000126
:103B500040447DD540F2024808EBC20830F8080026
:103B6000C0F30900844514D9BCEB000CC4F818C09C
:103B700010D0760408D5D5F800C03CF822603E404D
:103B800046EA09062CF8226094F82420012A60D025
:103B900076E1A161607810B1012813D01AE028689D
:103BA000B0F85030184400EBC200B0F80224C2F361
:103BB0000902A0F80224B0F8022442F40042A0F85E
:103BC000022407E02868B0F85030184400EBC20027
:103BD000A0F802146278286812B1012A11D018E006
:103BE000B0F850100844217800EBC100B0F806147A
:103BF000C1F30901A0F80614B0F8061441F400411D
:103C000005E0B0F850201044227800EBC200A0F884
:103C10000614E07802280BD12278296831F82200B6
:103C200000EA0A0080F0200040EA0B0021F82200A0
:103C300021782846FFF79EFE700408D521782A686F
:103C400032F82100384040EA090022F82100C3E0A0
:103C50004DE0626902446261E2690244E261266900
:103C6000226AB24202D33046111A03E084F82410CB
:103C70000AB110462162617811B101292BD033E0DD
:103C80002968B1F850201144227801EBC201B1F843
:103C90000224C2F30902A1F8022401F2024158B140
:103CA0003E280ED84208C60700D0521C0E8803EAF0
:103CB000822216430E8017E00A8842F400420A80EE
:103CC00012E04209C30600D1521E0B884EEA82223E
:103CD00013430B8008E02968B1F850201144227882
:103CE00001EBC201A1F8020483B22289C4E040F2D0
:103CF000064808EBC20830F80800C0F30900844504
:103D000014D3BCEB000CC4F818C010D0760408D44F
:103D1000D5F800C03CF822603E4046EA09062CF87F
:103D2000226094F82420012A59D0A9E0A16160788A
:103D300010B1012813D01AE02868B0F850301844A8
:103D400000EBC200B0F80224C2F30902A0F802247A
:103D5000B0F8022442F40042A0F8022407E02868E8
:103D6000B0F85030184400EBC200A0F8021462789A
:103D7000286812B1012A11D018E0B0F85010084498
:103D8000217800EBC100B0F80614C1F30901A0F8D6
:103D90000614B0F8061441F4004105E0B0F85020D4
:103DA0001044227800EBC200A0F80614E078022844
:103DB0000BD121782A6832F8210000EA0A0080F04D
:103DC000200040EA0B0022F8210021782846FFF766
:103DD000D1FD70047FF532AF0020BDE8F09F62692D
:103DE00002446261E2690244E2612669226AB242E7
:103DF00003D33046111A216204E00AB11046216251
:103E000084F824106278296812B1012A2AD031E09E
:103E1000B1F850201144227801EBC201B1F8062418
:103E2000C2F30902A1F8062401F2064158B13E2866
:103E30000ED84208C60700D0521C0E8803EA822220
:103E400016430E8016E00A8842F400420A8011E010
:103E50004209C30600D1521E0B884EEA8222134348
:103E60000B8007E0B1F850201144227801EBC20129
:103E7000A1F80604628983B26169286804F0FCF93C
:103E80002278296831F8220000EA0A0080F0300028
:103E900040EA0B0021F822009EE72DE9F04104469C
:103EA0000F0601F0070000EB800104EBC1014FF0A9
:103EB00001064FF0000502D54E74103103E081F881
:103EC000515101F5A871022B0870C2F30A00086174
:103ED000CB7000D10D7194F89002012809D084F8BC
:103EE0009062206803F03EFD284684F89052BDE8B9
:103EF000F0810220FBE710B501F0070404EB840118
:103F000000EBC101C1E959230022C1F86C2181F8FD
:103F1000512181F85041006801F5A87103F0C8FFF4
:103F2000002010BD70B5044601F0070022799042D0
:103F300001D9012070BD0B064FF000054FF00102C2
:103F400006D500EB800104EBC1014A74103107E093
:103F500001EB810104EBC10181F8515101F5A87118
:103F60008A70087094F89002012808D084F8902292
:103F7000206803F083FF84F89052002070BD022077
:103F800070BD10B501F0070404EB840100EBC10122
:103F9000C1E90923012281F834200B630023CB629D
:103FA0004A7401F8104F006803F082FF002010BD32
:103FB00010B50446006804F041F9010404D5204618
:103FC000BDE8104001F0E9BE41050ED5206830F88B
:103FD000441F21F480610180204600F001F9204651
:103FE000BDE81040002100F027B9410405D5206844
:103FF00030F8441F21F480417DE0810405D520681C
:1040000030F8441F21F4005175E0C1041FD5206829
:1040100030F8401F21F004010180206830F8401F73
:1040200021F00801018094F8C802012806D100207F
:1040300084F8C80201462046FFF75CFC204600F0E9
:10404000E3F8206830F8441F21F4805153E0010563
:1040500012D5206830F8401F41F008010180206827
:1040600030F8441F21F400610180206830F8401FBF
:1040700041F0040101800AE0010629D5206830F8EA
:10408000441F21F08001018094F8C80218B1204635
:1040900000F002F910BD206830F8401F41F0040123
:1040A0000180206830F8401F41F0080101800120A4
:1040B00084F8C8022068B0F854003C2101EA90005E
:1040C000C4F8CC022046BDE810400121FFF712BC25
:1040D000810509D5206830F8441F21F40071018062
:1040E000204600F0A5F810BDC005FCD5206830F8CA
:1040F000441F21F48071018010BD000070B50400E0
:1041000004D094F89102002510B106E0012070BDA2
:1041100084F89052204600F03FF8032084F8910282
:10412000206803F06BFE002001260BE000EB80010D
:1041300004EBC1014E740874CD740D624D62401CD5
:10414000C0B28D6221798142F0D8002012E000BF18
:1041500000EB800104EBC10181F8515181F850015D
:1041600081F85351C1F86051C1F86451401CC0B28C
:10417000C1F8685121798142EAD894E8070003F038
:1041800034FE257384F89162A07A012802D120467A
:10419000FFF79EFB002070BD08B500680E498842FD
:1041A00018D10E4850F8881F21F0406140F83019AE
:1041B000016841F4000101600068002200F4000081
:1041C000009011461420FFF751FBBDE80840142071
:1041D000FFF73EBB08BD0000005C0040001002403D
:1041E00070B5044640790125022801D0FFF720F878
:1041F0002946D4F8D80203F06AF9D4F8D802BDE809
:10420000704003F01DB9000010B50446407A30B18B
:104210000648016821F00601016002F019FAD4F89D
:10422000D802BDE8104003F038B9000010ED00E0FE
:10423000D0F8D80203F03BB910B5044690F89002CC
:1042400001280AD0012084F890022173206804F02C
:104250000CF8002084F8900210BD022010BDD0F8A8
:10426000D82200F52671104603F03DB910B504467A
:1042700090F8900201280CD0012084F89002206868
:1042800003F0CDFF206803F0A9FD002084F8900220
:1042900010BD022010BD000010B50446D0F8D802B1
:1042A00003F063F9607A002804D00348016841F004
:1042B0000601016010BD000010ED00E002488168B9
:1042C00041F48041816070470070004010B5401E8D
:1042D000B0F1807F01D3012010BD4FF0E024606178
:1042E0000F21601704F0C4F80020A06107202061AE
:1042F000002010BD01A2044900F066B85365744463
:1043000041435F41000000000CBD002001A20449B0
:1043100000F05AB85365744441435F420000000006
:1043200010BD002038B504000BD0694604F06AFACD
:104330000098A04201D0007840B10DA007F0E6FD42
:1043400038BD12A113A00EF0B5FC38BD02F068FA1A
:10435000164880ED010A10EE100A26F061FC41ECCF
:10436000100B13A053EC102B07F0D0FD38BD00004C
:10437000415F5365743A20696E76616C69642070A0
:104380006172616D6574657200000000415F536584
:104390007400000025733A206D697373696E67209D
:1043A000706172616D6574657200000008BD002067
:1043B000415F536574207570646174656420746F27
:1043C0003A20252E36660000F8B50D461646040044
:1043D0000DD0694604F016FA0098A04201D000788A
:1043E00040B131460BA000BF0EF064FCF8BD114691
:1043F0000EA0F9E785ED000A10EE100A26F010FC79
:1044000041EC100B314653EC102B0EA00EF052FC79
:10441000F8BD000025733A20696E76616C696420EE
:10442000706172616D6574657200000025733A20D9
:104430006D697373696E6720706172616D65746513
:1044400072000000257320757064617465642074C7
:104450006F3A20252E34660010B504000ED00CA152
:10446000FCF7E6FA80B10DA12046FCF7E1FA00283E
:104470000CD10CA0BDE810400EF01CBCBDE81040F3
:104480000EA111A00EF016BC15A0F3E710BD0000A0
:1044900053687574446F776E000000004F70656E4E
:1044A000000000005365744761746865723A2044E7
:1044B0006576696365204F70656E000053657447CB
:1044C000617468657200000025733A206D6973732A
:1044D000696E6720706172616D65746572000000BD
:1044E0005365744761746865723A20446576696300
:1044F00065205368757420446F776E0038B50400EA
:104500000BD0694604F07EF90098A04201D00078F3
:1045100040B10DA007F0FAFC38BD12A113A00EF0B7
:10452000C9FB38BD02F08AF9164880ED020A10EE88
:10453000100A26F075FB41EC100B13A053EC102B66
:1045400007F0E4FC38BD0000565F5365743A2069FB
:104550006E76616C696420706172616D65746572FC
:1045600000000000565F53657400000025733A2078
:104570006D697373696E6720706172616D657465D2
:104580007200000008BD0020565F536574207570EE
:10459000646174656420746F3A20252E36660000CD
:1045A000FEE700000B494CF6CC420A6045F255523A
:1045B0000A6003224A60B0F5805F01D340F6FF70C5
:1045C000C0F30B008860C8684007FCD14AF6AA20F7
:1045D0000860704700300040F8B53D48816C41F0FC
:1045E00001018164806C3B4D00F001000090D5F822
:1045F000000820F0FF0040F01800C5F80008364C15
:104600002078285844F21001884321786850207897
:104610002858217820F4405040F400506850207809
:104620002858217840F020006850207828582178B8
:1046300020F04000685020782858217840F0800011
:10464000685020782858217820F4407068502078ED
:104650002858217820F44060685020481D4A2430B2
:10466000217808321D4E88502178121D1C48885030
:104670002178281D095822786FF30F0141F4006159
:10468000115020782858217840F0020068501548D1
:1046900000680022C0F30220012101F065FB014601
:1046A0000B2003F005FF0B2003F0D5FE20782858DF
:1046B000217840F00100685016F1080656E8000F16
:1046C00040F0400046E800010029F7D1F8BD0000A5
:1046D000001002400000024098AE0208003801407D
:1046E00014BD00200CED00E010B540F6B830FFF727
:1046F00059FFFFF75BF800F0E7F8FEF783FA01F0E7
:104700008FFDFEF7E3FCBDE8104001A00EF0D2BA29
:1047100041707020496E69742053756363657373CB
:104720000000000010B5FFF74AF800F00BFFFEF79D
:104730005DFB02F095F902F091F801F035F801F017
:10474000CFF901F0CBFA00F0C3FF01F0D7F801F088
:104750004BF9FEF7A7FB04A00EF0ACFABDE8104041
:104760000AA00EF0A7BA00000D0A5B7665727369A5
:104770006F6E5D485220434E4320504F57455220A4
:10478000535550504C592056312E300048617264B8
:104790007761726520496E69742053756363657330
:1047A0007300000038B53548816C41F00101816427
:1047B000806C334900F001000090081DD0F80028FB
:1047C00022F0FF0242F01D02C0F800282D48427876
:1047D0008A5844F210039A43437842F01002CA50B8
:1047E00042788A58437822F4405242F40052CA5028
:1047F00042788A58437822F02002CA5042788A5878
:10480000437822F04002CA5042788A58437842F0F6
:104810008002CA5042788A58437822F44072CA50C3
:1048200042788A58437822F44062CA50164A144D9E
:10483000283243780835144C5A5142788A584078C7
:1048400042F002020A50114800680022C0F3022020
:10485000082101F070FA01460C2003F019FE0C202B
:1048600003F0ECFD14F1080454E8000F40F0800060
:1048700044E800010029F7D138BD000000100240D3
:104880000000024090AE0208004800400CED00E03D
:10489000F0B500230A24302537261F4611E000BF5B
:1048A000B4EB107F02D905EB107C01E006EB107C25
:1048B00001F813C001EB430C00015B1C8CF8017084
:1048C000DBB29342ECD3F0BD70B5254D4FF40051EF
:1048D000284600F0EFFA234C4FF48041207128461F
:1048E00000F0E8FA20754FF40041284600F0E2FAA3
:1048F00084F824004FF090454021284600F0DAFA71
:1049000084F834004FF48071284600F0D3FA84F81C
:1049100044000221144800F0CDFA002184F854002C
:104920004FEA010204EB0110491C03790370437044
:104930008270C270826002730629F3DB002240217C
:104940000A2025F0A1F809490028086007D1502065
:1049500080F31188BFF34F8FBFF36F8FFEE770BDF9
:10496000000800482CA60020000400484001002058
:104970002DE9F04F91B00D46064625F053FC074651
:104980002F48DFF8C08000EB06144FF000092078B4
:104990004FF0010BA8F1040AA8422FD1E078401C87
:1049A000C0B2E0700A282CD32079A84229D0257102
:1049B00084F802B045B1A06858F82630381AB0F52E
:1049C0007A7F0CD220A20BE0A76084F80C9058F8F4
:1049D000263023A240216846FBF75EFD06E024A2B4
:1049E00040216846FBF758FDC4F8089000231A469A
:1049F0006946DAF8000025F0CFF802E0257084F867
:104A000003902079B8B9A068A8B1381AB0F57A7FB8
:104A100011D3207B78B984F80CB058F8263018A24E
:104A200040216846FBF738FD00231A466946DAF84C
:104A3000000025F0B1F8657011B0BDE8F08F0000FE
:104A40002CA60020440100205B4B45595D202573B6
:104A5000206F6666202873686F7274290A00000050
:104A60005B4B45595D202573206F6E0A00000000E6
:104A70005B4B45595D202573206F66660A00000078
:104A80005B4B45595D202573206C6F6E670A0000F3
:104A900010B51C4C4FF40051204600F00BFAC1B287
:104AA0000020FFF765FF4FF48041204600F002FA36
:104AB000C1B20120FFF75CFF4FF40041204600F037
:104AC000F9F9C1B20220FFF753FF4FF090444021A3
:104AD000204600F0EFF9C1B20320FFF749FF4FF481
:104AE0008071204600F0E6F9C1B20420FFF740FFD4
:104AF0000221054800F0DEF9C1B2BDE810400520F2
:104B0000FFF736BF00080048000400481CB500212C
:104B10000320CDE900010B464FF4807207A108483D
:104B200025F044FB07490128086006D006A00EF0D6
:104B3000C1F8BDE81C40FEF77BBB1CBD4B6579008E
:104B4000FD910208C00200204B6579207461736BEF
:104B500020637265617465204661696C656400005C
:104B6000044908B58A6C02438A64896C014000914B
:104B700008BD000000100240044908B5CA6C024399
:104B8000CA64C96C0140009108BD000000100240D9
:104B9000044908B5CA6C0243CA64C96C014000915B
:104BA00008BD000000100240044908B5CA6C024369
:104BB000CA64C96C0140009108BD000000100240A9
:104BC000044908B5CA6C0243CA64C96C014000912B
:104BD00008BD000000100240044908B58A6D024378
:104BE0008A65896D0140009108BD000000100240F7
:104BF000034A515C425822F00102425070470000C3
:104C000090AE0208034A515C425822F00102425021
:104C100070470000A0AE0208F0B54F4B4E4A077A2D
:104C200020330026151F1C1F0168002F74D099B176
:104C3000477A5FB3012F31D0022F32D00126857A17
:104C400055B1454908310A1F012D32D0022D3AD005
:104C5000032D3CD046F002064168002979D0427A03
:104C600082B3012A44D0022A45D046F00406837A52
:104C7000002B6ED0384928310A1F012B43D0022B5C
:104C80004BD0032B4DD046F0050662E017688F43EA
:104C9000176001682A680A432A60D0E72F688F43AB
:104CA00001E02F680F432F60016815680D43156000
:104CB000C5E705680F68AF430F60016815680D43CD
:104CC0001560C9E70CE005681768AF4302E00568A6
:104CD00017682F43176002680D6815430D60BBE726
:104CE0001A688A431A60416822680A432260BEE754
:104CF00022688A4301E022680A43226041681A68F8
:104D00000A431A60B3E743680C689C430C60406830
:104D10001168014311601CE00CE0436814689C4377
:104D200002E0436814681C43146040680A68024348
:104D30000A600EE02F688F432F60016815688D436D
:104D40001560416822688A4322604068196881437F
:104D500019603046F0BD00000404014003490968B1
:104D6000884301D00020704701207047140401409F
:104D7000F0B50A680F2692FAA2F2B2FA82F303247F
:104D80008AE001259D402A407ED04D68012D01D04A
:104D9000022D20D18D68876892FAA2FCBCFA8CFCA7
:104DA0004FEA4C0E04FA0EFC27EA0C0792FAA2FC1A
:104DB000BCFA8CFC4FEA4C0C05FA0CF52F438760CB
:104DC000CF680D68D0F804C02CEA050C7D434CEA8E
:104DD000050CC0F804C00F69D0F80CC092FAA2F517
:104DE000B5FA85F54FEA450E04FA0EF52CEA050CE6
:104DF00092FAA2F5B5FA85F56D00AF404CEA070CC2
:104E0000C0F80CC04D68022D2FD1FF2A15D8D1F85B
:104E100014C0056A92FAA2F7B7FA87F7BF0006FA3C
:104E200007F7BD4392FAA2F7B7FA87F7BF000CFA6B
:104E300007FC45EA0C05056217E0D1F814E0476A63
:104E4000150A95FAA5FCBCFA8CFC4FEA8C0C06FA04
:104E50000CFC95FAA5F5B5FA85F5AD0027EA0C0727
:104E60000EFA05FE47EA0E0747624D68076892FA98
:104E7000A2FCBCFA8CFC4FEA4C0C04FA0CFE27EAAC
:104E80000E0792FAA2F200E005E0B2FA82F25200B6
:104E900095402F4307605B1C0A6832FA03F57FF4E4
:104EA00070AF0020F0BD0069814301D00020704741
:104EB000012070470069814301D000207047012024
:104EC000704710B5026822F001020260D1E9023297
:104ED000046843EA022224F4F854144304604A6844
:104EE0000261026842F001020260826822F400421C
:104EF00082608B690A6984681A436FF30A04144359
:104F000084600A691AB1826842F4004282600A68C9
:104F1000036823F44013134303604969426822F491
:104F200000420A434260002010BD000070B500241A
:104F30001F49204D4FF40046C02803D0B0F5407FF4
:104F40001CD019E0D1F8880000F0C00040F4400007
:104F50004038B0F5400027D0402804D080281CD12C
:104F600006E0044608E000F083F828B12C4603E090
:104F700000F086F800B13446204670BDD1F88800B4
:104F80000D4900F4407040F0407040180CD0B0F56E
:104F9000807FE8D0B0F5007FEAD001F011F901F090
:104FA000DFF801F0EDF8DCE701F00AF9D9E70000DD
:104FB000001002400024F40000FFFFFC70B5002444
:104FC00029492A4D4FF40046032804D00C281AD052
:104FD00030282FD040E0D1F888006FF4403100F045
:104FE000030040F4403040180AD0012836D002288F
:104FF0002ED001F0E5F801F0B3F801F0D1F817E098
:1050000001F0DEF814E0D1F8880000F00C0040F464
:105010004020001FB0F54020F2D004281ED0082800
:1050200016D000BF01F0CCF801F09AF801F0A8F812
:10503000044611E0D1F8880000F0300040F4401040
:105040001038B0F54010DBD0102807D02028E9D167
:1050500000F016F800B13446204670BD00F008F8A4
:105060000028F9D02C46F7E7001002400024F40095
:1050700002480068C0F38020704700000010024022
:105080000248D0F89000C0F3400070470010024082
:1050900003498A6822F0F00202438A6070470000E8
:1050A00000100240044951F8882F22EA104280B2D1
:1050B00002430A60704700000010024010B5036808
:1050C0000122C3F3801373BBD1E900231A43D1E952
:1050D000033423431A434B691A438B691A43CB6940
:1050E0001A430B6A1A4303684FF6BF74A3431A436B
:1050F0000260426840F604739A434B6942EA1342E5
:105100008B681A4342608A68B2F5006F03D2426826
:1051100042F4805242600A6AB2F5005F02D1898C83
:1051200089B201610022C16921F40061C1611046A8
:1051300010BD00000149086070470000A800002071
:1051400010B5012925D0042925D0102925D04029C2
:1051500025D0B1F5807F24D0B1F5806F23D0B1F593
:10516000805F22D0B1F5804F21D0B1F5803F20D0B3
:105170000921114B18305B5C184403680E4C0A344B
:10518000615C03248C40120CA3438A4013430360E8
:1051900010BD0021EDE70121EBE70221E9E7032142
:1051A000E7E70421E5E70521E3E70621E1E7072139
:1051B000DFE70821DDE7000040AE020810B5012955
:1051C00025D0042925D0102925D0402925D0B1F596
:1051D000807F24D0B1F5806F23D0B1F5805F22D0DD
:1051E000B1F5804F21D0B1F5803F20D00921114B7E
:1051F00018305B5C184403680E4C0A34615CF02480
:105200008C40120CA3438A401343036010BD00215D
:10521000EDE70121EBE70221E9E70321E7E70421BC
:10522000E5E70521E3E70621E1E70721DFE70821BC
:10523000DDE7000040AE020810B501291FD00429A7
:105240001FD010291FD040291FD0B1F5807F1ED05C
:10525000B1F5806F1DD0B1F5805F1CD0B1F5804FE6
:105260001BD0B1F5803F1AD00921036A0D4C615C57
:105270000A248C40A3438A401343036210BD0021DB
:10528000F3E70121F1E70221EFE70321EDE7042134
:10529000EBE70521E9E70621E7E70721E5E7082134
:1052A000E3E7000054AE020810B5012925D0042917
:1052B00025D0102925D0402925D0B1F5807F24D0D4
:1052C000B1F5806F23D0B1F5805F22D0B1F5804F6A
:1052D00021D0B1F5803F20D00921114B18305B5C03
:1052E000184403680E4C0A34615C0C248C40120C88
:1052F000A3438A401343036010BD0021EDE7012161
:10530000EBE70221E9E70321E7E70421E5E70521CF
:10531000E3E70621E1E70721DFE70821DDE70000F9
:1053200040AE02082DE9F04F02682A4B2A4E2B4F5F
:10533000DFF8ACC02B4C2C4D4FF0804B98420BD07B
:10534000584509D0B04207D0B84205D0604503D0D7
:10535000A04201D0A84205D1D1F8048022F0700209
:1053600042EA0802DFF88480DFF88490DFF884A046
:10537000984211D058450FD0B0420DD0B8420BD052
:10538000604509D0A04207D0404505D0484503D02C
:10539000504501D0A84203D1CE6822F44072324376
:1053A00002608A68C2620A888262984209D0A0427A
:1053B00007D0404505D0484503D0504501D0A8420C
:1053C00001D109690163416941F001014161002096
:1053D000BDE8F08F002C01400004004000080040B0
:1053E000000C0040003401400050014000400140EA
:1053F00000440140004801402DE9F04104460068A6
:105400000D46012610F0010F52D12969A868EA69FA
:10541000084369691143084321682E4A1140084333
:105420002060E868616821F4405101436160A86927
:10543000A16821F440710143A1602748844201D151
:10544000032008E02548844201D10C2003E02448D1
:10545000844203D13020FFF7B1FD0BE021488442A4
:1054600001D1C02004E0204884421AD14FF440709A
:10547000FFF75CFDA8B1696899B12A680026EB695D
:105480000B2A0ED8194FD2B2B3F5004F57F822208D
:10549000B0FBF2F00FD000EB5100B0FBF1F080B2A6
:1054A000E0602888E16A80B221F00F010143E162E7
:1054B0003046BDE8F081400000EB5100B0FBF1F058
:1054C00081B24FF6F07201EA0200C1F342010843D3
:1054D000E6E70000F369FFEF0038014000440040B8
:1054E00000480040004C00400050004060AE020800
:1054F00010F1080050E8002F22F0606242EA416299
:1055000040E80023002BF5D17047000010F108009F
:1055100050E8002F61F35F7240E80023002BF7D1C1
:105520007047B4EEE00AF1EE10FA02D2B0EE600A73
:105530007047B4EEC10AF1EE10FAF9DDB0EE410A9F
:10554000704700002DE9F04F87B018216846FBF73F
:1055500048FA0420FFF710FB2020FFF70DFB012085
:10556000FFF70AFB0220FFF707FB4FF090470420EC
:10557000B8610820B861544E0420B0628002B06265
:105580004FF40059C6F828900820B0611020B86187
:105590000120B0610024CDE90094DFF83081054698
:1055A0000490694640460294FFF7E2FB4FF48040C6
:1055B000CDE900040495694640460294FFF7D8FB04
:1055C0007001CDE900040495694640460294FFF756
:1055D000CFFB4FF0040A4FF00208CDE90284CDE979
:1055E00000A5694638460494FFF7C2FB0820CDE9C0
:1055F0000005CDE90284694604943846FFF7B8FBFC
:105600001020CDE90005CDE90284694604943846AE
:10561000FFF7AEFB4FF0400BCDE900B404956946AF
:1056200038460294FFF7A4FB0095CDE9015403949A
:10563000694630460494FFF79BFBCDE9008404954E
:10564000694630460294FFF793FBCDF800A0CDE900
:1056500001540394694630460494FFF789FB4FF4E4
:1056600080500090CDE9015403946946304604947B
:10567000FFF77EFBCDF80090CDE901540394694615
:1056800030460494FFF774FB4FF48070CDE90004BA
:105690000495694638460294FFF76AFB082000909B
:1056A000CDE901540394694630460494FFF760FB4A
:1056B000CDE900B40494694630460294FFF758FBE4
:1056C00007B0BDE8F08F0000000400480008004863
:1056D0002DE9F0418EB01C2106A8FBF782F91821B4
:1056E0006846FBF77EF92C4801684FF0030821F467
:1056F0004051002401600120FFF74AFA0220FFF721
:1057000047FA4FF4004002260125CDE900060427A0
:10571000CDE90285CDE9045769464FF09040FFF787
:1057200027FB8020CDE90006CDE90285CDE90457AD
:1057300069461A48FFF71CFB17488838816D41F409
:1057400000118165806D099400F400100D901448DB
:105750000894CDE906400A940B940C94114C06A9C8
:105760002046FFF7AEFB606840F000706060E068C4
:1057700040F2FE718843E060E06820F40040E060A1
:10578000206820F400202060206820F40030206091
:105790000EB0BDE8F081000088100240000400480F
:1057A000C285B240005400402DE9F04192B028215A
:1057B00006A8FBF716F918216846FBF712F94B48C3
:1057C000016E41F480510166016E01F48051109127
:1057D000C16C41F00101C164C06C022500F0010000
:1057E000109020200024CDE9000503260527CDE9EF
:1057F0000264CDE904474FF0904869464046FFF700
:10580000B7FA8020CDE90005CDE90264CDE904476F
:1058100069464046FFF7ACFA35490822083134485A
:10582000D1F8003823F0FF0343F00B03C1F8003830
:1058300030498B78C35844F21006B3438E7843F056
:10584000100383518B78C3588E7823F4405343F46C
:10585000805383518B78C3588E7823F02003835173
:105860008B78C3588E7823F0400383518B78C358CC
:105870008E7843F0800383518B78C3588E7823F45D
:10588000407383518B78C358897823F44063435025
:10589000194E3068C0F3801018B1306820F0400015
:1058A00030604FF4404006904FF4827007904FF400
:1058B000E060CDE9080501200A900BA9400281E8CB
:1058C000150007200F9006A93046FFF7F7FB706818
:1058D00020F010007060706820F008007060306880
:1058E00040F04000306012B0BDE8F081001002408E
:1058F0000000024020AE020800300140F0B58BB03D
:10590000142106A8FBF76DF818216846FBF769F823
:105910000120FFF761F90120FFF746F90124022673
:10592000CDE9004600254FF0904702950494694662
:1059300038460594FFF71CFA009604940594CDE9C7
:10594000016569463846FFF713FAADF81840A01E06
:10595000CDE90750A40706A920460995FFF7E2FC08
:10596000206820F080002060A0681D49084040F0B9
:105970000300A060A5132A4601212046FFF7E0FBA3
:105980004FF44026324601212046FFF78DFCFF11DF
:105990003A4601212046FFF711FC00220121204652
:1059A000FFF74AFC2A4610212046FFF7C9FB324682
:1059B00010212046FFF778FC3A4610212046FFF7D9
:1059C000FDFB022210212046FFF736FC60680549E6
:1059D00008406060A06820F08000A0600BB0F0BDBF
:1059E000F8FFFEFF8FFFFFFDF0B58BB0142106A876
:1059F000FAF7F7FF18216846FAF7F3FF0220FFF7DE
:105A0000EBF80220FFF7D0F81020022400258DE8E3
:105A1000310001262E4FCDE9046469463846FFF770
:105A2000A7F920208DE83100CDE9046469463846A5
:105A3000FFF79EF9ADF818604FF6FF70CDE90750FB
:105A4000244C06A920460995FFF76CFC206820F03D
:105A500080002060A0682049084040F00300A0605A
:105A6000A5132A4601212046FFF76AFB4FF4402682
:105A7000324601212046FFF717FC4FF410073A4643
:105A800001212046FFF79AFB002201212046FFF763
:105A9000D3FB2A4610212046FFF752FB3246102145
:105AA0002046FFF701FC3A4610212046FFF786FB0F
:105AB000022210212046FFF7BFFB6068074908401B
:105AC0006060A06820F08000A0600BB0F0BD000016
:105AD0000004004800040040F8FFFEFF8FFFFFFDB8
