:020000040800F2
:10000000E0A40020250400084D5200083D3C0008F3
:1000100049520008492B00089F78000800000000A2
:100020000000000000000000000000006503000860
:100030002D2C000800000000C1030008955B00089B
:100040003F0400083F0400083F0400083F04000884
:100050003F0400083F0400083F0400083F04000874
:100060003F0400083F0400083F0400083F04000864
:100070003F0400083F0400083F0400083F04000854
:100080003F0400083F0400083F0400083F04000844
:10009000317800083F0400083F0400083F040008CE
:1000A0003F0400083F0400083F0400083F04000824
:1000B0003F0400083F0400083F0400083F04000814
:1000C0003F0400083F0400083F0400083F04000804
:1000D0003F040008FD6000083F040008A961000813
:1000E0003F0400083F0400083F0400083F040008E4
:1000F0003F0400083F0400083F0400083F040008D4
:100100003F0400083F0400083F0400083F040008C3
:100110003F0400083F0400083F0400083F040008B3
:100120003F0400083F0400083F0400083F040008A3
:100130003F0400083F0400083F0400083F04000893
:100140003F0400083F0400083F04000800000000CE
:10015000000000000000000000000000000000009F
:100160000000000000000000000000003F04000844
:100170003F0400083F0400083F0400083F04000853
:100180003F0400083F0400083F0400083F04000843
:100190003F040008000000003F0400083F0400087E
:1001A0003F0400083F0400083F0400083F04000823
:1001B0003F0400083F0400083F0400083F04000813
:1001C0003F0400083F0400083F0400083F04000803
:1001D0003F0400083F04000800F002F800F0B2F805
:1001E0000AA090E8000C82448344AAF10107DA4592
:1001F00001D100F0A7F8AFF2090EBAE80F0013F032
:10020000010F18BFFB1A43F001031847B49D00000B
:10021000D49D00000A444FF0000C10F8013B13F08D
:10022000070408BF10F8014B1D1108BF10F8015B4F
:10023000641E05D010F8016B641E01F8016BF9D142
:1002400013F0080F1EBF10F8014BAD1C0C1B09D199
:100250006D1E58BF01F801CBFAD505E014F8016B0B
:1002600001F8016B6D1EF9D59142D6D3704700009D
:100270000023002400250026103A28BF78C1FBD8AF
:10028000520728BF30C148BF0B6070476E2900F08D
:100290000184702900F06185662909F003856529CC
:1002A00009F00085672909F0FD84612909F0FC84C3
:1002B00003681B0A28BF41F08001692900F0AE8362
:1002C000642900F0AB83752900F0A8836F2900F042
:1002D000EE84782900F02D85E92900F08984E4294D
:1002E00000F08684F52900F08384EF2900F0EB8488
:1002F000F82900F02C850368DB0928BF41F0800154
:10030000632900F00A84732900F00F84E32901F0C7
:100310007181F32901F07681002070471FB509F043
:10032000B4FC01F013FA04000020002109F034FAB3
:10033000401C60600020002109F018FAE0601FBD39
:1003400010B510BD01F0D4F91146FFF7E7FF07F033
:100350007DFD01F0E5FA03B4FFF7F2FF03BC01F005
:100360006DFD00002C4B19680868B0E8F04F80F371
:100370000988BFF36F8F4FF0000080F3118870473A
:100380000000000008480068006880F308884FF00B
:10039000000080F3148862B661B6BFF34F8FBFF3DD
:1003A0006F8F00DF00BF00BF08ED00E0DFF80C003A
:1003B000016841F470010160704700BF88ED00E002
:1003C000EFF30980BFF36F8F134B1A681EF0100F05
:1003D00008BF20ED108A20E9F04F106009B44FF0FB
:1003E000500080F31188BFF34F8FBFF36F8F08F079
:1003F00071FB4FF0000080F3118809BC1968086890
:10040000B0E8F04F1EF0100F08BFB0EC108A80F378
:100410000988BFF36F8F7047B4010020EFF30580A8
:10042000704700000948804709480047FEE7FEE79B
:10043000FEE7FEE7FEE7FEE7FEE7FEE7FEE7FEE794
:1004400004480549054A064B704700009D5C0008BA
:10045000D9010008E09E0020E0A40020E0A00020D8
:10046000E0A000207CB51D4616460C00009001D08F
:100470002044401E074B7B442A4669460190304683
:1004800000F021FB05461CB10020694600F02EFB60
:1004900028467CBD7D0600000FB47CB50C0009AA7F
:1004A000009001D02044401E084B7B4469460190D7
:1004B000089800F008FB05461CB10020694600F0D2
:1004C00015FB28467CBC5DF814FB000049060000C3
:1004D00070B50C460546012A05D02878800600D55F
:1004E000EA69002302E0012305E05B1C934202D28B
:1004F000E05C0028F9D1A869E618C01AA861286A4A
:1005000018442862284600F050FA04E0D5E9012199
:1005100014F8010B9047B442F8D3284600F05BFA78
:1005200070BD00002DE9F05F894604464FF0000AD7
:10053000DFF874B1FB44C0F820A02046E16888478A
:10054000002874D0252806D0D4E901219047206ADC
:10055000401C2062F1E700265F462046E16888479C
:100560002028054607DB312D05D2781910F8200C1C
:1005700008B10643F1E7B00701D526F00406C4F838
:100580001CA00027C4F818A02A2D09D0284607F07F
:100590001EFB38B304EB8708303DC8F8185019E04B
:1005A00059F8041B204604EB87029161E1688847F3
:1005B000012F054618D1E069002820DA26F0200630
:1005C0001DE0D8F8180000EB800005EB4000303843
:1005D000C8F818002046E1688847054607F0F7FA92
:1005E0000028EED1012F0AD02E2D08D12046E16837
:1005F00088477F1C0546022F46F02006C4DBA06911
:10060000002803DA404246F00106A061F00701D05D
:1006100026F010066C2D0BD0682D09D04C2D39D04A
:100620006A2D35D0742D35D07A2D33D016E038E0D0
:10063000E1682F4620468847B842054609D16C2F0D
:1006400026D04FF48060E16806432046884705467F
:1006500004E06C2F1AD04FF4807006430DB3A5F15F
:100660004100192802D8203546F400664A4629463A
:10067000204626604E46FFF709FE80B101280BD0C8
:10068000F61D26F0070000F1080956E74020E4E7D0
:100690008020D8E70020D6E706F104094DE7284678
:1006A00052E7206ABDE8F09FE8980000401ECAB2F9
:1006B00010F8011F8A4202D00029F9D100207047AA
:1006C00010B5431C02E010F8011B71B18107FAD18B
:1006D0004FF0013202C88C1A8C4314EAC211F9D0CF
:1006E000C01A0A0603D0C01E10BDC01A10BD0A04ED
:1006F00001D0801E10BD0902FCD0401E10BD40EA92
:10070000010370B59B072ED14FF00136042A2AD37E
:1007100008C810C99D1B9D43121F15EAC61517D0A6
:10072000D8B2E1B2401A50EA056110D198B2A1B234
:10073000401A50EA05410AD123F07F4024F07F415E
:10074000401A50EA052102D1180EA0EB146070BDCA
:10075000A342DBD018BA21BA884201D9012070BD6A
:100760004FF0FF3070BD0AB9002070BD10F8013B9A
:1007700011F8014B63B1A3420AD1521E08D010F800
:10078000013B11F8014B1BB1A34201D1521EEDD127
:10079000181B70BD032A40F2308010F0030C00F0EB
:1007A000158011F8013BBCF1020F624498BF11F8AB
:1007B00001CB00F8013B38BF11F8013BA2F1040264
:1007C00098BF00F801CB38BF00F8013B11F00303DC
:1007D00000F02580083AC0F0088051F8043B083A40
:1007E00051F804CBA0E80810F5E7121D5CBF51F8E2
:1007F000043B40F8043BAFF30080D20724BF11F85C
:10080000013B11F801CB48BF11F8012B24BF00F8C0
:10081000013B00F801CB48BF00F8012B704710B531
:10082000203AC0F00B80B1E81850203AA0E81850E8
:10083000B1E81850A0E81850BFF4F5AF5FEA027CA9
:1008400024BFB1E81850A0E8185044BF18C918C018
:10085000BDE810405FEA827C24BF51F8043B40F8B9
:10086000043B08BF7047D20728BF31F8023B48BF9E
:1008700011F8012B28BF20F8023B48BF00F8012BDC
:10088000704702F0FF0343EA032242EA024200F00B
:1008900002B84FF000020429C0F0128010F0030CDF
:1008A00000F01B80CCF1040CBCF1020F18BF00F863
:1008B000012BA8BF20F8022BA1EB0C0100F00DB812
:1008C0005FEAC17C24BF00F8012B00F8012B48BF70
:1008D00000F8012B70474FF0000200B51346944614
:1008E0009646203922BFA0E80C50A0E80C50B1F188
:1008F0002001BFF4F7AF090728BFA0E80C5048BF9C
:100900000CC05DF804EB890028BF40F8042B08BF39
:10091000704748BF20F8022B11F0804F18BF00F835
:10092000012B70474FF0013C50F8042B51F8043B69
:100930009A4221D1A2EB0C03934313EACC1317D1B3
:1009400050F8042B51F8043B9A4215D1A2EB0C034A
:10095000934313EACC130BD150F8042B51F8043B0A
:100960009A4209D1A2EB0C03934313EACC13DBD0D8
:100970004FF00000704700BFD01A01BAB1FA81F100
:1009800001F0180122FA01F0CB40C1F12001DBB2E5
:10099000C0B2C01A2CFA01F3D11A914311EAC31163
:1009A000E6D1704770477047704770B50446856957
:1009B0000068C10601D5302600E02026C00707D018
:1009C00070BDD4E9012130469047206A401C206266
:1009D0006D1EF6D570BD70B5044685690078C007F8
:1009E00007D170BDD4E9012120209047206A401C26
:1009F00020626D1EF6D570BD09684A0501D540B26A
:100A00007047C905FCD500B2704709684A0501D591
:100A1000C0B27047C905FCD580B270472DE9F041DE
:100A20000646002410687529314616A510D0FFF738
:100A3000E3FF002802DA404213A507E031688A0785
:100A400001D512A502E0490704D511A5012401E052
:100A5000FFF7DBFF00210A2206F1240709E0B0FBC3
:100A6000F2FCB0FBF2F302FB1C0030307854184665
:100A7000491C0028F3D123462A463046BDE8F04100
:100A800000F0C8B9000000002D0000002B0000009D
:100A90002000000011680268006A530501D5087043
:100AA0000AE0D30501D5088006E0130603D5C21776
:100AB000C1E9000200E008600120704701694A1C9A
:100AC00002610878704700B58FB0CDE9013100218F
:100AD000059105497944CDE9031011466846FFF7B1
:100AE00021FD0FB000BD0000E5FFFFFF0A6802F81E
:100AF000010B0A607047D1E900239A4202D2531CCD
:100B00000B601070704710B5436913B1AFF30080EC
:100B100001E0FFF7DDFC012010BD127800F1240197
:100B20000A7000224A700122EDE711684FF0FF328F
:100B3000E9E700002DE9FF5F15468A460446DFF825
:100B4000AC80F8440027D8E900103E46CDE90010FB
:100B500010E03AF816106A4602A800F0A9FD411C00
:100B600007D02178890603D5E269391891420DD85A
:100B70000744761C2078800602D5E069B84205DD7E
:100B8000AE42E6DB3AF816000028E2D1A069C01BAD
:100B9000A0612046FFF709FFD8E90010CDE9001059
:100BA000002017E03AF818106A4602A800F080FD0D
:100BB000B0F1FF3F81460BD000250DF1080B05E099
:100BC000D4E901211BF8050090476D1C4D45F7D372
:100BD00008F10100B0428046E4DB206A384420621C
:100BE0002046FFF7F8FEBDE8FF9F0000EE920000F0
:100BF0002DE9F0418046D21D22F007020025D2E9FE
:100C00000002F52915A614D0011E72F1000106DAC2
:100C10000023D0EB030063EB020211A608E0D8F832
:100C200000108B0701D50FA602E0490701D50EA6DB
:100C300001251146002408F1240704E000F0A5F87E
:100C400030323A55641C50EA0102F7D12B46324645
:100C500021464046BDE8F04100F0DCB8000000004D
:100C60002D0000002B0000002000000030B4002107
:100C700000F1240408E002F00705D208303542EA0A
:100C80004372DB086554491C52EA0305F3D104683A
:100C9000002310A2250707D5A40600D421B1C469FA
:100CA00001230DA2641EC46130BC00F0B3B810B5BE
:100CB000044621461068FFF7A8FE02462046BDE81C
:100CC00010400023D2E7D21D22F00701D1E9002312
:100CD000CCE700000000000030000000F0B40D463A
:100CE0000188090502D5214C7C4402E01F4C7C445C
:100CF0000E34002100F1240608E002F00F0712096B
:100D0000E75D42EA03721B097754491C52EA030764
:100D1000F3D102780023120704D5702D06D009B153
:100D2000022311342246F0BC00F074B801231034C1
:100D3000F8E770B504460D4621461068FFF765FEDA
:100D4000024629462046BDE870400023C6E7D21D72
:100D500022F00703D3E90023C0E70368126843F0D9
:100D6000200303600823C3610023B7E7509100000C
:100D70007CB5054600236846CDE9003300F064FCED
:100D80006946284606F010FF7CBD30B5B0F10A0276
:100D90004FEA900E71F100034EEA817EB0EB0E0037
:100DA00061EB91014FEA101E4EEA017E10EB0E003E
:100DB00041EB11114FEA102E4EEA016E10EB0E00BE
:100DC00041EB11214FEA104E4EEA014E10EB0E009E
:100DD00041EB1141401841F100014FEAD00040EAD7
:100DE00041704FEAD10110EB80054FEA810444EADB
:100DF000907444EB01046D1944EB0404521BA341AD
:100E00004FF0000348BF0A3200D530BD401C41F10D
:100E1000000130BD2DE9F0470D4699469246044643
:100E200000F124080168880604D5E06921F010016A
:100E3000216000E00120A84201DD471B00E00027FF
:100E4000A1697A1902EB0900081AA0612078C0068E
:100E500002D42046FFF7A9FD002608E0D4E90121CD
:100E60001AF806009047206A401C761C20624E4506
:100E7000F4DB2078C0060AD52046FFF796FD06E091
:100E8000D4E9012130209047206A401C2062381E9E
:100E9000A7F10107F4DC07E0D4E9012118F8050007
:100EA0009047206A401C2062281EA5F10105F3DC52
:100EB0002046FFF790FD2078000602D50220BDE80D
:100EC000F0870120FBE770472DE9FF4F0C461E46D7
:100ED0004FF0FF378BB0D2E90001DDF860800A9057
:100EE0008A46C1F30A5505B93D46002108464FF030
:100EF0000000BAF1000F00F4400005DA00EB8000BA
:100F00004FF4400101EA50004FEA9059B9F1010F46
:100F100000DDB9460A9850EA4A000ED044F6105057
:100F2000A5F2FF3545432F14B8F1000F1ED07542CE
:100F3000291E1EDDC9F100021CE0B8F1010F4FF0BF
:100F4000000001D0302103E0F24305E02154401CB1
:100F5000B042FBDB30460022002121540B99C1F83E
:100F60000880C1E900200FB0BDE8F08FBD1B6D1CEB
:100F7000DEE74A4600DA694206A800F05FFC06ABED
:100F800093E8070003AB83E8070050460A9901F095
:100F9000A7F98DE80700A0F500501F3800900398CE
:100FA000002D0ADD42F21F014A460844002303A92E
:100FB0000390684601F052FC09E0A0F500504A4653
:100FC0001F38002303A90390684601F071FC8DE8E7
:100FD00007000004000C03D04FF0FF30410800E090
:100FE0001046B8F1000F03D00022009215461EE013
:100FF000751E05D4FFF7C9FE303262556D1EF9D556
:10100000B3460122084302D000227F1C04E020786E
:10101000302801D100227F1E002A099784D01DE0CC
:10102000112D07DAFFF7B1FE303262556D1C50EA20
:101030000102F5D1084302D00098C8B10EE00021AA
:10104000681E05E0235C625C63542254401E491C08
:101050008142F7DBAB46A81B401E0990002004F834
:101060000B000B98099AC0F80880C0E9002B7AE7BA
:1010700011264FF0000857E72DE9F04F8846044647
:10108000D21D22F0070191B0D1E90001CDE90A019A
:1010900006F04EFC02460B98C00F01D02D2007E051
:1010A0002068810701D52B2002E0202101EAC00041
:1010B000032A099001D0072A05DB03464146204652
:1010C00000F05CFB0BE12078800601D5E06900E0D0
:1010D0000620B8F1650F814606D0B8F1660F18D02A
:1010E000B8F1670F70D131E00020B9F1110F009015
:1010F00001DB112301E009F101030AAA01A90CA8EF
:10110000FFF7E2FEDDE90C70002609F101058346D8
:1011100047E001204B4600904FF000470AAA01A982
:101120000CA8FFF7D1FEDDE90DB00C995D46002655
:1011300010B909F101000D18B9EB050003D4C0F195
:10114000FF3609F10105A5EB09002BE0B9F1010F0C
:1011500001DA4FF001090020B9F1110F0090484663
:1011600001DD112300E003460AAA01A90CA8FFF73C
:10117000ABFEDDE90C704D46002683462078000763
:101180000AD4AB4500DA5D4601A8012D04DD411902
:1011900011F8011C302907D04F4502DA17F1040F6E
:1011A00004DA012082460FE06D1EEEE7002F02DC1C
:1011B000ED1B3E4403E0781CA84200DD7D1CB81BFB
:1011C00000F1010A4FF000472078000703D4AA4538
:1011D00001DB4FF0FF3A0021B7F1004F0DF143085A
:1011E0008DF8431024D002202B23002F01DA7F42F8
:1011F0002D230A21021EA0F1010000DC5FB197FB44
:10120000F1FC97FBF1F201FB1C7C17460CF1300C52
:1012100008F801CDEEE7A8F1010003702188090567
:1012200001D5452100E06521A0F1010800F8011C6D
:1012300009980FA9A1EB0807FF1D00B10120411972
:1012400001EBEA70A1693844081A401EA0612078B9
:10125000C00602D42046FFF7A8FB099828B1D4E9BC
:1012600001219047206A401C20622078C00622D5C8
:101270002046FFF79AFB1EE0002E04DBB34502DD9B
:1012800001A8805D00E03020D4E901219047206A68
:10129000401C2062761CAAF101005FEA000A0AD114
:1012A00000F054FAC0680168405CD4E9012190471D
:1012B000206A401C2062281EA5F10105DCDC07E045
:1012C000D4E9012118F8010B9047206A401C2062E4
:1012D000381EA7F10107F3DC2046FFF77CFB032053
:1012E00011B041E62DE9F04F04460D46D21D22F023
:1012F000070089B0D0E900974846394606F018FB48
:101300000246F80F01D02D2307E02068810701D5A0
:101310002B2302E0202101EAC0038DF820300BB11D
:10132000012000E00020032A824601D0072A04DBC6
:101330002946204600F022FA3FE12078800601D4B9
:101340000D2500E0E569C7F30A560D2D49DA0021A5
:101350004FEA175B08464FF00000002F00F44000F2
:1013600007DA00EB80004FF4400100EBD07001EA97
:1013700060008115012901DD4FF0FF3100224FEAA5
:10138000850CBCF1180F06D31346ACF118004FF0D2
:101390008052C24003E04FF4801323FA0CF30CF1A7
:1013A0000C0CBCF1200F04D3ACF1200C09FA0CF0AA
:1013B00001E007FA0CF000294FF0004801DD18B9F0
:1013C0000FE00ED140450CD319EB02095F4121B962
:1013D000404502D19F4329EA0209BBEB175F00D0C9
:1013E000761C2088000502D57B48784402E07A48C4
:1013F0007844193808AA302302F80A30037C0AF12D
:101400000101002E0AF1020A53546A4602DC4FF031
:10141000300101E04FF031014FF001088DF800106C
:1014200002D0A6F2FF3603E059EA470100D06B4E26
:10143000002D02DC2178090704D54FF002082E2187
:101440008DF80110C44600210BE0C7F303433F01B0
:10145000C35C491C6D1E02F80830052908F101081B
:1014600001DA002DF1DC00210CE000EB1973491CBE
:101470001B786D1E082902F808304FEA091908F197
:10148000010801DA002DF0DC21688B0602D516E098
:10149000A8F10108E04505DD02EB080313F8013C63
:1014A000302BF5D0B8F1000F09DD02EB080313F87B
:1014B000013C2E2B03D1090701D4A8F10108002D0E
:1014C00005DD3E2102F808106D1E08F10108407C80
:1014D000002E02F8080008F1010804DA2D207642F7
:1014E00002F8080002E02B2002F808000A214FF45D
:1014F0007A70864208F101080BDB96FBF0F330337B
:1015000002F8083096FBF0F308F1010800FB1366BF
:1015100001E0642E0CDB642096FBF0F3303302F81C
:10152000083096FBF0F308F1010800FB136601E0B8
:101530000A2E06DB96FBF1F0303002F8080008F1C5
:10154000010896FBF1F001FB1060303002F8080052
:10155000A16908F1010808EB050202EB0A00081A6C
:10156000A0612078C00602D42046FFF71EFA216A47
:1015700008AE01EB0A00206204E0D4E9012116F86C
:10158000010B9047BAF1010AF7D22078C00602D5C4
:101590002046FFF70AFA6E4609E016F8010B3E28CE
:1015A0000FD0D4E901219047206A401C2062B8F195
:1015B0000108F2D22046FFF70EFA09B00320BDE879
:1015C000F08F206A2844206203E0D4E90121302012
:1015D00090476D1EEBD3F8E7898A000002FCFFFFFD
:1015E00010B5436913B1AFF3008001E0FFF7A2FA31
:1015F000012010BD128800F1240182840022C284DF
:101600000122EDE711684FF0FF32E9E70FB4002344
:1016100000B589B00CA900910B99CB60214B7B449C
:101620000693214B7B44079304236FF00042CDE9DE
:1016300001321E4A7A446B4608920246002008F0A6
:1016400095FB09B05DF814FB70B506464FF0FF300E
:1016500015460C46324686B00091CDE90101694637
:101660000020049004A8FFF7D1FF02460498211837
:1016700025B108B1084600E02046286004980028FB
:101680000DD0002A02DD0098884208D03246081B9F
:1016900069460094CDE9010404A8FFF7B7FF06B03E
:1016A00070BD0000DB010000F30100003301000009
:1016B00070B516460C46054600F040F8036893F8EE
:1016C0000101012806D0FF2C0FD8185D68B1012058
:1016D0002C7070BDD3F807013246214603F2071380
:1016E00003442846BDE8704018474FF0FF3070BDF6
:1016F000754600F01FF9AE4605006946534620F0D6
:101700000700854618B020B5FEF79AFEBDE82040D8
:101710004FF000064FF000074FF000084FF0000BAD
:1017200021F00701AC46ACE8C009ACE8C009ACE860
:10173000C009ACE8C0098D467047000010B500F044
:1017400005F8001D10BD00BF518000000048704723
:10175000A09E002010B500F0F1F8006810BD10B593
:10176000044600F0EBF8046010BD10B50446FFF726
:10177000E5FF0068005D00F0010010BD2DE9F041BB
:101780001F46044603260168072A01F4006004DBB3
:1017900008B116A505E016A503E008B115A500E0FF
:1017A00015A521F010002060A069C01EA0610FB136
:1017B000401EA0612046FFF7F8F84FB1D4E901219F
:1017C00038469047206A401C2062C01C206206E018
:1017D000206AFAE7D4E9012115F8010B9047761E3B
:1017E000F8D22046FFF7F7F8BDE8F0814E414E00F1
:1017F0006E616E00494E4600696E6600426842B1F5
:10180000016811F8013B23B1521EC0E900121846CD
:1018100070470121C160881E704742685AB1C36891
:10182000016843B983688B4205D0491E521CC0E948
:101830000012002070474FF0FF3070472DE9F0474D
:10184000814616468AB0354878440DC88DE80D00AB
:1018500032487844801C03AC0DC884E80D0041F682
:101860009B300844372190FBF1F290FBF1F5A5F194
:10187000800501FB12041B3C02D56442012000E0FC
:101880000020DFF898A080460027FA44AAF1BE0A9B
:101890000EE0E0070AD03246684607EB4701012315
:1018A0000AEB810101F004F88DE8070064107F1C49
:1018B000002CEED1194F7F44AE3F19E0E80715D058
:1018C00007EB04100DF1180A90E80E008AE80E00EC
:1018D000C068F04201D1981908903246012306A948
:1018E00003A800F0E5FF03AB83E807006D10641C5C
:1018F000002DE3D14FF0010332466946B8F1000FE5
:1019000003A802D000F0AAFF01E000F0D1FFC9E96E
:101910000001C9F808200AB0BDE8F087BC860000C5
:1019200010B50446AFF300802046BDE81040FEF736
:1019300012BD000000487047809E0020004870479C
:10194000809E00202DE9FF4F06468BB00878FF28C7
:1019500006D0491C2D2805D000244FF0000908E0CE
:1019600000200CE00124F8E709EB8903491C00EB97
:1019700043090878FF28F7D114B1C9F10000814666
:10198000107800252C46AA4629462D2801D02B2860
:1019900004D1521C2D2813D0002082468B4610788B
:1019A000FF280FD04FF0000C0A21521CA5FB017834
:1019B00004FB018105FB0C11C5194BEB0104EEE79B
:1019C0000120EAE7002108464FF00000BAF1000FBD
:1019D00002D000EB80004008C0F38157012F01DDE9
:1019E0004FF0FF370E9955EA040009EB01080BD0C0
:1019F0004FF0020918F5FA7F16DA4FEACA70002F85
:101A0000706008DD012007E04FEACA70C6E900B047
:101A10000FB0BDE8F08F00203060FFF78FFFC0F8F7
:101A200000901821084616E0B8F5FA7F18DD002F5F
:101A300002DAF748784401E0F6487844D0E900102B
:101A4000C6E9001040EACA707060FFF777FFC0F87F
:101A50000090142108460FB0BDE8F04F08F01FB900
:101A6000002108464FF00000B8F10001099002DAA9
:101A7000C7F1000200E03A4601DAC8F1000106A809
:101A8000FFF7DCFE06AB93E8070003AB83E8070033
:101A900044F23E005BEA04010090584604D144F24F
:101AA0001E012C465D460091210C0904014306D11C
:101AB0000099240444EA15442D041039009104F0DF
:101AC0007F41014306D10099240244EA15642D02A6
:101AD0000839009104F07041014306D100992401B6
:101AE00044EA15742D01091F009104F0404101439F
:101AF00006D10099A40044EA9574AD00891E0091B6
:101B000004F00041084304D100986D196441401E5F
:101B100000904FF001033A466846B8F1000FCDE956
:101B2000014503A902DD00F0D8FE01E000F0ABFEA4
:101B3000BAF1000F04460D4601D084F000440021A4
:101B400008464FF00000099940F2FF77484010F036
:101B50000C0F07D124F00040284303D0C4F30A50EF
:101B6000B84212D1FFF7EAFEC0F80090C4F30A5061
:101B7000B8420AD1A8487844D0E90010C6E900105C
:101B800004F000410843706042E7C6E900543FE7B3
:101B90002DE9FF4F1F464FF0000A4FF0FF38454632
:101BA00091B0D7E90146CDF83CA0FFF7CFFDC06862
:101BB0000168405C1090B96912986D1C8847396AB9
:101BC000814688470028F6D1B9F1FF3F0AD0002EA0
:101BD00024F4D06411DDB9F12B0F08D0B9F12D0F29
:101BE0000BD102E0404615B013E744F48064B969B4
:101BF00012986D1C8847761E8146600504A901D5A0
:101C00002D2000E02B20002E01F1010B0DF13008FA
:101C10008DF810003FDDB9F1690F08D0B9F1490F17
:101C200005D0B9F16E0F02D0B9F14E0F1CD13B4671
:101C300001A8009580E85002DDE912126FF0020061
:101C400008F098F8C11CCED10EE0B96912986D1C4D
:101C5000884781461398761E44F4007405600F98F7
:101C6000401C002E0F9016DDB9F1300FEDD0B9F108
:101C7000780F02D0B9F1580F0DD10F9801280AD171
:101C80003B46CDE90054DDE91212001F029608F030
:101C90006FF8C11CA7D1109989453ED144F080044A
:101CA00006E01399681CAAF1010A44F40074086064
:101CB000B9696D1C1298761E884730288146F0D08D
:101CC0002BE01099894505D1200603D4761E44F0F7
:101CD000800418E0484605F07AFF08B3761E0DF13F
:101CE00023018B4544F4007408D2A9F130000BF8AD
:101CF000010B200607D5AAF1010003E0200602D45B
:101D00000AF101008246A00502D51399681C0860FB
:101D1000B96912986D1C88478146002ED1DC53E0CA
:101D2000002E51DDB9F1650F02D0B9F1450F4BD14D
:101D3000A00549D5B9696D1C1298761E24F440742B
:101D40008847002E81460CDD2B2804D0B9F12D0FD9
:101D500007D144F48074B96912986D1C8847761EC7
:101D60008146E00501D52D2100E02B2108F8011B5B
:101D7000CDF8008021E0761E0DF13901884544F44C
:101D800000740CD2A9F1300010F0FF0088F80000B8
:101D900002D10099884509D908F1010806E0E0055B
:101DA00001D51E4801E042F20F708246B9691298CF
:101DB0006D1C8847814613980560002E04DD484657
:101DC00005F005FF0028D6D1F96912988847FF2051
:101DD00053468BF8000088F8000000200A900B9012
:101DE00004AA0CA90AA8FFF7ADFDA00502D46FF064
:101DF0000100F8E614F0240F12D0E0071CD1386877
:101E0000DDE90A12031D3B600068C0E9001213E01F
:101E1000B0850000A285000066840000F1D8FFFFB5
:101E20000AA9684605F0C0FEE00705D13868009AA7
:101E3000011D3960006802602846D4E60149182077
:101E4000ABBEFEE7260002002DE9FF4F1F464FF014
:101E50003C0987B04FF00042DDE9141001F10108A0
:101E6000DDF858A002EA4050039000200590834618
:101E7000054604460490B969461E08988847AAF1A9
:101E8000010A0290BAF1000F3BDD02982E2815D00E
:101E9000102100F017FA00282EDB4FF0010B0599F6
:101EA000014317D0B9F1000F0BDB4A46C11700F010
:101EB000F6F905430C43A9F1040905E0012004905B
:101EC0000BE008B145F0010501200590049820B908
:101ED000361D02E0049800B1361FB969089808F170
:101EE00001088847BBF1000FAAF1010A0290C9D08E
:101EF0000999C1F80080C5E70298702808D05028D9
:101F000006D0F96908988847BBF1000F14D04FE05C
:101F1000002002900120BBF1000F049009D0B969A4
:101F2000089808F101088847AAF10109B9F1000FE2
:101F300007DCF969089888476FF001000BB0BDE82D
:101F4000F08F2B2804D02D280CD14FF0FF300490B7
:101F5000B969089808F101088847A9F10109B9F1A0
:101F6000000FE6DD411CE4D00A2100F0ABF90028A7
:101F7000DFDB029908F1010801EB810100EB410070
:101F80000290B969089888470A2100F09BF9099ADC
:101F9000A9F10109B9F1000FC2F8008001DD0028A4
:101FA000E7DAF969089888470499029800FB016606
:101FB00055EA040004D004F04041090002D006E0D4
:101FC000039898E0A40044EA9574AD00B61E04F0AE
:101FD0000041080002D16D196441761E159810F079
:101FE000240F03D04FF00B095C4803E04FF02809A1
:101FF0006FF07D008246564507DAAAEB0601894458
:10200000B9F1410F01DD4FF0410901200021A9F193
:10201000010200F044F9024628400B4621400843E3
:1020200001D0012100E00021501E029143F1FF3157
:1020300028402140084301D0012000E000200299FF
:10204000834651EA0B014FD0002108464FF00000B3
:10205000039900F4400039B100EB80004FF44001D7
:1020600000EBD07001EA60008015012802DD4FF01E
:10207000FF3000E013D0401C36D0029860B3BBF1B3
:10208000000F0CD14A460120002100F008F9284039
:102090002140084301D0012000E00020E0B10120F0
:1020A0004A46002100F0FBF8034640190A46614108
:1020B0002D1A8C4111D3B9F1400F09DD159810F09C
:1020C000240F02D0AAF1340603E0AAF1170600E0BB
:1020D000761C00254FF0004406E05B1E42F1FF3203
:1020E00020EA030521EA0204CAF10100B04206DA3F
:1020F0001B49039808430190002000900EE0039ACA
:10210000C4F3D321E80A0A43164940EA44500A437B
:102110003146CDE90002684605F04FFD159810F0F4
:10212000240F0BD01598C00715D13868DDE90012CF
:10213000031D3B600068C0E900120CE002A869467C
:1021400005F032FD1598C00705D13868029A011DC7
:102150003960006802604046F0E6000002FCFFFFC4
:102160000000F07F0000F03F2DE9FF4F92461D4632
:1021700085B04FF00041DDE9124BDDE914727F1E9E
:1021800001EA4B50414940F0FF4940EA0108002173
:1021900022F020004928049102D04E2828D04CE09B
:1021A0003BA0012607C88DE80700A9690698641CB2
:1021B00088477F1E014606D41DF8060018B121F09D
:1021C000200181420BD0E96906988847032E34D05C
:1021D000082E32D06FF0010009B0BDE8F08F761CF8
:1021E000032E01D0082EE0D1601CCAF80000DCE705
:1021F000A9690698641C88477F1E2AD420F0200015
:10220000412826D1A9690698641C88477F1E20D4DE
:1022100020F020004E281CD1A9690698641C88472C
:102220007F1E48F4002849F48009CAF8004001D410
:10223000282806D0E969069888475FEACB7012D053
:1022400022E0A9690698641C88477F1E01D40028F3
:1022500003DAE96906988847BCE72928F1D1641CAC
:10226000CAF80040E9E71BF0240F07D0286804995A
:10227000031D2B600068C0E9001805E02868021DF6
:102280002A600068C0F800902046A5E70000F07FB3
:10229000494E46494E495459000000007047B2F17A
:1022A00020030AD5C2F1200301FA02F120FA03F358
:1022B00000FA02F041EA0301704700FA03F14FF01F
:1022C000000070473A2800D2303820F02002412A1E
:1022D00001D3A2F13700884201D34FF0FF3070479D
:1022E0005FEA400C08BF91F0000F4FEA8C234FEAE1
:1022F000C12243EA51514FEA1C5018BF00F5F0408B
:102300004FEA300018BF41F000415FEA6C5C00F01A
:102310002980BCF1FF3F08BF40F080407047130C9C
:1023200006BF12044FF0100C4FF0000C130E04BF48
:1023300012020CF1080C130F04BF12010CF1040C73
:10234000930F04BF92000CF1020CD30F04BF520094
:102350000CF1010C11464FF00002A0F11F00A0EBA0
:102360000C00704711F0004F08BF704731F000417A
:102370003FF4D5AF0B0C06BF09044FF0100C4FF023
:10238000000C0B0E04BF09020CF1080C0B0F04BF6C
:1023900009010CF1040C8B0F04BF89000CF1020C35
:1023A000CB0F04BF49000CF1010CCCF12003A0EBD2
:1023B0000C0022FA03F302FA0CF241EA030100F1E5
:1023C0000100704720F07F4C80EA030023F07F4734
:1023D000ACEB070303F57C5300F0004003F1FF036F
:1023E0002DE980494FEA154B09B44FEA144325EA19
:1023F0000B4E24EA03480FF2042606EB1327490884
:102400003E785FEA320203FB0667C7F5000707FB69
:1024100006F64FEA54374FEAD64606F1020607FBA6
:10242000066CCCF1005C4FEA1C472CEA074C07FB1A
:1024300006F40CFB06F504EB15464FEA961634BF7E
:1024400000204FF000404FEAD13706FB07FC4FEA6F
:102450001C4C0CFB0BF7D21B03FB0CF761EB0701C9
:102460000CFB0EF7B0EB074072EB17420CFB08F7C2
:1024700034BFA2EB0742B2EB074261EB17414FEAD0
:102480000C444FEA910706FB07FC4FEA1C4C0CFB7F
:102490000BF7B0EBC74072EB573203FB0CF734BFBE
:1024A000A2EBC742B2EBC74261EB57310CFB0EF710
:1024B000B0EBC70072EB57720CFB08F734BFA2EB0E
:1024C000C702B2EBC70261EB5771039F4FEA81610C
:1024D00041EA921104EBCC044FEAD1374FEA826211
:1024E00006FB07FC42EA90124FEA80604FEA1C4C60
:1024F0000CFB0BF7D21B03FB0CF761EB07010CFB8A
:102500000EF7B0EB074072EB17420CFB08F734BF35
:10251000A2EB0742B2EB074261EB17414FEA8C5541
:102520004FEA910704EB9C2406FB07FC4FEA1C4C86
:102530000CFB0BF7B0EBC74072EB573203FB0CF709
:1025400034BFA2EBC742B2EBC74261EB57310CFB81
:102550000EF7B0EBC70072EB57720CFB08F734BFF5
:10256000A2EBC702B2EBC70261EB577115EB4C252A
:102570004FEA816141EA92114FEA82624FEAD13714
:1025800042EA901206FB07FC44F100044FEA806027
:102590004FEA1C4C0CFB0BF7D21B03FB0CF761EB57
:1025A00007010CFB0EF7B0EB074072EB17420CFB78
:1025B00008F734BFA2EB0742B2EB074261EB1741C9
:1025C00015EB1C154FEA813141EA92414FEA823204
:1025D00042EA90424FEA80304FEA0C7644F1000420
:1025E00048EA03434EEA0B484FF0000EB2EB080CEA
:1025F00071EB030724BF624639464EEB0E0E4FF0D7
:10260000000B0018524149414BEB0B0BB2EB080C8D
:1026100071EB03077BF1000B24BF624639464EEB9A
:102620000E0E4FF0000B0018524149414BEB0B0BC3
:10263000B2EB080C71EB03077BF1000B24BF624681
:1026400039464EEB0E0E51EA020718BF46F001065E
:1026500016EB0E7655F1000254F1000103D5BDE8EA
:102660008901BDE80088BDE88901BDE80048B619C8
:10267000524141EB0101A3F10103704780807F7E4D
:102680007D7C7B7A797877767675747372717170E8
:102690006F6E6E6D6C6C6B6A6A696868676666659A
:1026A0006464636362616160605F5F5E5E5D5D5C28
:1026B0005C5B5B5A5A595958585757565655555599
:1026C0005454535352525251515050504F4F4F4EF9
:1026D0004E4D4D4D4C4C4C4B4B4B4A4A4A49494947
:1026E0004848484747474746464645454544444489
:1026F00044434343434242424241414146EA064643
:10270000A3F570534FEA164646EA42564FEAD222E4
:1027100042EA415210B54FEAD121A3F1010300F082
:102720002FF820F0004000F1020C00F0004701EB10
:1027300000501146BCF5006F40EA070000D210BD02
:10274000BAF1000F0AD01CB503B44FF004004FF0EB
:1027500004014FF000000FBCBDE810404FF0000135
:10276000BBF1010FB9BF04484FF0FF31034800210E
:1027700040EA070010BD00BFFFFFEF7F0000F07FC1
:10278000002B9C4630D477002BD01CB54FEA37077E
:1027900003B44FF010004FF01001BAF1000F06D053
:1027A000BCF1000FDCBF40F0080040F008014FF022
:1027B00000000FBCBDE810400BF1010BBBF1010F95
:1027C00008BF5FEA170722BF12F1010211F10101F0
:1027D0004FF0004143F1000300F0004043EA0000E5
:1027E0007047F9D35708D0E746EA064613F1400F81
:1027F0004FEA16461FDD13F1200FDFBF16430A46CE
:10280000002120335B42BED0C3F1200746EA0646D2
:1028100002FA07F74FEA164646EA0706C3F1200711
:1028200022FA03F201FA07F721FA03F14FF000034D
:1028300042EA0702A7E746EA020646EA06464FEAE8
:10284000164646EA0106BCBF46EA0646360C4FF07D
:1028500000034FF000024FF0000194E72DE9804C97
:102860009A46934670B491E8380007C831EA400CA4
:1028700048BF34EA430C03D5FFF7A4FDFFF780FF00
:10288000F0BCBDE8008C2DE9804C9A46934670B4AC
:1028900091E8380007C831EA400C48BF34EA430CDD
:1028A00003D5FFF78FFDFFF729FFF0BCBDE8008CD3
:1028B0002DE9804C9A46934670B491E8380007C8D9
:1028C00010F0804F08BF13F0804F03D100F01AF8CA
:1028D000FFF756FFF0BCBDE8008C2DE9804C9A460E
:1028E000934670B491E8380007C810F0804F08BFD5
:1028F00013F0804F03D100F005F8FFF7FFFEF0BCA6
:10290000BDE8008C20F07F4780EA030023F07F4C75
:1029100007EB0C03A3F57C5300F00040A3F1FE038A
:1029200092F0000F00F0B38095F0000F00F0778078
:102930002DE901494FEA11404FEA144621EA0048C7
:1029400000FB06FC24EA064708FB06F607FB08F82E
:1029500000FB07F718EB06484CEB164C4FEA124BFE
:1029600018EB07484FEA15464CEB174022EA0B4E8E
:102970000BFB06FC25EA06470EFB06F607FB0EFEE0
:102980000BFB07F71EEB064E4CEB164C4FF0000608
:102990001EEB074E4CEB174B18EB0B0840F10000F9
:1029A00018EB0E0B58EB000840F100008F1A4FF0A7
:1029B00000013CBFC943661B14BFB5EB040C0021EA
:1029C0003CBFC943F61B4FEA17444EEA8E0E27EA76
:1029D00004454FEA1C4704FB07622CEA074C05FB41
:1029E00007F70CFB05F604FB0CFC16EB074642EB65
:1029F000174216EB0C4642EB1C421BEB060658EB4B
:102A00000202414146EA9E0601D5BDE80189B61998
:102A1000524141EB0101A3F10103BDE801894FEAF5
:102A200014454FEA114724EA054621EA074C05FB05
:102A300007F406FB07F70CFB06F105FB0CFC11EB9A
:102A4000074144EB17444FEA124711EB0C4144EBAA
:102A50001C4422EA074C05FB07F206FB07F70CFBB8
:102A600006F605FB0CFC16EB074642EB174216EB8D
:102A70000C4642EB1C456A1854F1000148BF7047F0
:102A8000B619524141EB0101A3F10103704795F0E2
:102A9000000F37D04FEA11424FEA144721EA0246AD
:102AA00024EA074C02FB07F106FB07F70CFB06F4D0
:102AB00002FB0CFC14EB074441EB17414FEA1547AE
:102AC00014EB0C4441EB1C4125EA074C02FB07F5D3
:102AD00006FB07F70CFB06F602FB0CFC16EB0746A1
:102AE00045EB174516EB0C4645EB1C42121951F10C
:102AF000000148BF7047B619524141EB0101A3F1F3
:102B0000010370474FEA14454FEA114724EA05468E
:102B100021EA074C05FB07F106FB07F70CFB06F261
:102B20004FF0000605FB0CFC12EB074241EB17418E
:102B300012EB0C4251EB1C4148BF7047921841EB1D
:102B40000101A3F101037047FEE700207047002058
:102B50007047000010B500220449054803F0EBFC63
:102B60000449034803F0DEFC002010BD34140020AB
:102B700064070020340C002010B50146034803F020
:102B8000D1FC024803F096FC002010BD6407002031
:102B9000002070471CB500210320CDE900010B4641
:102BA0004FF4806209A10B4806F054FB0A49012842
:102BB000086006D009A005F011F8BDE81C4000F03F
:102BC00035B9BDE81C400BA005F008B8436F6D6D2A
:102BD000000000005D8B000834020020436F6D6D23
:102BE000207461736B20637265617465204661694E
:102BF0006C656400436F6D6D207461736B2063724C
:102C0000656174652053756363657373000000002C
:102C100010B580210348FDF75EFE034900200870CF
:102C200010BD0000009E0020380200207047000008
:102C30001CB500210220CDE900010B4642020AA189
:102C40000C4806F007FB0C490128086006D00BA0D1
:102C500004F0C4FFBDE81C4000F0E8B8BDE81C402B
:102C60000DA004F0BBBF00005561727450726F6319
:102C7000000000007D8B000834020020446562756E
:102C800067207461736B20637265617465204661AF
:102C9000696C6564000000004465627567207461BA
:102CA000736B20637265617465205375636365732C
:102CB00073000000014601A004F090BF4572726FDE
:102CC000723A20257300000010B5012006F014F8B8
:102CD00015494860F8B14FF08040026842F00102A7
:102CE0000260124A136843F001031360436A1048FC
:102CF000C360526A02620F48026842F00102026039
:102D00000D4A10691269C0F38030C2F3C03242EA42
:102D10004000087010BD502080F31188BFF34F8F22
:102D2000BFF36F8FFEE70000280200200004004080
:102D3000C49D0020004001400004004830B5174900
:102D400008690969C0F38030C1F3C03141EA40012C
:102D50001348144B027841EA82029C56124B00221F
:102D6000002C0CD09C859D6A2C449C6202DD4FF0A7
:102D7000010401E04FF002041C63017001E09A8538
:102D80001A630378994206D043785B1C13F0FF0363
:102D9000437001D00170427030BD00000004004853
:102DA00028020020109E0008C49D00201CB50021B0
:102DB0000320CDE900010B464FF4807209A10B48B6
:102DC00006F048FA0A490128086006D009A004F074
:102DD00005FFBDE81C4000F029B8BDE81C400CA070
:102DE00004F0FCBE456E636F64657200A184000848
:102DF00034020020456E636F646572207461736BEA
:102E000020637265617465204661696C65640000C9
:102E1000456E636F646572207461736B20637265C5
:102E200061746520537563636573730072B602A0A5
:102E300004F0D4FEFBE7000053797374656D204500
:102E400072726F720D0A000010B50024032000F0AA
:102E500073F80F2000F008F808B1012401E000F039
:102E600025F8204610BD000070B50E4E0546002422
:102E7000706898B14FF47A71B1FBF0F00A490968B3
:102E8000B1FBF0F000F070FD40B9102D06D2002229
:102E90002946501E00F030F8356000E0012420463D
:102EA00070BD000068000020740000200A4882B055
:102EB000016E41F001010166016E01F00101009116
:102EC000816D41F080518165806D00F080500090EF
:102ED00002B000F041BD000000100240002809DBF4
:102EE00000F01F02012191404009800000F1E02024
:102EF000C0F8001170470000F0B40E4B1B680C4680
:102F0000C3F30223C3F10705042D00D90425191DBD
:102F1000072901D2002300E0DB1E012606FA05F195
:102F2000491E214099409E40761E16403143F0BC18
:102F300004F016BD0CED00E0064900F00702086839
:102F40004FF6FF03184040EA0220034A104308608E
:102F5000704700000CED00E00000FA050122016856
:102F6000C0F8D022002280F8C82231F8540F40F077
:102F700001000880088840F0020008801046704771
:102F800070B50F4D044669B101290AD1D4F8D802B1
:102F900003F0EBFD607A002803D0286840F00600BB
:102FA000286070BD607A28B102F00AFE286820F01F
:102FB00006002860D4F8D802BDE8704003F06DBD6B
:102FC00010ED00E010B50C0607D501F0070101EB8C
:102FD000810100EBC100103005E001EB810100EB45
:102FE000C10000F5A87099B232B1012202730181CB
:102FF000190C4181002010BD00220273C180F9E745
:1030000001EB810200EBC202D0F8D802526A03F051
:1030100023BC01EB810200EBC202D0F8D802D2F847
:10302000642103F06DBC70B504460B0601F0070087
:1030300000EB800104EBC1014FF001024FF00005ED
:1030400002D54A74103103E081F8515101F5A8719D
:10305000087094F89002012808D084F89022206823
:1030600004F035F984F89052002070BD022070BD44
:1030700070B5044601F00F002279904201D9012079
:1030800070BD0B0601F0070000EB800104EBC101ED
:103090004FF001024FF0000502D54A74103103E0F1
:1030A00081F8515101F5A8718D70087094F8900263
:1030B000012808D084F89022206804F0A7F984F849
:1030C0009052002070BD022070BD2DE9F0470468C9
:1030D0005FEA42480B788D69B4F850804FF0000CDD
:1030E0004BF68F7748F2800648F68F7948F2C00A8F
:1030F000444428D540F2024808EBC30834F808409D
:10310000C4F30904A54203D32D1B8D6102D00BE04B
:10311000C1F818C0D0F800C03CF823503D4085F4F9
:10312000005535432CF82350520609D50B78056815
:1031300035F8232002EA090242EA0A0225F8232090
:1031400074B30A8927E040F2064808EBC30834F854
:103150000840C4F30904A54203D32D1B8D6102D09E
:103160000BE0C1F818C0D0F800C03CF823503D4037
:1031700085F4005535432CF82350520609D40D78B8
:10318000036833F8252002EA090242EA0A0223F81A
:1031900025202CB14A8949690068234604F051FB77
:1031A0002046BDE8F0872DE9F05F054600680C4633
:1031B0005FEA42681646D1F818C02278B0F850800D
:1031C00048F6BF7A48F2800B48F68F774CF28009B8
:1031D0004FF6FF734FF4004E4FF0000140447DD591
:1031E00040F2024808EBC20830F80800C0F30900BA
:1031F000844514D9BCEB000CC4F818C010D0760478
:1032000008D5D5F800C03CF822603E4046EA0906E1
:103210002CF8226094F82420012A60D076E1A16184
:10322000607810B1012813D01AE02868B0F8503047
:10323000184400EBC200B0F80224C2F30902A0F85F
:103240000224B0F8022442F40042A0F8022407E06D
:103250002868B0F85030184400EBC200A0F80214FF
:103260006278286812B1012A11D018E0B0F8501025
:103270000844217800EBC100B0F80614C1F309013D
:10328000A0F80614B0F8061441F4004105E0B0F8C7
:1032900050201044227800EBC200A0F80614E07819
:1032A00002280BD12278296831F8220000EA0A00AE
:1032B00080F0200040EA0B0021F822002178284607
:1032C000FFF79EFE700408D521782A6832F82100A5
:1032D000384040EA090022F82100C3E04DE062696D
:1032E00002446261E2690244E2612669226AB242F2
:1032F00002D33046111A03E084F824100AB11046B4
:103300002162617811B101292BD033E02968B1F82D
:1033100050201144227801EBC201B1F80224C2F31B
:103320000902A1F8022401F2024158B13E280ED848
:103330004208C60700D0521C0E8803EA82221643B8
:103340000E8017E00A8842F400420A8012E0420927
:10335000C30600D1521E0B884EEA822213430B8013
:1033600008E02968B1F850201144227801EBC2012D
:10337000A1F8020483B22289C4E040F2064808EBB7
:10338000C20830F80800C0F30900844514D3BCEB30
:10339000000CC4F818C010D0760408D4D5F800C0CA
:1033A0003CF822603E4046EA09062CF8226094F878
:1033B0002420012A59D0A9E0A161607810B1012828
:1033C00013D01AE02868B0F85030184400EBC2005F
:1033D000B0F80224C2F30902A0F80224B0F80224D3
:1033E00042F40042A0F8022407E02868B0F8503008
:1033F000184400EBC200A0F802146278286812B1E9
:10340000012A11D018E0B0F850100844217800EBE0
:10341000C100B0F80614C1F30901A0F80614B0F811
:10342000061441F4004105E0B0F850201044227821
:1034300000EBC200A0F80614E07802280BD1217836
:103440002A6832F8210000EA0A0080F0200040EAF1
:103450000B0022F8210021782846FFF7D1FD7004E7
:103460007FF532AF0020BDE8F09F626902446261DF
:10347000E2690244E2612669226AB24203D330461D
:10348000111A216204E00AB11046216284F8241066
:103490006278296812B1012A2AD031E0B1F85020AF
:1034A0001144227801EBC201B1F80624C2F30902EB
:1034B000A1F8062401F2064158B13E280ED8420870
:1034C000C60700D0521C0E8803EA822216430E80E3
:1034D00016E00A8842F400420A8011E04209C3065D
:1034E00000D1521E0B884EEA822213430B8007E064
:1034F000B1F850201144227801EBC201A1F8060472
:10350000628983B26169286804F0B6F92278296873
:1035100031F8220000EA0A0080F0300040EA0B0097
:1035200021F822009EE701F0070101EB810100EB89
:10353000C100D0F86C0170472DE9F04104460F0638
:1035400001F0070000EB800104EBC1014FF0010620
:103550004FF0000502D54E74103103E081F851514F
:1035600001F5A871022B0870C2F30A000861CB7044
:1035700000D10D7194F89002012809D084F890626E
:10358000206803F0EFFC284684F89052BDE8F081F3
:103590000220FBE710B501F0070404EB840100EB07
:1035A000C101C1E959230022C1F86C2181F85121E0
:1035B00081F85041006801F5A87103F079FF0020FF
:1035C00010BD70B5044601F007002279904201D980
:1035D000012070BD0B064FF000054FF0010206D52B
:1035E00000EB800104EBC1014A74103107E001EBEC
:1035F000810104EBC10181F8515101F5A8718A7074
:10360000087094F89002012808D084F8902220686D
:1036100003F034FF84F89052002070BD022070BD8A
:1036200010B501F0070404EB840100EBC101C1E90E
:103630000923012281F834200B630023CB624A74F2
:1036400001F8104F006803F033FF002010BD10B5E3
:103650000446006804F0F2F8010404D52046BDE8F1
:10366000104001F0F4BD41050ED5206830F8441F2C
:1036700021F480610180204600F000F92046BDE879
:103680001040002100F026B9410405D5206830F82B
:10369000441F21F480417DE0810405D5206830F885
:1036A000441F21F4005175E0C1041FD5206830F893
:1036B000401F21F004010180206830F8401F21F0F4
:1036C0000801018094F8C802012806D1002084F87E
:1036D000C80201462046FFF753FC204600F0E2F8FE
:1036E000206830F8441F21F4805153E0010512D5C1
:1036F000206830F8401F41F008010180206830F850
:10370000441F21F400610180206830F8401F41F01F
:10371000040101800AE0010629D5206830F8441F21
:1037200021F08001018094F8C80218B1204600F011
:1037300001F910BD206830F8401F41F004010180FC
:10374000206830F8401F41F008010180012084F812
:10375000C8022068B0F854003C2101EA9000C4F887
:10376000CC022046BDE810400121FFF709BC8105CD
:1037700009D5206830F8441F21F4007101802046EB
:1037800000F0A4F810BDC005FCD5206830F8441F37
:1037900021F48071018010BD70B5040004D094F84C
:1037A0009102002510B106E0012070BD84F890520E
:1037B000204600F03FF8032084F89102206803F0CF
:1037C0001DFE002001260BE000EB800104EBC1018F
:1037D0004E740874CD740D624D62401CC0B28D628F
:1037E00021798142F0D8002012E000BF00EB800177
:1037F00004EBC10181F8515181F8500181F8535116
:10380000C1F86051C1F86451401CC0B2C1F86851A0
:1038100021798142EAD894E8070003F0E6FD257398
:1038200084F89162A07A012802D12046FFF796FB26
:10383000002070BD08B500680E49884218D10E48B6
:1038400050F8881F21F0406140F83019016841F4B8
:10385000000101600068002200F4000000901146A1
:103860001420FFF749FBBDE808401420FFF736BBE2
:1038700008BD0000005C00400010024070B5044626
:1038800040790125022801D0FFF7D0FA2946D4F863
:10389000D80203F01CF9D4F8D802BDE8704003F058
:1038A000CFB8000010B50446407A30B10648016830
:1038B00021F00601016002F083F9D4F8D802BDE8D6
:1038C000104003F0EAB8000010ED00E0D0F8D80294
:1038D00003F0EDB810B5044690F8900201280AD024
:1038E000012084F890022173206803F0BEFF0020BD
:1038F00084F8900210BD022010BDD0F8D82200F547
:103900002671104603F0EFB810B5044690F8900207
:1039100001280CD0012084F89002206803F07FFF7A
:10392000206803F05BFD002084F8900210BD0220A7
:1039300010BD000010B50446D0F8D80203F015F908
:10394000607A002804D00348016841F00601016054
:1039500010BD000010ED00E00248816841F4804194
:10396000816070470070004010B5401EB0F1807F4C
:1039700001D3012010BD4FF0E02460610F216017DA
:1039800003F0EEFF0020A06107202061002010BDA1
:1039900001A2044900F066B85365744441435F4195
:1039A00000000000BC9D002001A2044900F05AB8AC
:1039B0005365744441435F4200000000C09D0020F5
:1039C00038B504000BD0694604F0BEF80098A04258
:1039D00001D0007840B10DA004F000F938BD12A16B
:1039E00013A004F0FBF838BD02F0D8F9164880EDBA
:1039F000010A10EE100A06F0D7F841EC100B13A0E4
:103A000053EC102B04F0EAF838BD0000415F536519
:103A1000743A20696E76616C696420706172616DC0
:103A20006574657200000000415F5365740000001A
:103A300025733A206D697373696E672070617261D6
:103A40006D65746572000000B89D0020415F53658C
:103A500074207570646174656420746F3A20252E3B
:103A600036660000F8B50D46164604000DD06946CE
:103A700004F06AF80098A04201D0007840B13146C5
:103A80000BA000BF04F0AAF8F8BD11460EA0F9E79C
:103A900085ED000A10EE100A06F086F841EC100BD6
:103AA000314653EC102B0EA004F098F8F8BD00003E
:103AB00025733A20696E76616C6964207061726169
:103AC0006D6574657200000025733A206D6973732B
:103AD000696E6720706172616D65746572000000C7
:103AE0002573207570646174656420746F3A2025B5
:103AF0002E34660010B504000ED00CA1FCF712FFA6
:103B000080B10DA12046FCF70DFF00280CD10CA0C0
:103B1000BDE8104004F062B8BDE810400EA111A04D
:103B200004F05CB815A0F3E710BD0000536875748D
:103B3000446F776E000000004F70656E000000005B
:103B40005365744761746865723A204465766963A9
:103B500065204F70656E0000536574476174686539
:103B60007200000025733A206D697373696E6720D7
:103B7000706172616D657465720000005365744711
:103B800061746865723A204465766963652053689C
:103B9000757420446F776E0038B504000BD0694609
:103BA00003F0D2FF0098A04201D0007840B10DA0F0
:103BB00004F014F838BD12A113A004F00FF838BDBA
:103BC00002F0F4F8164880ED020A10EE100A05F033
:103BD000EBFF41EC100B13A053EC102B03F0FEFF96
:103BE00038BD0000565F5365743A20696E76616C8B
:103BF000696420706172616D657465720000000017
:103C0000565F53657400000025733A206D69737325
:103C1000696E6720706172616D6574657200000085
:103C2000B89D0020565F536574207570646174659B
:103C30006420746F3A20252E36660000FEE70000EF
:103C40000B494CF6CC420A6045F255520A600322F9
:103C50004A60B0F5805F01D340F6FF70C0F30B00FF
:103C60008860C8684007FCD14AF6AA2008607047FF
:103C700000300040174900BF51E8000F40F020001D
:103C800041E80002002AF7D113480068C0F302207F
:103C9000C0F10701042900D90421021D072A01D21D
:103CA000002000E0C01E012202FA01F35B1E03F0B7
:103CB000030181408240521E02F0010001430801CD
:103CC000064981F80004054980202339C1F8000124
:103CD00070470000004800400CED00E027E000E0E5
:103CE0001D4800BF50E8001F41F0200140E80013CC
:103CF000002BF7D150E8001F41F0400140E80013CD
:103D0000002BF7D115490968C1F30221C1F107025F
:103D1000042A00D904220B1D072B01D2002100E048
:103D2000C91E012393405B1E03F002028A40110169
:103D30000B4A82F800140A4A2021213AC2F80011E5
:103D400010F1080050E8001F41F0010140E80012A6
:103D5000002AF7D170470000003801400CED00E068
:103D600025E000E010B500F06FF8FEF751FF01F01C
:103D7000B1FCFEF7A9FFBDE8104001A003F02EBF83
:103D800041707020496E6974205375636365737365
:103D90000000000010B5FFF757F800F00BFE02F02E
:103DA00015F902F013F800F037FF01F025F901F0E2
:103DB00021FA00F0C5FE01F031F801F0A5F800F09D
:103DC00097FF04A003F00AFFBDE810400AA003F02B
:103DD00005BF00000D0A5B76657273696F6E5D4802
:103DE0005220434E4320504F574552205355505078
:103DF0004C592056312E30004861726477617265EB
:103E000020496E6974205375636365737300000005
:103E1000F0B500230A24302537261F4611E000BFE5
:103E2000B4EB107F02D905EB107C01E006EB107CAF
:103E300001F813C001EB430C00015B1C8CF801700E
:103E4000DBB29342ECD3F0BD70B5234D4FF400517B
:103E5000284600F0DEF9214C4FF4804120712846BD
:103E600000F0D7F960724FF40041284600F0D1F914
:103E7000A0734FF090454021284600F0CAF9E07445
:103E80004FF48071284600F0C4F9207602211448CE
:103E900000F0BFF9607700204FEA000200EB8003DA
:103EA0001919401C0D79E5540B794B708A70CA7052
:103EB0000628F3DB002240210A2004F02FFF0949E5
:103EC0000028086007D1502080F31188BFF34F8F7E
:103ED000BFF36F8FFEE770BD0008004846980020D2
:103EE00000040048FC01002030B50D46174900EBE6
:103EF00080020C468B5C91B01444AB421FD1E17838
:103F0000491CC9B2E17003291CD32179A94219D0F7
:103F100025710121A1700E4951F820306DB10DA21B
:103F200040216846FCF7B8FA09480023001F1A46EA
:103F30006946006804F07AFF04E00AA2F0E78D54B5
:103F40000020E070657011B030BD00004698002080
:103F5000000200205B4B45595D20257320CACDB778
:103F6000C50A00005B4B45595D20257320B0B4CFD6
:103F7000C20A000010B51C4C4FF40051204600F05E
:103F800048F9C1B20020FFF7AFFF4FF4804120464F
:103F900000F03FF9C1B20120FFF7A6FF4FF4004146
:103FA000204600F036F9C1B20220FFF79DFF4FF026
:103FB00090444021204600F02CF9C1B20320FFF7C5
:103FC00093FF4FF48071204600F023F9C1B2042022
:103FD000FFF78AFF0221054800F01BF9C1B2BDE8D6
:103FE00010400520FFF780BF00080048000400488B
:103FF0001CB500210320CDE900010B464FF480726F
:1040000009A10A4805F026F909490128086006D0E7
:1040100008A003F0E3FDBDE81C40FEF707BFBDE8C4
:104020001C400AA003F0DABD4B6579004185000809
:10403000340200204B6579207461736B20637265D4
:10404000617465204661696C656400004B65792088
:104050007461736B2063726561746520537563636B
:1040600065737300044908B5CA6C0243CA64C96C1D
:104070000140009108BD000000100240044908B54D
:10408000CA6C0243CA64C96C0140009108BD0000BB
:1040900000100240044908B5CA6C0243CA64C96CE6
:1040A0000140009108BD000000100240044908B51D
:1040B000CA6C0243CA64C96C0140009108BD00008B
:1040C00000100240044908B58A6D02438A65896D73
:1040D0000140009108BD000000100240F0B50A68E0
:1040E0000F2692FAA2F2B2FA82F303248AE00125A3
:1040F0009D402A407ED04D68012D01D0022D20D157
:104100008D68876892FAA2FCBCFA8CFC4FEA4C0ED0
:1041100004FA0EFC27EA0C0792FAA2FCBCFA8CFC0B
:104120004FEA4C0C05FA0CF52F438760CF680D68F9
:10413000D0F804C02CEA050C7D434CEA050CC0F80D
:1041400004C00F69D0F80CC092FAA2F5B5FA85F553
:104150004FEA450E04FA0EF52CEA050C92FAA2F588
:10416000B5FA85F56D00AF404CEA070CC0F80CC0FD
:104170004D68022D2FD1FF2A15D8D1F814C0056A39
:1041800092FAA2F7B7FA87F7BF0006FA07F7BD431E
:1041900092FAA2F7B7FA87F7BF000CFA07FC45EAD4
:1041A0000C05056217E0D1F814E0476A150A95FA84
:1041B000A5FCBCFA8CFC4FEA8C0C06FA0CFC95FAB8
:1041C000A5F5B5FA85F5AD0027EA0C070EFA05FE50
:1041D00047EA0E0747624D68076892FAA2FCBCFAEC
:1041E0008CFC4FEA4C0C04FA0CFE27EA0E0792FAFC
:1041F000A2F200E005E0B2FA82F2520095402F43AD
:1042000007605B1C0A6832FA03F57FF470AF002088
:10421000F0BD0069814301D0002070470120704744
:1042200030B5C1F3090102F400621143DDE9035422
:10423000DAB241EA024129432143426821F00041B8
:104240004FF4806303EA5453034C03F6FF332343D4
:104250009A430A43426030BD0070FF0310B5026804
:1042600022F001020260D1E90232046843EA02222C
:1042700024F4F854144304604A680261026842F06E
:1042800001020260826822F4004282608B690A693E
:1042900084681A436FF30A04144384600A691AB1EC
:1042A000826842F4004282600A68036823F4401383
:1042B000134303604969426822F400420A434260A2
:1042C000002010BD70B500241F49204D4FF400465A
:1042D000C02803D0B0F5407F1CD019E0D1F8880089
:1042E00000F0C00040F440004038B0F5400027D056
:1042F000402804D080281CD106E0044608E000F0E5
:1043000083F828B12C4603E000F086F800B134466B
:10431000204670BDD1F888000D4900F4407040F08F
:10432000407040180CD0B0F5807FE8D0B0F5007F29
:10433000EAD001F09FF901F06DF901F07BF9DCE7BB
:1043400001F098F9D9E70000001002400024F400C1
:1043500000FFFFFC70B5002429492A4D4FF40046A8
:10436000032804D00C281AD030282FD040E0D1F8F0
:1043700088006FF4403100F0030040F440304018F2
:104380000AD0012836D002282ED001F073F901F0AE
:1043900041F901F05FF917E001F06CF914E0D1F890
:1043A000880000F00C0040F44020001FB0F54020D1
:1043B000F2D004281ED0082816D000BF01F05AF908
:1043C00001F028F901F036F9044611E0D1F888002F
:1043D00000F0300040F440101038B0F54010DBD051
:1043E000102807D02028E9D100F016F800B1344693
:1043F000204670BD00F008F80028F9D02C46F7E7F9
:10440000001002400024F40002480068C0F380203D
:1044100070470000001002400248D0F89000C0F33E
:10442000400070470010024003498A6822F0F00201
:1044300002438A607047000000100240044951F8AE
:10444000882F22EA104280B202430A6070470000BF
:104450000010024010B503680122C3F3801373BB40
:10446000D1E900231A43D1E9033423431A434B69AA
:104470001A438B691A43CB691A430B6A1A430368C0
:104480004FF6BF74A3431A430260426840F60473B8
:104490009A434B6942EA13428B681A4342608A6826
:1044A000B2F5006F03D2426842F4805242600A6A59
:1044B000B2F5005F02D1898C89B201610022C16925
:1044C00021F40061C161104610BD0000014908607F
:1044D000704700007400002010B5012925D0042980
:1044E00025D0102925D0402925D0B1F5807F24D0B2
:1044F000B1F5806F23D0B1F5805F22D0B1F5804F48
:1045000021D0B1F5803F20D00921114B18305B5CE0
:10451000184403680E4C0A34615C03248C40120C6E
:10452000A3438A401343036010BD0021EDE701213E
:10453000EBE70221E9E70321E7E70421E5E70521AD
:10454000E3E70621E1E70721DFE70821DDE70000D7
:10455000A89D000810B5012925D0042925D01029CF
:1045600025D0402925D0B1F5807F24D0B1F5806FCA
:1045700023D0B1F5805F22D0B1F5804F21D0B1F5C5
:10458000803F20D00921114B18305B5C1844036830
:104590000E4C0A34615CF0248C40120CA3438A4018
:1045A0001343036010BD0021EDE70121EBE7022179
:1045B000E9E70321E7E70421E5E70521E3E7062131
:1045C000E1E70721DFE70821DDE70000A89D0008FB
:1045D00010B501291FD004291FD010291FD0402950
:1045E0001FD0B1F5807F1ED0B1F5806F1DD0B1F521
:1045F000805F1CD0B1F5804F1BD0B1F5803F1AD041
:104600000921036A0D4C615C0A248C40A3438A4053
:104610001343036210BD0021F3E70121F1E70221FA
:10462000EFE70321EDE70421EBE70521E9E70621A8
:10463000E7E70721E5E70821E3E70000BC9D000864
:1046400010B5012925D0042925D0102925D04029CD
:1046500025D0B1F5807F24D0B1F5806F23D0B1F59E
:10466000805F22D0B1F5804F21D0B1F5803F20D0BE
:104670000921114B18305B5C184403680E4C0A3456
:10468000615C0C248C40120CA3438A4013430360EA
:1046900010BD0021EDE70121EBE70221E9E703214D
:1046A000E7E70421E5E70521E3E70621E1E7072144
:1046B000DFE70821DDE70000A89D00082DE9F04FA5
:1046C00002682A4B2A4E2B4FDFF8ACC02B4C2C4DE6
:1046D0004FF0804B98420BD0584509D0B04207D0DC
:1046E000B84205D0604503D0A04201D0A84205D110
:1046F000D1F8048022F0700242EA0802DFF88480D8
:10470000DFF88490DFF884A0984211D058450FD08C
:10471000B0420DD0B8420BD0604509D0A04207D0BE
:10472000404505D0484503D0504501D0A84203D1AB
:10473000CE6822F44072324302608A68C2620A88FC
:104740008262984209D0A04207D0404505D0484532
:1047500003D0504501D0A84201D1096901634169E4
:1047600041F0010141610020BDE8F08F002C0140C3
:104770000004004000080040000C004000340140EC
:104780000050014000400140004401400048014009
:104790002DE9F041044600680D46012610F0010F96
:1047A00052D12969A868EA69084369691143084335
:1047B00021682E4A114008432060E868616821F4AE
:1047C000405101436160A869A16821F4407101432F
:1047D000A1602748844201D1032008E02548844293
:1047E00001D10C2003E02448844203D13020FFF79C
:1047F000B1FD0BE02148844201D1C02004E02048F3
:1048000084421AD14FF44070FFF75CFDA8B169688B
:1048100099B12A680026EB690B2A0ED8194FD2B23B
:10482000B3F5004F57F82220B0FBF2F00FD000EBA9
:104830005100B0FBF1F080B2E0602888E16A80B2FC
:1048400021F00F010143E1623046BDE8F0814000F4
:1048500000EB5100B0FBF1F081B24FF6F07201EACB
:104860000200C1F342010843E6E70000F369FFEFED
:10487000003801400044004000480040004C004027
:1048800000500040C89D000810F1080050E8002FBB
:1048900022F0606242EA416240E80023002BF5D139
:1048A0007047000010F1080050E8002F61F35F72BC
:1048B00040E80023002BF7D170474FF47A7003F0E3
:1048C00099BA30B589B01446B0F5005F0AD24CB140
:1048D000202C07D8C20605D1420952010319203203
:1048E0009A4202D2032009B030BD020A8DF800209E
:1048F0008DF8010000206A4604E00B5C1518401C8E
:10490000AB7080B2A042F8D34FF47A7003F072FA21
:104910000028E8D1A41CA1B20122684603F00CFAD9
:104920000028E0D10A2003F065FADCE738B50D462F
:10493000010A8DF800104FF4005114468DF8010063
:10494000884203D214B12044884201D9032038BDE3
:104950004FF47A7003F04EFA0028F8D100220221B9
:10496000684603F0E9F90028F1D12146284603F012
:10497000A1F938BD2DE9F041064615460F46002045
:104980000BE02C4622463946FFF79BFF00280FD14B
:10499000291B8DB231198EB22744002D08D026F084
:1049A0001F00311AC1F120018CB2A542EAD2E8E71A
:1049B000BDE8F0812DE9F04F87B018216846FBF77C
:1049C0008AFF0420FFF74EFB2020FFF74BFB01205E
:1049D000FFF748FB0220FFF745FB4FF0904704200C
:1049E000B8610820B861544E0420B0628002B06201
:1049F0004FF40059C6F828900820B0611020B86123
:104A00000120B0610024CDE90094DFF83081054633
:104A10000490694640460294FFF760FB4FF48040E3
:104A2000CDE900040495694640460294FFF756FB21
:104A30007001CDE900040495694640460294FFF7F1
:104A40004DFB4FF0040A4FF00208CDE90284CDE996
:104A500000A5694638460494FFF740FB0820CDE9DD
:104A60000005CDE90284694604943846FFF736FB19
:104A70001020CDE90005CDE902846946049438464A
:104A8000FFF72CFB4FF0400BCDE900B404956946CD
:104A900038460294FFF722FB0095CDE901540394B8
:104AA000694630460494FFF719FBCDE9008404956C
:104AB000694630460294FFF711FBCDF800A0CDE91E
:104AC00001540394694630460494FFF707FB4FF402
:104AD00080500090CDE90154039469463046049417
:104AE000FFF7FCFACDF80090CDE901540394694634
:104AF00030460494FFF7F2FA4FF48070CDE90004D9
:104B00000495694638460294FFF7E8FA08200090B9
:104B1000CDE901540394694630460494FFF7DEFA68
:104B2000CDE900B40494694630460294FFF7D6FA02
:104B300007B0BDE8F08F00000004004800080048FE
:104B40002DE9F0418EB01C2106A8FBF7C4FE182108
:104B50006846FBF7C0FE2C4801684FF0030821F4BB
:104B60004051002401600120FFF788FA0220FFF77E
:104B700085FA4FF4004002260125CDE900060427FE
:104B8000CDE90285CDE9045769464FF09040FFF723
:104B9000A5FA8020CDE90006CDE90285CDE90457CC
:104BA00069461A48FFF79AFA17488838816D41F428
:104BB00000118165806D099400F400100D90144877
:104BC0000894CDE906400A940B940C94114C06A964
:104BD0002046FFF743FB606840F000706060E068CB
:104BE00040F2FE718843E060E06820F40040E0603D
:104BF000206820F400202060206820F4003020602D
:104C00000EB0BDE8F08100008810024000040048AA
:104C1000C285B240005400402DE9F04192B02821F5
:104C200006A8FBF758FE18216846FBF754FE2E48ED
:104C3000016E41F480510166016E01F480511091C2
:104C4000C16C41F00101C164C06C022500F001009B
:104C5000109020200024CDE9000503260527CDE98A
:104C60000264CDE904474FF0904869464046FFF79B
:104C700035FA8020CDE90005CDE90264CDE904478D
:104C800069464046FFF72AFA184E3068C0F3801094
:104C900018B1306820F0400030604FF4404006907A
:104CA0004FF4827007904FF4E060CDE908050120D1
:104CB0000A9040020B901820CDE90C0407200F90B9
:104CC00006A93046FFF7C6FB706820F01000706040
:104CD000706820F008007060306840F0400030607C
:104CE00012B0BDE8F0810000001002400030014029
:104CF0002DE9F0418CB0142106A8FBF7ECFD18213A
:104D00006846FBF7E8FD3F484FF48038016E41F4F8
:104D100080310166006E00F480300B900220FFF7B6
:104D2000B9F94FF48040009002250024CDE90154E8
:104D30000126354FCDE90446694638460394FFF70E
:104D4000CDF9A8030090CDE90154CDE904466946A8
:104D500038460394FFF7C2F9ADF818404FF6FF70DC
:104D6000CDE9074009940A94284C06A92046FFF78C
:104D7000A5FC206820F080002060A068244908403D
:104D8000A060A0682349084040F00700A060E068E8
:104D900020F04000E060E06820F48040E06060685F
:104DA0001D4908406060A06820F08000A060424675
:104DB00001212046FFF790FB002201212046FFF74A
:104DC0003FFC002201212046FFF7C4FB0022012105
:104DD0002046FFF7FDFB424610212046FFF77CFBF3
:104DE000002210212046FFF72BFC00221021204634
:104DF000FFF7B0FB002210212046FFF7E9FB0CB0C3
:104E0000BDE8F0810010024000040048004001406D
:104E10008FFFCFFFF8BFFEFF8FFFFFFDF0B58BB018
:104E2000142106A8FBF757FD18216846FBF753FD30
:104E30000120FFF747F90120FFF72CF90124022692
:104E4000CDE900460025CDE904544FF0904769466E
:104E500038460294FFF742F90096CDE90164CDE9A6
:104E6000045469463846FFF739F9ADF818504FF643
:104E7000FF70CDE90750A40706A920460995FFF762
:104E80001DFC206820F080002060A0681C490840BC
:104E900040F00300A060A5132A4601212046FFF739
:104EA0001BFB002201212046FFF7CAFBA612324657
:104EB00001212046FFF74EFB002201212046FFF78B
:104EC00087FB2A4610212046FFF706FB002210210F
:104ED0002046FFF7B5FB324610212046FFF73AFB8C
:104EE000022210212046FFF773FB60680549084045
:104EF0006060A06820F08000A0600BB0F0BD0000F2
:104F0000F8FFFEFF8FFFFFFDF0B58BB0142106A860
:104F1000FBF7E1FC18216846FBF7DDFC0220FFF7F8
:104F2000D1F80220FFF7B6F81020022501268DE8FF
:104F300061002D4F002469463846CDE90445FFF74E
:104F4000CDF820208DE8610069463846CDE904455A
:104F5000FFF7C4F8ADF818404FF6FF70CDE90740F1
:104F60000994224C06A92046FFF7A8FB206820F0F0
:104F700080002060A0681E49084040F00300A06047
:104F8000A5132A4601212046FFF7A6FA0022012197
:104F90002046FFF755FBA602324601212046FFF7C7
:104FA000D9FA002201212046FFF712FB2A461021E0
:104FB0002046FFF791FA002210212046FFF740FB20
:104FC000324610212046FFF7C5FA02221021204662
:104FD000FFF7FEFA6068074908406060A06820F0AB
:104FE0008000A0600BB0F0BD000400480004004049
:104FF000F8FFFEFF8FFFFFFD2DE9F04190B020216B
:1050000006A8FBF768FC18216846FBF764FC4FF420
:105010004030FFF713FA3948016E41F480410166D0
:10502000006E00F480400E900120FFF73FF84FF42F
:1050300000700226CDE9000602AA03200024012503
:10504000072782E8B1004FF0904869464046FFF7D5
:1050500045F8A8020090CDE9016403AA694682E8F8
:10506000B0004046FFF73AF825480068C0F3022038
:10507000011D072901D2002000E0C01E04FA00F142
:105080000801204981F800041E4920202139C1F877
:1050900000014FF4E130CDE906400C20CDE90A4093
:1050A000089409940C940D94174C06A92046FFF718
:1050B0006FFB00212046FFF7F5FB00212046FFF79C
:1050C000E3FB206820F000502060606820F49040EE
:1050D0006060A06820F02A00A060206840F0010015
:1050E0002060E069C0F340500028FAD0E069C0F3C6
:1050F00080500028F5D010B0BDE8F08100100240CB
:105100000CED00E025E000E0003801402DE9F04121
:1051100090B0202106A8FBF7DEFB18216846FBF7BC
:10512000DAFB4FF44010FFF789F92F48816D41F405
:1051300080218165806D00F480200E900220FEF7B2
:10514000B5FF4FF4806002250024CDE90005032659
:105150000727CDE90264DFF89480CDE9044769466A
:105160004046FEF7BBFFA802CDE90005CDE9026489
:10517000CDE9044769464046FEF7B0FF4FF4E13001
:10518000CDE906400C20CDE90A40089409940C941E
:105190000D94174C06A92046FFF7FAFA0021204685
:1051A000FFF780FB00212046FFF76EFB206820F010
:1051B00000502060606820F490406060A06820F09B
:1051C0002A00A060206840F001002060E069C0F380
:1051D00040500028FAD0E069C0F380500028F5D094
:1051E00010B0BDE8F081000000100240000400484B
:1051F0000048004010B500220F49104801F007FB9D
:1052000008B1FDF713FE0E490C4801F0D6FC08B1B9
:10521000FDF70CFE0B49094801F060F908B1FDF7F4
:1052200005FE064801F044FD002803D0BDE810400B
:10523000FDF7FCBD10BD0000000000206407002049
:105240005401002054000020FEE77047FEE72DE9DE
:10525000F84F044640F68F7A40F2064B48F60F7836
:105260004FF000098BE1B0F8441011F00F053AD06F
:1052700030F8256031047DD530F8251001EA0A01A7
:1052800041F0800120F8251005EB850004EBC007F4
:1052900097F85C0107F5A87700286CD0F878022809
:1052A0006AD03978226832F8210048F68F731840A6
:1052B00048F2C003184322F821003878D4F800C01F
:1052C0003CF820104904BCF8501001EB0C027ED5CC
:1052D00040F2024101EBC000105A8005800D0090A1
:1052E00076D03A89A7E0C9062AD4018801EA0801E4
:1052F00041F400410180206804F11005B0F850101D
:10530000227C014440F2024000EBC200085AC0F384
:105310000900E062616A0844606200212046FDF7EE
:105320006FFE207B00289DD0A86900289AD1207BA1
:1053300040F080012068A0F84C1084F80C901EE129
:10534000018804F5A8750A051ED5B0F850100A1892
:1053500029780BEBC100105A04F52671C0F309033C
:10536000EB61EA88206802F06CFA2168088800EA9C
:105370000A0002E07BE03FE04EE040F08000088061
:105380002046FEF7BAFAFAE00904D8D5018801EA06
:105390000A0141F0800101802068B0F850102A789D
:1053A00008440BEBC201405A83059B0DEB610DD005
:1053B000696959B1EA88206802F043FAE9696869C5
:1053C0000844686100212046FDF723FE01E02AE041
:1053D00028E0206801880A050DD4C1F301310329B2
:1053E00009D001884BF68F72114081F4405148F288
:1053F000800211430180C2E02068B0F850103B7871
:105400000A180BEBC301515A8905890D009117D079
:10541000FA887969009B11E0324639462046FDF74B
:1054200054FE00900CE00BEBC000105A8005800D7C
:10543000009005D07A8903466046796902F001FA46
:10544000F96900980844F86178690099084478611E
:10545000B86918B139690098814204D93978204671
:10546000FDF7D7FD03E03946206802F021F8300649
:105470002DD505EB850004EBC001206830F8252010
:1054800002EA080242F4004220F82520C87C1031CC
:1054900001281DD0F0056ED42068B0F850201318F4
:1054A0000A7840F2024000EBC200185A8A69C0F341
:1054B0000900824258D9121A8A6157D04A690244B7
:1054C0004A61CA691044C861206801F0F1FF56E0E2
:1054D000C1F818900A7B48461AB3720622D54A785A
:1054E00012B1012A14D041E02068B0F850201044D5
:1054F0000A7800EBC200B0F80224C2F30902A0F857
:105500000224B0F8022442F40042A0F802242DE064
:105510002268B2F850301A440B7802EBC302A2F8AA
:10552000020423E04B78226813B1012B13D01DE055
:10553000B2F8500010440A7800EBC200B0F806241C
:10554000C2F30902A0F80624B0F8062442F400428F
:10555000A0F806240AE0B2F850301A440B7802EBA7
:10556000C302A2F8060401E0C1F8189009782046A9
:10557000FDF746FD03E032462046FDF714FE2068A5
:10558000B0F8441009043FF56EAE0020BDE8F88F76
:105590002DE9F04705002ED0287800282BD00024D4
:1055A000DFF85880164E12E058F834703846FBF792
:1055B00087F88146024639462846FBF7A0F820B90D
:1055C00015F809003A280CD058B1641CE4B23078C0
:1055D0008442E9D3716800290DD00AA0BDE8F047E4
:1055E000084728463A21FBF761F800B1401C08EB58
:1055F000C4014968F2E7BDE8F0870000009E002082
:1056000038020020556E6B6E6F776E20636F6D6D84
:10561000616E640005498968054A01F0F0010909D5
:10562000515C01F01F01C8407047000000100240AB
:10563000F89D000805498968054A01F4E06102EB1C
:105640001121097801F01F01C84070470010024085
:10565000089E000805498968054A01F4605102EB7B
:10566000D121097801F01F01C840704700100240A5
:10567000089E00081549886800F00C031448042BA4
:105680000DD04210082B09D00C2B08D1CB6803F0A9
:105690000303022B05D0032B03D101E01046704712
:1056A0001046CA68C2F306224243C868C96800F0BF
:1056B000F003012000EB1313B2FBF3F201F0C06121
:1056C00000EB51604000B2FBF0F070470010024068
:1056D0000024F40070B5074D002400BF05EBC400A2
:1056E000416855F8340000F007F8641C052CF5D328
:1056F00070BD0000400200202DE9F041164C064626
:105700000F462078102805D227B11EB10025DFF8FA
:105710004C800DE06168002915D011A019E000BF90
:1057200058F835003146FBF7FDF870B16D1CEDB24D
:1057300020788542F4D3C0B208EBC00148F830604D
:10574000401C4F602070BDE8F08161680029FAD0EC
:105750000AA0BDE8F041084738020020009E002062
:10576000436F6D6D616E64207265676973747261F9
:1057700074696F6E206661696C656400436F6D6D5E
:10578000616E6420616C726561647920657869730B
:10579000747300000CB50221CDE900010021EF2354
:1057A00040F23F12084600F001F80CBDF8B5141A9B
:1057B000DDE906575E1A641C761C74432E0AEDB2AE
:1057C000009700F0F3F84FF0904310209862082003
:1057D000986112498868C0F340000028FAD0002080
:1057E000621E10E00E73904204D28F68C7F3400728
:1057F000002FF8D00D73904204D28F68C7F3400792
:10580000002FF8D0401CA042ECD38868C0F3C01031
:105810000028FAD110209861F8BD00000030014046
:1058200010B54FF0904488B00420A061012003F02F
:105830000FF80420A0620A2003F00AF80420A061F7
:10584000C82003F005F81020A062112000F01EF916
:10585000C82002F0FDFF362000F018F9702000F09B
:1058600047F93A2000F012F9552000F041F90A20DA
:1058700002F0EEFFB22000F009F90C2000F038F938
:105880000C2000F035F9002000F032F9332000F050
:105890002FF9332000F02CF9B72000F0F7F875202D
:1058A00000F026F9C22000F0F1F8012000F020F904
:1058B000C32000F0EBF8162000F01AF9C42000F025
:1058C000E5F8202000F014F9C62000F0DFF80F20E2
:1058D00000F00EF9D02000F0D9F8A42000F008F96B
:1058E000A12000F005F9D62000F0D0F8A12000F0AA
:1058F000FFF8BB2000F0CAF83B2000F0F9F8E020E8
:1059000000F0C4F818A10FC98DE80F000E216846F9
:1059100000F0C8F8E12000F0B9F817A30DF1100C61
:105920000FCB8CE80F000E2104A800F0BBF8E42098
:1059300000F0ACF8272000F0DBF8002000F0D8F8E9
:10594000002000F0D5F8292000F0A0F82C2000F06D
:105950009DF80A2002F07CFF0B490120886210208C
:10596000A06108B010BD0000F00B110E0D19363308
:105970004B0714142C2E0000F00D120B09033244B7
:10598000483916162D3000000004004806498A6880
:10599000C2F34002002AFAD008738868C0F3C0102E
:1059A0000028FAD170470000003001407CB54FF06C
:1059B00090451024AC620824AC62334CA668C6F350
:1059C0004006002EFAD02A262673A668C6F3C01613
:1059D000002EFAD10826AE61060A8DF800608DF817
:1059E0000100100A8DF802008DF8032000206E4699
:1059F000A268C2F34002002AFAD0325C2273401C33
:105A00000428F5D3A068C0F3C0100028FAD10820FC
:105A1000A862A068C0F340000028FAD02B202073B1
:105A2000A068C0F3C0100028FAD10820A861080AB5
:105A30008DF804008DF80510180A8DF806008DF811
:105A40000730002001AAA168C1F340010029FAD063
:105A5000115C2173401C0428F5D3A068C0F3C0106A
:105A60000028FAD10820A862A068C0F340000028EE
:105A7000FAD02C202073A068C0F3C0100028FAD1FF
:105A80001020A8617CBD00000030014010B54FF02F
:105A900090441021A1620821A162FFF777FF102036
:105AA000A06110BD70B54FF090441022A262082290
:105AB000A2610E4B9A68C2F34002002AFAD000227B
:105AC0004D1E09E0865C1E73AA4204D29E68C6F38E
:105AD0004006002EFAD0521C8A42F3D39868C0F3D5
