:020000040800F2
:1000000040AD00202504000839400008C12B00083D
:10001000B13F00080F1F00089364000800000000B3
:100020000000000000000000000000006503000860
:10003000D51F000800000000C10300083548000873
:100040003F0400083F0400083F0400083F04000884
:100050003F0400083F0400083F0400083F04000874
:100060003F0400083F0400083F0400083F04000864
:100070003F0400083F0400083F0400083F04000854
:100080003F0400083F0400083F0400083F04000844
:10009000256400083F0400083F0400083F040008EE
:1000A0003F0400083F0400083F0400083F04000824
:1000B0003F0400083F0400083F0400083F04000814
:1000C0003F0400083F0400083F0400083F04000804
:1000D0003F040008F14C00083F0400089D4D000853
:1000E0003F0400083F0400083F0400083F040008E4
:1000F0003F0400083F0400083F0400083F040008D4
:100100003F0400083F0400083F0400083F040008C3
:100110003F0400083F0400083F0400083F040008B3
:100120003F0400083F0400083F0400083F040008A3
:100130003F0400083F0400083F0400083F04000893
:100140003F0400083F0400083F04000800000000CE
:10015000000000000000000000000000000000009F
:100160000000000000000000000000003F04000844
:100170003F0400083F0400083F0400083F04000853
:100180003F0400083F0400083F0400083F04000843
:100190003F040008000000003F0400083F0400087E
:1001A0003F0400083F0400083F0400083F04000823
:1001B0003F0400083F0400083F0400083F04000813
:1001C0003F0400083F0400083F0400083F04000803
:1001D0003F0400083F04000800F002F800F0B2F805
:1001E0000AA090E8000C82448344AAF10107DA4592
:1001F00001D100F0A7F8AFF2090EBAE80F0013F032
:10020000010F18BFFB1A43F0010318476880000074
:10021000888000000A444FF0000C10F8013B13F0F6
:10022000070408BF10F8014B1D1108BF10F8015B4F
:10023000641E05D010F8016B641E01F8016BF9D142
:1002400013F0080F1EBF10F8014BAD1C0C1B09D199
:100250006D1E58BF01F801CBFAD505E014F8016B0B
:1002600001F8016B6D1EF9D59142D6D3704700009D
:100270000023002400250026103A28BF78C1FBD8AF
:10028000520728BF30C148BF0B6070476E2900F08D
:100290000584702900F07587662907F01B8765299A
:1002A00007F01887672907F01587612907F0148779
:1002B00003681B0A28BF41F08001692900F05881BA
:1002C000642900F05581752900F052816F2900F0F2
:1002D0000287782900F04187E92900F09D86E4290A
:1002E00000F09A86F52900F09786EF2900F0FF8646
:1002F000F82900F040870368DB0928BF41F080013E
:10030000632900F01E86732900F02386E32901F09B
:100310005581F32901F05A81002070471FB507F07D
:10032000D4FE00F039FF04000020002107F040FE59
:10033000401C60600020002107F024FEE0601FBD2B
:1003400010B510BD01F0DCF91146FFF7E7FF06F02C
:10035000ABF901F003FA03B4FFF7F2FF03BC01F0BD
:1003600007FA00002C4B19680868B0E8F04F80F3DA
:100370000988BFF36F8F4FF0000080F3118870473A
:100380000000000008480068006880F308884FF00B
:10039000000080F3148862B661B6BFF34F8FBFF3DD
:1003A0006F8F00DF00BF00BF08ED00E0DFF80C003A
:1003B000016841F470010160704700BF88ED00E002
:1003C000EFF30980BFF36F8F134B1A681EF0100F05
:1003D00008BF20ED108A20E9F04F106009B44FF0FB
:1003E000500080F31188BFF34F8FBFF36F8F06F07B
:1003F000EDFF4FF0000080F3118809BC1968086810
:10040000B0E8F04F1EF0100F08BFB0EC108A80F378
:100410000988BFF36F8F7047B4010020EFF30580A8
:10042000704700000948804709480047FEE7FEE79B
:10043000FEE7FEE7FEE7FEE7FEE7FEE7FEE7FEE794
:1004400004480549054A064B704700004949000821
:10045000D901000840A7002040AD002040A900209D
:1004600040A900207CB51D4616460C00009001D026
:100470002044401E074B7B442A4669460190304683
:1004800000F035FD05461CB10020694600F042FD34
:1004900028467CBDA50A00000FB47CB50C0009AA53
:1004A000009001D02044401E084B7B4469460190D7
:1004B000089800F01CFD05461CB10020694600F0BC
:1004C00029FD28467CBC5DF814FB0000710A000081
:1004D00070B5044685690068C10601D5302600E084
:1004E0002026C00707D070BDD4E9012130469047CF
:1004F000206A401C20626D1EF6D570BD70B50446A2
:1005000085690078C00707D170BDD4E9012120209A
:100510009047206A401C20626D1EF6D570BD70B5F4
:100520000C460546012A05D02878800600D5EA69E0
:10053000002302E0012305E05B1C934202D2E05C51
:100540000028F9D1A869E618C01AA861286A1844D9
:1005500028622846FFF7BCFF04E0D5E9012114F822
:10056000010B9047B442F8D32846FFF7C7FF70BD90
:100570002DE9F0410646002410687529314616A57C
:1005800010D000F020FA002802DA404213A507E05C
:1005900031688A0701D512A502E0490704D511A5E3
:1005A000012401E000F018FA00210A2206F12407D4
:1005B00009E0B0FBF2FCB0FBF2F302FB1C003030B0
:1005C00078541846491C0028F3D123462A46304661
:1005D000BDE8F04100F009BA000000002D00000065
:1005E0002B000000200000002DE9F05F8946044642
:1005F0004FF0000ADFF874B1FB44C0F820A0204699
:10060000E1688847002874D0252806D0D4E9012164
:100610009047206A401C2062F1E700265F46204692
:10062000E16888472028054607DB312D05D2781977
:1006300010F8200C08B10643F1E7B00701D526F009
:100640000406C4F81CA00027C4F818A02A2D09D05D
:10065000284605F08FFF38B304EB8708303DC8F813
:10066000185019E059F8041B204604EB87029161E9
:10067000E1688847012F054618D1E069002820DA93
:1006800026F020061DE0D8F8180000EB800005EBEE
:1006900040003038C8F818002046E1688847054611
:1006A00005F068FF0028EED1012F0AD02E2D08D1C9
:1006B0002046E16888477F1C0546022F46F0200649
:1006C000C4DBA069002803DA404246F00106A061BD
:1006D000F00701D026F010066C2D0BD0682D09D044
:1006E0004C2D39D06A2D35D0742D35D07A2D33D09C
:1006F00016E038E0E1682F4620468847B8420546B4
:1007000009D16C2F26D04FF48060E1680643204663
:100710008847054604E06C2F1AD04FF480700643DA
:100720000DB3A5F14100192802D8203546F4006622
:100730004A462946204626604E46FFF7A7FD80B16F
:1007400001280BD0F61D26F0070000F1080956E736
:100750004020E4E78020D8E70020D6E706F104092E
:100760004DE7284652E7206ABDE8F09F787B0000FD
:1007700010B5431C02E010F8011B71B18107FAD1DA
:100780004FF0013202C88C1A8C4314EAC211F9D01E
:10079000C01A0A0603D0C01E10BDC01A10BD0A043C
:1007A00001D0801E10BD0902FCD0401E10BD032ADE
:1007B00040F2308010F0030C00F0158011F8013B7E
:1007C000BCF1020F624498BF11F801CB00F8013B65
:1007D00038BF11F8013BA2F1040298BF00F801CB29
:1007E00038BF00F8013B11F0030300F02580083A00
:1007F000C0F0088051F8043B083A51F804CBA0E857
:100800000810F5E7121D5CBF51F8043B40F8043BAB
:10081000AFF30080D20724BF11F8013B11F801CBE0
:1008200048BF11F8012B24BF00F8013B00F801CBB1
:1008300048BF00F8012B704710B5203AC0F00B807C
:10084000B1E81850203AA0E81850B1E81850A0E8D4
:100850001850BFF4F5AF5FEA027C24BFB1E818502E
:10086000A0E8185044BF18C918C0BDE810405FEA9E
:10087000827C24BF51F8043B40F8043B08BF70471A
:10088000D20728BF31F8023B48BF11F8012B28BF1F
:1008900020F8023B48BF00F8012B704702F0FF032D
:1008A00043EA032242EA024200F002B84FF000029B
:1008B0000429C0F0128010F0030C00F01B80CCF172
:1008C000040CBCF1020F18BF00F8012BA8BF20F8E0
:1008D000022BA1EB0C0100F00DB85FEAC17C24BF34
:1008E00000F8012B00F8012B48BF00F8012B7047DE
:1008F0004FF0000200B5134694469646203922BFB9
:10090000A0E80C50A0E80C50B1F12001BFF4F7AF03
:10091000090728BFA0E80C5048BF0CC05DF804EBE5
:10092000890028BF40F8042B08BF704748BF20F853
:10093000022B11F0804F18BF00F8012B7047000008
:100940004FF0013C50F8042B51F8043B9A4221D15E
:10095000A2EB0C03934313EACC1317D150F8042BEA
:1009600051F8043B9A4215D1A2EB0C03934313EACE
:10097000CC130BD150F8042B51F8043B9A4209D107
:10098000A2EB0C03934313EACC13DBD04FF000002F
:10099000704700BFD01A01BAB1FA81F101F0180115
:1009A00022FA01F0CB40C1F12001DBB2C0B2C01A83
:1009B0002CFA01F3D11A914311EAC311E6D1704721
:1009C00070477047704709684A0501D540B27047C3
:1009D000C905FCD500B2704709684A0501D5C0B207
:1009E0007047C905FCD580B270472DE9F0470D4628
:1009F00099469246044600F124080168880604D509
:100A0000E06921F01001216000E00120A84201DD31
:100A1000471B00E00027A1697A1902EB0900081AB8
:100A2000A0612078C00602D42046FFF751FD0026C1
:100A300008E0D4E901211AF806009047206A401C1A
:100A4000761C20624E45F4DB2078C0060AD520468D
:100A5000FFF73EFD06E0D4E9012130209047206AEF
:100A6000401C2062381EA7F10107F4DC07E0D4E93E
:100A7000012118F805009047206A401C2062281EBA
:100A8000A5F10105F3DC2046FFF738FD20780006CC
:100A900002D50220BDE8F0870120FBE7116802685B
:100AA000006A530501D508700AE0D30501D5088016
:100AB00006E0130603D5C217C1E9000200E0086092
:100AC0000120704770472DE9FF4F0C461E464FF03E
:100AD000FF378BB0D2E90001DDF860800A908A46CA
:100AE000C1F30A5505B93D46002108464FF0000004
:100AF000BAF1000F00F4400005DA00EB80004FF47B
:100B0000400101EA50004FEA9059B9F1010F00DDB0
:100B1000B9460A9850EA4A000ED044F61050A5F2A1
:100B2000FF3545432F14B8F1000F1ED07542291E22
:100B30001EDDC9F100021CE0B8F1010F4FF000000A
:100B400001D0302103E0F24305E02154401CB042C3
:100B5000FBDB30460022002121540B99C1F80880AC
:100B6000C1E900200FB0BDE8F08FBD1B6D1CDEE7B2
:100B70004A4600DA694206A800F02CFD06AB93E86D
:100B8000070003AB83E8070050460A9900F0F7FD21
:100B90008DE80700A0F500501F3800900398002D45
:100BA0000ADD42F21F014A460844002303A90390CC
:100BB000684601F060F809E0A0F500504A461F3889
:100BC000002303A90390684601F06AF88DE8070046
:100BD0000004000C03D04FF0FF30410800E0104645
:100BE000B8F1000F03D00022009215461EE0751EDA
:100BF00005D400F0D5FA303262556D1EF9D5B346F2
:100C00000122084302D000227F1C04E02078302813
:100C100001D100227F1E002A099784D01DE0112DEA
:100C200007DA00F0BDFA303262556D1C50EA01025D
:100C3000F5D1084302D00098C8B10EE00021681E2B
:100C400005E0235C625C63542254401E491C8142CF
:100C5000F7DBAB46A81B401E0990002004F80B00F0
:100C60000B98099AC0F80880C0E9002B7AE7112692
:100C70004FF0000857E72DE9F04F88460446D21D93
:100C800022F0070191B0D1E90001CDE90A0105F098
:100C900049FC02460B98C00F01D02D2007E02068C8
:100CA000810701D52B2002E0202101EAC000032AA0
:100CB000099001D0072A05DB03464146204600F093
:100CC00033FC0BE12078800601D5E06900E00620C6
:100CD000B8F1650F814606D0B8F1660F18D0B8F1AB
:100CE000670F70D131E00020B9F1110F009001DBE6
:100CF000112301E009F101030AAA01A90CA8FFF7D9
:100D0000E2FEDDE90C70002609F10105834647E0AB
:100D100001204B4600904FF000470AAA01A90CA8F9
:100D2000FFF7D1FEDDE90DB00C995D46002610B944
:100D300009F101000D18B9EB050003D4C0F1FF362D
:100D400009F10105A5EB09002BE0B9F1010F01DA6A
:100D50004FF001090020B9F1110F0090484601DD64
:100D6000112300E003460AAA01A90CA8FFF7ABFE75
:100D7000DDE90C704D4600268346207800070AD432
:100D8000AB4500DA5D4601A8012D04DD411911F8DB
:100D9000011C302907D04F4502DA17F1040F04DA9D
:100DA000012082460FE06D1EEEE7002F02DCED1BF6
:100DB0003E4403E0781CA84200DD7D1CB81B00F116
:100DC000010A4FF000472078000703D4AA4501DB51
:100DD0004FF0FF3A0021B7F1004F0DF143088DF8B5
:100DE000431024D002202B23002F01DA7F422D2331
:100DF0000A21021EA0F1010000DC5FB197FBF1FCAB
:100E000097FBF1F201FB1C7C17460CF1300C08F843
:100E100001CDEEE7A8F1010003702188090501D595
:100E2000452100E06521A0F1010800F8011C0998A6
:100E30000FA9A1EB0807FF1D00B10120411901EB2B
:100E4000EA70A1693844081A401EA0612078C006E3
:100E500002D42046FFF73CFB099828B1D4E90121D0
:100E60009047206A401C20622078C00622D5204688
:100E7000FFF72EFB1EE0002E04DBB34502DD01A8C8
:100E8000805D00E03020D4E901219047206A401CB9
:100E90002062761CAAF101005FEA000A0AD100F084
:100EA0007BF9C0680168405CD4E901219047206A61
:100EB000401C2062281EA5F10105DCDC07E0D4E916
:100EC000012118F8010B9047206A401C2062381E4F
:100ED000A7F10107F3DC2046FFF710FB032011B058
:100EE00041E6000001694A1C02610878704700B5BC
:100EF0008FB0CDE901310021059105497944CDE953
:100F0000031011466846FFF76FFB0FB000BD0000ED
:100F1000E5FFFFFF0A6802F8010B0A607047D1E99C
:100F200000239A4202D2531C0B601070704710B518
:100F3000436913B1AFF3008001E0FFF7F0FA01203D
:100F400010BD127800F124010A7000224A700122BB
:100F5000EDE711684FF0FF32E9E700002DE9FF5F90
:100F600015468A460446DFF8AC80F8440027D8E9E5
:100F700000103E46CDE9001010E03AF816106A461F
:100F800002A800F099FB411C07D02178890603D5FF
:100F9000E269391891420DD80744761C2078800602
:100FA00002D5E069B84205DDAE42E6DB3AF816004C
:100FB0000028E2D1A069C01BA0612046FFF788FA93
:100FC000D8E90010CDE90010002017E03AF8181019
:100FD0006A4602A800F070FBB0F1FF3F81460BD0DB
:100FE00000250DF1080B05E0D4E901211BF80500EF
:100FF00090476D1C4D45F7D308F10100B042804683
:10100000E4DB206A384420622046FFF777FABDE827
:10101000FF9F00001A7200002DE9F0418046D21DAA
:1010200022F007020025D2E90002F52915A614D006
:10103000011E72F1000106DA0023D0EB030063EB1E
:10104000020211A608E0D8F800108B0701D50FA600
:1010500002E0490701D50EA601251146002408F13A
:10106000240704E000F09CF830323A55641C50EA42
:101070000102F7D12B46324621464046BDE8F041F9
:10108000FFF7B3BC000000002D0000002B000000A3
:101090002000000030B4002100F1240408E002F038
:1010A0000705D208303542EA4372DB086554491C13
:1010B00052EA0305F3D10468002310A2250707D5DF
:1010C000A40600D421B1C46901230DA2641EC46129
:1010D00030BCFFF78ABC10B5044621461068FFF704
:1010E0007BFC02462046BDE810400023D2E7D21D1B
:1010F00022F00701D1E90023CCE700000000000046
:1011000030000000F0B40D460188090502D5214CDD
:101110007C4402E01F4C7C440E34002100F1240684
:1011200008E002F00F071209E75D42EA03721B09AB
:101130007754491C52EA0307F3D1027800231207BF
:1011400004D5702D06D009B1022311342246F0BC1B
:10115000FFF74BBC01231034F8E770B504460D4689
:1011600021461068FFF738FC024629462046BDE8B4
:1011700070400023C6E7D21D22F00703D3E9002305
:10118000C0E70368126843F0200303600823C361CB
:101190000023B7E77C70000000487047FCA60020E1
:1011A00030B5B0F10A024FEA900E71F100034EEA39
:1011B000817EB0EB0E0061EB91014FEA101E4EEA0A
:1011C000017E10EB0E0041EB11114FEA102E4EEA9A
:1011D000016E10EB0E0041EB11214FEA104E4EEA6A
:1011E000014E10EB0E0041EB1141401841F100019E
:1011F0004FEAD00040EA41704FEAD10110EB800580
:101200004FEA810444EA907444EB01046D1944EB05
:101210000404521BA3414FF0000348BF0A3200D51B
:1012200030BD401C41F1000130BD00002DE9F04F00
:1012300004460D46D21D22F0070089B0D0E9009780
:101240004846394605F06EF90246F80F01D02D23C5
:1012500007E02068810701D52B2302E0202101EA65
:10126000C0038DF820300BB1012000E00020032ADC
:10127000824601D0072A04DB2946204600F054F9B3
:101280003FE12078800601D40D2500E0E569C7F331
:101290000A560D2D49DA00214FEA175B08464FF038
:1012A0000000002F00F4400007DA00EB80004FF44C
:1012B000400100EBD07001EA60008115012901DDD9
:1012C0004FF0FF3100224FEA850CBCF1180F06D316
:1012D0001346ACF118004FF08052C24003E04FF4C7
:1012E000801323FA0CF30CF10C0CBCF1200F04D387
:1012F000ACF1200C09FA0CF001E007FA0CF000291F
:101300004FF0004801DD18B90FE00ED140450CD375
:1013100019EB02095F4121B9404502D19F4329EAF7
:101320000209BBEB175F00D0761C2088000502D5B0
:101330007B48784402E07A487844193808AA302378
:1013400002F80A30037C0AF10101002E0AF1020AB8
:1013500053546A4602DC4FF0300101E04FF0310196
:101360004FF001088DF8001002D0A6F2FF3603E01E
:1013700059EA470100D06B4E002D02DC21780907A5
:1013800004D54FF002082E218DF80110C44600212B
:101390000BE0C7F303433F01C35C491C6D1E02F819
:1013A0000830052908F1010801DA002DF1DC0021DF
:1013B0000CE000EB1973491C1B786D1E082902F81C
:1013C00008304FEA091908F1010801DA002DF0DCB4
:1013D00021688B0602D516E0A8F10108E04505DD7D
:1013E00002EB080313F8013C302BF5D0B8F1000FE5
:1013F00009DD02EB080313F8013C2E2B03D109078A
:1014000001D4A8F10108002D05DD3E2102F80810E5
:101410006D1E08F10108407C002E02F8080008F15A
:10142000010804DA2D20764202F8080002E02B20A1
:1014300002F808000A214FF47A70864208F1010888
:101440000BDB96FBF0F3303302F8083096FBF0F339
:1014500008F1010800FB136601E0642E0CDB642038
:1014600096FBF0F3303302F8083096FBF0F308F106
:10147000010800FB136601E00A2E06DB96FBF1F083
:10148000303002F8080008F1010896FBF1F001FB8A
:101490001060303002F80800A16908F1010808EB7B
:1014A000050202EB0A00081AA0612078C00602D4E7
:1014B0002046FFF70DF8216A08AE01EB0A00206212
:1014C00004E0D4E9012116F8010B9047BAF1010AB2
:1014D000F7D22078C00602D52046FEF7F9FF6E4607
:1014E00009E016F8010B3E280FD0D4E901219047FE
:1014F000206A401C2062B8F10108F2D22046FEF7B3
:10150000FDFF09B00320BDE8F08F206A2844206267
:1015100003E0D4E90121302090476D1EEBD3F8E7BA
:10152000956E000002FCFFFF2DE9F0411F460446C6
:1015300003260168072A01F4006004DB08B116A540
:1015400005E016A503E008B115A500E015A521F0FA
:1015500010002060A069C01EA0610FB1401EA061F4
:101560002046FEF7B5FF4FB1D4E901213846904738
:10157000206A401C2062C01C206206E0206AFAE754
:10158000D4E9012115F8010B9047761EF8D22046C8
:10159000FEF7B4FFBDE8F0814E414E006E616E0073
:1015A000494E4600696E660010B5436913B1AFF34A
:1015B000008001E0FFF7D2FC012010BD128800F18D
:1015C000240182840022C2840122EDE711684FF0D9
:1015D000FF32E9E72DE9F047814616468AB03548E3
:1015E00078440DC88DE80D0032487844801C03AC67
:1015F0000DC884E80D0041F69B300844372190FB6C
:10160000F1F290FBF1F5A5F1800501FB12041B3C02
:1016100002D56442012000E00020DFF898A0804657
:101620000027FA44AAF1BE0A0EE0E0070AD03246CB
:10163000684607EB470101230AEB810100F030FB0C
:101640008DE8070064107F1C002CEED1194F7F44F9
:10165000AE3F19E0E80715D007EB04100DF1180AAA
:1016600090E80E008AE80E00C068F04201D1981997
:1016700008903246012306A903A800F011FB03AB32
:1016800083E807006D10641C002DE3D14FF00103C7
:1016900032466946B8F1000F03A802D000F0EBFA19
:1016A00001E000F0FDFAC9E90001C9F808200AB01C
:1016B000BDE8F087786C000070B516460C4605460C
:1016C00000F044F8036893F80101012806D0FF2CCC
:1016D0000FD8185D68B101202C7070BDD3F80701D8
:1016E0003246214603F2071303442846BDE8704002
:1016F00018474FF0FF3070BD00487047DCA600204F
:101700007546FFF7F9FFAE4605006946534620F0DF
:101710000700854618B020B5FEF792FEBDE82040D0
:101720004FF000064FF000074FF000084FF0000B9D
:1017300021F00701AC46ACE8C009ACE8C009ACE850
:10174000C009ACE8C0098D467047000010B5FFF72E
:1017500023FD001D10BD00BF5968000010B50446F0
:10176000AFF300802046BDE81040FEF7F4BD000056
:1017700001491820ABBEFEE72600020070475FEA71
:10178000400C08BF91F0000F4FEA8C234FEAC122B2
:1017900043EA51514FEA1C5018BF00F5F0404FEAA0
:1017A000300018BF41F000415FEA6C5C00F0298016
:1017B000BCF1FF3F08BF40F080407047130C06BFEC
:1017C00012044FF0100C4FF0000C130E04BF120265
:1017D0000CF1080C130F04BF12010CF1040C930F51
:1017E00004BF92000CF1020CD30F04BF52000CF1A5
:1017F000010C11464FF00002A0F11F00A0EB0C00FD
:10180000704711F0004F08BF704731F000413FF4BE
:10181000D5AF0B0C06BF09044FF0100C4FF0000CB5
:101820000B0E04BF09020CF1080C0B0F04BF0901D9
:101830000CF1040C8B0F04BF89000CF1020CCB0FD0
:1018400004BF49000CF1010CCCF12003A0EB0C000B
:1018500022FA03F302FA0CF241EA030100F101005B
:10186000704720F07F4C80EA030023F07F47ACEB09
:10187000070303F57C5300F0004003F1FF032DE95B
:1018800080494FEA154B09B44FEA144325EA0B4E41
:1018900024EA03480FF2042606EB132749083E7892
:1018A0005FEA320203FB0667C7F5000707FB06F68F
:1018B0004FEA54374FEAD64606F1020607FB066C9C
:1018C000CCF1005C4FEA1C472CEA074C07FB06F4FE
:1018D0000CFB06F504EB15464FEA961634BF0020C4
:1018E0004FF000404FEAD13706FB07FC4FEA1C4C93
:1018F0000CFB0BF7D21B03FB0CF761EB07010CFB96
:101900000EF7B0EB074072EB17420CFB08F734BF41
:10191000A2EB0742B2EB074261EB17414FEA0C44DE
:101920004FEA910706FB07FC4FEA1C4C0CFB0BF738
:10193000B0EBC74072EB573203FB0CF734BFA2EB9E
:10194000C742B2EBC74261EB57310CFB0EF7B0EB6D
:10195000C70072EB57720CFB08F734BFA2EBC7024B
:10196000B2EBC70261EB5771039F4FEA816141EA15
:10197000921104EBCC044FEAD1374FEA826206FBA6
:1019800007FC42EA90124FEA80604FEA1C4C0CFBC5
:101990000BF7D21B03FB0CF761EB07010CFB0EF7F7
:1019A000B0EB074072EB17420CFB08F734BFA2EB19
:1019B0000742B2EB074261EB17414FEA8C554FEA01
:1019C000910704EB9C2406FB07FC4FEA1C4C0CFB24
:1019D0000BF7B0EBC74072EB573203FB0CF734BF89
:1019E000A2EBC742B2EBC74261EB57310CFB0EF7DB
:1019F000B0EBC70072EB57720CFB08F734BFA2EBD9
:101A0000C702B2EBC70261EB577115EB4C254FEAE9
:101A1000816141EA92114FEA82624FEAD13742EA8C
:101A2000901206FB07FC44F100044FEA80604FEA85
:101A30001C4C0CFB0BF7D21B03FB0CF761EB0701F3
:101A40000CFB0EF7B0EB074072EB17420CFB08F7EC
:101A500034BFA2EB0742B2EB074261EB174115EB33
:101A60001C154FEA813141EA92414FEA823242EA43
:101A700090424FEA80304FEA0C7644F1000448EA85
:101A800003434EEA0B484FF0000EB2EB080C71EB2B
:101A9000030724BF624639464EEB0E0E4FF0000B93
:101AA0000018524149414BEB0B0BB2EB080C71EBA8
:101AB00003077BF1000B24BF624639464EEB0E0E46
:101AC0004FF0000B0018524149414BEB0B0BB2EBAE
:101AD000080C71EB03077BF1000B24BF624639460B
:101AE0004EEB0E0E51EA020718BF46F0010616EB48
:101AF0000E7655F1000254F1000103D5BDE88901CD
:101B0000BDE80088BDE88901BDE80048B61952412A
:101B100041EB0101A3F10103704780807F7E7D7C52
:101B20007B7A7978777676757473727171706F6E6F
:101B30006E6D6C6C6B6A6A6968686766666564641A
:101B4000636362616160605F5F5E5E5D5D5C5C5BA4
:101B50005B5A5A5959585857575656555555545413
:101B6000535352525251515050504F4F4F4E4E4D71
:101B70004D4D4C4C4C4B4B4B4A4A4A4949494848BD
:101B800048474747474646464545454444444443FD
:101B900043434342424242414141002B9C4630D4A0
:101BA00077002BD01CB54FEA370703B44FF0100075
:101BB0004FF01001BAF1000F06D0BCF1000FDCBFEE
:101BC00040F0080040F008014FF000000FBCBDE8F5
:101BD00010400BF1010BBBF1010F08BF5FEA1707C3
:101BE00022BF12F1010211F101014FF0004143F156
:101BF000000300F0004043EA00007047F9D35708A3
:101C0000D0E746EA064613F1400F4FEA16461FDDBD
:101C100013F1200FDFBF16430A46002120335B4239
:101C2000BED0C3F1200746EA064602FA07F74FEA9C
:101C3000164646EA0706C3F1200722FA03F201FA24
:101C400007F721FA03F14FF0000342EA0702A7E782
:101C500046EA020646EA06464FEA164646EA010604
:101C6000BCBF46EA0646360C4FF000034FF00002B8
:101C70004FF0000194E72DE9804C9A46934670B4EA
:101C800091E8380007C831EA400C48BF34EA430CF9
:101C900003D5FFF7E6FDFFF780FFF0BCBDE8008C41
:101CA0002DE9804C9A46934670B491E8380007C8F5
:101CB00010F0804F08BF13F0804F03D100F005F8FB
:101CC000FFF76BFFF0BCBDE8008C20F07F4780EA97
:101CD000030023F07F4C07EB0C03A3F57C5300F0CB
:101CE0000040A3F1FE0392F0000F00F0B38095F0E6
:101CF000000F00F077802DE901494FEA11404FEACB
:101D0000144621EA004800FB06FC24EA064708FBCB
:101D100006F607FB08F800FB07F718EB06484CEB44
:101D2000164C4FEA124B18EB07484FEA15464CEB9E
:101D3000174022EA0B4E0BFB06FC25EA06470EFB7A
:101D400006F607FB0EFE0BFB07F71EEB064E4CEBF1
:101D5000164C4FF000061EEB074E4CEB174B18EBE2
:101D60000B0840F1000018EB0E0B58EB000840F197
:101D700000008F1A4FF000013CBFC943661B14BF1F
:101D8000B5EB040C00213CBFC943F61B4FEA1744D6
:101D90004EEA8E0E27EA04454FEA1C4704FB076211
:101DA0002CEA074C05FB07F70CFB05F604FB0CFCC3
:101DB00016EB074642EB174216EB0C4642EB1C4271
:101DC0001BEB060658EB0202414146EA9E0601D58E
:101DD000BDE80189B619524141EB0101A3F10103AC
:101DE000BDE801894FEA14454FEA114724EA054648
:101DF00021EA074C05FB07F406FB07F70CFB06F18D
:101E000005FB0CFC11EB074144EB17444FEA12476A
:101E100011EB0C4144EB1C4422EA074C05FB07F292
:101E200006FB07F70CFB06F605FB0CFC16EB07465A
:101E300042EB174216EB0C4642EB1C456A1854F174
:101E4000000148BF7047B619524141EB0101A3F1AF
:101E50000103704795F0000F37D04FEA11424FEA67
:101E6000144721EA024624EA074C02FB07F106FB6D
:101E700007F70CFB06F402FB0CFC14EB074441EBE8
:101E800017414FEA154714EB0C4441EB1C4125EA7E
:101E9000074C02FB07F506FB07F70CFB06F602FBF7
:101EA0000CFC16EB074645EB174516EB0C4645EBCD
:101EB0001C42121951F1000148BF7047B619524136
:101EC00041EB0101A3F1010370474FEA14454FEACA
:101ED000114724EA054621EA074C05FB07F106FBFA
:101EE00007F70CFB06F24FF0000605FB0CFC12EBAB
:101EF000074241EB174112EB0C4251EB1C4148BF2A
:101F00007047921841EB0101A3F101037047FEE70E
:101F1000002070470020704710B500220449054892
:101F200003F003F90449034803F0F6F8002010BD5C
:101F3000F013002020070020F00B002010B5014610
:101F4000034803F0E9F8024803F0AEF8002010BDA2
:101F500020070020002070471CB500210320CDE998
:101F600000010B464FF4806209A10B4805F07EFD8D
:101F70000A490128086006D009A004F067FBBDE803
:101F80001C4000F06BB8BDE81C400BA004F05EBB29
:101F9000436F6D6D0000000071740008180200208E
:101FA000436F6D6D207461736B206372656174653E
:101FB000204661696C656400436F6D6D20746173C8
:101FC0006B20637265617465205375636365737319
:101FD00000000000704700001CB500210220CDE980
:101FE00000010B4642020AA10C4805F03FFD0C49D6
:101FF0000128086006D00BA004F028FBBDE81C40B7
:1020000000F02CB8BDE81C400DA004F01FBB000080
:102010005561727450726F63000000009174000883
:10202000180200204465627567207461736B206339
:102030007265617465204661696C6564000000002A
:102040004465627567207461736B206372656174A7
:1020500065205375636365737300000072B602A058
:1020600004F0F4FAFBE7000053797374656D2045C2
:1020700072726F720D0A000010B50024032000F088
:1020800073F80F2000F008F808B1012401E000F017
:1020900025F8204610BD000070B50E4E0546002400
:1020A000706898B14FF47A71B1FBF0F00A49096891
:1020B000B1FBF0F000F070FD40B9102D06D2002207
:1020C0002946501E00F030F8356000E0012420461B
:1020D00070BD000068000020740000200A4882B033
:1020E000016E41F001010166016E01F001010091F4
:1020F000816D41F080518165806D00F080500090CD
:1021000002B000F041BD000000100240002809DBD1
:1021100000F01F02012191404009800000F1E02001
:10212000C0F8001170470000F0B40E4B1B680C465D
:10213000C3F30223C3F10705042D00D90425191D9B
:10214000072901D2002300E0DB1E012606FA05F173
:10215000491E214099409E40761E16403143F0BCF6
:1021600004F0F8B90CED00E0064900F00702086839
:102170004FF6FF03184040EA0220034A104308606C
:10218000704700000CED00E00000FA050122016834
:10219000C0F8D022002280F8C82231F8540F40F055
:1021A00001000880088840F002000880104670474F
:1021B00070B50F4D044669B101290AD1D4F8D8028F
:1021C00003F0CDFA607A002803D0286840F00600BA
:1021D000286070BD607A28B102F042FB286820F0C8
:1021E00006002860D4F8D802BDE8704003F04FBA6A
:1021F00010ED00E010B50C0607D501F0070101EB6A
:10220000810100EBC100103005E001EB810100EB22
:10221000C10000F5A87099B232B1012202730181A8
:10222000190C4181002010BD00220273C180F9E722
:1022300001EB810200EBC202D0F8D802526A03F02F
:1022400005B901EB810200EBC202D0F8D802D2F846
:10225000642103F04FB970B504460B0601F0070086
:1022600000EB800104EBC1014FF001024FF00005CB
:1022700002D54A74103103E081F8515101F5A8717B
:10228000087094F89002012808D084F89022206801
:1022900003F017FE84F89052002070BD022070BD3C
:1022A00070B5044601F00F002279904201D9012057
:1022B00070BD0B0601F0070000EB800104EBC101CB
:1022C0004FF001024FF0000502D54A74103103E0CF
:1022D00081F8515101F5A8718D70087094F8900241
:1022E000012808D084F89022206803F089FE84F841
:1022F0009052002070BD022070BD2DE9F0470468A7
:102300005FEA42480B788D69B4F850804FF0000CBA
:102310004BF68F7748F2800648F68F7948F2C00A6C
:10232000444428D540F2024808EBC30834F808407A
:10233000C4F30904A54203D32D1B8D6102D00BE029
:10234000C1F818C0D0F800C03CF823503D4085F4D7
:10235000005535432CF82350520609D50B780568F3
:1023600035F8232002EA090242EA0A0225F823206E
:1023700074B30A8927E040F2064808EBC30834F832
:102380000840C4F30904A54203D32D1B8D6102D07C
:102390000BE0C1F818C0D0F800C03CF823503D4015
:1023A00085F4005535432CF82350520609D40D7896
:1023B000036833F8252002EA090242EA0A0223F8F8
:1023C00025202CB14A8949690068234604F033F876
:1023D0002046BDE8F0872DE9F05F054600680C4611
:1023E0005FEA42681646D1F818C02278B0F85080EB
:1023F00048F6BF7A48F2800B48F68F774CF2800996
:102400004FF6FF734FF4004E4FF0000140447DD56E
:1024100040F2024808EBC20830F80800C0F3090097
:10242000844514D9BCEB000CC4F818C010D0760455
:1024300008D5D5F800C03CF822603E4046EA0906BF
:102440002CF8226094F82420012A60D076E1A16162
:10245000607810B1012813D01AE02868B0F8503025
:10246000184400EBC200B0F80224C2F30902A0F83D
:102470000224B0F8022442F40042A0F8022407E04B
:102480002868B0F85030184400EBC200A0F80214DD
:102490006278286812B1012A11D018E0B0F8501003
:1024A0000844217800EBC100B0F80614C1F309011B
:1024B000A0F80614B0F8061441F4004105E0B0F8A5
:1024C00050201044227800EBC200A0F80614E078F7
:1024D00002280BD12278296831F8220000EA0A008C
:1024E00080F0200040EA0B0021F8220021782846E5
:1024F000FFF79EFE700408D521782A6832F8210083
:10250000384040EA090022F82100C3E04DE062694A
:1025100002446261E2690244E2612669226AB242CF
:1025200002D33046111A03E084F824100AB1104691
:102530002162617811B101292BD033E02968B1F80B
:1025400050201144227801EBC201B1F80224C2F3F9
:102550000902A1F8022401F2024158B13E280ED826
:102560004208C60700D0521C0E8803EA8222164396
:102570000E8017E00A8842F400420A8012E0420905
:10258000C30600D1521E0B884EEA822213430B80F1
:1025900008E02968B1F850201144227801EBC2010B
:1025A000A1F8020483B22289C4E040F2064808EB95
:1025B000C20830F80800C0F30900844514D3BCEB0E
:1025C000000CC4F818C010D0760408D4D5F800C0A8
:1025D0003CF822603E4046EA09062CF8226094F856
:1025E0002420012A59D0A9E0A161607810B1012806
:1025F00013D01AE02868B0F85030184400EBC2003D
:10260000B0F80224C2F30902A0F80224B0F80224B0
:1026100042F40042A0F8022407E02868B0F85030E5
:10262000184400EBC200A0F802146278286812B1C6
:10263000012A11D018E0B0F850100844217800EBBE
:10264000C100B0F80614C1F30901A0F80614B0F8EF
:10265000061441F4004105E0B0F8502010442278FF
:1026600000EBC200A0F80614E07802280BD1217814
:102670002A6832F8210000EA0A0080F0200040EACF
:102680000B0022F8210021782846FFF7D1FD7004C5
:102690007FF532AF0020BDE8F09F626902446261BD
:1026A000E2690244E2612669226AB24203D33046FB
:1026B000111A216204E00AB11046216284F8241044
:1026C0006278296812B1012A2AD031E0B1F850208D
:1026D0001144227801EBC201B1F80624C2F30902C9
:1026E000A1F8062401F2064158B13E280ED842084E
:1026F000C60700D0521C0E8803EA822216430E80C1
:1027000016E00A8842F400420A8011E04209C3063A
:1027100000D1521E0B884EEA822213430B8007E041
:10272000B1F850201144227801EBC201A1F806044F
:10273000628983B26169286803F098FE227829686B
:1027400031F8220000EA0A0080F0300040EA0B0075
:1027500021F822009EE701F0070101EB810100EB67
:10276000C100D0F86C0170472DE9F04104460F0616
:1027700001F0070000EB800104EBC1014FF00106FE
:102780004FF0000502D54E74103103E081F851512D
:1027900001F5A871022B0870C2F30A000861CB7022
:1027A00000D10D7194F89002012809D084F890624C
:1027B000206803F0D1F9284684F89052BDE8F081F2
:1027C0000220FBE710B501F0070404EB840100EBE5
:1027D000C101C1E959230022C1F86C2181F85121BE
:1027E00081F85041006801F5A87103F05BFC0020FE
:1027F00010BD70B5044601F007002279904201D95E
:10280000012070BD0B064FF000054FF0010206D508
:1028100000EB800104EBC1014A74103107E001EBC9
:10282000810104EBC10181F8515101F5A8718A7051
:10283000087094F89002012808D084F8902220684B
:1028400003F016FC84F89052002070BD022070BD89
:1028500010B501F0070404EB840100EBC101C1E9EC
:102860000923012281F834200B630023CB624A74D0
:1028700001F8104F006803F015FC002010BD10B5E2
:102880000446006803F0D4FD010404D52046BDE8E9
:10289000104001F0D2BB41050ED5206830F8441F2E
:1028A00021F480610180204600F000F92046BDE857
:1028B0001040002100F026B9410405D5206830F809
:1028C000441F21F480417DE0810405D5206830F863
:1028D000441F21F4005175E0C1041FD5206830F871
:1028E000401F21F004010180206830F8401F21F0D2
:1028F0000801018094F8C802012806D1002084F85C
:10290000C80201462046FFF753FC204600F0E2F8DB
:10291000206830F8441F21F4805153E0010512D59E
:10292000206830F8401F41F008010180206830F82D
:10293000441F21F400610180206830F8401F41F0FD
:10294000040101800AE0010629D5206830F8441FFF
:1029500021F08001018094F8C80218B1204600F0EF
:1029600001F910BD206830F8401F41F004010180DA
:10297000206830F8401F41F008010180012084F8F0
:10298000C8022068B0F854003C2101EA9000C4F865
:10299000CC022046BDE810400121FFF709BC8105AB
:1029A00009D5206830F8441F21F4007101802046C9
:1029B00000F0A4F810BDC005FCD5206830F8441F15
:1029C00021F48071018010BD70B5040004D094F82A
:1029D0009102002510B106E0012070BD84F89052EC
:1029E000204600F03FF8032084F89102206803F0AD
:1029F000FFFA002001260BE000EB800104EBC1018F
:102A00004E740874CD740D624D62401CC0B28D626C
:102A100021798142F0D8002012E000BF00EB800154
:102A200004EBC10181F8515181F8500181F85351F3
:102A3000C1F86051C1F86451401CC0B2C1F868517E
:102A400021798142EAD894E8070003F0C8FA257397
:102A500084F89162A07A012802D12046FFF796FB04
:102A6000002070BD08B500680E49884218D10E4894
:102A700050F8881F21F0406140F83019016841F496
:102A8000000101600068002200F40000009011467F
:102A90001420FFF749FBBDE808401420FFF736BBC0
:102AA00008BD0000005C00400010024070B5044604
:102AB00040790125022801D0FFF7D0FA2946D4F841
:102AC000D80202F0FEFDD4F8D802BDE8704002F052
:102AD000B1BD000010B50446407A30B10648016827
:102AE00021F00601016001F0BBFED4F8D802BDE878
:102AF000104002F0CCBD000010ED00E0D0F8D8028C
:102B000002F0CFBD10B5044690F8900201280AD01B
:102B1000012084F890022173206803F0A0FC0020BB
:102B200084F8900210BD022010BDD0F8D82200F524
:102B30002671104602F0D1BD10B5044690F89002FF
:102B400001280CD0012084F89002206803F061FC79
:102B5000206803F03DFA002084F8900210BD0220A6
:102B600010BD000010B50446D0F8D80202F0F7FD01
:102B7000607A002804D00348016841F00601016032
:102B800010BD000010ED00E00248816841F4804172
:102B9000816070470070004010B5401EB0F1807F2A
:102BA00001D3012010BD4FF0E02460610F216017B8
:102BB00003F0D0FC0020A06107202061002010BDA0
:102BC000FEE700000B494CF6CC420A6045F2555234
:102BD0000A6003224A60B0F5805F01D340F6FF70BF
:102BE000C0F30B008860C8684007FCD14AF6AA20F1
:102BF0000860704700300040174900BF51E8000FDF
:102C000040F0200041E80002002AF7D11348006894
:102C1000C0F30220C0F10701042900D90421021DDC
:102C2000072A01D2002000E0C01E012202FA01F3AF
:102C30005B1E03F0030181408240521E02F001003E
:102C400001430801064981F8000405498020233921
:102C5000C1F8000170470000004800400CED00E0A2
:102C600027E000E01D4800BF50E8001F41F02001B0
:102C700040E80013002BF7D150E8001F41F040015D
:102C800040E80013002BF7D115490968C1F3022170
:102C9000C1F10702042A00D904220B1D072B01D21F
:102CA000002100E0C91E012393405B1E03F00202D5
:102CB0008A4011010B4A82F800140A4A2021213A65
:102CC000C2F8001110F1080050E8001F41F00101A6
:102CD00040E80012002AF7D1704700000038014098
:102CE0000CED00E025E000E000F046B810B5FFF77D
:102CF000C3F901F065FF01F069FE0AA003F0A6FC2C
:102D000000F01EFD00F040FE01F02EF801F026F963
:102D100000F0D2FD00F038FF00F0ACFFBDE810403D
:102D200000F09CBE48523230323530373033434E9B
:102D300043504F574552535550504C590D0A0000BF
:102D4000F0B500230A24302537261F4611E000BFC6
:102D5000B4EB107F02D905EB107C01E006EB107C90
:102D600001F813C001EB430C00015B1C8CF80170EF
:102D7000DBB29342ECD3F0BD2DE9F04100240C4FBF
:102D80000C4D264607EBC400818857F8340000F04C
:102D900052F904EB84025119A85448708E70CE7019
:102DA000A85C641C0871062CECDBBDE8F081000017
:102DB00044810008029B002070B5144E144C00257D
:102DC00006EBC500818856F8350000F034F905EBB4
:102DD0008502C0B2A15C81420DD11119CB785B1C78
:102DE000DBB2CB70052B0AD30B79834207D0087175
:102DF00001238B7003E000211319A054D97011191D
:102E00006D1C4870062DDBDB70BD0000448100089E
:102E1000029B00201CB500210220CDE900010B46D9
:102E200080220AA10A4804F021FE0A49012808600C
:102E300006D009A003F00AFCBDE81C40FFF70EB95C
:102E4000BDE81C400AA003F001BC00004B657900FE
:102E5000D36D0008180200204B6579207461736BF4
:102E600020637265617465204661696C6564000069
:102E70004B6579207461736B2063726561746520A2
:102E80005375636365737300044908B5CA6C0243E4
:102E9000CA64C96C0140009108BD000000100240E6
:102EA000044908B5CA6C0243CA64C96C0140009168
:102EB00008BD000000100240044908B5CA6C024376
:102EC000CA64C96C0140009108BD000000100240B6
:102ED000044908B5CA6C0243CA64C96C0140009138
:102EE00008BD000000100240044908B58A6D024385
:102EF0008A65896D0140009108BD00000010024004
:102F0000F0B50A680F2692FAA2F2B2FA82F303240D
:102F10008AE001259D402A407ED04D68012D01D0D8
:102F2000022D20D18D68876892FAA2FCBCFA8CFC35
:102F30004FEA4C0E04FA0EFC27EA0C0792FAA2FCA8
:102F4000BCFA8CFC4FEA4C0C05FA0CF52F43876059
:102F5000CF680D68D0F804C02CEA050C7D434CEA1C
:102F6000050CC0F804C00F69D0F80CC092FAA2F5A5
:102F7000B5FA85F54FEA450E04FA0EF52CEA050C74
:102F800092FAA2F5B5FA85F56D00AF404CEA070C50
:102F9000C0F80CC04D68022D2FD1FF2A15D8D1F8EA
:102FA00014C0056A92FAA2F7B7FA87F7BF0006FACB
:102FB00007F7BD4392FAA2F7B7FA87F7BF000CFAFA
:102FC00007FC45EA0C05056217E0D1F814E0476AF2
:102FD000150A95FAA5FCBCFA8CFC4FEA8C0C06FA93
:102FE0000CFC95FAA5F5B5FA85F5AD0027EA0C07B6
:102FF0000EFA05FE47EA0E0747624D68076892FA27
:10300000A2FCBCFA8CFC4FEA4C0C04FA0CFE27EA3A
:103010000E0792FAA2F200E005E0B2FA82F2520044
:1030200095402F4307605B1C0A6832FA03F57FF472
:1030300070AF0020F0BD0069814301D000207047CF
:103040000120704730B5C1F3090102F40062114359
:10305000DDE90354DAB241EA0241294321434268DF
:1030600021F000414FF4806303EA5453034C03F60C
:10307000FF3323439A430A43426030BD0070FF038D
:1030800010B5026822F001020260D1E90232046840
:1030900043EA022224F4F854144304604A680261AB
:1030A000026842F001020260826822F400428260FB
:1030B0008B690A6984681A436FF30A0414438460B5
:1030C0000A691AB1826842F4004282600A680368A1
:1030D00023F44013134303604969426822F4004219
:1030E0000A434260002010BD70B500241F49204DE6
:1030F0004FF40046C02803D0B0F5407F1CD019E043
:10310000D1F8880000F0C00040F440004038B0F52D
:10311000400027D0402804D080281CD106E0044677
:1031200008E000F083F828B12C4603E000F086F8B0
:1031300000B13446204670BDD1F888000D4900F436
:10314000407040F0407040180CD0B0F5807FE8D05F
:10315000B0F5007FEAD001F041F901F00FF901F07C
:103160001DF9DCE701F03AF9D9E700000010024050
:103170000024F40000FFFFFC70B5002429492A4D0B
:103180004FF40046032804D00C281AD030282FD042
:1031900040E0D1F888006FF4403100F0030040F4C3
:1031A000403040180AD0012836D002282ED001F035
:1031B00015F901F0E3F801F001F917E001F00EF95B
:1031C00014E0D1F8880000F00C0040F44020001F0B
:1031D000B0F54020F2D004281ED0082816D000BF39
:1031E00001F0FCF801F0CAF801F0D8F8044611E04B
:1031F000D1F8880000F0300040F440101038B0F5ED
:103200004010DBD0102807D02028E9D100F016F8B4
:1032100000B13446204670BD00F008F80028F9D00F
:103220002C46F7E7001002400024F4000248006832
:10323000C0F3802070470000001002400248D0F820
:103240009000C0F3400070470010024003498A68B4
:1032500022F0F00202438A60704700000010024032
:10326000044951F8882F22EA104280B202430A60D2
:10327000704700000010024010B503680122C3F33C
:10328000801373BBD1E900231A43D1E903342343EC
:103290001A434B691A438B691A43CB691A430B6A69
:1032A0001A4303684FF6BF74A3431A43026042688F
:1032B00040F604739A434B6942EA13428B681A43FF
:1032C00042608A68B2F5006F03D2426842F48052CD
:1032D00042600A6AB2F5005F02D1898C89B201614D
:1032E0000022C16921F40061C161104610BD0000D7
:1032F00001490860704700007400002010B50129E2
:1033000025D0042925D0102925D0402925D0B1F574
:10331000807F24D0B1F5806F23D0B1F5805F22D0BB
:10332000B1F5804F21D0B1F5803F20D00921114B5C
:1033300018305B5C184403680E4C0A34615C03244B
:103340008C40120CA3438A401343036010BD00213C
:10335000EDE70121EBE70221E9E70321E7E704219B
:10336000E5E70521E3E70621E1E70721DFE708219B
:10337000DDE70000DC80000810B5012925D0042914
:1033800025D0102925D0402925D0B1F5807F24D023
:10339000B1F5806F23D0B1F5805F22D0B1F5804FB9
:1033A00021D0B1F5803F20D00921114B18305B5C52
:1033B000184403680E4C0A34615CF0248C40120CF3
:1033C000A3438A401343036010BD0021EDE70121B0
:1033D000EBE70221E9E70321E7E70421E5E705211F
:1033E000E3E70621E1E70721DFE70821DDE7000049
:1033F000DC80000810B501291FD004291FD0102936
:103400001FD040291FD0B1F5807F1ED0B1F5806F4D
:103410001DD0B1F5805F1CD0B1F5804F1BD0B1F548
:10342000803F1AD00921036A0D4C615C0A248C404C
:10343000A3438A401343036210BD0021F3E7012137
:10344000F1E70221EFE70321EDE70421EBE7052196
:10345000E9E70621E7E70721E5E70821E3E70000C0
:10346000F080000810B5012925D0042925D01029A5
:1034700025D0402925D0B1F5807F24D0B1F5806FCB
:1034800023D0B1F5805F22D0B1F5804F21D0B1F5C6
:10349000803F20D00921114B18305B5C1844036831
:1034A0000E4C0A34615C0C248C40120CA3438A40FD
:1034B0001343036010BD0021EDE70121EBE702217A
:1034C000E9E70321E7E70421E5E70521E3E7062132
:1034D000E1E70721DFE70821DDE70000DC800008E5
:1034E0002DE9F04F02682A4B2A4E2B4FDFF8ACC073
:1034F0002B4C2C4D4FF0804B98420BD0584509D0A7
:10350000B04207D0B84205D0604503D0A04201D0F8
:10351000A84205D1D1F8048022F0700242EA0802E4
:10352000DFF88480DFF88490DFF884A0984211D01F
:1035300058450FD0B0420DD0B8420BD0604509D0ED
:10354000A04207D0404505D0484503D0504501D0A2
:10355000A84203D1CE6822F44072324302608A68E6
:10356000C2620A888262984209D0A04207D04045D0
:1035700005D0484503D0504501D0A84201D1096982
:103580000163416941F0010141610020BDE8F08F14
:10359000002C01400004004000080040000C0040E6
:1035A000003401400050014000400140004401400F
:1035B000004801402DE9F041044600680D4601260F
:1035C00010F0010F52D12969A868EA6908436969B6
:1035D0001143084321682E4A114008432060E868DF
:1035E000616821F4405101436160A869A16821F438
:1035F00040710143A1602748844201D1032008E0C3
:103600002548844201D10C2003E02448844203D1A0
:103610003020FFF7B1FD0BE02148844201D1C020EA
:1036200004E0204884421AD14FF44070FFF75CFD5B
:10363000A8B1696899B12A680026EB690B2A0ED8EF
:10364000194FD2B2B3F5004F57F82220B0FBF2F079
:103650000FD000EB5100B0FBF1F080B2E0602888A1
:10366000E16A80B221F00F010143E1623046BDE81A
:10367000F081400000EB5100B0FBF1F081B24FF659
:10368000F07201EA0200C1F342010843E6E70000DC
:10369000F369FFEF0038014000440040004800405B
:1036A000004C004000500040FC80000810F1080071
:1036B00050E8002F22F0606242EA416240E80023B5
:1036C000002BF5D17047000010F1080050E8002FE2
:1036D00061F35F7240E80023002BF7D170470000D0
:1036E0002DE9FC414FF4FA750026134F4FF4A078F2
:1036F000124C16E000231A4641462046CDE90067E9
:10370000FFF7A0FCA069C0F3001078B1E06940F0B9
:103710001000E061606840F480406060012003F0C8
:10372000CFFC6D1EE6D20220BDE8FC81606840F44B
:10373000804060600020F7E70020008000540040D7
:103740002DE9F04F87B018216846FDF7D1F8042025
:10375000FFF79AFB2020FFF797FB0120FFF794FB70
:103760000220FFF791FB4FF090470420B86108203A
:10377000B8614F4E0420B0628002B0624FF400592D
:10378000C6F828900820B0611020B8610120B0610F
:103790000024CDE90094474D694628460494FFF77C
:1037A000AFFB4FF48040CDE90004694628460494FD
:1037B000FFF7A6FB7001CDE9000469462846049492
:1037C000FFF79EFB4FF0040A01254FF00208CDE9F8
:1037D0000284CDE900A5694638460494FFF790FBC2
:1037E0000820CDE90005CDE90284694604943846F5
:1037F000FFF786FB1020CDE90005CDE9028469467C
:1038000004943846FFF77CFB4FF0400BCDE900B441
:10381000694638460494FFF773FB0095CDE90154DF
:103820000394694630460494FFF76AFBCDE90084AF
:10383000694630460494FFF763FBCDF800A0CDE95C
:1038400001540394694630460494FFF759FB28035A
:103850000090CDE901540394694630460494FFF783
:103860004FFBCDF80090CDE90154039469463046F2
:103870000494FFF745FB2802CDE900046946384669
:103880000494FFF73DFB08200090CDE90154039418
:10389000694630460494FFF733FBCDE900B469462E
:1038A00030460494FFF72CFB07B0BDE8F08F000012
:1038B0000004004800080048F0B58FB01C2106A89D
:1038C000FDF716F818216846FDF712F82A48016836
:1038D000002421F4405101600120FFF7E1FA0220A9
:1038E000FFF7DEFA4FF400400226CDE9000601257D
:1038F0000427CDE90457CDE9024569464FF09040D1
:10390000FFF7FEFA8020CDE90006CDE90457CDE9A6
:10391000024569461948FFF7F3FA17488838816D60
:1039200041F400118165806D099400F400100D9040
:1039300013480894CDE906400A940B940C94114C5A
:1039400006A92046FFF79CFB606840F000706060AD
:10395000E06840F2FE718843E060E06820F40040D7
:10396000E060206820F400202060206820F400300F
:1039700020600FB0F0BD0000881002400004004835
:10398000C285B240005400402DE9F04192B0282198
:1039900006A8FCF7ADFF18216846FCF7A9FF2D48E3
:1039A000016E41F480510166016E01F48051109165
:1039B000C16C41F00101C164C06C022500F001003E
:1039C000109020200024CDE9000503260527CDE92D
:1039D0000264CDE904474FF0904869464046FFF73E
:1039E0008FFA8020CDE90005CDE90264CDE90447D6
:1039F00069464046FFF784FA174E3068C0F38010DE
:103A000018B1306820F0400030604FF4404006901C
:103A10004FF4827007904FF4E060CDE90805012073
:103A20000A904002CDE90B0407200F9006A90D94DF
:103A30003046FFF721FC706820F01000706070685D
:103A400020F008007060306840F04000306012B034
:103A5000BDE8F08100100240003001402DE9F04146
:103A60008CB0142106A8FCF743FF18216846FCF728
:103A70003FFF3F484FF48038016E41F480310166CA
:103A8000006E00F480300B900220FFF715FA4FF41F
:103A90008040009002250024CDE901540126354FD5
:103AA000CDE90446694638460394FFF729FAA8038E
:103AB0000090CDE90154CDE90446694638460394A7
:103AC000FFF71EFAADF818404FF6FF70CDE907403A
:103AD00009940A94284C06A92046FFF701FD2068A6
:103AE00020F080002060A06824490840A060A06801
:103AF0002349084040F00700A060E06820F0400043
:103B0000E060E06820F48040E06060681D490840A3
:103B10006060A06820F08000A0604246012120463D
:103B2000FFF7ECFB002201212046FFF79BFC00225F
:103B300001212046FFF720FC002201212046FFF74B
:103B400059FC424610212046FFF7D8FB00221021E5
:103B50002046FFF787FC002210212046FFF70CFCCF
:103B6000002210212046FFF745FC0CB0BDE8F08193
:103B70000010024000040048004001408FFFCFFFCA
:103B8000F8BFFEFF8FFFFFFDF0B58BB0142106A834
:103B9000FCF7AEFE18216846FCF7AAFE0120FFF7ED
:103BA000A3F90120FFF788F90125022600240095DA
:103BB000CDE901644FF09047694638460394CDE95A
:103BC0000445FFF79DF90096CDE901646946384642
:103BD0000394CDE90445FFF793F9ADF81840601E52
:103BE000CDE907400994AC0706A92046FFF778FC09
:103BF000206820F080002060A0681C49084040F048
:103C00000100A060A5132A4601212046FFF776FB9C
:103C1000002201212046FFF725FC00220121204639
:103C2000FFF7AAFB002201212046FFF7E3FB2A460B
:103C300010212046FFF762FB002210212046FFF7EB
:103C400011FC002210212046FFF796FB00221021D4
:103C50002046FFF7CFFB6068054908406060A06818
:103C600020F08000A0600BB0F0BD0000F8FFFEFF68
:103C70008FFFFFFD70B58CB0142106A8FCF738FE4D
:103C800018216846FCF734FE0220FFF72DF90220C8
:103C9000FFF712F91020009002250024CDE901540D
:103CA0002D4E694630460394CDE90445FFF728F9C7
:103CB00020200090CDE90154694630460394CDE9B7
:103CC0000445FFF71DF9ADF818404FF6FF70CDE938
:103CD00007400994214C06A92046FFF701FC206803
:103CE00020F080002060A0681D49084040F00100DD
:103CF000A060A5132A4601212046FFF7FFFA002203
:103D000001212046FFF7AEFB002201212046FFF7EC
:103D100033FB002201212046FFF76CFB2A461021CD
:103D20002046FFF7EBFA002210212046FFF79AFB0E
:103D3000002210212046FFF71FFB00221021204601
:103D4000FFF758FB6068074908406060A06820F0F2
:103D50008000A0600CB070BD00040048000400406A
:103D6000F8FFFEFF8FFFFFFD2DE9F04190B020210D
:103D700006A8FCF7BDFD18216846FCF7B9FD4FF415
:103D80004030FFF76DFA3948016E41F48041016619
:103D9000006E00F480400E900120FFF799F84FF478
:103DA00000700226CDE9000602AA032000240125A6
:103DB000072782E8B1004FF0904869464046FFF778
:103DC0009FF8A8020090CDE9016403AA694682E841
:103DD000B0004046FFF794F825480068C0F3022081
:103DE000011D072901D2002000E0C01E04FA00F1E5
:103DF0000801204981F800041E4920202139C1F81A
:103E000000014FF4E130CDE906400C20CDE90A4035
:103E1000089409940C940D94174C06A92046FFF7BA
:103E2000C9FB00212046FFF74FFC00212046FFF789
:103E30003DFC206820F000502060606820F4904035
:103E40006060A06820F02A00A060206840F00100B7
:103E50002060E069C0F340500028FAD0E069C0F368
:103E600080500028F5D010B0BDE8F081001002406D
:103E70000CED00E025E000E000380140F0B58FB027
:103E8000202106A8FCF734FD18216846FCF730FD18
:103E90004FF44010FFF7E4F92D48816D41F4802183
:103EA0008165806D00F480200E900220FFF710F8ED
:103EB0004FF480600225CDE9000500240320CDE900
:103EC00002040726234FCDE9044669463846FFF72A
:103ED00017F8A8020090CDE90154CDE904466946DF
:103EE00038460394FFF70CF84FF4E130CDE9064073
:103EF0000C20CDE90A40089409940C940D94164CBA
:103F000006A92046FFF756FB00212046FFF7DCFB01
:103F100000212046FFF7CAFB206820F000502060F7
:103F2000606820F490406060A06820F02A00A060E3
:103F3000206840F001002060E069C0F34050002894
:103F4000FAD0E069C0F380500028F5D00FB0F0BD82
:103F500000100240000400480048004010B5002254
:103F60000F49104801F04DFA08B1FEF777F80E49F5
:103F70000C4801F01CFC08B1FEF770F80B49094829
:103F800001F0A6F808B1FEF769F8064801F08AFCCE
:103F9000002803D0BDE81040FEF760B810BD000057
:103FA00000000020200700205401002054000020C1
:103FB000FEE700001CB502F0E5FA00210220CDE981
:103FC00000010B46C2010AA10B4803F04FFD0B494B
:103FD0000128086006D00AA002F038FBBDE81C40AA
:103FE000FEF73CB8BDE81C400CA002F02FBB00005F
:103FF0004D6F6E69746F7200416F000818020020E7
:104000004D6F6E69746F72207461736B206372659B
:10401000617465204661696C656400004D6F6E696E
:10402000746F72207461736B2063726561746520B4
:104030005375636365737300FEE72DE9F84F04461B
:1040400040F68F7A40F2064B48F60F784FF00009A1
:104050008BE1B0F8441011F00F053AD030F825602C
:1040600031047DD530F8251001EA0A0141F08001C4
:1040700020F8251005EB850004EBC00797F85C01DC
:1040800007F5A87700286CD0F87802286AD039782C
:10409000226832F8210048F68F73184048F2C003B6
:1040A000184322F821003878D4F800C03CF82010DA
:1040B0004904BCF8501001EB0C027ED540F20241DD
:1040C00001EBC000105A8005800D009076D03A892F
:1040D000A7E0C9062AD4018801EA080141F4004199
:1040E0000180206804F11005B0F85010227C0144D2
:1040F00040F2024000EBC200085AC0F30900E0623F
:10410000616A0844606200212046FEF791F8207B36
:1041100000289DD0A86900289AD1207B40F080011A
:104120002068A0F84C1084F80C901EE1018804F57A
:10413000A8750A051ED5B0F850100A1829780BEB9F
:10414000C100105A04F52671C0F30903EB61EA8837
:10415000206802F070F92168088800EA0A0002E08D
:104160007BE03FE04EE040F0800008802046FEF714
:10417000DCFCFAE00904D8D5018801EA0A0141F023
:10418000800101802068B0F850102A7808440BEBB9
:10419000C201405A83059B0DEB610DD0696959B18D
:1041A000EA88206802F047F9E969686908446861AB
:1041B00000212046FEF745F801E02AE028E02068CB
:1041C00001880A050DD4C1F30131032909D0018802
:1041D0004BF68F72114081F4405148F28002114336
:1041E0000180C2E02068B0F850103B780A180BEB51
:1041F000C301515A8905890D009117D0FA88796950
:10420000009B11E0324639462046FEF776F80090D2
:104210000CE00BEBC000105A8005800D009005D01B
:104220007A8903466046796902F005F9F9690098D0
:104230000844F8617869009908447861B86918B150
:1042400039690098814204D939782046FDF7F9FF91
:1042500003E03946206801F025FF30062DD505EB37
:10426000850004EBC001206830F8252002EA08022E
:1042700042F4004220F82520C87C103101281DD0CE
:10428000F0056ED42068B0F8502013180A7840F278
:10429000024000EBC200185A8A69C0F3090082424A
:1042A00058D9121A8A6157D04A6902444A61CA69C8
:1042B0001044C861206801F0F5FE56E0C1F818907E
:1042C0000A7B48461AB3720622D54A7812B1012AEF
:1042D00014D041E02068B0F8502010440A7800EB78
:1042E000C200B0F80224C2F30902A0F80224B0F818
:1042F000022442F40042A0F802242DE02268B2F821
:1043000050301A440B7802EBC302A2F8020423E0F7
:104310004B78226813B1012B13D01DE0B2F8500086
:1043200010440A7800EBC200B0F80624C2F3090278
:10433000A0F80624B0F8062442F40042A0F80624AF
:104340000AE0B2F850301A440B7802EBC302A2F82C
:10435000060401E0C1F8189009782046FDF768FFCF
:1043600003E032462046FEF736F82068B0F84410E5
:1043700009043FF56EAE0020BDE8F88F0549896855
:10438000054A01F0F0010909515C01F01F01C84024
:1043900070470000001002402C8100080549896820
:1043A000054A01F4E06102EB1121097801F01F01D7
:1043B000C8407047001002403C81000805498968E8
:1043C000054A01F4605102EBD121097801F01F0187
:1043D000C8407047001002403C81000815498868B9
:1043E00000F00C031448042B0DD04210082B09D008
:1043F0000C2B08D1CB6803F00303022B05D0032B51
:1044000003D101E0104670471046CA68C2F3062285
:104410004243C868C96800F0F003012000EB1313A1
:10442000B2FBF3F201F0C06100EB51604000B2FB5F
:10443000F0F07047001002400024F4000CB5022197
:10444000CDE900010021EF2340F23F12084600F0C1
:1044500001F80CBDF8B5141ADDE906575E1A641CA4
:10446000761C74432E0AEDB2009700F0EFF84FF07F
:104470009043102098620820986112498868C0F320
:1044800040000028FAD00020621E10E00E73904217
:1044900004D28F68C7F34007002FF8D00D73904205
:1044A00004D28F68C7F34007002FF8D0401CA04209
:1044B000ECD38868C0F3C0100028FAD110209861AE
:1044C000F8BD00000030014010B54FF0904488B0B6
:1044D0000420A061012002F0F3FD0420A0620A2064
:1044E00002F0EEFD0420A061782002F0E9FD10202A
:1044F000A062112000F01AF9782002F0E1FD3620C8
:1045000000F014F9702000F043F93A2000F00EF9A1
:10451000552000F03DF90A2002F0D2FDB22000F053
:1045200005F90C2000F034F90C2000F031F90020DE
:1045300000F02EF9332000F02BF9332000F028F999
:10454000B72000F0F3F8752000F022F9C22000F047
:10455000EDF8012000F01CF9C32000F0E7F8162068
:1045600000F016F9C42000F0E1F8202000F010F966
:10457000C62000F0DBF80F2000F00AF9D02000F090
:10458000D5F8A42000F004F9A12000F001F9D6200C
:1045900000F0CCF8A12000F0FBF8BB2000F0C6F83A
:1045A0003B2000F0F5F8E02000F0C0F816A10FC99C
:1045B0008DE80F000E21684600F0C4F8E12000F0FD
:1045C000B5F815A30DF1100C0FCB8CE80F000E21E0
:1045D00004A800F0B7F8E42000F0A8F8252000F0C7
:1045E000D7F8002000F0D4F8002000F0D1F82920FE
:1045F00000F09CF80A2002F063FD0B49012088625C
:104600001020A06108B010BDF00B110E0D1936334B
:104610004B0714142C2E0000F00D120B090332442A
:10462000483916162D3000000004004806498A68F3
:10463000C2F34002002AFAD008738868C0F3C010A1
:104640000028FAD170470000003001407CB54FF0DF
:1046500090451024AC620824AC62334CA668C6F3C3
:104660004006002EFAD02A262673A668C6F3C01686
:10467000002EFAD10826AE61060A8DF800608DF88A
:104680000100100A8DF802008DF8032000206E460C
:10469000A268C2F34002002AFAD0325C2273401CA6
:1046A0000428F5D3A068C0F3C0100028FAD1082070
:1046B000A862A068C0F340000028FAD02B20207325
:1046C000A068C0F3C0100028FAD10820A861080A29
:1046D0008DF804008DF80510180A8DF806008DF885
:1046E0000730002001AAA168C1F340010029FAD0D7
:1046F000115C2173401C0428F5D3A068C0F3C010DE
:104700000028FAD10820A862A068C0F34000002861
:10471000FAD02C202073A068C0F3C0100028FAD172
:104720001020A8617CBD00000030014010B54FF0A2
:1047300090441021A1620821A162FFF777FF1020A9
:10474000A06110BD70B54FF090441022A262082203
:10475000A2610E4B9A68C2F34002002AFAD00022EE
:104760004D1E09E0865C1E73AA4204D29E68C6F301
:104770004006002EFAD0521C8A42F3D39868C0F348
:10478000C0100028FAD11020A06170BD0030014097
:1047900010B54FF090441021A1620821A161FFF7EC
:1047A00045FF1020A06110BD0178407841EA00204B
:1047B000704700001CB500210220CDE900010B4626
:1047C00080220AA10B4803F051F90B490128086027
:1047D00006D00AA001F03AFFBDE81C40FDF73EBC40
:1047E000BDE81C400CA001F031BF000053746F7293
:1047F00061676500356F00081802002053746F72FE
:10480000616765207461736B2063726561746520F4
:104810004661696C6564000053746F72616765205E
:104820007461736B20637265617465205375636393
:104830006573730010B5502080F31188BFF34F8F5C
:10484000BFF36F8F03F040F918B104494FF0805067
:104850000860002080F3118810BD000004ED00E026
:1048600038B53248016821F00F0141F004010160C0
:10487000016801F00F010429FAD12D4850F8801F7A
:1048800021F4807101602B4C206840F4803020605E
:104890002068C0F340400028FAD1D4F8980040F0D6
:1048A0000100C4F8980000BFD4F89800C0F340009D
:1048B0000028F9D02048E168204A11400843E06010
:1048C000206840F080702060E06840F08070E06018
:1048D0002068C0F340600028FAD1A06840F00300CF
:1048E000A0608020FEF7B2FC1548A16801F00C0121
:1048F0000C2901D0401EF8D255200090401E009097
:10490000FCD1FEF7A3FCA06820F4E060A060A068E2
:1049100020F46050A0600B48FEF7EAFC0F20FDF782
:10492000BBFB002801D0FDF799FB38BD00200240F9
:104930000070004000100240135500020C80FFF987
:10494000A086010080FE210A0248016841F470013E
:104950000160704788ED00E01CB500210120CDE921
:1049600000010B4682020AA10A4803F07FF80A49B7
:104970000128086006D009A001F068FEBDE81C40CF
:10498000FDF76CBBBDE81C400AA001F05FBE000053
:1049900054465400917000081802002054465420D8
:1049A0007461736B20637265617465204661696C24
:1049B00065640000544654207461736B2063726513
:1049C00061746520537563636573730010B5FFF7F9
:1049D000CBF9FEF747F940F652210848FBF766FF8E
:1049E000012002F023FE06490028886004D1BDE8BA
:1049F000104004A001F02ABE10BD0000209B002042
:104A0000040200204D7574657820637265617465D9
:104A1000206661696C6564002DE9F0410027264D30
:104A2000264C2CE002F00EFAB4F80208265CB4F82A
:104A30000208401CC0F30A00A4F8020802F022FA9F
:104A4000287820B1012808D0022818D11FE0AA2E0A
:104A500015D184F84A7A01200EE094F84A0A4028D9
:104A60000CD21749465494F84A0A401CC0B284F844
:104A70004A0A062803D10220287000E02F70B4F8FB
:104A80000008B4F802188842CCD1BDE8F081552E58
:104A9000F4D10B4E0A3ED6F80A00F064F089A6F86D
:104AA000500002F0CFF9F06CE860B6F850002882B0
:104AB00002F0E8F9E2E7000004020020209B002059
:104AC0002AA500202DE9F047DFF8A8808A4617467E
:104AD0000A21D8F8080002F0E5FE012804D0BDE85C
:104AE000F04725A001F0B2BD0A26284C4FF000097E
:104AF000274D02E0012002F0E3FA95F8040A10B114
:104B0000761EF7D20AE04EB954E8000F20F04000BC
:104B100044E80002002AF7D185F8049A4FF40076A1
:104B2000B74200D83E46324651461A48FBF73FFE90
:104B3000A5F8069AA5F8086A012085F8040AB5F8D0
:104B4000060A2918401CA5F8060A91F80408A06274
:104B500054E8000F40F0400044E800010029F7D17C
:104B6000D8F80800BDE8F04700231A46194602F0BD
:104B7000F7BD0000040200204D757465782067655C
:104B800074206661696C65640000000000380140B3
:104B9000209B002024A300201CB500280DD0AA21B2
:104BA0008DF800100068CDF8010055208DF8050043
:104BB000062269460148FFF785FF1CBD0038014009
:104BC00010B5FFF75BF9FEF717F840F20A610C48E1
:104BD000FBF76CFE0A490020A1F80004A1F80204CA
:104BE000012002F023FD07490028486007D150202A
:104BF00080F31188BFF34F8FBFF36F8FFEE710BDB7
:104C0000B8940020FC0100202DE9F047DFF8CC80AB
:104C1000DFF8CC90334C98F8000016468A460128FD
:104C200002D042F2107012E00A21D9F8040002F01A
:104C300039FE01284FD10A2502E0012002F040FA96
:104C400094F8040640B16D1EF7D205E000BF94F859
:104C5000041609B1401EF9D294F80406224D00272B
:104C600050B100BF55E8000F20F0400045E80002B9
:104C7000002AF7D184F804764FF40070864200D9F8
:104C80000646324651461948FBF791FDA4F80676D0
:104C9000A4F80866012084F80406B4F80606211872
:104CA000401CA4F8060691F80404A86255E8000F19
:104CB00040F0400045E800010029F7D198F80000D5
:104CC000012808D1D9F80400BDE8F04700231A46AE
:104CD000194602F045BDBDE8F0870000160200202D
:104CE000FC010020B894002000480040BC9800203F
:104CF000284910B5C869C0F3C00038B9C869C0F305
:104D0000400018B9C869C0F3800030B108200862BB
:104D10000220086204200862486AC869C0F3401291
:104D20001D487AB14A6AD3B2B0F80028B0F80248F8
:104D3000521CC2F30A02944204D0B0F80048035552
:104D4000A0F80028CA69C2F38012002A15D00A68A8
:104D5000C2F38012002A10D040220A62B0F8062A5C
:104D6000B0F8083A9A4209D2B0F8062A8318521CC1
:104D7000A0F8062A93F80408886210BD51E8002FB5
:104D800022F0400241E80023002BF7D1002180F8F7
:104D9000041A10BD00380140209B00201F4810B5A8
:104DA000C169C1F340121E497AB1426AD3B2B1F867
:104DB0000024B1F80244521CC2F30902944204D008
:104DC000B1F800440B55A1F80024C269C2F3801267
:104DD000002A15D00268C2F38012002A10D04022A7
:104DE0000262B1F80626B1F808369A4209D2B1F843
:104DF00006268B18521CA1F8062693F8041481622B
:104E000010BD50E8002F22F0400240E80023002BA4
:104E1000F7D1002081F8040610BD000000480040D2
:104E2000B894002010B50A46024903A000F0B9FA70
:104E3000004810BDF009002043444320436F6E66D4
:104E4000696700002DE9F0410C46D0F8C422D0F883
:104E5000BC12E9B104EB840600EB86050027AB69C0
:104E60003BB102EBC602126AB3FBF2F602FB16324A
:104E700082B1C1F81472D0F8C00203692BB1D1F825
:104E80000802224601F5047198470020BDE8F08130
:104E90000320FBE700231A462146AF6100F068FCBF
:104EA000F3E770B5D0F8BC4205466CB100F058FB92
:104EB000C4F80C02D5F8C012D4F80402CA6804F58C
:104EC00003719047002070BD032070BD70B504468B
:104ED000812100F0B2FA002525870121204600F04B
:104EE000ACFAA4F878518221204600F0A6FAA4F882
:104EF0004C50A4F84E50D4F8BC0248B1D4F8C002CB
:104F000004F52F7440688047206800F020FE25607B
:104F1000002070BD12200880004870472400002047
:104F200010B5D0F8BC4284B1D0F8C01259B194F891
:104F30000002FF2807D08B6894F801222146984789
:104F4000FF2084F80002002010BD032010BD0000E7
:104F50000A210180004870477C0000204321018025
:104F600000487047CC000020432101800048704772
:104F70008800002043210180004870471001002074
:104F80002DE9F04704464FF4077000F0E1FD0500FD
:104F90004FF0000735D0C4F8BC52207C4FF0100809
:104FA0004FF40079012680B340230222812120465C
:104FB00000F02BFB2687402302220121204600F02F
:104FC00024FBA4F87861A4F84E80082303228221F0
:104FD000204600F01AFBA4F84C60D4F8C002006828
:104FE0008047C5F81472C5F81872207CD5F80422E1
:104FF000A8B140230121204600F013FB0020BDE8AA
:10500000F0870220C4F8BC72F9E7FFE74B460222A2
:105010008121204600F0F9FA26874B46CCE74B4623
:10502000E8E7000010B50A46024903A000F0B9F90C
:10503000004810BDF009002043444320496E7465C8
:1050400072666163650000000420088000487047B4
:105050002000002010B50A46024903A000F0A1F983
:10506000004810BDF009002053544D6963726F650C
:105070006C656374726F6E696373000010B50A46E5
:10508000024903A000F08DF9004810BDF00900208E
:1050900053544D3332205669727475616C20436FDE
:1050A0006D506F727400000010B5D0F8BC1251B191
:1050B000027C002AD1F8042207D04023012100F00D
:1050C000B0FA002010BD032010BD4FF40073F5E7C7
:1050D00019B1C0F8C01200207047032070470000CB
:1050E00010B51A2008800A480168001D0468001DD8
:1050F0000068081809D008220649FDF721FE054975
:10510000042210312046FDF71BFE0248801E10BD10
:105110009075FF1F3A000020D0F8BC0218B1C0F80B
:1051200004120020704703207047D0F8BC0228B159
:10513000C0F81022C0F80812002070470320704702
:105140002DE9FC410646D0F8BC7200200C468DF8D3
:105150000000ADF80400054637B1207810F060017A
:1051600028D0202944D102E00320BDE8FC81E28858
:10517000C2B1000660780AD5D6F8C0128B683946ED
:105180009847E288072A00D90722394628E087F89D
:105190000002A07987F80102E2883946304600F023
:1051A00051F82AE0D6F8C012607800228B682146B8
:1051B000984722E0607830B101281ED00A2809D033
:1051C0000B2815D110E096F89C02032810D102227A
:1051D00001A905E096F89C02032809D1012269463D
:1051E000304600F049F808E096F89C02032804D005
:1051F0002146304600F01BF803252846B5E710B5D8
:10520000D0F8B8220AB152689047002010BD13466A
:1052100010B50A46002100F004FA002010BD134624
:1052200010B50A46002100F0A3FA002010BD10B509
:105230000446802100F081FA2046BDE8104000219C
:1052400000F07BBA10B50323C0F89432C0F858219F
:105250001346C0F85C210A46002100F0E2F9002064
:1052600010BD10B50521C0F8941200231A46194646
:1052700000F0D7F9002010BD10B50223C0F8943219
:1052800082611346C2610A46002100F071FA0020D3
:1052900010BD10B50421C0F8941200231A46194617
:1052A00000F066FA002010BDF8B504460020ADF805
:1052B000000048880D46010A062947D006DC01296E
:1052C0000FD0022912D0032962D11DE0072946D050
:1052D0000F295DD1D4F8B402C26920E06946904735
:1052E0003BE0D4F8B412207C0A68F7E7207C022661
:1052F0000028D4F8B80205D0C16A6846884701463C
:10530000467036E0816AF8E7C0B2062840D2DFE88E
:1053100000F003090D111519D4F8B4024268B2B3B4
:10532000207CDBE7D4F8B4028268F8E7D4F8B40252
:10533000C268F4E7D4F8B4020269F0E7D4F8B40222
:105340004269ECE7D4F8B4028269E8E7207CF0B95E
:10535000D4F8B802416B68468847014609E0207CD2
:10536000A8B9D4F8B802016B6846884701460720FF
:105370004870EA888AB1BDF8000040B1824200D985
:105380000246ADF800202046FFF776FFF8BDFFE7A4
:1053900029462046FFF74BFFF8E72046FFF779FF45
:1053A000F4E770B5002300281ED00025044602E073
:1053B0006D1CEDB2641C2678002EF9D1022404EB9A
:1053C000450414801278CA545B1C0322CA5400247A
:1053D0005B1C06E0CA545B1CDAB28C54521CD3B27C
:1053E000401C0278002AF5D170BD01004FF000008A
:1053F00004D0012901D0022901D0032070470120E7
:10540000704778B10023C0F8B832C0F8C032C0F895
:10541000CC3209B1C0F8B412012180F89C1202709C
:1054200000F0A2B80320704710B5D0F8C402FCF712
:1054300037FFBDE81040FFF7D8BF10B5D0F8C40261
:10544000FCF709FFBDE81040FFF7CFBF70B5164667
:10545000044621B194F89C02032841D048E0D4F8D6
:10546000941204F114000025022932D1D0E902314E
:105470008B4206D95A1A826031462046FFF7CFFE8A
:105480000FE0994214D14068884211D3D4F89812A1
:1054900088420DD2002211462046FFF7C0FEC4F814
:1054A000985200231A461946204600F0BAF810E038
:1054B00094F89C02032805D1D4F8B802C16809B158
:1054C000204688478021204600F037F92046FFF724
:1054D000C8FE94F8A00201280AD184F8A05207E07F
:1054E000D4F8B80242691AB120469047002800D18A
:1054F000002070BD10B51346044621B194F89C02FB
:10550000032823D02AE0D4F8941204F5AA700329C2
:1055100024D1D0E9021291420AD98A1A8260C06865
:10552000824200D3024619462046FFF770FE15E07E
:1055300094F89C02032805D1D4F8B802016909B196
:10554000204688472046FFF7A4FE07E0D4F8B802BB
:1055500082691AB120469047002800D1002010BD72
:10556000D0F8C402FDF7F7B810B51E490446C1F8DB
:10557000D802C0F8C4121C48086008200871022034
:105580004871C8710020087248728872C872084653
:10559000FDF71AFA08B1FCF761FD0022D4F8C40245
:1055A0001823114604F53174FCF724FE5823002219
:1055B00080212068FCF71EFEC02300228121206884
:1055C000FCF718FE4FF48873002201212068FCF7D5
:1055D00011FE4FF48073002282212068FCF70AFE3E
:1055E000002010BD44040020005C00400A0601F0C9
:1055F0007F01D0F8C40201EB810100EBC10001D5AD
:10560000807C704790F85201704710B51C461346D5
:10561000D0F8C4022246FDF7A7F8BDE81040FFF716
:10562000E4BE10B5D0F8C402FDF7CCF8BDE81040D8
:10563000FFF7DBBE70B50125044680F89C520020C0
:10564000C4F894026060C4F8A402D4F8B802E0B1CF
:10565000D4F8BC1221B1426812B100212046904713
:105660000022402311462046FFF7CFFF4026A4F832
:1056700064513346002280212046C4F86061FFF760
:10568000C4FFA5840020266270BD032070BD90F881
:105690009C12042903D190F89D1280F89C120020DE
:1056A000704710B5D0F8B81221B190F89C22032AA7
:1056B00002D004E0032010BDC96901B18847002071
:1056C00010BD01740020704710B5D0F8C402FDF77A
:1056D00019FABDE81040FFF788BE70B5044600F225
:1056E000AA20054600F04DF80120C4F89402B4F851
:1056F000B002C4F8980294F8AA0210F01F010AD070
:1057000001290ED0022912D000F080012046BDE808
:10571000704000F012B829462046BDE8704000F005
:10572000C3B829462046BDE8704000F0E7B92946D5
:105730002046BDE8704000F041B910B5D0F8C40271
:10574000FDF757F8BDE81040FFF74FBE10B5D0F891
:10575000C402FDF7F1F9BDE81040FFF746BE90F82E
:105760009C1280F89D12042180F89C120020704742
:1057700010B5D0F8C402FDF76BF8BDE81040FFF794
:1057800034BE70B5054611F8010B287008786870B2
:105790004C1C2046FFF708F86880A41C2046FFF741
:1057A00003F8A880A01CFEF7FFFFE88070BD38B5A5
:1057B00004460020ADF8000049B1C4F8B812C96A27
:1057C00019B168468847C4F8CC02002038BD0320D0
:1057D00038BD02460320D2F8B832002B02D01B6835
:1057E00010461847704700002DE9F0410F462C4E37
:1057F0008978002504463170012906D939462046AA
:10580000FFF715FD0320BDE8F08194F89C02022803
:105810000CD003281DD039462046FFF708FD31780B
:105820002046FFF7ECFC03252846ECE799B3204619
:105830006160FFF7CEFF050004D039462046FFF730
:10584000F6FCF1E72046FFF724FD032084F89C02D4
:10585000EAE74FF00208C1B1606888421BD0C1B2CC
:105860002046FFF7CCFC317820466160FFF7B1FF9E
:10587000050010D039462046FFF7D9FC2179204693
:10588000FFF7BDFC84F89C82CEE784F89C8220461A
:105890006160FFF7B4FC2046FFF7FBFCC4E70000A3
:1058A00078000020FFF752BF2DE9F0410A7800256B
:1058B00012F0600208D0202A01D0402A71D1D0F81D
:1058C000B8229268904731E04B78002201260A2BDB
:1058D00067D2DFE803F0415E6658660805662D2949
:1058E000FFF7E2FC5FE004468888D8B9C888C8B9E9
:1058F0004888802816D200F07F0794F89C0203287D
:1059000010D084F89E7239462046FFF7DDFE20460F
:10591000FFF7BFFC1FB1022084F89C0243E084F82B
:105920009C6240E020463CE0FFF75EFF05463AE01F
:10593000CB88012B35D190F89C32012B04D0022B5F
:1059400002D0032B2DD104E08260012200F1080176
:1059500016E00122011D13E090F89C22012A03D0D9
:10596000022A01D0032A1CD1CA88022A19D1C66092
:10597000D0F8A41209B10321C160022200F10C0188
:10598000FFF77AFC0FE0498801290CD1C0F8A46226
:1059900011E090F89C32012B08D0022B06D0032B8B
:1059A00004D0FFF744FC2846BDE8F081498801296E
:1059B000F9D1C0F8A422FFF76CFCF4E72DE9F0411F
:1059C0000D46044628780026097910F060000BD0B7
:1059D000202801D040286DD1D4F8B8022946826829
:1059E00020469047064686E06878A8B3012822D072
:1059F00003287CD194F89C02022802D0032876D197
:105A00000BE0002973D0802971D02046FFF795FE66
:105A100080212046FFF791FE6DE0688838B931B1EA
:105A2000802904D0E88810B92046FFF786FE20467A
:105A3000FFF72FFC5FE094F89C020228E1D00328D6
:105A400055D16888A8BB480602D02046FFF7ECFC79
:105A50002046FFF71EFCBFE7FFE794F89C020027F3
:105A6000022802D0032842D111E009B180293ED199
:105A7000080601F07F0000EB800004EB800101D5F7
:105A8000143101E001F5AA7102220F602BE0080633
:105A900001F00F0000EB800004EB80000BD5808C40
:105AA00040B101F07F0000EB800004EB800514356D
:105AB0000CE020E01BE0B0F86401C0B101F07F0011
:105AC00000EB800004EB800505F5AA7541B1802943
:105AD00006D02046FFF78AFD10B10120286000E0C3
