:020000040800F2
:1000000058AC002025040008014F0008DD39000825
:10001000FD4E0008112B0008E374000800000000EA
:100020000000000000000000000000006503000860
:10003000F52B000800000000C103000875580008F7
:100040003F0400083F0400083F0400083F04000884
:100050003F0400083F0400083F0400083F04000874
:100060003F0400083F0400083F0400083F04000864
:100070003F0400083F0400083F0400083F04000854
:100080003F0400083F0400083F0400083F04000844
:10009000757400083F0400083F0400083F0400088E
:1000A0003F0400083F0400083F0400083F04000824
:1000B0003F0400083F0400083F0400083F04000814
:1000C0003F0400083F0400083F0400083F04000804
:1000D0003F040008415D00083F040008ED5D000892
:1000E0003F0400083F0400083F0400083F040008E4
:1000F0003F0400083F0400083F0400083F040008D4
:100100003F0400083F0400083F0400083F040008C3
:100110003F0400083F0400083F0400083F040008B3
:100120003F0400083F0400083F0400083F040008A3
:100130003F0400083F0400083F0400083F04000893
:100140003F0400083F0400083F04000800000000CE
:10015000000000000000000000000000000000009F
:100160000000000000000000000000003F04000844
:100170003F0400083F0400083F0400083F04000853
:100180003F0400083F0400083F0400083F04000843
:100190003F040008000000003F0400083F0400087E
:1001A0003F0400083F0400083F0400083F04000823
:1001B0003F0400083F0400083F0400083F04000813
:1001C0003F0400083F0400083F0400083F04000803
:1001D0003F0400083F04000800F002F800F0B2F805
:1001E0000AA090E8000C82448344AAF10107DA4592
:1001F00001D100F0A7F8AFF2090EBAE80F0013F032
:10020000010F18BFFB1A43F001031847E8930000E1
:10021000089400000A444FF0000C10F8013B13F062
:10022000070408BF10F8014B1D1108BF10F8015B4F
:10023000641E05D010F8016B641E01F8016BF9D142
:1002400013F0080F1EBF10F8014BAD1C0C1B09D199
:100250006D1E58BF01F801CBFAD505E014F8016B0B
:1002600001F8016B6D1EF9D59142D6D3704700009D
:100270000023002400250026103A28BF78C1FBD8AF
:10028000520728BF30C148BF0B6070476E2900F08D
:10029000EF82702900F03984662909F05F806529B2
:1002A00009F05C80672909F05980612909F05880BC
:1002B00003681B0A28BF41F08001692900F09C8275
:1002C000642900F09982752900F096826F2900F068
:1002D000C683782900F00584E92900F06183E429C8
:1002E00000F05E83F52900F05B83EF2900F0C38303
:1002F000F82900F004840368DB0928BF41F080017D
:10030000632901F04581732901F04A81E32901F055
:100310005581F32901F05A81002070471FB509F07B
:1003200010F801F0F7F904000020002108F090FD1A
:10033000401C60600020002108F074FDE0601FBDDB
:1003400010B510BD01F0B8F91146FFF7E7FF07F04F
:10035000D9FA01F0C9FA03B4FFF7F2FF03BC01F0C8
:1003600051FD00002C4B19680868B0E8F04F80F38D
:100370000988BFF36F8F4FF0000080F3118870473A
:100380000000000008480068006880F308884FF00B
:10039000000080F3148862B661B6BFF34F8FBFF3DD
:1003A0006F8F00DF00BF00BF08ED00E0DFF80C003A
:1003B000016841F470010160704700BF88ED00E002
:1003C000EFF30980BFF36F8F134B1A681EF0100F05
:1003D00008BF20ED108A20E9F04F106009B44FF0FB
:1003E000500080F31188BFF34F8FBFF36F8F07F07A
:1003F0005BFF4FF0000080F3118809BC19680868A2
:10040000B0E8F04F1EF0100F08BFB0EC108A80F378
:100410000988BFF36F8F7047B4010020EFF30580A8
:10042000704700000948804709480047FEE7FEE79B
:10043000FEE7FEE7FEE7FEE7FEE7FEE7FEE7FEE794
:1004400004480549054A064B704700007D590008DD
:10045000D901000858A6002058AC002058A8002058
:1004600058A800207CB51D4616460C00009001D00F
:100470002044401E074B7B442A4669460190304683
:1004800000F00FFA05461CB10020694600F01CFA86
:1004900028467CBD59040000401ECAB210F8011F56
:1004A0008A4202D00029F9D10020704710B5431CC0
:1004B00002E010F8011B71B18107FAD14FF001324F
:1004C00002C88C1A8C4314EAC211F9D0C01A0A0669
:1004D00003D0C01E10BDC01A10BD0A0401D0801E7A
:1004E00010BD0902FCD0401E10BD40EA010370B5EA
:1004F0009B072ED14FF00136042A2AD308C810C911
:100500009D1B9D43121F15EAC61517D0D8B2E1B244
:10051000401A50EA056110D198B2A1B2401A50EACF
:1005200005410AD123F07F4024F07F41401A50EA70
:10053000052102D1180EA0EB146070BDA342DBD0E0
:1005400018BA21BA884201D9012070BD4FF0FF309E
:1005500070BD0AB9002070BD10F8013B11F8014BC5
:1005600063B1A3420AD1521E08D010F8013B11F822
:10057000014B1BB1A34201D1521EEDD1181B70BD1E
:10058000032A40F2308010F0030C00F0158011F8BF
:10059000013BBCF1020F624498BF11F801CB00F897
:1005A000013B38BF11F8013BA2F1040298BF00F8EB
:1005B00001CB38BF00F8013B11F0030300F0818349
:1005C000083AC0F0088051F8043B083A51F804CBCF
:1005D000A0E80810F5E7121D5CBF51F8043B40F895
:1005E000043BAFF30080D20724BF11F8013B11F8A0
:1005F00001CB48BF11F8012B24BF00F8013B00F8E4
:1006000001CB48BF00F8012B704702F0FF0343EA1B
:10061000032242EA024200F002B84FF0000204292D
:10062000C0F0128010F0030C00F01B80CCF1040C21
:10063000BCF1020F18BF00F8012BA8BF20F8022B55
:10064000A1EB0C0100F00DB85FEAC17C24BF00F8FB
:10065000012B00F8012B48BF00F8012B70474FF029
:10066000000200B5134694469646203922BFA0E802
:100670000C50A0E80C50B1F12001BFF4F7AF09070E
:1006800028BFA0E80C5048BF0CC05DF804EB8900FF
:1006900028BF40F8042B08BF704748BF20F8022B42
:1006A00011F0804F18BF00F8012B70474FF0013C4C
:1006B00050F8042B51F8043B9A4221D1A2EB0C03D1
:1006C000934313EACC1317D150F8042B51F8043B91
:1006D0009A4215D1A2EB0C03934313EACC130BD12E
:1006E00050F8042B51F8043B9A4209D1A2EB0C03B9
:1006F000934313EACC13DBD04FF00000704700BFE8
:10070000D01A01BAB1FA81F101F0180122FA01F010
:10071000CB40C1F12001DBB2C0B2C01A2CFA01F308
:10072000D11A914311EAC311E6D17047704770475F
:10073000704770B5044685690068C10601D530264A
:1007400000E02026C00707D070BDD4E90121304663
:100750009047206A401C20626D1EF6D570BD70B5B2
:10076000044685690078C00707D170BDD4E901212E
:1007700020209047206A401C20626D1EF6D570BD77
:1007800009684A0501D540B27047C905FCD500B2D9
:10079000704709684A0501D5C0B27047C905FCD544
:1007A00080B2704770B50C460546012A05D02878FE
:1007B000800600D5EA69002302E0012305E05B1C06
:1007C000934202D2E05C0028F9D1A869E618C01A69
:1007D000A861286A184428622846FFF7AAFF04E0A7
:1007E000D5E9012114F8010B9047B442F8D328460B
:1007F000FFF7B5FF70BD00002DE9F041064600246B
:1008000010687529314616A510D0FFF7B9FF0028EA
:1008100002DA404213A507E031688A0701D512A524
:1008200002E0490704D511A5012401E0FFF7B1FF5B
:1008300000210A2206F1240709E0B0FBF2FCB0FB1C
:10084000F2F302FB1C00303078541846491C002893
:10085000F3D123462A463046BDE8F04100F0A8BA5D
:10086000000000002D0000002B0000002000000010
:1008700011680268006A530501D508700AE0D305C3
:1008800001D5088006E0130603D5C217C1E90002AE
:1008900000E008600120704701694A1C0261087885
:1008A000704700B58FB0CDE90131002105910549B0
:1008B0007944CDE903101146684600F031F90FB0D4
:1008C00000BD0000E5FFFFFF0A6802F8010B0A60A7
:1008D0007047D1E900239A4202D2531C0B6010707A
:1008E000704700002DE9FF5F15468A460446DFF891
:1008F000AC80F8440027D8E900103E46CDE900104E
:1009000010E03AF816106A4602A800F0B5FE411C45
:1009100007D02178890603D5E269391891420DD8AC
:100920000744761C2078800602D5E069B84205DDD0
:10093000AE42E6DB3AF816000028E2D1A069C01BFF
:10094000A0612046FFF7F5FED8E90010CDE90010C0
:10095000002017E03AF818106A4602A800F08CFE52
:10096000B0F1FF3F81460BD000250DF1080B05E0EB
:10097000D4E901211BF8050090476D1C4D45F7D3C4
:1009800008F10100B0428046E4DB206A384420626E
:100990002046FFF7E4FEBDE8FF9F0000028C000048
:1009A0002DE9F0418046D21D22F007020025D2E950
:1009B0000002F52915A614D0011E72F1000106DA15
:1009C0000023D0EB030063EB020211A608E0D8F885
:1009D00000108B0701D50FA602E0490701D50EA62E
:1009E00001251146002408F1240704E000F09BF9DA
:1009F00030323A55641C50EA0102F7D12B46324698
:100A000021464046BDE8F04100F0D2B900000000A8
:100A10002D0000002B0000002000000030B4002159
:100A200000F1240408E002F00705D208303542EA5C
:100A30004372DB086554491C52EA0305F3D104688C
:100A4000002310A2250707D5A40600D421B1C4694C
:100A500001230DA2641EC46130BC00F0A9B910B519
:100A6000044621461068FFF794FE02462046BDE882
:100A700010400023D2E7D21D22F00701D1E9002364
:100A8000CCE700000000000030000000F0B40D468C
:100A90000188090502D5214C7C4402E01F4C7C44AE
:100AA0000E34002100F1240608E002F00F071209BD
:100AB000E75D42EA03721B097754491C52EA0307B7
:100AC000F3D102780023120704D5702D06D009B1A6
:100AD000022311342246F0BC00F06AB9012310341D
:100AE000F8E770B504460D4621461068FFF751FE41
:100AF000024629462046BDE870400023C6E7D21DC5
:100B000022F00703D3E90023C0E70368126843F02B
:100B1000200303600823C3610023B7E7648A000051
:100B20002DE9F05F894604464FF0000ADFF874B102
:100B3000FB44C0F820A02046E1688847002874D014
:100B4000252806D0D4E901219047206A401C206264
:100B5000F1E700265F462046E168884720280546E1
:100B600007DB312D05D2781910F8200C08B10643A7
:100B7000F1E7B00701D526F00406C4F81CA0002751
:100B8000C4F818A02A2D09D0284606F044FE38B330
:100B900004EB8708303DC8F8185019E059F8041BD9
:100BA000204604EB87029161E1688847012F0546E2
:100BB00018D1E069002820DA26F020061DE0D8F8D8
:100BC000180000EB800005EB40003038C8F8180032
:100BD0002046E1688847054606F01DFE0028EED154
:100BE000012F0AD02E2D08D12046E16888477F1CAE
:100BF0000546022F46F02006C4DBA069002803DA70
:100C0000404246F00106A061F00701D026F0100630
:100C10006C2D0BD0682D09D04C2D39D06A2D35D0D4
:100C2000742D35D07A2D33D016E038E0E1682F46A8
:100C300020468847B842054609D16C2F26D04FF48C
:100C40008060E168064320468847054604E06C2F33
:100C50001AD04FF4807006430DB3A5F14100192856
:100C600002D8203546F400664A46294620462660CA
:100C70004E46FFF70BFB80B101280BD0F61D26F086
:100C8000070000F1080956E74020E4E78020D8E794
:100C90000020D6E706F104094DE7284652E7206A0E
:100CA000BDE8F09FF48900007CB505460023684646
:100CB000CDE9003300F0ACFC6946284606F098FD0B
:100CC0007CBD10B5203AC0F00B80B1E81850203A36
:100CD000A0E81850B1E81850A0E81850BFF4F5AFDC
:100CE0005FEA027C24BFB1E81850A0E8185044BF66
:100CF00018C918C0BDE810405FEA827C24BF51F8D3
:100D0000043B40F8043B08BF7047D20728BF31F8C6
:100D1000023B48BF11F8012B28BF20F8023B48BF17
:100D200000F8012B704730B5B0F10A024FEA900E7F
:100D300071F100034EEA817EB0EB0E0061EB910190
:100D40004FEA101E4EEA017E10EB0E0041EB11112E
:100D50004FEA102E4EEA016E10EB0E0041EB11210E
:100D60004FEA104E4EEA014E10EB0E0041EB1141DE
:100D7000401841F100014FEAD00040EA41704FEACB
:100D8000D10110EB80054FEA810444EA907444EBF2
:100D900001046D1944EB0404521BA3414FF00003FE
:100DA00048BF0A3200D530BD401C41F1000130BDC2
:100DB0002DE9F0470D4699469246044600F1240875
:100DC0000168880604D5E06921F01001216000E087
:100DD0000120A84201DD471B00E00027A1697A1924
:100DE00002EB0900081AA0612078C00602D4204650
:100DF000FFF79FFC002608E0D4E901211AF806005D
:100E00009047206A401C761C20624E45F4DB207817
:100E1000C0060AD52046FFF78CFC06E0D4E9012184
:100E200030209047206A401C2062381EA7F101073D
:100E3000F4DC07E0D4E9012118F805009047206AA6
:100E4000401C2062281EA5F10105F3DC2046FFF7B7
:100E500086FC2078000602D50220BDE8F08701203C
:100E6000FBE770472DE9FF4F0C461E464FF0FF375A
:100E70008BB0D2E90001DDF860800A908A46C1F3A8
:100E80000A5505B93D46002108464FF00000BAF169
:100E9000000F00F4400005DA00EB80004FF4400141
:100EA00001EA50004FEA9059B9F1010F00DDB9464F
:100EB0000A9850EA4A000ED044F61050A5F2FF35C9
:100EC00045432F14B8F1000F1ED07542291E1EDDB8
:100ED000C9F100021CE0B8F1010F4FF0000001D091
:100EE000302103E0F24305E02154401CB042FBDB1B
:100EF00030460022002121540B99C1F80880C1E935
:100F000000200FB0BDE8F08FBD1B6D1CDEE74A4628
:100F100000DA694206A800F075FC06AB93E807000A
:100F200003AB83E8070050460A9901F0BDF98DE84C
:100F30000700A0F500501F3800900398002D0ADD2F
:100F400042F21F014A460844002303A90390684661
:100F500001F068FC09E0A0F500504A461F38002364
:100F600003A90390684601F087FC8DE807000004A0
:100F7000000C03D04FF0FF30410800E01046B8F1FC
:100F8000000F03D00022009215461EE0751E05D406
:100F9000FFF7C9FE303262556D1EF9D5B346012206
:100FA000084302D000227F1C04E02078302801D1C1
:100FB00000227F1E002A099784D01DE0112D07DA38
:100FC000FFF7B1FE303262556D1C50EA0102F5D1D7
:100FD000084302D00098C8B10EE00021681E05E069
:100FE000235C625C63542254401E491C8142F7DB3F
:100FF000AB46A81B401E0990002004F80B000B987C
:10100000099AC0F80880C0E9002B7AE711264FF052
:10101000000857E72DE9F04F88460446D21D22F01C
:10102000070191B0D1E90001CDE90A0106F0A2FA69
:1010300002460B98C00F01D02D2007E020688107E1
:1010400001D52B2002E0202101EAC000032A0990EB
:1010500001D0072A05DB03464146204600F072FB1B
:101060000BE12078800601D5E06900E00620B8F1A8
:10107000650F814606D0B8F1660F18D0B8F1670F3A
:1010800070D131E00020B9F1110F009001DB112384
:1010900001E009F101030AAA01A90CA8FFF7E2FE89
:1010A000DDE90C70002609F10105834647E00120C7
:1010B0004B4600904FF000470AAA01A90CA8FFF781
:1010C000D1FEDDE90DB00C995D46002610B909F19D
:1010D00001000D18B9EB050003D4C0F1FF3609F18A
:1010E0000105A5EB09002BE0B9F1010F01DA4FF082
:1010F00001090020B9F1110F0090484601DD1123CC
:1011000000E003460AAA01A90CA8FFF7ABFEDDE93F
:101110000C704D4600268346207800070AD4AB4564
:1011200000DA5D4601A8012D04DD411911F8011C0A
:10113000302907D04F4502DA17F1040F04DA0120F5
:1011400082460FE06D1EEEE7002F02DCED1B3E44F1
:1011500003E0781CA84200DD7D1CB81B00F1010AE9
:101160004FF000472078000703D4AA4501DB4FF079
:10117000FF3A0021B7F1004F0DF143088DF84310FD
:1011800024D002202B23002F01DA7F422D230A21B5
:10119000021EA0F1010000DC5FB197FBF1FC97FBA0
:1011A000F1F201FB1C7C17460CF1300C08F801CD64
:1011B000EEE7A8F1010003702188090501D545215A
:1011C00000E06521A0F1010800F8011C09980FA9B1
:1011D000A1EB0807FF1D00B10120411901EBEA70E6
:1011E000A1693844081A401EA0612078C00602D4C4
:1011F0002046FFF79EFA099828B1D4E901219047CB
:10120000206A401C20622078C00622D52046FFF7C5
:1012100090FA1EE0002E04DBB34502DD01A8805DDC
:1012200000E03020D4E901219047206A401C206270
:10123000761CAAF101005FEA000A0AD100F06AFAFE
:10124000C0680168405CD4E901219047206A401CD5
:101250002062281EA5F10105DCDC07E0D4E90121AC
:1012600018F8010B9047206A401C2062381EA7F135
:101270000107F3DC2046FFF772FA032011B041E6C4
:101280002DE9F04F04460D46D21D22F0070089B02B
:10129000D0E900974846394606F06CF90246F80F47
:1012A00001D02D2307E02068810701D52B2302E020
:1012B000202101EAC0038DF820300BB1012000E0AD
:1012C0000020032A824601D0072A04DB2946204653
:1012D00000F038FA3FE12078800601D40D2500E0C7
:1012E000E569C7F30A560D2D49DA00214FEA175B6D
:1012F00008464FF00000002F00F4400007DA00EB32
:1013000080004FF4400100EBD07001EA60008115CD
:10131000012901DD4FF0FF3100224FEA850CBCF1BD
:10132000180F06D31346ACF118004FF08052C2409C
:1013300003E04FF4801323FA0CF30CF10C0CBCF116
:10134000200F04D3ACF1200C09FA0CF001E007FAED
:101350000CF000294FF0004801DD18B90FE00ED164
:1013600040450CD319EB02095F4121B9404502D138
:101370009F4329EA0209BBEB175F00D0761C208847
:10138000000502D57B48784402E07A487844193851
:1013900008AA302302F80A30037C0AF10101002E6A
:1013A0000AF1020A53546A4602DC4FF0300101E0B0
:1013B0004FF031014FF001088DF8001002D0A6F275
:1013C000FF3603E059EA470100D06B4E002D02DCE6
:1013D0002178090704D54FF002082E218DF801105D
:1013E000C44600210BE0C7F303433F01C35C491C23
:1013F0006D1E02F80830052908F1010801DA002DF8
:10140000F1DC00210CE000EB1973491C1B786D1E08
:10141000082902F808304FEA091908F1010801DA31
:10142000002DF0DC21688B0602D516E0A8F101083A
:10143000E04505DD02EB080313F8013C302BF5D045
:10144000B8F1000F09DD02EB080313F8013C2E2B65
:1014500003D1090701D4A8F10108002D05DD3E21C3
:1014600002F808106D1E08F10108407C002E02F8F9
:10147000080008F1010804DA2D20764202F808007D
:1014800002E02B2002F808000A214FF47A7086420D
:1014900008F101080BDB96FBF0F3303302F808305B
:1014A00096FBF0F308F1010800FB136601E0642EDF
:1014B0000CDB642096FBF0F3303302F8083096FB27
:1014C000F0F308F1010800FB136601E00A2E06DBC9
:1014D00096FBF1F0303002F8080008F1010896FBA5
:1014E000F1F001FB1060303002F80800A16908F14A
:1014F000010808EB050202EB0A00081AA061207837
:10150000C00602D42046FFF714F9216A08AE01EBA9
:101510000A00206204E0D4E9012116F8010B90478B
:10152000BAF1010AF7D22078C00602D52046FFF7AB
:1015300000F96E4609E016F8010B3E280FD0D4E9F9
:1015400001219047206A401C2062B8F10108F2D2C4
:101550002046FFF704F909B00320BDE8F08F206AA8
:101560002844206203E0D4E90121302090476D1E19
:10157000EBD3F8E7C281000002FCFFFF10B543691E
:1015800013B1AFF3008001E0FFF70CF9012010BDAB
:10159000127800F124010A7000224A700122EDE75E
:1015A00011684FF0FF32E9E710B5436913B1AFF3AB
:1015B000008001E0FFF796F9012010BD128800F1CC
:1015C000240182840022C2840122EDE711684FF0D9
:1015D000FF32E9E70FB4002300B589B00CA90091F0
:1015E0000B99CB60214B7B440693214B7B440793A3
:1015F00004236FF00042CDE901321E4A7A446B4663
:1016000008920246002007F00DFF09B05DF814FBB8
:1016100070B506464FF0FF3015460C46324686B090
:101620000091CDE9010169460020049004A8FFF76C
:10163000D1FF02460498211825B108B1084600E000
:1016400020462860049800280DD0002A02DD00986A
:10165000884208D03246081B69460094CDE901044F
:1016600004A8FFF7B7FF06B070BD0000DB01000063
:10167000F30100003301000070B516460C46054624
:1016800000F040F8036893F80101012806D0FF2C10
:101690000FD8185D68B101202C7070BDD3F8070118
:1016A0003246214603F2071303442846BDE8704042
:1016B00018474FF0FF3070BD754600F01FF9AE4679
:1016C00005006946534620F00700854618B020B54E
:1016D000FEF7B6FEBDE820404FF000064FF00007D1
:1016E0004FF000084FF0000B21F00701AC46ACE8CA
:1016F000C009ACE8C009ACE8C009ACE8C0098D4637
:101700007047000010B500F005F8001D10BD00BFC7
:10171000417700000048704714A6002010B500F083
:10172000F1F8006810BD10B5044600F0EBF8046055
:1017300010BD10B50446FFF7E5FF0068005D00F03E
:10174000010010BD2DE9F0411F4604460326016843
:10175000072A01F4006004DB08B116A505E016A510
:1017600003E008B115A500E015A521F010002060E8
:10177000A069C01EA0610FB1401EA0612046FEF707
:10178000D8FF4FB1D4E9012138469047206A401C68
:101790002062C01C206206E0206AFAE7D4E9012139
:1017A00015F8010B9047761EF8D22046FEF7D7FFBA
:1017B000BDE8F0814E414E006E616E00494E46001C
:1017C000696E6600426842B1016811F8013B23B1BD
:1017D000521EC0E90012184670470121C160881EE0
:1017E000704742685AB1C368016843B983688B4245
:1017F00005D0491E521CC0E90012002070474FF06E
:10180000FF3070472DE9F047814616468AB03548CB
:1018100078440DC88DE80D0032487844801C03AC34
:101820000DC884E80D0041F69B300844372190FB39
:10183000F1F290FBF1F5A5F1800501FB12041B3CD0
:1018400002D56442012000E00020DFF898A0804625
:101850000027FA44AAF1BE0A0EE0E0070AD0324699
:10186000684607EB470101230AEB810101F004F808
:101870008DE8070064107F1C002CEED1194F7F44C7
:10188000AE3F19E0E80715D007EB04100DF1180A78
:1018900090E80E008AE80E00C068F04201D1981965
:1018A00008903246012306A903A800F0E5FF03AB28
:1018B00083E807006D10641C002DE3D14FF0010395
:1018C00032466946B8F1000F03A802D000F0AAFF23
:1018D00001E000F0D1FFC9E90001C9F808200AB011
:1018E000BDE8F087C87D000010B50446AFF3008066
:1018F0002046BDE81040FEF72EBD000000487047AE
:10190000F4A5002000487047F4A500202DE9FF4F02
:1019100006468BB00878FF2806D0491C2D2805D034
:1019200000244FF0000908E000200CE00124F8E753
:1019300009EB8903491C00EB43090878FF28F7D11C
:1019400014B1C9F100008146107800252C46AA4642
:1019500029462D2801D02B2804D1521C2D2813D024
:10196000002082468B461078FF280FD04FF0000CE5
:101970000A21521CA5FB017804FB018105FB0C1117
:10198000C5194BEB0104EEE70120EAE70021084608
:101990004FF00000BAF1000F02D000EB80004008C9
:1019A000C0F38157012F01DD4FF0FF370E9955EA43
:1019B000040009EB01080BD04FF0020918F5FA7F7B
:1019C00016DA4FEACA70002F706008DD012007E0C8
:1019D0004FEACA70C6E900B00FB0BDE8F08F002032
:1019E0003060FFF78FFFC0F800901821084616E01E
:1019F000B8F5FA7F18DD002F02DAF748784401E0E5
:101A0000F6487844D0E90010C6E9001040EACA70F0
:101A10007060FFF777FFC0F80090142108460FB000
:101A2000BDE8F04F07F097BC002108464FF00000DA
:101A3000B8F10001099002DAC7F1000200E03A466D
:101A400001DAC8F1000106A8FFF7DCFE06AB93E857
:101A5000070003AB83E8070044F23E005BEA0401A1
:101A60000090584604D144F21E012C465D46009178
:101A7000210C0904014306D10099240444EA1544C9
:101A80002D041039009104F07F41014306D10099E3
:101A9000240244EA15642D020839009104F07041D3
:101AA000014306D10099240144EA15742D01091F50
:101AB000009104F04041014306D10099A40044EA9A
:101AC0009574AD00891E009104F00041084304D1D3
:101AD00000986D196441401E00904FF001033A4692
:101AE0006846B8F1000FCDE9014503A902DD00F019
:101AF000D8FE01E000F0ABFEBAF1000F04460D463F
:101B000001D084F00044002108464FF000000999FC
:101B100040F2FF77484010F00C0F07D124F000404E
:101B2000284303D0C4F30A50B84212D1FFF7EAFEAB
:101B3000C0F80090C4F30A50B8420AD1A8487844CB
:101B4000D0E90010C6E9001004F0004108437060BD
:101B500042E7C6E900543FE72DE9FF4F1F464FF02B
:101B6000000A4FF0FF38454691B0D7E90146CDF85D
:101B70003CA0FFF7CFFDC0680168405C1090B969D8
:101B800012986D1C8847396A814688470028F6D12B
:101B9000B9F1FF3F0AD0002E24F4D06411DDB9F171
:101BA0002B0F08D0B9F12D0F0BD102E0404615B034
:101BB00013E744F48064B96912986D1C8847761E57
:101BC0008146600504A901D52D2000E02B20002EC0
:101BD00001F1010B0DF130088DF810003FDDB9F176
:101BE000690F08D0B9F1490F05D0B9F16E0F02D0D5
:101BF000B9F14E0F1CD13B4601A8009580E8500278
:101C0000DDE912126FF0020007F010FCC11CCED10A
:101C10000EE0B96912986D1C884781461398761EAC
:101C200044F4007405600F98401C002E0F9016DDE0
:101C3000B9F1300FEDD0B9F1780F02D0B9F1580FEA
:101C40000DD10F9801280AD13B46CDE90054DDE9BA
:101C50001212001F029607F0E7FBC11CA7D11099D2
:101C600089453ED144F0800406E01399681CAAF12E
:101C7000010A44F400740860B9696D1C1298761E5C
:101C8000884730288146F0D02BE01099894505D14E
:101C9000200603D4761E44F0800418E0484605F080
:101CA000BAFD08B3761E0DF123018B4544F4007490
:101CB00008D2A9F130000BF8010B200607D5AAF1D4
:101CC000010003E0200602D40AF101008246A005CB
:101CD00002D51399681C0860B96912986D1C884771
:101CE0008146002ED1DC53E0002E51DDB9F1650FA5
:101CF00002D0B9F1450F4BD1A00549D5B9696D1C8A
:101D00001298761E24F440748847002E81460CDD1C
:101D10002B2804D0B9F12D0F07D144F48074B96990
:101D200012986D1C8847761E8146E00501D52D214D
:101D300000E02B2108F8011BCDF8008021E0761E81
:101D40000DF13901884544F400740CD2A9F130003A
:101D500010F0FF0088F8000002D10099884509D9E9
:101D600008F1010806E0E00501D51E4801E042F255
:101D70000F708246B96912986D1C88478146139886
:101D80000560002E04DD484605F045FD0028D6D14B
:101D9000F96912988847FF2053468BF8000088F8AD
:101DA000000000200A900B9004AA0CA90AA8FFF7D3
:101DB000ADFDA00502D46FF00100F8E614F0240F89
:101DC00012D0E0071CD13868DDE90A12031D3B6020
:101DD0000068C0E9001213E01C7C00000E7C0000CB
:101DE000D27A0000F1D8FFFF0AA9684605F000FD8D
:101DF000E00705D13868009A011D3960006802606B
:101E00002846D4E601491820ABBEFEE726000200B2
:101E10002DE9FF4F1F464FF03C0987B04FF00042BD
:101E2000DDE9141001F10108DDF858A002EA405084
:101E30000390002005908346054604460490B96946
:101E4000461E08988847AAF1010A0290BAF1000FCD
:101E50003BDD02982E2815D0102100F017FA00283B
:101E60002EDB4FF0010B0599014317D0B9F1000F9C
:101E70000BDB4A46C11700F0F6F905430C43A9F104
:101E8000040905E0012004900BE008B145F00105CC
:101E900001200590049820B9361D02E0049800B195
:101EA000361FB969089808F101088847BBF1000F8F
:101EB000AAF1010A0290C9D00999C1F80080C5E7CA
:101EC0000298702808D0502806D0F96908988847E9
:101ED000BBF1000F14D04FE0002002900120BBF1B5
:101EE000000F049009D0B969089808F101088847E3
:101EF000AAF10109B9F1000F07DCF96908988847D0
:101F00006FF001000BB0BDE8F08F2B2804D02D2816
:101F10000CD14FF0FF300490B969089808F101081E
:101F20008847A9F10109B9F1000FE6DD411CE4D0B1
:101F30000A2100F0ABF90028DFDB029908F1010863
:101F400001EB810100EB41000290B96908988847D4
:101F50000A2100F09BF9099AA9F10109B9F1000FD2
:101F6000C2F8008001DD0028E7DAF969089888479F
:101F70000499029800FB016655EA040004D004F0BD
:101F80004041090002D006E0039898E0A40044EA2A
:101F90009574AD00B61E04F00041080002D16D1921
:101FA0006441761E159810F0240F03D04FF00B09F2
:101FB0005C4803E04FF028096FF07D0082465645EB
:101FC00007DAAAEB06018944B9F1410F01DD4FF0B0
:101FD000410901200021A9F1010200F044F9024663
:101FE00028400B462140084301D0012100E0002198
:101FF000501E029143F1FF3128402140084301D097
:10200000012000E000200299834651EA0B014FD0E5
:10201000002108464FF00000039900F4400039B158
:1020200000EB80004FF4400100EBD07001EA60004B
:102030008015012802DD4FF0FF3000E013D0401C76
:1020400036D0029860B3BBF1000F0CD14A46012094
:10205000002100F008F928402140084301D0012068
:1020600000E00020E0B101204A46002100F0FBF82A
:10207000034640190A4661412D1A8C4111D3B9F12A
:10208000400F09DD159810F0240F02D0AAF1340694
:1020900003E0AAF1170600E0761C00254FF000448B
:1020A00006E05B1E42F1FF3220EA030521EA02044A
:1020B000CAF10100B04206DA1B49039808430190B7
:1020C000002000900EE0039AC4F3D321E80A0A43EB
:1020D000164940EA44500A433146CDE900026846B9
:1020E00005F08FFB159810F0240F0BD01598C00742
:1020F00015D13868DDE90012031D3B600068C0E9B6
:1021000000120CE002A8694605F072FB1598C007A2
:1021100005D13868029A011D3960006802604046A6
:10212000F0E6000002FCFFFF0000F07F0000F03F3F
:102130002DE9FF4F92461D4685B04FF00041DDE985
:10214000124BDDE914727F1E01EA4B50414940F009
:10215000FF4940EA0108002122F0200049280491AB
:1021600002D04E2828D04CE03BA0012607C88DE8BD
:102170000700A9690698641C88477F1E014606D49B
:102180001DF8060018B121F0200181420BD0E96949
:1021900006988847032E34D0082E32D06FF0010005
:1021A00009B0BDE8F08F761C032E01D0082EE0D1D7
:1021B000601CCAF80000DCE7A9690698641C88471F
:1021C0007F1E2AD420F02000412826D1A969069834
:1021D000641C88477F1E20D420F020004E281CD18C
:1021E000A9690698641C88477F1E48F4002849F4B2
:1021F0008009CAF8004001D4282806D0E969069869
:1022000088475FEACB7012D022E0A9690698641C67
:1022100088477F1E01D4002803DAE96906988847B9
:10222000BCE72928F1D1641CCAF80040E9E71BF09B
:10223000240F07D028680499031D2B600068C0E9AB
:10224000001805E02868021D2A600068C0F80090A8
:102250002046A5E70000F07F494E46494E495459B3
:10226000000000007047B2F120030AD5C2F120033C
:1022700001FA02F120FA03F300FA02F041EA030145
:10228000704700FA03F14FF0000070473A2800D27F
:10229000303820F02002412A01D3A2F137008842D1
:1022A00001D34FF0FF3070475FEA400C08BF91F058
:1022B000000F4FEA8C234FEAC12243EA51514FEA03
:1022C0001C5018BF00F5F0404FEA300018BF41F035
:1022D00000415FEA6C5C00F02980BCF1FF3F08BF61
:1022E00040F080407047130C06BF12044FF0100CF2
:1022F0004FF0000C130E04BF12020CF1080C130F68
:1023000004BF12010CF1040C930F04BF92000CF1F6
:10231000020CD30F04BF52000CF1010C11464FF018
:102320000002A0F11F00A0EB0C00704711F0004F5D
:1023300008BF704731F000413FF4D5AF0B0C06BF2A
:1023400009044FF0100C4FF0000C0B0E04BF0902F3
:102350000CF1080C0B0F04BF09010CF1040C8B0FDE
:1023600004BF89000CF1020CCB0F04BF49000CF133
:10237000010CCCF12003A0EB0C0022FA03F302FACB
:102380000CF241EA030100F10100704720F07F4C9C
:1023900080EA030023F07F47ACEB070303F57C538F
:1023A00000F0004003F1FF032DE980494FEA154B8F
:1023B00009B44FEA144325EA0B4E24EA03480FF20E
:1023C000042606EB132749083E785FEA320203FB36
:1023D0000667C7F5000707FB06F64FEA54374FEAD2
:1023E000D64606F1020607FB066CCCF1005C4FEA0C
:1023F0001C472CEA074C07FB06F40CFB06F504EB24
:1024000015464FEA961634BF00204FF000404FEAC1
:10241000D13706FB07FC4FEA1C4C0CFB0BF7D21B19
:1024200003FB0CF761EB07010CFB0EF7B0EB074069
:1024300072EB17420CFB08F734BFA2EB0742B2EB7A
:10244000074261EB17414FEA0C444FEA910706FB44
:1024500007FC4FEA1C4C0CFB0BF7B0EBC74072EBD0
:10246000573203FB0CF734BFA2EBC742B2EBC742B3
:1024700061EB57310CFB0EF7B0EBC70072EB5772F4
:102480000CFB08F734BFA2EBC702B2EBC70261EB4B
:102490005771039F4FEA816141EA921104EBCC042A
:1024A0004FEAD1374FEA826206FB07FC42EA9012FC
:1024B0004FEA80604FEA1C4C0CFB0BF7D21B03FB6E
:1024C0000CF761EB07010CFB0EF7B0EB074072EB6A
:1024D00017420CFB08F734BFA2EB0742B2EB0742EE
:1024E00061EB17414FEA8C554FEA910704EB9C24AE
:1024F00006FB07FC4FEA1C4C0CFB0BF7B0EBC7408C
:1025000072EB573203FB0CF734BFA2EBC742B2EBBE
:10251000C74261EB57310CFB0EF7B0EBC70072EB13
:1025200057720CFB08F734BFA2EBC702B2EBC7022D
:1025300061EB577115EB4C254FEA816141EA92112D
:102540004FEA82624FEAD13742EA901206FB07FC5B
:1025500044F100044FEA80604FEA1C4C0CFB0BF77F
:10256000D21B03FB0CF761EB07010CFB0EF7B0EB82
:10257000074072EB17420CFB08F734BFA2EB07428F
:10258000B2EB074261EB174115EB1C154FEA8131A5
:1025900041EA92414FEA823242EA90424FEA803069
:1025A0004FEA0C7644F1000448EA03434EEA0B4834
:1025B0004FF0000EB2EB080C71EB030724BF62462C
:1025C00039464EEB0E0E4FF0000B001852414941B8
:1025D0004BEB0B0BB2EB080C71EB03077BF1000B21
:1025E00024BF624639464EEB0E0E4FF0000B00182A
:1025F000524149414BEB0B0BB2EB080C71EB03075B
:102600007BF1000B24BF624639464EEB0E0E51EAB9
:10261000020718BF46F0010616EB0E7655F10002D0
:1026200054F1000103D5BDE88901BDE80088BDE88B
:102630008901BDE80048B619524141EB0101A3F1FF
:102640000103704780807F7E7D7C7B7A7978777606
:1026500076757473727171706F6E6E6D6C6C6B6A7F
:102660006A6968686766666564646363626161601D
:10267000605F5F5E5E5D5D5C5C5B5B5A5A5959589A
:102680005857575656555555545453535252525104
:10269000515050504F4F4F4E4E4D4D4D4C4C4C4B5A
:1026A0004B4B4A4A4A4949494848484747474746A1
:1026B00046464545454444444443434343424242DD
:1026C0004241414146EA0646A3F570534FEA164699
:1026D00046EA42564FEAD22242EA415210B54FEA48
:1026E000D121A3F1010300F02FF820F0004000F108
:1026F000020C00F0004701EB00501146BCF5006FE2
:1027000040EA070000D210BDBAF1000F0AD01CB594
:1027100003B44FF004004FF004014FF000000FBC71
:10272000BDE810404FF00001BBF1010FB9BF0448F4
:102730004FF0FF310348002140EA070010BD00BF01
:10274000FFFFEF7F0000F07F002B9C4630D4770026
:102750002BD01CB54FEA370703B44FF010004FF0F1
:102760001001BAF1000F06D0BCF1000FDCBF40F041
:10277000080040F008014FF000000FBCBDE8104019
:102780000BF1010BBBF1010F08BF5FEA170722BF76
:1027900012F1010211F101014FF0004143F1000378
:1027A00000F0004043EA00007047F9D35708D0E733
:1027B00046EA064613F1400F4FEA16461FDD13F1B5
:1027C000200FDFBF16430A46002120335B42BED0F4
:1027D000C3F1200746EA064602FA07F74FEA164613
:1027E00046EA0706C3F1200722FA03F201FA07F7C7
:1027F00021FA03F14FF0000342EA0702A7E746EA95
:10280000020646EA06464FEA164646EA0106BCBFFD
:1028100046EA0646360C4FF000034FF000024FF038
:10282000000194E72DE9804C9A46934670B491E8F4
:10283000380007C831EA400C48BF34EA430C03D5DE
:10284000FFF7A4FDFFF780FFF0BCBDE8008C2DE989
:10285000804C9A46934670B491E8380007C831EA34
:10286000400C48BF34EA430C03D5FFF78FFDFFF758
:1028700029FFF0BCBDE8008C2DE9804C9A469346B8
:1028800070B491E8380007C810F0804F08BF13F00B
:10289000804F03D100F01AF8FFF756FFF0BCBDE8F7
:1028A000008C2DE9804C9A46934670B491E838002C
:1028B00007C810F0804F08BF13F0804F03D100F01D
:1028C00005F8FFF7FFFEF0BCBDE8008C20F07F4765
:1028D00080EA030023F07F4C07EB0C03A3F57C5345
:1028E00000F00040A3F1FE0392F0000F00F0B3806F
:1028F00095F0000F00F077802DE901494FEA114073
:102900004FEA144621EA004800FB06FC24EA064789
:1029100008FB06F607FB08F800FB07F718EB06486C
:102920004CEB164C4FEA124B18EB07484FEA154692
:102930004CEB174022EA0B4E0BFB06FC25EA064740
:102940000EFB06F607FB0EFE0BFB07F71EEB064E13
:102950004CEB164C4FF000061EEB074E4CEB174BA2
:1029600018EB0B0840F1000018EB0E0B58EB0008B9
:1029700040F100008F1A4FF000013CBFC943661BB5
:1029800014BFB5EB040C00213CBFC943F61B4FEA52
:1029900017444EEA8E0E27EA04454FEA1C4704FB13
:1029A00007622CEA074C05FB07F70CFB05F604FB56
:1029B0000CFC16EB074642EB174216EB0C4642EBBB
:1029C0001C421BEB060658EB0202414146EA9E06FA
:1029D00001D5BDE80189B619524141EB0101A3F1CE
:1029E0000103BDE801894FEA14454FEA114724EA83
:1029F000054621EA074C05FB07F406FB07F70CFB2D
:102A000006F105FB0CFC11EB074144EB17444FEAC0
:102A1000124711EB0C4144EB1C4422EA074C05FB26
:102A200007F206FB07F70CFB06F605FB0CFC16EBA2
:102A3000074642EB174216EB0C4642EB1C456A1860
:102A400054F1000148BF7047B619524141EB0101F2
:102A5000A3F10103704795F0000F37D04FEA114200
:102A60004FEA144721EA024624EA074C02FB07F129
:102A700006FB07F70CFB06F402FB0CFC14EB074407
:102A800041EB17414FEA154714EB0C4441EB1C4155
:102A900025EA074C02FB07F506FB07F70CFB06F6D9
:102AA00002FB0CFC16EB074645EB174516EB0C46F4
:102AB00045EB1C42121951F1000148BF7047B6198D
:102AC000524141EB0101A3F1010370474FEA144564
:102AD0004FEA114724EA054621EA074C05FB07F1B6
:102AE00006FB07F70CFB06F24FF0000605FB0CFC9B
:102AF00012EB074241EB174112EB0C4251EB1C4128
:102B000048BF7047921841EB0101A3F101037047E0
:102B1000FEE70020704700207047000010B500223B
:102B20000449054803F029FB0449034803F01CFB52
:102B3000002010BDE413002014070020E40B002047
:102B400010B50146034803F00FFB024803F0D4FA26
:102B5000002010BD14070020002070471CB5002184
:102B60000320CDE900010B464FF4806209A10B4818
:102B700005F0CCFE0A490128086006D009A004F03F
:102B800051FEBDE81C4000F083B8BDE81C400BA01E
:102B900004F048BE436F6D6D0000000031830008F3
:102BA0000C020020436F6D6D207461736B206372A3
:102BB00065617465204661696C656400436F6D6D85
:102BC000207461736B206372656174652053756353
:102BD000636573730000000010B580210348FDF7A2
:102BE0003EFD03490020087010BD000074A50020C0
:102BF00010020020704700001CB500210220CDE922
:102C000000010B4642020AA10C4805F07FFE0C4968
:102C10000128086006D00BA004F004FEBDE81C40AB
:102C200000F036B8BDE81C400DA004F0FBBD00006C
:102C30005561727450726F63000000005183000888
:102C40000C0200204465627567207461736B206319
:102C50007265617465204661696C656400000000FE
:102C60004465627567207461736B2063726561747B
:102C7000652053756363657373000000014601A00E
:102C800004F0D0BD4572726F723A202573000000C7
:102C900072B602A004F0C6FDFBE70000537973741E
:102CA000656D204572726F720D0A000010B5002428
:102CB000032000F073F80F2000F008F808B1012499
:102CC00001E000F025F8204610BD000070B50E4E62
:102CD00005460024706898B14FF47A71B1FBF0F0AA
:102CE0000A490968B1FBF0F000F070FD40B9102D01
:102CF00006D200222946501E00F030F8356000E070
:102D00000124204670BD00006800002074000020EF
:102D10000A4882B0016E41F001010166016E01F0C6
:102D200001010091816D41F080518165806D00F05D
:102D30008050009002B000F041BD00000010024041
:102D4000002809DB00F01F020121914040098000AA
:102D500000F1E020C0F8001170470000F0B40E4B05
:102D60001B680C46C3F30223C3F10705042D00D9E9
:102D70000425191D072901D2002300E0DB1E0126CE
:102D800006FA05F1491E214099409E40761E1640E4
:102D90003143F0BC04F006BC0CED00E0064900F045
:102DA000070208684FF6FF03184040EA0220034A72
:102DB00010430860704700000CED00E00000FA05C9
:102DC00001220168C0F8D022002280F8C82231F820
:102DD000540F40F001000880088840F0020008808D
:102DE0001046704770B50F4D044669B101290AD1EC
:102DF000D4F8D80203F0DBFC607A002803D02868FE
:102E000040F00600286070BD607A28B102F048FDED
:102E1000286820F006002860D4F8D802BDE8704089
:102E200003F05DBC10ED00E010B50C0607D501F015
:102E3000070101EB810100EBC100103005E001EB5F
:102E4000810100EBC10000F5A87099B232B10122F6
:102E500002730181190C4181002010BD0022027310
:102E6000C180F9E701EB810200EBC202D0F8D80281
:102E7000526A03F013BB01EB810200EBC202D0F8EF
:102E8000D802D2F8642103F05DBB70B504460B068E
:102E900001F0070000EB800104EBC1014FF00102DB
:102EA0004FF0000502D54A74103103E081F851510A
:102EB00001F5A871087094F89002012808D084F8F0
:102EC0009022206804F025F884F89052002070BD0C
:102ED000022070BD70B5044601F00F0022799042C7
:102EE00001D9012070BD0B0601F0070000EB800145
:102EF00004EBC1014FF001024FF0000502D54A7406
:102F0000103103E081F8515101F5A8718D700870FE
:102F100094F89002012808D084F89022206804F0E8
:102F200097F884F89052002070BD022070BD2DE902
:102F3000F04704685FEA42480B788D69B4F8508026
:102F40004FF0000C4BF68F7748F2800648F68F79E9
:102F500048F2C00A444428D540F2024808EBC308AE
:102F600034F80840C4F30904A54203D32D1B8D6136
:102F700002D00BE0C1F818C0D0F800C03CF82350D4
:102F80003D4085F4005535432CF82350520609D5B1
:102F90000B78056835F8232002EA090242EA0A02A2
:102FA00025F8232074B30A8927E040F2064808EB8D
:102FB000C30834F80840C4F30904A54203D32D1B09
:102FC0008D6102D00BE0C1F818C0D0F800C03CF809
:102FD00023503D4085F4005535432CF823505206CC
:102FE00009D40D78036833F8252002EA090242EA81
:102FF0000A0223F825202CB14A8949690068234632
:1030000004F041FA2046BDE8F0872DE9F05F05465F
:1030100000680C465FEA42681646D1F818C022786C
:10302000B0F8508048F6BF7A48F2800B48F68F77A8
:103030004CF280094FF6FF734FF4004E4FF0000141
:1030400040447DD540F2024808EBC20830F8080041
:10305000C0F30900844514D9BCEB000CC4F818C0B7
:1030600010D0760408D5D5F800C03CF822603E4068
:1030700046EA09062CF8226094F82420012A60D040
:1030800076E1A161607810B1012813D01AE02868B8
:10309000B0F85030184400EBC200B0F80224C2F37C
:1030A0000902A0F80224B0F8022442F40042A0F879
:1030B000022407E02868B0F85030184400EBC20042
:1030C000A0F802146278286812B1012A11D018E021
:1030D000B0F850100844217800EBC100B0F8061495
:1030E000C1F30901A0F80614B0F8061441F4004138
:1030F00005E0B0F850201044227800EBC200A0F8A0
:103100000614E07802280BD12278296831F82200D1
:1031100000EA0A0080F0200040EA0B0021F82200BB
:1031200021782846FFF79EFE700408D521782A688A
:1031300032F82100384040EA090022F82100C3E0BB
:103140004DE0626902446261E2690244E26126691B
:10315000226AB24202D33046111A03E084F82410E6
:103160000AB110462162617811B101292BD033E0F8
:103170002968B1F850201144227801EBC201B1F85E
:103180000224C2F30902A1F8022401F2024158B15B
:103190003E280ED84208C60700D0521C0E8803EA0B
:1031A000822216430E8017E00A8842F400420A8009
:1031B00012E04209C30600D1521E0B884EEA822259
:1031C00013430B8008E02968B1F85020114422789D
:1031D00001EBC201A1F8020483B22289C4E040F2EB
:1031E000064808EBC20830F80800C0F3090084451F
:1031F00014D3BCEB000CC4F818C010D0760408D46B
:10320000D5F800C03CF822603E4046EA09062CF89A
:10321000226094F82420012A59D0A9E0A1616078A5
:1032200010B1012813D01AE02868B0F850301844C3
:1032300000EBC200B0F80224C2F30902A0F8022495
:10324000B0F8022442F40042A0F8022407E0286803
:10325000B0F85030184400EBC200A0F802146278B5
:10326000286812B1012A11D018E0B0F850100844B3
:10327000217800EBC100B0F80614C1F30901A0F8F1
:103280000614B0F8061441F4004105E0B0F85020EF
:103290001044227800EBC200A0F80614E07802285F
:1032A0000BD121782A6832F8210000EA0A0080F068
:1032B000200040EA0B0022F8210021782846FFF781
:1032C000D1FD70047FF532AF0020BDE8F09F626948
:1032D00002446261E2690244E2612669226AB24202
:1032E00003D33046111A216204E00AB1104621626C
:1032F00084F824106278296812B1012A2AD031E0BA
:10330000B1F850201144227801EBC201B1F8062433
:10331000C2F30902A1F8062401F2064158B13E2881
:103320000ED84208C60700D0521C0E8803EA82223B
:1033300016430E8016E00A8842F400420A8011E02B
:103340004209C30600D1521E0B884EEA8222134363
:103350000B8007E0B1F850201144227801EBC20144
:10336000A1F80604628983B26169286804F0A6F8AE
:103370002278296831F8220000EA0A0080F0300043
:1033800040EA0B0021F822009EE701F0070101EB63
:10339000810100EBC100D0F86C0170472DE9F041CC
:1033A00004460F0601F0070000EB800104EBC101A9
:1033B0004FF001064FF0000502D54E74103103E0C6
:1033C00081F8515101F5A871022B0870C2F30A006F
:1033D0000861CB7000D10D7194F89002012809D0DA
:1033E00084F89062206803F0DFFB284684F890524E
:1033F000BDE8F0810220FBE710B501F0070404EB03
:10340000840100EBC101C1E959230022C1F86C21FC
:1034100081F8512181F85041006801F5A87103F04D
:1034200069FE002010BD70B5044601F00700227946
:10343000904201D9012070BD0B064FF000054FF0FE
:10344000010206D500EB800104EBC1014A74103182
:1034500007E001EB810104EBC10181F8515101F555
:10346000A8718A70087094F89002012808D084F836
:103470009022206803F024FE84F89052002070BD52
:10348000022070BD10B501F0070404EB840100EBCD
:10349000C101C1E90923012281F834200B63002313
:1034A000CB624A7401F8104F006803F023FE00203D
:1034B00010BD10B50446006803F0E2FF010404D516
:1034C0002046BDE8104001F01CBD41050ED5206826
:1034D00030F8441F21F480610180204600F000F99B
:1034E0002046BDE81040002100F026B9410405D572
:1034F000206830F8441F21F480417DE0810405D527
:10350000206830F8441F21F4005175E0C1041FD534
:10351000206830F8401F21F004010180206830F855
:10352000401F21F00801018094F8C802012806D14B
:10353000002084F8C80201462046FFF753FC2046CD
:1035400000F0E2F8206830F8441F21F4805153E085
:10355000010512D5206830F8401F41F008010180B4
:10356000206830F8441F21F400610180206830F8A1
:10357000401F41F0040101800AE0010629D52068BE
:1035800030F8441F21F08001018094F8C80218B17E
:10359000204600F001F910BD206830F8401F41F0CE
:1035A00004010180206830F8401F41F008010180CB
:1035B000012084F8C8022068B0F854003C2101EAD8
:1035C0009000C4F8CC022046BDE810400121FFF76E
:1035D00009BC810509D5206830F8441F21F4007129
:1035E0000180204600F0A4F810BDC005FCD520687D
:1035F00030F8441F21F48071018010BD70B50400C3
:1036000004D094F89102002510B106E0012070BDAD
:1036100084F89052204600F03FF8032084F891028D
:10362000206803F00DFD002001260BE000EB800177
:1036300004EBC1014E740874CD740D624D62401CE0
:10364000C0B28D6221798142F0D8002012E000BF23
:1036500000EB800104EBC10181F8515181F8500168
:1036600081F85351C1F86051C1F86451401CC0B297
:10367000C1F8685121798142EAD894E8070003F043
:10368000D6FC257384F89162A07A012802D12046E5
:10369000FFF796FB002070BD08B500680E49884210
:1036A00018D10E4850F8881F21F0406140F83019B9
:1036B000016841F4000101600068002200F400008C
:1036C000009011461420FFF749FBBDE80840142084
:1036D000FFF736BB08BD0000005C00400010024050
:1036E00070B5044640790125022801D0FFF7D0FAD1
:1036F0002946D4F8D80203F00CF8D4F8D802BDE873
:10370000704002F0BFBF000010B50446407A30B1EF
:103710000648016821F00601016002F0C1F8D4F802
:10372000D802BDE8104002F0DABF000010ED00E062
:10373000D0F8D80202F0DDBF10B5044690F8900230
:1037400001280AD0012084F890022173206803F038
:10375000AEFE002084F8900210BD022010BDD0F80B
:10376000D82200F52671104602F0DFBF10B50446DE
:1037700090F8900201280CD0012084F89002206873
:1037800003F06FFE206803F04BFC002084F89002E9
:1037900010BD022010BD000010B50446D0F8D802BC
:1037A00003F005F8607A002804D00348016841F06E
:1037B0000601016010BD000010ED00E002488168C4
:1037C00041F48041816070470070004010B5401E98
:1037D000B0F1807F01D3012010BD4FF0E024606183
:1037E0000F21601703F0DEFE0020A061072020619A
:1037F000002010BD38B504000BD0694603F0C8FFA7
:103800000098A04201D0007828B10AA004F00AF87C
:1038100038BD0FA0FAE7154880ED010A10EE100A36
:1038200005F01EFD41EC100B11A053EC102B03F022
:10383000F9FF38BD5365744441435F413A20696ED6
:1038400076616C696420706172616D657465720087
:103850005365744441435F413A206D697373696EE7
:103860006720706172616D657465720068A50020E3
:103870005365744441435F412075706461746564AD
:1038800020746F3A20252E346600000038B50400FD
:103890000BD0694603F07CFF0098A04201D000786D
:1038A00028B10AA003F0BEFF38BD0FA0FAE7154803
:1038B00080ED020A10EE100A05F0D2FC41EC100B6C
:1038C00011A053EC102B03F0ADFF38BD53657444C9
:1038D00041435F423A20696E76616C696420706191
:1038E00072616D65746572005365744441435F4253
:1038F0003A206D697373696E6720706172616D65DE
:103900007465720068A500205365744441435F42AA
:10391000207570646174656420746F3A20252E34BC
:103920006600000010B504000DD00AA1FCF7BEFE31
:1039300058B10BA12046FCF7B9FE40B10AA0BDE882
:10394000104003F06FBF10A0F9E717A0F7E71DA024
:10395000F5E7000053687574446F776E000000004F
:103960004F70656E000000005365744761746865B0
:10397000723A20696E76616C696420706172616D63
:103980006574657200000000536574476174686572
:10399000723A206D697373696E6720706172616D30
:1039A0006574657200000000536574476174686552
:1039B000723A2044657669636520536875742044C3
:1039C0006F776E005365744761746865723A20447E
:1039D0006576696365204F70656E0000FEE7000044
:1039E0000B494CF6CC420A6045F255520A6003225C
:1039F0004A60B0F5805F01D340F6FF70C0F30B0062
:103A00008860C8684007FCD14AF6AA200860704761
:103A100000300040174900BF51E8000F40F020007F
:103A200041E80002002AF7D113480068C0F30220E1
:103A3000C0F10701042900D90421021D072A01D27F
:103A4000002000E0C01E012202FA01F35B1E03F019
:103A5000030181408240521E02F00100014308012F
:103A6000064981F80004054980202339C1F8000186
:103A700070470000004800400CED00E027E000E047
:103A80001D4800BF50E8001F41F0200140E800132E
:103A9000002BF7D150E8001F41F0400140E800132F
:103AA000002BF7D115490968C1F30221C1F10702C2
:103AB000042A00D904220B1D072B01D2002100E0AB
:103AC000C91E012393405B1E03F002028A401101CC
:103AD0000B4A82F800140A4A2021213AC2F8001148
:103AE00010F1080050E8001F41F0010140E8001209
:103AF000002AF7D170470000003801400CED00E0CB
:103B000025E000E010B500F06DF8FFF765F801F072
:103B10003BFCBDE8104001A003F084BE4170702062
:103B2000496E697420537563636573730000000008
:103B300010B5FFF7BBF802F06BF801F069FF00F079
:103B4000A5FD00F0C7FE01F0B5F801F0ADF900F0F9
:103B500059FE00F0BFFF01F033F800F025FF04A08C
:103B600003F060FEBDE810400AA003F05BBE000059
:103B70000D0A5B76657273696F6E5D485220434E25
:103B80004320504F57455220535550504C592056C2
:103B9000312E3000486172647761726520496E6928
:103BA000742053756363657373000000F0B50023E0
:103BB0000A24302537261F4611E000BFB4EB107FE2
:103BC00002D905EB107C01E006EB107C01F813C074
:103BD00001EB430C00015B1C8CF80170DBB29342DB
:103BE000ECD3F0BD2DE9F04100240C4F0C4D2646DE
:103BF00007EBC400818857F8340000F052F904EB59
:103C000084025119A85448708E70CE70A85C641C50
:103C10000871062CECDBBDE8F0810000C8940008B8
:103C2000F69A002070B5144E144C002506EBC50022
:103C3000818856F8350000F034F905EB8502C0B2F2
:103C4000A15C81420DD11119CB785B1CDBB2CB702A
:103C5000052B0AD30B79834207D0087101238B709F
:103C600003E000211319A054D97011196D1C48707C
:103C7000062DDBDB70BD0000C8940008F69A00201A
:103C80001CB500210220CDE900010B4680220AA1CB
:103C90000A4804F03BFE0A490128086006D009A042
:103CA00003F0C0FDBDE81C40FEF7F2BFBDE81C40BC
:103CB0000AA003F0B7BD00004B657900277F00081C
:103CC0000C0200204B6579207461736B2063726570
:103CD000617465204661696C656400004B657920FC
:103CE0007461736B206372656174652053756363DF
:103CF00065737300044908B5CA6C0243CA64C96C91
:103D00000140009108BD000000100240044908B5C0
:103D1000CA6C0243CA64C96C0140009108BD00002E
:103D200000100240044908B5CA6C0243CA64C96C59
:103D30000140009108BD000000100240044908B590
:103D4000CA6C0243CA64C96C0140009108BD0000FE
:103D500000100240044908B58A6D02438A65896DE6
:103D60000140009108BD000000100240F0B50A6853
:103D70000F2692FAA2F2B2FA82F303248AE0012516
:103D80009D402A407ED04D68012D01D0022D20D1CA
:103D90008D68876892FAA2FCBCFA8CFC4FEA4C0E44
:103DA00004FA0EFC27EA0C0792FAA2FCBCFA8CFC7F
:103DB0004FEA4C0C05FA0CF52F438760CF680D686D
:103DC000D0F804C02CEA050C7D434CEA050CC0F881
:103DD00004C00F69D0F80CC092FAA2F5B5FA85F5C7
:103DE0004FEA450E04FA0EF52CEA050C92FAA2F5FC
:103DF000B5FA85F56D00AF404CEA070CC0F80CC071
:103E00004D68022D2FD1FF2A15D8D1F814C0056AAC
:103E100092FAA2F7B7FA87F7BF0006FA07F7BD4391
:103E200092FAA2F7B7FA87F7BF000CFA07FC45EA47
:103E30000C05056217E0D1F814E0476A150A95FAF7
:103E4000A5FCBCFA8CFC4FEA8C0C06FA0CFC95FA2B
:103E5000A5F5B5FA85F5AD0027EA0C070EFA05FEC3
:103E600047EA0E0747624D68076892FAA2FCBCFA5F
:103E70008CFC4FEA4C0C04FA0CFE27EA0E0792FA6F
:103E8000A2F200E005E0B2FA82F2520095402F4320
:103E900007605B1C0A6832FA03F57FF470AF0020FC
:103EA000F0BD0069814301D00020704701207047B8
:103EB00030B5C1F3090102F400621143DDE9035496
:103EC000DAB241EA024129432143426821F000412C
:103ED0004FF4806303EA5453034C03F6FF33234348
:103EE0009A430A43426030BD0070FF0310B5026878
:103EF00022F001020260D1E90232046843EA0222A0
:103F000024F4F854144304604A680261026842F0E1
:103F100001020260826822F4004282608B690A69B1
:103F200084681A436FF30A04144384600A691AB15F
:103F3000826842F4004282600A68036823F44013F6
:103F4000134303604969426822F400420A43426015
:103F5000002010BD70B500241F49204D4FF40046CD
:103F6000C02803D0B0F5407F1CD019E0D1F88800FC
:103F700000F0C00040F440004038B0F5400027D0C9
:103F8000402804D080281CD106E0044608E000F058
:103F900083F828B12C4603E000F086F800B13446DF
:103FA000204670BDD1F888000D4900F4407040F003
:103FB000407040180CD0B0F5807FE8D0B0F5007F9D
:103FC000EAD001F0B1F901F07FF901F08DF9DCE7F9
:103FD00001F0AAF9D9E70000001002400024F40023
:103FE00000FFFFFC70B5002429492A4D4FF400461C
:103FF000032804D00C281AD030282FD040E0D1F864
:1040000088006FF4403100F0030040F44030401865
:104010000AD0012836D002282ED001F085F901F00F
:1040200053F901F071F917E001F07EF914E0D1F8CD
:10403000880000F00C0040F44020001FB0F5402044
:10404000F2D004281ED0082816D000BF01F06CF969
:1040500001F03AF901F048F9044611E0D1F888007E
:1040600000F0300040F440101038B0F54010DBD0C4
:10407000102807D02028E9D100F016F800B1344606
:10408000204670BD00F008F80028F9D02C46F7E76C
:10409000001002400024F40002480068C0F38020B1
:1040A00070470000001002400248D0F89000C0F3B2
:1040B000400070470010024003498A6822F0F00275
:1040C00002438A607047000000100240044951F822
:1040D000882F22EA104280B202430A607047000033
:1040E0000010024010B503680122C3F3801373BBB4
:1040F000D1E900231A43D1E9033423431A434B691E
:104100001A438B691A43CB691A430B6A1A43036833
:104110004FF6BF74A3431A430260426840F604732B
:104120009A434B6942EA13428B681A4342608A6899
:10413000B2F5006F03D2426842F4805242600A6ACC
:10414000B2F5005F02D1898C89B201610022C16998
:1041500021F40061C161104610BD000001490860F2
:10416000704700007400002010B5012925D00429F3
:1041700025D0102925D0402925D0B1F5807F24D025
:10418000B1F5806F23D0B1F5805F22D0B1F5804FBB
:1041900021D0B1F5803F20D00921114B18305B5C54
:1041A000184403680E4C0A34615C03248C40120CE2
:1041B000A3438A401343036010BD0021EDE70121B2
:1041C000EBE70221E9E70321E7E70421E5E7052121
:1041D000E3E70621E1E70721DFE70821DDE700004B
:1041E0006094000810B5012925D0042925D0102994
:1041F00025D0402925D0B1F5807F24D0B1F5806F3E
:1042000023D0B1F5805F22D0B1F5804F21D0B1F538
:10421000803F20D00921114B18305B5C18440368A3
:104220000E4C0A34615CF0248C40120CA3438A408B
:104230001343036010BD0021EDE70121EBE70221EC
:10424000E9E70321E7E70421E5E70521E3E70621A4
:10425000E1E70721DFE70821DDE7000060940008BF
:1042600010B501291FD004291FD010291FD04029C3
:104270001FD0B1F5807F1ED0B1F5806F1DD0B1F594
:10428000805F1CD0B1F5804F1BD0B1F5803F1AD0B4
:104290000921036A0D4C615C0A248C40A3438A40C7
:1042A0001343036210BD0021F3E70121F1E702216E
:1042B000EFE70321EDE70421EBE70521E9E706211C
:1042C000E7E70721E5E70821E3E700007494000829
:1042D00010B5012925D0042925D0102925D0402941
:1042E00025D0B1F5807F24D0B1F5806F23D0B1F512
:1042F000805F22D0B1F5804F21D0B1F5803F20D032
:104300000921114B18305B5C184403680E4C0A34C9
:10431000615C0C248C40120CA3438A40134303605D
:1043200010BD0021EDE70121EBE70221E9E70321C0
:10433000E7E70421E5E70521E3E70621E1E70721B7
:10434000DFE70821DDE70000609400082DE9F04F69
:1043500002682A4B2A4E2B4FDFF8ACC02B4C2C4D59
:104360004FF0804B98420BD0584509D0B04207D04F
:10437000B84205D0604503D0A04201D0A84205D183
:10438000D1F8048022F0700242EA0802DFF884804B
:10439000DFF88490DFF884A0984211D058450FD000
:1043A000B0420DD0B8420BD0604509D0A04207D032
:1043B000404505D0484503D0504501D0A84203D11F
:1043C000CE6822F44072324302608A68C2620A8870
:1043D0008262984209D0A04207D0404505D04845A6
:1043E00003D0504501D0A84201D109690163416958
:1043F00041F0010141610020BDE8F08F002C014037
:104400000004004000080040000C0040003401405F
:10441000005001400040014000440140004801407C
:104420002DE9F041044600680D46012610F0010F09
:1044300052D12969A868EA690843696911430843A8
:1044400021682E4A114008432060E868616821F421
:10445000405101436160A869A16821F440710143A2
:10446000A1602748844201D1032008E02548844206
:1044700001D10C2003E02448844203D13020FFF70F
:10448000B1FD0BE02148844201D1C02004E0204866
:1044900084421AD14FF44070FFF75CFDA8B16968FF
:1044A00099B12A680026EB690B2A0ED8194FD2B2AF
:1044B000B3F5004F57F82220B0FBF2F00FD000EB1D
:1044C0005100B0FBF1F080B2E0602888E16A80B270
:1044D00021F00F010143E1623046BDE8F081400068
:1044E00000EB5100B0FBF1F081B24FF6F07201EA3F
:1044F0000200C1F342010843E6E70000F369FFEF61
:10450000003801400044004000480040004C00409A
:10451000005000408094000810F1080050E8002F7F
:1045200022F0606242EA416240E80023002BF5D1AC
:104530007047000010F1080050E8002F61F35F722F
:1045400040E80023002BF7D1704700002DE9FC4123
:104550004FF4FA750026134F4FF4A078124C16E072
:1045600000231A4641462046CDE90067FFF7A0FC2C
:10457000A069C0F3001078B1E06940F01000E0617C
:10458000606840F480406060012003F0A3FD6D1E70
:10459000E6D20220BDE8FC81606840F480406060A3
:1045A0000020F7E70020008000540040F0B58BB0F9
:1045B00015460F460446B0F5005F0AD24DB1202DD6
:1045C00007D8E00605D16009400161192030884212
:1045D00002D203200BB0F0BDFFF7B8FF0028F9D1DD
:1045E000200A8DF808008DF80940002002AE04E092
:1045F000395C3218401C917080B2A842F8D31E4C2E
:104600000A20A16911F0010F0ED088B31B49AB1C21
:104610000803CDE9000100224FF4A0712046FFF706
:1046200047FC0021AD1C0BE0401EEAD2EEE7A26978
:10463000C2F3400272B1D8B1705CA062491C89B269
:10464000A9424FF00A00F2D3A169C1F3401121B190
:1046500070B104E0401EEAD2EEE7401EF4D2E069F9
:1046600040F02000E061052003F034FD0020B1E7B8
:10467000FFE70220AEE70000005400400020008069
:1046800013B5012201A9FFF791FF1CBD2DE9F04FE1
:1046900087B018216846FBF7E2FF0420FFF72AFBEA
:1046A0002020FFF727FB0120FFF724FB0220FFF764
:1046B00021FB4FF090470420B8610820B8614F4EAD
:1046C0000420B0628002B0624FF40059C6F828900E
:1046D0000820B0611020B8610120B0610024CDE94C
:1046E0000094474D694628460494FFF73FFB4FF47A
:1046F0008040CDE90004694628460494FFF736FB64
:104700007001CDE90004694628460494FFF72EFBAA
:104710004FF0040A01254FF00208CDE90284CDE9EB
:1047200000A5694638460494FFF720FB0820CDE930
:104730000005CDE90284694604943846FFF716FB6C
:104740001020CDE90005CDE902846946049438467D
:10475000FFF70CFB4FF0400BCDE900B4694638463B
:104760000494FFF703FB0095CDE9015403946946D7
:1047700030460494FFF7FAFACDE9008469463046E2
:104780000494FFF7F3FACDF800A0CDE901540394A7
:10479000694630460494FFF7E9FA28030090CDE912
:1047A00001540394694630460494FFF7DFFACDF8CC
:1047B0000090CDE901540394694630460494FFF714
:1047C000D5FA2802CDE90004694638460494FFF77B
:1047D000CDFA08200090CDE9015403946946304693
:1047E0000494FFF7C3FACDE900B469463046049457
:1047F000FFF7BCFA07B0BDE8F08F000000040048E6
:1048000000080048F0B58FB01C2106A8FBF727FF71
:1048100018216846FBF723FF2A480168002421F489
:10482000405101600120FFF771FA0220FFF76EFA94
:104830004FF400400226CDE9000601250427CDE90A
:104840000457CDE9024569464FF09040FFF78EFAD4
:104850008020CDE90006CDE90457CDE9024569463F
:104860001948FFF783FA17488838816D41F4001121
:104870008165806D099400F400100D901348089430
:10488000CDE906400A940B940C94114C06A92046DD
:10489000FFF72CFB606840F000706060E06840F259
:1048A000FE718843E060E06820F40040E06020682A
:1048B00020F400202060206820F4003020600FB039
:1048C000F0BD00008810024000040048C285B240DC
:1048D000005400402DE9F04192B0282106A8FBF7D2
:1048E000BEFE18216846FBF7BAFE2D48016E41F462
:1048F00080510166016E01F480511091C16C41F04C
:104900000101C164C06C022500F00100109020205C
:104910000024CDE9000503260527CDE90264CDE991
:1049200004474FF0904869464046FFF71FFA802041
:10493000CDE90005CDE90264CDE90447694640466A
:10494000FFF714FA174E3068C0F3801018B13068C2
:1049500020F0400030604FF4404006904FF48270E9
:1049600007904FF4E060CDE9080501200A9040026D
:10497000CDE90B0407200F9006A90D943046FFF7F0
:10498000B1FB706820F010007060706820F00800C3
:104990007060306840F04000306012B0BDE8F081D7
:1049A00000100240003001402DE9F0418CB014218C
:1049B00006A8FBF754FE18216846FBF750FE3F4857
:1049C0004FF48038016E41F480310166006E00F4CE
:1049D00080300B900220FFF7A5F94FF48040009043
:1049E00002250024CDE901540126354FCDE90446C6
:1049F000694638460394FFF7B9F9A8030090CDE95A
:104A00000154CDE90446694638460394FFF7AEF9F0
:104A1000ADF818404FF6FF70CDE9074009940A94AD
:104A2000284C06A92046FFF791FC206820F0800062
:104A30002060A06824490840A060A068234908407D
:104A400040F00700A060E06820F04000E060E0680F
:104A500020F48040E06060681D4908406060A06804
:104A600020F08000A060424601212046FFF77CFB39
:104A7000002201212046FFF72BFC002201212046C5
:104A8000FFF7B0FB002201212046FFF7E9FB424679
:104A900010212046FFF768FB002210212046FFF777
:104AA00017FC002210212046FFF79CFB002210215A
:104AB0002046FFF7D5FB0CB0BDE8F08100100240A6
:104AC00000040048004001408FFFCFFFF8BFFEFF09
:104AD0008FFFFFFDF0B58BB0142106A8FBF7BFFDDB
:104AE00018216846FBF7BBFD0120FFF733F90120D1
:104AF000FFF718F90125022600240095CDE901648D
:104B00004FF09047694638460394CDE90445FFF7D6
:104B10002DF90096CDE90164694638460394CDE944
:104B20000445FFF723F9ADF81840601ECDE90740B2
:104B30000994AC0706A92046FFF708FC206820F07E
:104B400080002060A0681C49084040F00100A0607F
:104B5000A5132A4601212046FFF706FB002201216A
:104B60002046FFF7B5FB002201212046FFF73AFB64
:104B7000002201212046FFF773FB2A461021204620
:104B8000FFF7F2FA002210212046FFF7A1FB0022D6
:104B900010212046FFF726FB002210212046FFF7B8
:104BA0005FFB6068054908406060A06820F08000F5
:104BB000A0600BB0F0BD0000F8FFFEFF8FFFFFFD0F
:104BC00070B58CB0142106A8FBF749FD1821684682
:104BD000FBF745FD0220FFF7BDF80220FFF7A2F822
:104BE0001020009002250024CDE901542D4E694685
:104BF00030460394CDE90445FFF7B8F82020009033
:104C0000CDE90154694630460394CDE90445FFF7E8
:104C1000ADF8ADF818404FF6FF70CDE907400994A4
:104C2000214C06A92046FFF791FB206820F0800068
:104C30002060A0681D49084040F00100A060A51355
:104C40002A4601212046FFF78FFA00220121204643
:104C5000FFF73EFB002201212046FFF7C3FA0022A6
:104C600001212046FFF7FCFA2A4610212046FFF7D3
:104C70007BFA002210212046FFF72AFB0022102198
:104C80002046FFF7AFFA002210212046FFF7E8FA8E
:104C90006068074908406060A06820F08000A0605C
:104CA0000CB070BD0004004800040040F8FFFEFF97
:104CB0008FFFFFFD2DE9F04190B0202106A8FBF702
:104CC000CEFC18216846FBF7CAFC4FF44030FFF7D2
:104CD000FDF93948016E41F480410166006E00F42F
:104CE00080400E900120FFF729F84FF40070022653
:104CF000CDE9000602AA032000240125072782E847
:104D0000B1004FF0904869464046FFF72FF8A802DF
:104D10000090CDE9016403AA694682E8B0004046EC
:104D2000FFF724F825480068C0F30220011D072979
:104D300001D2002000E0C01E04FA00F10801204961
:104D400081F800041E4920202139C1F800014FF4E8
:104D5000E130CDE906400C20CDE90A4008940994E1
:104D60000C940D94174C06A92046FFF759FB00211F
:104D70002046FFF7DFFB00212046FFF7CDFB206830
:104D800020F000502060606820F490406060A068CF
:104D900020F02A00A060206840F001002060E06957
:104DA000C0F340500028FAD0E069C0F380500028DA
:104DB000F5D010B0BDE8F081001002400CED00E02D
:104DC00025E000E000380140F0B58FB0202106A8B2
:104DD000FBF745FC18216846FBF741FC4FF44010F7
:104DE000FFF774F92D48816D41F480218165806D54
:104DF00000F480200E900220FEF7A0FF4FF48060A8
:104E00000225CDE9000500240320CDE90204072690
:104E1000234FCDE9044669463846FEF7A7FFA802AE
:104E20000090CDE90154CDE9044669463846039423
:104E3000FEF79CFF4FF4E130CDE906400C20CDE9B0
:104E40000A40089409940C940D94164C06A9204627
:104E5000FFF7E6FA00212046FFF76CFB0021204611
:104E6000FFF75AFB206820F000502060606820F4B3
:104E700090406060A06820F02A00A060206840F0A8
:104E800001002060E069C0F340500028FAD0E069DA
:104E9000C0F380500028F5D00FB0F0BD00100240E4
:104EA000000400480048004010B500220F49104897
:104EB00001F0CFFA08B1FDF7EBFE0E490C4801F006
:104EC0009EFC08B1FDF7E4FE0B49094801F028F902
:104ED00008B1FDF7DDFE064801F00CFD002803D007
:104EE000BDE81040FDF7D4BE10BD0000000000205A
:104EF000140700205401002054000020FEE77047F2
:104F0000FEE72DE9F84F044640F68F7A40F2064B53
:104F100048F60F784FF000098BE1B0F8441011F01B
:104F20000F053AD030F8256031047DD530F82510D2
:104F300001EA0A0141F0800120F8251005EB850007
:104F400004EBC00797F85C0107F5A87700286CD040
:104F5000F87802286AD03978226832F8210048F6B9
:104F60008F73184048F2C003184322F821003878A4
:104F7000D4F800C03CF820104904BCF8501001EBF4
:104F80000C027ED540F2024101EBC000105A8005B0
:104F9000800D009076D03A89A7E0C9062AD401880E
:104FA00001EA080141F400410180206804F1100584
:104FB000B0F85010227C014440F2024000EBC200E5
:104FC000085AC0F30900E062616A08446062002187
:104FD0002046FDF747FF207B00289DD0A8690028C8
:104FE0009AD1207B40F080012068A0F84C1084F812
:104FF0000C901EE1018804F5A8750A051ED5B0F8CD
:1050000050100A1829780BEBC100105A04F52671CC
:10501000C0F30903EB61EA88206802F034FA2168E2
:10502000088800EA0A0002E07BE03FE04EE040F042
:10503000800008802046FEF792FBFAE00904D8D5EC
:10504000018801EA0A0141F0800101802068B0F87E
:1050500050102A7808440BEBC201405A83059B0D7F
:10506000EB610DD0696959B1EA88206802F00BFA4A
:10507000E96968690844686100212046FDF7FBFE84
:1050800001E02AE028E0206801880A050DD4C1F378
:105090000131032909D001884BF68F72114081F448
:1050A000405148F2800211430180C2E02068B0F80C
:1050B00050103B780A180BEBC301515A8905890D32
:1050C000009117D0FA887969009B11E03246394681
:1050D0002046FDF72CFF00900CE00BEBC000105AAF
:1050E0008005800D009005D07A8903466046796975
:1050F00002F0C9F9F96900980844F86178690099E3
:1051000008447861B86918B139690098814204D9B6
:1051100039782046FDF7AFFE03E03946206801F0FC
:10512000E9FF30062DD505EB850004EBC0012068B2
:1051300030F8252002EA080242F4004220F8252037
:10514000C87C103101281DD0F0056ED42068B0F85D
:10515000502013180A7840F2024000EBC200185A9F
:105160008A69C0F30900824258D9121A8A6157D05D
:105170004A6902444A61CA691044C861206801F062
:10518000B9FF56E0C1F818900A7B48461AB3720678
:1051900022D54A7812B1012A14D041E02068B0F833
:1051A000502010440A7800EBC200B0F80224C2F389
:1051B0000902A0F80224B0F8022442F40042A0F848
:1051C00002242DE02268B2F850301A440B7802EB2A
:1051D000C302A2F8020423E04B78226813B1012B2A
:1051E00013D01DE0B2F8500010440A7800EBC20062
:1051F000B0F80624C2F30902A0F80624B0F8062489
:1052000042F40042A0F806240AE0B2F850301A44F2
:105210000B7802EBC302A2F8060401E0C1F8189073
:1052200009782046FDF71EFE03E032462046FDF7D2
:10523000ECFE2068B0F8441009043FF56EAE002083
:10524000BDE8F88F2DE9F04705002ED0287800281A
:105250002BD00024DFF85880164E12E058F8347036
:105260003846FBF723F98146024639462846FBF7C4
:105270003CF920B915F809003A280CD058B1641C43
:10528000E4B230788442E9D3716800290DD00AA0D5
:10529000BDE8F047084728463A21FBF7FDF800B182
:1052A000401C08EBC4014968F2E7BDE8F087000044
:1052B00074A5002010020020556E6B6E6F776E2073
:1052C000636F6D6D616E640005498968054A01F080
:1052D000F0010909515C01F01F01C840704700004E
:1052E00000100240B094000805498968054A01F49D
:1052F000E06102EB1121097801F01F01C8407047FD
:1053000000100240C094000805498968054A01F46C
:10531000605102EBD121097801F01F01C8407047AC
:1053200000100240C09400081549886800F00C0382
:105330001448042B0DD04210082B09D00C2B08D197
:10534000CB6803F00303022B05D0032B03D101E04C
:10535000104670471046CA68C2F306224243C86826
:10536000C96800F0F003012000EB1313B2FBF3F265
:1053700001F0C06100EB51604000B2FBF0F07047FB
:10538000001002400024F40010B5074907A000F007
:1053900023F8094909A000F01FF8BDE810400A49A8
:1053A0000AA000F019B80000F537000853657444EE
:1053B00041435F41000000008D380008536574448C
:1053C00041435F42000000002539000853657447DF
:1053D00061746865720000002DE9F041164C0646C4
:1053E0000F462078102805D227B11EB10025DFF81E
:1053F0004C800DE06168002915D011A019E000BFB4
:1054000058F835003146FBF751F970B16D1CEDB21B
:1054100020788542F4D3C0B208EBC00148F8306070
:10542000401C4F602070BDE8F08161680029FAD00F
:105430000AA0BDE8F04108471002002074A5002032
:10544000436F6D6D616E642072656769737472611C
:1054500074696F6E206661696C656400436F6D6D81
:10546000616E6420616C726561647920657869732E
:10547000747300000CB50221CDE900010021EF2377
:1054800040F23F12084600F001F80CBDF8B5141ABE
:10549000DDE906575E1A641C761C74432E0AEDB2D1
:1054A000009700F0F3F84FF0904310209862082026
:1054B000986112498868C0F340000028FAD00020A3
:1054C000621E10E00E73904204D28F68C7F340074B
:1054D000002FF8D00D73904204D28F68C7F34007B5
:1054E000002FF8D0401CA042ECD38868C0F3C01055
:1054F0000028FAD110209861F8BD0000003001406A
:1055000010B54FF0904488B00420A061012002F053
:10551000E1FD0420A0620A2002F0DCFD0420A0616D
:10552000782002F0D7FD1020A062112000F01EF9B3
:10553000782002F0CFFD362000F018F9702000F03E
:1055400047F93A2000F012F9552000F041F90A20FD
:1055500002F0C0FDB22000F009F90C2000F038F98B
:105560000C2000F035F9002000F032F9332000F073
:105570002FF9332000F02CF9B72000F0F7F8752050
:1055800000F026F9C22000F0F1F8012000F020F927
:10559000C32000F0EBF8162000F01AF9C42000F048
:1055A000E5F8202000F014F9C62000F0DFF80F2005
:1055B00000F00EF9D02000F0D9F8A42000F008F98E
:1055C000A12000F005F9D62000F0D0F8A12000F0CD
:1055D000FFF8BB2000F0CAF83B2000F0F9F8E0200B
:1055E00000F0C4F818A10FC98DE80F000E2168461D
:1055F00000F0C8F8E12000F0B9F817A30DF1100C85
:105600000FCB8CE80F000E2104A800F0BBF8E420BB
:1056100000F0ACF8252000F0DBF8002000F0D8F80E
:10562000002000F0D5F8292000F0A0F82C2000F090
:105630009DF80A2002F04EFD0B49012088621020DF
:10564000A06108B010BD0000F00B110E0D1936332B
:105650004B0714142C2E0000F00D120B09033244DA
:10566000483916162D3000000004004806498A68A3
:10567000C2F34002002AFAD008738868C0F3C01051
:105680000028FAD170470000003001407CB54FF08F
:1056900090451024AC620824AC62334CA668C6F373
:1056A0004006002EFAD02A262673A668C6F3C01636
:1056B000002EFAD10826AE61060A8DF800608DF83A
:1056C0000100100A8DF802008DF8032000206E46BC
:1056D000A268C2F34002002AFAD0325C2273401C56
:1056E0000428F5D3A068C0F3C0100028FAD1082020
:1056F000A862A068C0F340000028FAD02B202073D5
:10570000A068C0F3C0100028FAD10820A861080AD8
:105710008DF804008DF80510180A8DF806008DF834
:105720000730002001AAA168C1F340010029FAD086
:10573000115C2173401C0428F5D3A068C0F3C0108D
:105740000028FAD10820A862A068C0F34000002811
:10575000FAD02C202073A068C0F3C0100028FAD122
:105760001020A8617CBD00000030014010B54FF052
:1057700090441021A1620821A162FFF777FF102059
:10578000A06110BD70B54FF090441022A2620822B3
:10579000A2610E4B9A68C2F34002002AFAD000229E
:1057A0004D1E09E0865C1E73AA4204D29E68C6F3B1
:1057B0004006002EFAD0521C8A42F3D39868C0F3F8
:1057C000C0100028FAD11020A06170BD0030014047
:1057D00010B54FF090441021A1620821A161FFF79C
:1057E00045FF1020A06110BD0178407841EA0020FB
:1057F000704700001CB500210220CDE900010B46D6
:1058000080220AA10B4803F081F80B4901280860A7
:1058100006D00AA002F006F8BDE81C40FDF738BA31
:10582000BDE81C400CA001F0FDBF000053746F7276
:1058300061676500718000080C02002053746F726C
:10584000616765207461736B2063726561746520A4
:105850004661696C6564000053746F72616765200E
:105860007461736B20637265617465205375636343
:105870006573730010B5502080F31188BFF34F8F0C
:10588000BFF36F8F03F070F818B104494FF08050E8
:105890000860002080F3118810BD000004ED00E0D6
:1058A00038B53148016821F00F0141F00401016071
:1058B000016801F00F010429FAD12C4850F8801F2B
:1058C00021F4807101602A4C206840F4803020600F
:1058D0002068C0F340400028FAD0D4F8980040F087
:1058E0000100C4F8980000BFD4F89800C0F340004D
:1058F0000028F9D0E16845F213501E4A11400843D0
:10590000E060E06840F08070E060206840F0807007
:1059100020602068C0F340600028FAD0A06840F002
:105920000300A0608020FEF7C7FBA06800F00C0019
:105930000C28FAD155200090401E0090FCD1FEF7B3
:10594000BBFBA06820F4E060A060A06820F4605079
:10595000A0600948FEF702FC0F20FDF7B7F9002808
:1059600001D0FDF795F938BD0020024000700040DD
:10597000001002400C80FFF980FE210A02480168F5
:1059800041F470010160704788ED00E01CB5002112
:105990000120CDE900010B4682020AA10A4802F06B
:1059A000B5FF0A490128086006D009A001F03AFFB6
:1059B000BDE81C40FDF76CB9BDE81C400AA001F031
:1059C00031BF000054465400A58000080C0200209E
:1059D000544654207461736B206372656174652052
:1059E0004661696C65640000544654207461736BB1
:1059F000206372656174652053756363657373001A
:105A0000002804D00178002901D0FFF71BBC7047A3
:105A100010B5FFF74FF9FEF733F840F6522108486A
:105A2000FAF7FBFD012002F051FD0649002848600D
:105A300004D1BDE8104004A001F0F4BE10BD000088
:105A4000149B0020FC0100204D7574657820637262
:105A500065617465206661696C6564002DE9F041DB
:105A60000027264D264C2CE002F08AFAB4F80208F2
:105A7000265CB4F80208401CC0F30A00A4F802082F
:105A800002F09EFA287820B1012808D0022818D107
:105A90001FE0AA2E15D184F84A7A01200EE094F86E
:105AA0004A0A40280CD21749465494F84A0A401C26
:105AB000C0B284F84A0A062803D10220287000E008
:105AC0002F70B4F80008B4F802188842CCD1BDE8B1
:105AD000F081552EF4D10B4E0A3ED6F80A00F06440
